{
  "contractName": "BosonRouter",
  "abi": [
    {
      "inputs": [
        {
          "internalType": "address",
          "name": "_voucherKernel",
          "type": "address"
        },
        {
          "internalType": "address",
          "name": "_tokensContractAddress",
          "type": "address"
        },
        {
          "internalType": "address",
          "name": "_fundLimitsOracle",
          "type": "address"
        },
        {
          "internalType": "address",
          "name": "_cashierAddress",
          "type": "address"
        }
      ],
      "stateMutability": "nonpayable",
      "type": "constructor"
    },
    {
      "anonymous": false,
      "inputs": [
        {
          "indexed": true,
          "internalType": "uint256",
          "name": "_tokenIdSupply",
          "type": "uint256"
        },
        {
          "indexed": false,
          "internalType": "address",
          "name": "_seller",
          "type": "address"
        },
        {
          "indexed": false,
          "internalType": "uint256",
          "name": "_quantity",
          "type": "uint256"
        },
        {
          "indexed": false,
          "internalType": "uint8",
          "name": "_paymentType",
          "type": "uint8"
        }
      ],
      "name": "LogOrderCreated",
      "type": "event"
    },
    {
      "anonymous": false,
      "inputs": [
        {
          "indexed": false,
          "internalType": "address",
          "name": "_newTokenContract",
          "type": "address"
        },
        {
          "indexed": false,
          "internalType": "address",
          "name": "_triggeredBy",
          "type": "address"
        }
      ],
      "name": "LogTokenContractSet",
      "type": "event"
    },
    {
      "anonymous": false,
      "inputs": [
        {
          "indexed": true,
          "internalType": "address",
          "name": "previousOwner",
          "type": "address"
        },
        {
          "indexed": true,
          "internalType": "address",
          "name": "newOwner",
          "type": "address"
        }
      ],
      "name": "OwnershipTransferred",
      "type": "event"
    },
    {
      "anonymous": false,
      "inputs": [
        {
          "indexed": false,
          "internalType": "address",
          "name": "account",
          "type": "address"
        }
      ],
      "name": "Paused",
      "type": "event"
    },
    {
      "anonymous": false,
      "inputs": [
        {
          "indexed": false,
          "internalType": "address",
          "name": "account",
          "type": "address"
        }
      ],
      "name": "Unpaused",
      "type": "event"
    },
    {
      "inputs": [],
      "name": "cashierAddress",
      "outputs": [
        {
          "internalType": "address",
          "name": "",
          "type": "address"
        }
      ],
      "stateMutability": "view",
      "type": "function"
    },
    {
      "inputs": [],
      "name": "fundLimitsOracle",
      "outputs": [
        {
          "internalType": "address",
          "name": "",
          "type": "address"
        }
      ],
      "stateMutability": "view",
      "type": "function"
    },
    {
      "inputs": [],
      "name": "owner",
      "outputs": [
        {
          "internalType": "address",
          "name": "",
          "type": "address"
        }
      ],
      "stateMutability": "view",
      "type": "function"
    },
    {
      "inputs": [],
      "name": "paused",
      "outputs": [
        {
          "internalType": "bool",
          "name": "",
          "type": "bool"
        }
      ],
      "stateMutability": "view",
      "type": "function"
    },
    {
      "inputs": [],
      "name": "renounceOwnership",
      "outputs": [],
      "stateMutability": "nonpayable",
      "type": "function"
    },
    {
      "inputs": [],
      "name": "tokensContractAddress",
      "outputs": [
        {
          "internalType": "address",
          "name": "",
          "type": "address"
        }
      ],
      "stateMutability": "view",
      "type": "function"
    },
    {
      "inputs": [
        {
          "internalType": "address",
          "name": "newOwner",
          "type": "address"
        }
      ],
      "name": "transferOwnership",
      "outputs": [],
      "stateMutability": "nonpayable",
      "type": "function"
    },
    {
      "inputs": [],
      "name": "voucherKernel",
      "outputs": [
        {
          "internalType": "address",
          "name": "",
          "type": "address"
        }
      ],
      "stateMutability": "view",
      "type": "function"
    },
    {
      "inputs": [],
      "name": "pause",
      "outputs": [],
      "stateMutability": "nonpayable",
      "type": "function"
    },
    {
      "inputs": [],
      "name": "unpause",
      "outputs": [],
      "stateMutability": "nonpayable",
      "type": "function"
    },
    {
      "inputs": [
        {
          "internalType": "uint256[]",
          "name": "metadata",
          "type": "uint256[]"
        }
      ],
      "name": "requestCreateOrderETHETH",
      "outputs": [],
      "stateMutability": "payable",
      "type": "function"
    },
    {
      "inputs": [
        {
          "internalType": "address",
          "name": "_tokenPriceAddress",
          "type": "address"
        },
        {
          "internalType": "address",
          "name": "_tokenDepositAddress",
          "type": "address"
        },
        {
          "internalType": "uint256",
          "name": "_tokensSent",
          "type": "uint256"
        },
        {
          "internalType": "uint256",
          "name": "deadline",
          "type": "uint256"
        },
        {
          "internalType": "uint8",
          "name": "v",
          "type": "uint8"
        },
        {
          "internalType": "bytes32",
          "name": "r",
          "type": "bytes32"
        },
        {
          "internalType": "bytes32",
          "name": "s",
          "type": "bytes32"
        },
        {
          "internalType": "uint256[]",
          "name": "metadata",
          "type": "uint256[]"
        }
      ],
      "name": "requestCreateOrderTKNTKNWithPermit",
      "outputs": [],
      "stateMutability": "nonpayable",
      "type": "function"
    },
    {
      "inputs": [
        {
          "internalType": "address",
          "name": "_tokenDepositAddress",
          "type": "address"
        },
        {
          "internalType": "uint256",
          "name": "_tokensSent",
          "type": "uint256"
        },
        {
          "internalType": "uint256",
          "name": "deadline",
          "type": "uint256"
        },
        {
          "internalType": "uint8",
          "name": "v",
          "type": "uint8"
        },
        {
          "internalType": "bytes32",
          "name": "r",
          "type": "bytes32"
        },
        {
          "internalType": "bytes32",
          "name": "s",
          "type": "bytes32"
        },
        {
          "internalType": "uint256[]",
          "name": "metadata",
          "type": "uint256[]"
        }
      ],
      "name": "requestCreateOrderETHTKNWithPermit",
      "outputs": [],
      "stateMutability": "nonpayable",
      "type": "function"
    },
    {
      "inputs": [
        {
          "internalType": "address",
          "name": "_tokenPriceAddress",
          "type": "address"
        },
        {
          "internalType": "uint256[]",
          "name": "metadata",
          "type": "uint256[]"
        }
      ],
      "name": "requestCreateOrderTKNETH",
      "outputs": [],
      "stateMutability": "payable",
      "type": "function"
    },
    {
      "inputs": [
        {
          "internalType": "uint256",
          "name": "_tokenIdSupply",
          "type": "uint256"
        },
        {
          "internalType": "address",
          "name": "_issuer",
          "type": "address"
        }
      ],
      "name": "requestVoucherETHETH",
      "outputs": [],
      "stateMutability": "payable",
      "type": "function"
    },
    {
      "inputs": [
        {
          "internalType": "uint256",
          "name": "_tokenIdSupply",
          "type": "uint256"
        },
        {
          "internalType": "address",
          "name": "_issuer",
          "type": "address"
        },
        {
          "internalType": "uint256",
          "name": "_tokensSent",
          "type": "uint256"
        },
        {
          "internalType": "uint256",
          "name": "deadline",
          "type": "uint256"
        },
        {
          "internalType": "uint8",
          "name": "vPrice",
          "type": "uint8"
        },
        {
          "internalType": "bytes32",
          "name": "rPrice",
          "type": "bytes32"
        },
        {
          "internalType": "bytes32",
          "name": "sPrice",
          "type": "bytes32"
        },
        {
          "internalType": "uint8",
          "name": "vDeposit",
          "type": "uint8"
        },
        {
          "internalType": "bytes32",
          "name": "rDeposit",
          "type": "bytes32"
        },
        {
          "internalType": "bytes32",
          "name": "sDeposit",
          "type": "bytes32"
        }
      ],
      "name": "requestVoucherTKNTKNWithPermit",
      "outputs": [],
      "stateMutability": "nonpayable",
      "type": "function"
    },
    {
      "inputs": [
        {
          "internalType": "uint256",
          "name": "_tokenIdSupply",
          "type": "uint256"
        },
        {
          "internalType": "address",
          "name": "_issuer",
          "type": "address"
        },
        {
          "internalType": "uint256",
          "name": "_tokensSent",
          "type": "uint256"
        },
        {
          "internalType": "uint256",
          "name": "deadline",
          "type": "uint256"
        },
        {
          "internalType": "uint8",
          "name": "v",
          "type": "uint8"
        },
        {
          "internalType": "bytes32",
          "name": "r",
          "type": "bytes32"
        },
        {
          "internalType": "bytes32",
          "name": "s",
          "type": "bytes32"
        }
      ],
      "name": "requestVoucherTKNTKNSameWithPermit",
      "outputs": [],
      "stateMutability": "nonpayable",
      "type": "function"
    },
    {
      "inputs": [
        {
          "internalType": "uint256",
          "name": "_tokenIdSupply",
          "type": "uint256"
        },
        {
          "internalType": "address",
          "name": "_issuer",
          "type": "address"
        },
        {
          "internalType": "uint256",
          "name": "_tokensDeposit",
          "type": "uint256"
        },
        {
          "internalType": "uint256",
          "name": "deadline",
          "type": "uint256"
        },
        {
          "internalType": "uint8",
          "name": "v",
          "type": "uint8"
        },
        {
          "internalType": "bytes32",
          "name": "r",
          "type": "bytes32"
        },
        {
          "internalType": "bytes32",
          "name": "s",
          "type": "bytes32"
        }
      ],
      "name": "requestVoucherETHTKNWithPermit",
      "outputs": [],
      "stateMutability": "payable",
      "type": "function"
    },
    {
      "inputs": [
        {
          "internalType": "uint256",
          "name": "_tokenIdSupply",
          "type": "uint256"
        },
        {
          "internalType": "address",
          "name": "_issuer",
          "type": "address"
        },
        {
          "internalType": "uint256",
          "name": "_tokensPrice",
          "type": "uint256"
        },
        {
          "internalType": "uint256",
          "name": "deadline",
          "type": "uint256"
        },
        {
          "internalType": "uint8",
          "name": "v",
          "type": "uint8"
        },
        {
          "internalType": "bytes32",
          "name": "r",
          "type": "bytes32"
        },
        {
          "internalType": "bytes32",
          "name": "s",
          "type": "bytes32"
        }
      ],
      "name": "requestVoucherTKNETHWithPermit",
      "outputs": [],
      "stateMutability": "payable",
      "type": "function"
    },
    {
      "inputs": [
        {
          "internalType": "uint256",
          "name": "_tokenIdSupply",
          "type": "uint256"
        }
      ],
      "name": "requestCancelOrFaultVoucherSet",
      "outputs": [],
      "stateMutability": "nonpayable",
      "type": "function"
    },
    {
      "inputs": [
        {
          "internalType": "uint256",
          "name": "_tokenIdVoucher",
          "type": "uint256"
        }
      ],
      "name": "redeem",
      "outputs": [],
      "stateMutability": "nonpayable",
      "type": "function"
    },
    {
      "inputs": [
        {
          "internalType": "uint256",
          "name": "_tokenIdVoucher",
          "type": "uint256"
        }
      ],
      "name": "refund",
      "outputs": [],
      "stateMutability": "nonpayable",
      "type": "function"
    },
    {
      "inputs": [
        {
          "internalType": "uint256",
          "name": "_tokenIdVoucher",
          "type": "uint256"
        }
      ],
      "name": "complain",
      "outputs": [],
      "stateMutability": "nonpayable",
      "type": "function"
    },
    {
      "inputs": [
        {
          "internalType": "uint256",
          "name": "_tokenIdVoucher",
          "type": "uint256"
        }
      ],
      "name": "cancelOrFault",
      "outputs": [],
      "stateMutability": "nonpayable",
      "type": "function"
    },
    {
      "inputs": [
        {
          "internalType": "address",
          "name": "_from",
          "type": "address"
        },
        {
          "internalType": "address",
          "name": "_to",
          "type": "address"
        },
        {
          "internalType": "uint256",
          "name": "_tokenIdVoucher",
          "type": "uint256"
        }
      ],
      "name": "_onERC721Transfer",
      "outputs": [],
      "stateMutability": "nonpayable",
      "type": "function"
    },
    {
      "inputs": [
        {
          "internalType": "address",
          "name": "_from",
          "type": "address"
        },
        {
          "internalType": "uint256",
          "name": "_tokenSupplyId",
          "type": "uint256"
        },
        {
          "internalType": "uint256",
          "name": "_value",
          "type": "uint256"
        }
      ],
      "name": "_beforeERC1155Transfer",
      "outputs": [],
      "stateMutability": "view",
      "type": "function"
    },
    {
      "inputs": [
        {
          "internalType": "address",
          "name": "_from",
          "type": "address"
        },
        {
          "internalType": "address",
          "name": "_to",
          "type": "address"
        },
        {
          "internalType": "uint256",
          "name": "_tokenSupplyId",
          "type": "uint256"
        },
        {
          "internalType": "uint256",
          "name": "_value",
          "type": "uint256"
        }
      ],
      "name": "_onERC1155Transfer",
      "outputs": [],
      "stateMutability": "nonpayable",
      "type": "function"
    },
    {
      "inputs": [
        {
          "internalType": "address",
          "name": "_tokensContractAddress",
          "type": "address"
        }
      ],
      "name": "setTokenContractAddress",
      "outputs": [],
      "stateMutability": "nonpayable",
      "type": "function"
    }
  ],
  "bytecode": "0x60806040523480156200001157600080fd5b5060405162005f0738038062005f07833981810160405260808110156200003757600080fd5b508051602082015160408301516060909301516000805460ff1916815560018055929391926200006662000108565b600280546001600160a01b0319166001600160a01b038316908117909155604051919250906000907f8be0079c531659141344cd1fd0a4f28419497f9722a3daafe3b4186f6b6457e0908290a350600480546001600160a01b039586166001600160a01b03199182161790915560058054948616948216949094179093556006805492851692841692909217909155600380549190931691161790556200010c565b3390565b615deb806200011c6000396000f3fe6080604052600436106101475760003560e01c8063018554591461014c5780630bd74705146101915780631a245b8e146101bb578063278ecde114610215578063284f09231461023f57806339af1faf146102695780633f4ba83a1461029a5780634f755c3e146102af57806351b99203146102c45780635c975abb146102d95780636ad0cfe114610302578063715018a61461032e578063765e0fb8146103435780638456cb591461036d5780638da5cb5b1461038257806392fcbdc1146103975780639692d856146103e4578063aa35569b14610423578063ad7f04931461046c578063b23d4854146104b9578063b2c076c8146104ec578063bc16ba471461055f578063c241649a1461060a578063cbe0d73b146106c2578063d7e308bd146106d7578063db006a7514610755578063dea7f4231461077f578063f2fde38b146107ed575b600080fd5b34801561015857600080fd5b5061018f6004803603606081101561016f57600080fd5b506001600160a01b03813581169160208101359091169060400135610820565b005b34801561019d57600080fd5b5061018f600480360360208110156101b457600080fd5b5035611a13565b3480156101c757600080fd5b5061018f600480360360e08110156101de57600080fd5b508035906001600160a01b036020820135169060408101359060608101359060ff6080820135169060a08101359060c00135611ba3565b34801561022157600080fd5b5061018f6004803603602081101561023857600080fd5b5035612116565b34801561024b57600080fd5b5061018f6004803603602081101561026257600080fd5b5035612182565b34801561027557600080fd5b5061027e6121d3565b604080516001600160a01b039092168252519081900360200190f35b3480156102a657600080fd5b5061018f6121e2565b3480156102bb57600080fd5b5061027e6123d5565b3480156102d057600080fd5b5061027e6123e4565b3480156102e557600080fd5b506102ee6123f3565b604080519115158252519081900360200190f35b61018f6004803603604081101561031857600080fd5b50803590602001356001600160a01b03166123fc565b34801561033a57600080fd5b5061018f6126e5565b34801561034f57600080fd5b5061018f6004803603602081101561036657600080fd5b503561277f565b34801561037957600080fd5b5061018f6127d0565b34801561038e57600080fd5b5061027e6128e5565b61018f600480360360e08110156103ad57600080fd5b508035906001600160a01b036020820135169060408101359060608101359060ff6080820135169060a08101359060c001356128f4565b3480156103f057600080fd5b5061018f6004803603606081101561040757600080fd5b506001600160a01b038135169060208101359060400135612eba565b34801561042f57600080fd5b5061018f6004803603608081101561044657600080fd5b506001600160a01b03813581169160208101359091169060408101359060600135612f8a565b61018f600480360360e081101561048257600080fd5b508035906001600160a01b036020820135169060408101359060608101359060ff6080820135169060a08101359060c0013561364a565b3480156104c557600080fd5b5061018f600480360360208110156104dc57600080fd5b50356001600160a01b0316613b7a565b3480156104f857600080fd5b5061018f600480360361014081101561051057600080fd5b508035906001600160a01b036020820135169060408101359060608101359060ff608082013581169160a08101359160c08201359160e081013590911690610100810135906101200135613c3f565b34801561056b57600080fd5b5061018f600480360360e081101561058257600080fd5b6001600160a01b038235169160208101359160408201359160ff6060820135169160808201359160a08101359181019060e0810160c0820135600160201b8111156105cc57600080fd5b8201836020820111156105de57600080fd5b803590602001918460208302840111600160201b831117156105ff57600080fd5b5090925090506143a3565b34801561061657600080fd5b5061018f600480360361010081101561062e57600080fd5b6001600160a01b03823581169260208101359091169160408201359160608101359160ff6080830135169160a08101359160c08201359190810190610100810160e0820135600160201b81111561068457600080fd5b82018360208201111561069657600080fd5b803590602001918460208302840111600160201b831117156106b757600080fd5b50909250905061490b565b3480156106ce57600080fd5b5061027e614e26565b61018f600480360360408110156106ed57600080fd5b6001600160a01b038235169190810190604081016020820135600160201b81111561071757600080fd5b82018360208201111561072957600080fd5b803590602001918460208302840111600160201b8311171561074a57600080fd5b509092509050614e35565b34801561076157600080fd5b5061018f6004803603602081101561077857600080fd5b5035615226565b61018f6004803603602081101561079557600080fd5b810190602081018135600160201b8111156107af57600080fd5b8201836020820111156107c157600080fd5b803590602001918460208302840111600160201b831117156107e257600080fd5b509092509050615277565b3480156107f957600080fd5b5061018f6004803603602081101561081057600080fd5b50356001600160a01b0316615648565b610828615739565b600480546040805163035e54d560e31b8152928301849052516000926001600160a01b0390921691631af2a6a8916024808301926020929190829003018186803b15801561087557600080fd5b505afa158015610889573d6000803e3d6000fd5b505050506040513d602081101561089f57600080fd5b50516004805460408051631cf7955d60e01b8152928301849052519293506000926001600160a01b0390911691631cf7955d916024808301926020929190829003018186803b1580156108f157600080fd5b505afa158015610905573d6000803e3d6000fd5b505050506040513d602081101561091b57600080fd5b50516004805460408051633eb53ba560e21b815292830186905280519394506000938493849384936001600160a01b039091169263fad4ee94926024808201939291829003018186803b15801561097157600080fd5b505afa158015610985573d6000803e3d6000fd5b505050506040513d604081101561099b57600080fd5b508051602090910151909250905060ff851660011415610bb15760006109c1838361578c565b6003546040805163d135836560e01b81526001600160a01b038e81166004830152915193945091169163d135836591602480820192602092909190829003018186803b158015610a1057600080fd5b505afa158015610a24573d6000803e3d6000fd5b505050506040513d6020811015610a3a57600080fd5b50516003549095506001600160a01b03166318b868458b610a5b88856157ed565b6040518363ffffffff1660e01b815260040180836001600160a01b0316815260200182815260200192505050600060405180830381600087803b158015610aa157600080fd5b505af1158015610ab5573d6000803e3d6000fd5b50506003546040805163d135836560e01b81526001600160a01b038e81166004830152915191909216935063d135836592506024808301926020929190829003018186803b158015610b0657600080fd5b505afa158015610b1a573d6000803e3d6000fd5b505050506040513d6020811015610b3057600080fd5b50516003549095506001600160a01b03166318b868458a610b51888561578c565b6040518363ffffffff1660e01b815260040180836001600160a01b0316815260200182815260200192505050600060405180830381600087803b158015610b9757600080fd5b505af1158015610bab573d6000803e3d6000fd5b50505050505b60ff851660021415611040576003546040805163d135836560e01b81526001600160a01b038c811660048301529151919092169163d1358365916024808301926020929190829003018186803b158015610c0a57600080fd5b505afa158015610c1e573d6000803e3d6000fd5b505050506040513d6020811015610c3457600080fd5b50516003549094506001600160a01b03166318b868458a610c5587866157ed565b6040518363ffffffff1660e01b815260040180836001600160a01b0316815260200182815260200192505050600060405180830381600087803b158015610c9b57600080fd5b505af1158015610caf573d6000803e3d6000fd5b50506003546040805163d135836560e01b81526001600160a01b038d81166004830152915191909216935063d135836592506024808301926020929190829003018186803b158015610d0057600080fd5b505afa158015610d14573d6000803e3d6000fd5b505050506040513d6020811015610d2a57600080fd5b50516003549094506001600160a01b03166318b8684589610d4b878661578c565b6040518363ffffffff1660e01b815260040180836001600160a01b0316815260200182815260200192505050600060405180830381600087803b158015610d9157600080fd5b505af1158015610da5573d6000803e3d6000fd5b50506004805460408051639a751bbd60e01b81529283018b9052516001600160a01b039091169350639a751bbd92506024808301926020929190829003018186803b158015610df357600080fd5b505afa158015610e07573d6000803e3d6000fd5b505050506040513d6020811015610e1d57600080fd5b50516003546040805163154a838b60e11b81526001600160a01b0380851660048301528d811660248301529151939650911691632a95071691604480820192602092909190829003018186803b158015610e7657600080fd5b505afa158015610e8a573d6000803e3d6000fd5b505050506040513d6020811015610ea057600080fd5b50516003549094506001600160a01b03166392aa02ea848b610ec288866157ed565b6040518463ffffffff1660e01b815260040180846001600160a01b03168152602001836001600160a01b031681526020018281526020019350505050600060405180830381600087803b158015610f1857600080fd5b505af1158015610f2c573d6000803e3d6000fd5b50506003546040805163154a838b60e11b81526001600160a01b0388811660048301528d811660248301529151919092169350632a95071692506044808301926020929190829003018186803b158015610f8557600080fd5b505afa158015610f99573d6000803e3d6000fd5b505050506040513d6020811015610faf57600080fd5b50516003549094506001600160a01b03166392aa02ea848a610fd1888661578c565b6040518463ffffffff1660e01b815260040180846001600160a01b03168152602001836001600160a01b031681526020018281526020019350505050600060405180830381600087803b15801561102757600080fd5b505af115801561103b573d6000803e3d6000fd5b505050505b60ff8516600314156114cf57600480546040805163e875a61360e01b8152928301899052516001600160a01b039091169163e875a613916024808301926020929190829003018186803b15801561109657600080fd5b505afa1580156110aa573d6000803e3d6000fd5b505050506040513d60208110156110c057600080fd5b50516003546040805163154a838b60e11b81526001600160a01b0380851660048301528d811660248301529151939650911691632a95071691604480820192602092909190829003018186803b15801561111957600080fd5b505afa15801561112d573d6000803e3d6000fd5b505050506040513d602081101561114357600080fd5b50516003549094506001600160a01b03166392aa02ea848b61116588876157ed565b6040518463ffffffff1660e01b815260040180846001600160a01b03168152602001836001600160a01b031681526020018281526020019350505050600060405180830381600087803b1580156111bb57600080fd5b505af11580156111cf573d6000803e3d6000fd5b50506003546040805163154a838b60e11b81526001600160a01b0388811660048301528d811660248301529151919092169350632a95071692506044808301926020929190829003018186803b15801561122857600080fd5b505afa15801561123c573d6000803e3d6000fd5b505050506040513d602081101561125257600080fd5b50516003549094506001600160a01b03166392aa02ea848a611274888761578c565b6040518463ffffffff1660e01b815260040180846001600160a01b03168152602001836001600160a01b031681526020018281526020019350505050600060405180830381600087803b1580156112ca57600080fd5b505af11580156112de573d6000803e3d6000fd5b50506003546040805163d135836560e01b81526001600160a01b038e81166004830152915191909216935063d135836592506024808301926020929190829003018186803b15801561132f57600080fd5b505afa158015611343573d6000803e3d6000fd5b505050506040513d602081101561135957600080fd5b50516003549094506001600160a01b03166318b868458a61137a87856157ed565b6040518363ffffffff1660e01b815260040180836001600160a01b0316815260200182815260200192505050600060405180830381600087803b1580156113c057600080fd5b505af11580156113d4573d6000803e3d6000fd5b50506003546040805163d135836560e01b81526001600160a01b038d81166004830152915191909216935063d135836592506024808301926020929190829003018186803b15801561142557600080fd5b505afa158015611439573d6000803e3d6000fd5b505050506040513d602081101561144f57600080fd5b50516003549094506001600160a01b03166318b8684589611470878561578c565b6040518363ffffffff1660e01b815260040180836001600160a01b0316815260200182815260200192505050600060405180830381600087803b1580156114b657600080fd5b505af11580156114ca573d6000803e3d6000fd5b505050505b60ff851660041415611a0857600480546040805163e875a61360e01b8152928301899052516001600160a01b039091169163e875a613916024808301926020929190829003018186803b15801561152557600080fd5b505afa158015611539573d6000803e3d6000fd5b505050506040513d602081101561154f57600080fd5b50516003546040805163154a838b60e11b81526001600160a01b0380851660048301528d811660248301529151939650911691632a95071691604480820192602092909190829003018186803b1580156115a857600080fd5b505afa1580156115bc573d6000803e3d6000fd5b505050506040513d60208110156115d257600080fd5b50516003549094506001600160a01b03166392aa02ea848b6115f488876157ed565b6040518463ffffffff1660e01b815260040180846001600160a01b03168152602001836001600160a01b031681526020018281526020019350505050600060405180830381600087803b15801561164a57600080fd5b505af115801561165e573d6000803e3d6000fd5b50506003546040805163154a838b60e11b81526001600160a01b0388811660048301528d811660248301529151919092169350632a95071692506044808301926020929190829003018186803b1580156116b757600080fd5b505afa1580156116cb573d6000803e3d6000fd5b505050506040513d60208110156116e157600080fd5b50516003549094506001600160a01b03166392aa02ea848a611703888761578c565b6040518463ffffffff1660e01b815260040180846001600160a01b03168152602001836001600160a01b031681526020018281526020019350505050600060405180830381600087803b15801561175957600080fd5b505af115801561176d573d6000803e3d6000fd5b50506004805460408051639a751bbd60e01b81529283018b9052516001600160a01b039091169350639a751bbd92506024808301926020929190829003018186803b1580156117bb57600080fd5b505afa1580156117cf573d6000803e3d6000fd5b505050506040513d60208110156117e557600080fd5b50516003546040805163154a838b60e11b81526001600160a01b0380851660048301528d811660248301529151939650911691632a95071691604480820192602092909190829003018186803b15801561183e57600080fd5b505afa158015611852573d6000803e3d6000fd5b505050506040513d602081101561186857600080fd5b50516003549094506001600160a01b03166392aa02ea848b61188a88866157ed565b6040518463ffffffff1660e01b815260040180846001600160a01b03168152602001836001600160a01b031681526020018281526020019350505050600060405180830381600087803b1580156118e057600080fd5b505af11580156118f4573d6000803e3d6000fd5b50506003546040805163154a838b60e11b81526001600160a01b0388811660048301528d811660248301529151919092169350632a95071692506044808301926020929190829003018186803b15801561194d57600080fd5b505afa158015611961573d6000803e3d6000fd5b505050506040513d602081101561197757600080fd5b50516003549094506001600160a01b03166392aa02ea848a611999888661578c565b6040518463ffffffff1660e01b815260040180846001600160a01b03168152602001836001600160a01b031681526020018281526020019350505050600060405180830381600087803b1580156119ef57600080fd5b505af1158015611a03573d6000803e3d6000fd5b505050505b505050505050505050565b60026001541415611a59576040805162461bcd60e51b815260206004820152601f6024820152600080516020615cb5833981519152604482015290519081900360640190fd5b6002600155611a666123f3565b15611aa6576040805162461bcd60e51b81526020600482015260106024820152600080516020615d96833981519152604482015290519081900360640190fd5b60048054604080516322af217960e11b8152928301849052336024840152516000926001600160a01b039092169163455e42f291604480830192602092919082900301818787803b158015611afa57600080fd5b505af1158015611b0e573d6000803e3d6000fd5b505050506040513d6020811015611b2457600080fd5b505160035460408051632990c23f60e11b8152600481018690526024810184905233604482015290519293506001600160a01b0390911691635321847e9160648082019260009290919082900301818387803b158015611b8357600080fd5b505af1158015611b97573d6000803e3d6000fd5b50506001805550505050565b60026001541415611be9576040805162461bcd60e51b815260206004820152601f6024820152600080516020615cb5833981519152604482015290519081900360640190fd5b6002600155611bf66123f3565b15611c36576040805162461bcd60e51b81526020600482015260106024820152600080516020615d96833981519152604482015290519081900360640190fd5b6004805460408051633eb53ba560e21b81529283018a9052805160009384936001600160a01b03169263fad4ee9492602480840193829003018186803b158015611c7f57600080fd5b505afa158015611c93573d6000803e3d6000fd5b505050506040513d6040811015611ca957600080fd5b508051602090910151909250905081611cc288836157ed565b14611d06576040805162461bcd60e51b815260206004820152600f60248201526e494e434f52524543545f46554e445360881b604482015290519081900360640190fd5b600480546040805163e875a61360e01b81529283018c9052516000926001600160a01b039092169163e875a613916024808301926020929190829003018186803b158015611d5357600080fd5b505afa158015611d67573d6000803e3d6000fd5b505050506040513d6020811015611d7d57600080fd5b50516004805460408051639a751bbd60e01b81529283018e9052519293506000926001600160a01b0390911691639a751bbd916024808301926020929190829003018186803b158015611dcf57600080fd5b505afa158015611de3573d6000803e3d6000fd5b505050506040513d6020811015611df957600080fd5b505190506001600160a01b0382811690821614611e4c576040805162461bcd60e51b815260206004820152600c60248201526b1253959053125117d0d0531360a21b604482015290519081900360640190fd5b6040805163d505accf60e01b8152336004820152306024820152604481018b9052606481018a905260ff8916608482015260a4810188905260c4810187905290516001600160a01b0384169163d505accf9160e480830192600092919082900301818387803b158015611ebe57600080fd5b505af1158015611ed2573d6000803e3d6000fd5b50505050600460009054906101000a90046001600160a01b03166001600160a01b031663ae4606fe8c8c336040518463ffffffff1660e01b815260040180848152602001836001600160a01b03168152602001826001600160a01b031681526020019350505050600060405180830381600087803b158015611f5357600080fd5b505af1158015611f67573d6000803e3d6000fd5b5050600354604080516323b872dd60e01b81523360048201526001600160a01b039283166024820152604481018e9052905191861693506323b872dd92506064808201926020929091908290030181600087803b158015611fc757600080fd5b505af1158015611fdb573d6000803e3d6000fd5b505050506040513d6020811015611ff157600080fd5b50506003546040805163154a838b60e11b81526001600160a01b03858116600483015233602483015291516000939290921691632a95071691604480820192602092909190829003018186803b15801561204a57600080fd5b505afa15801561205e573d6000803e3d6000fd5b505050506040513d602081101561207457600080fd5b50516003549091506001600160a01b03166392aa02ea8433612096858f61578c565b6040518463ffffffff1660e01b815260040180846001600160a01b03168152602001836001600160a01b031681526020018281526020019350505050600060405180830381600087803b1580156120ec57600080fd5b505af1158015612100573d6000803e3d6000fd5b5050600180555050505050505050505050505050565b6004805460408051631eb489b760e21b8152928301849052336024840152516001600160a01b0390911691637ad226dc91604480830192600092919082900301818387803b15801561216757600080fd5b505af115801561217b573d6000803e3d6000fd5b5050505050565b60048054604080516366db9a0960e01b8152928301849052336024840152516001600160a01b03909116916366db9a0991604480830192600092919082900301818387803b15801561216757600080fd5b6005546001600160a01b031681565b6121ea61584a565b6001600160a01b03166121fb6128e5565b6001600160a01b031614612244576040805162461bcd60e51b81526020600482018190526024820152600080516020615d56833981519152604482015290519081900360640190fd5b600360009054906101000a90046001600160a01b03166001600160a01b031663ae04884e6040518163ffffffff1660e01b815260040160206040518083038186803b15801561229257600080fd5b505afa1580156122a6573d6000803e3d6000fd5b505050506040513d60208110156122bc57600080fd5b5051612308576040805162461bcd60e51b8152602060048201526016602482015275436f6e74726163747320756e706175736561626c652160501b604482015290519081900360640190fd5b61231061584e565b6004805460408051631fa5d41d60e11b815290516001600160a01b0390921692633f4ba83a92828201926000929082900301818387803b15801561235357600080fd5b505af1158015612367573d6000803e3d6000fd5b50505050600360009054906101000a90046001600160a01b03166001600160a01b0316633f4ba83a6040518163ffffffff1660e01b8152600401600060405180830381600087803b1580156123bb57600080fd5b505af11580156123cf573d6000803e3d6000fd5b50505050565b6003546001600160a01b031681565b6006546001600160a01b031681565b60005460ff1690565b60026001541415612442576040805162461bcd60e51b815260206004820152601f6024820152600080516020615cb5833981519152604482015290519081900360640190fd5b600260015561244f6123f3565b1561248f576040805162461bcd60e51b81526020600482015260106024820152600080516020615d96833981519152604482015290519081900360640190fd5b600480546040805163d887b4e760e01b815292830185905251349260009283926001600160a01b039091169163d887b4e7916024808301926060929190829003018186803b1580156124e057600080fd5b505afa1580156124f4573d6000803e3d6000fd5b505050506040513d606081101561250a57600080fd5b508051604090910151909250905082612523838361578c565b14612567576040805162461bcd60e51b815260206004820152600f60248201526e494e434f52524543545f46554e445360881b604482015290519081900360640190fd5b6004805460408051635723037f60e11b81529283018890526001600160a01b038781166024850152336044850152905191169163ae4606fe91606480830192600092919082900301818387803b1580156125c057600080fd5b505af11580156125d4573d6000803e3d6000fd5b50506003546040805163d135836560e01b81523360048201529051600094506001600160a01b03909216925063d1358365916024808301926020929190829003018186803b15801561262557600080fd5b505afa158015612639573d6000803e3d6000fd5b505050506040513d602081101561264f57600080fd5b50516003549091506001600160a01b03166318b8684533612670848861578c565b6040518363ffffffff1660e01b815260040180836001600160a01b0316815260200182815260200192505050600060405180830381600087803b1580156126b657600080fd5b505af11580156126ca573d6000803e3d6000fd5b5050600354611b9792506001600160a01b03169050346158ee565b6126ed61584a565b6001600160a01b03166126fe6128e5565b6001600160a01b031614612747576040805162461bcd60e51b81526020600482018190526024820152600080516020615d56833981519152604482015290519081900360640190fd5b6002546040516000916001600160a01b031690600080516020615d76833981519152908390a3600280546001600160a01b0319169055565b6004805460408051631ebaf54360e31b8152928301849052336024840152516001600160a01b039091169163f5d7aa1891604480830192600092919082900301818387803b15801561216757600080fd5b6127d861584a565b6001600160a01b03166127e96128e5565b6001600160a01b031614612832576040805162461bcd60e51b81526020600482018190526024820152600080516020615d56833981519152604482015290519081900360640190fd5b61283a6159d8565b6004805460408051638456cb5960e01b815290516001600160a01b0390921692638456cb5992828201926000929082900301818387803b15801561287d57600080fd5b505af1158015612891573d6000803e3d6000fd5b50505050600360009054906101000a90046001600160a01b03166001600160a01b0316638456cb596040518163ffffffff1660e01b8152600401600060405180830381600087803b1580156123bb57600080fd5b6002546001600160a01b031690565b6002600154141561293a576040805162461bcd60e51b815260206004820152601f6024820152600080516020615cb5833981519152604482015290519081900360640190fd5b60026001556129476123f3565b15612987576040805162461bcd60e51b81526020600482015260106024820152600080516020615d96833981519152604482015290519081900360640190fd5b6004805460408051633eb53ba560e21b81529283018a9052805160009384936001600160a01b03169263fad4ee9492602480840193829003018186803b1580156129d057600080fd5b505afa1580156129e4573d6000803e3d6000fd5b505050506040513d60408110156129fa57600080fd5b5080516020909101519092509050348214612a4e576040805162461bcd60e51b815260206004820152600f60248201526e494e434f52524543545f505249434560881b604482015290519081900360640190fd5b868114612a91576040805162461bcd60e51b815260206004820152600c60248201526b494e434f52524543545f444560a01b604482015290519081900360640190fd5b6004805460408051639a751bbd60e01b81529283018c9052516000926001600160a01b0390921691639a751bbd916024808301926020929190829003018186803b158015612ade57600080fd5b505afa158015612af2573d6000803e3d6000fd5b505050506040513d6020811015612b0857600080fd5b50516040805163d505accf60e01b8152336004820152306024820152604481018b9052606481018a905260ff8916608482015260a4810188905260c4810187905290519192506001600160a01b0383169163d505accf9160e48082019260009290919082900301818387803b158015612b8057600080fd5b505af1158015612b94573d6000803e3d6000fd5b50506004805460408051635723037f60e11b81529283018f90526001600160a01b038e8116602485015233604485015290519116935063ae4606fe9250606480830192600092919082900301818387803b158015612bf157600080fd5b505af1158015612c05573d6000803e3d6000fd5b5050600354604080516323b872dd60e01b81523360048201526001600160a01b039283166024820152604481018d9052905191851693506323b872dd92506064808201926020929091908290030181600087803b158015612c6557600080fd5b505af1158015612c79573d6000803e3d6000fd5b505050506040513d6020811015612c8f57600080fd5b50506003546040805163d135836560e01b815233600482015290516000926001600160a01b03169163d1358365916024808301926020929190829003018186803b158015612cdc57600080fd5b505afa158015612cf0573d6000803e3d6000fd5b505050506040513d6020811015612d0657600080fd5b50516003549091506001600160a01b03166318b8684533612d27843461578c565b6040518363ffffffff1660e01b815260040180836001600160a01b0316815260200182815260200192505050600060405180830381600087803b158015612d6d57600080fd5b505af1158015612d81573d6000803e3d6000fd5b50506003546040805163154a838b60e11b81526001600160a01b0387811660048301523360248301529151919092169350632a95071692506044808301926020929190829003018186803b158015612dd857600080fd5b505afa158015612dec573d6000803e3d6000fd5b505050506040513d6020811015612e0257600080fd5b50516003549091506001600160a01b03166392aa02ea8333612e24858e61578c565b6040518463ffffffff1660e01b815260040180846001600160a01b03168152602001836001600160a01b031681526020018281526020019350505050600060405180830381600087803b158015612e7a57600080fd5b505af1158015612e8e573d6000803e3d6000fd5b5050600354612ea992506001600160a01b03169050346158ee565b505060018055505050505050505050565b612ec2615739565b600480546040805163e31a007960e01b81529283018590526001600160a01b0386811660248501529051600093919092169163e31a007991604480820192602092909190829003018186803b158015612f1a57600080fd5b505afa158015612f2e573d6000803e3d6000fd5b505050506040513d6020811015612f4457600080fd5b505190508181146123cf576040805162461bcd60e51b815260206004820152600b60248201526a494e56414c49445f51545960a81b604482015290519081900360640190fd5b612f92615739565b6004805460408051631cf7955d60e01b8152928301859052516000926001600160a01b0390921691631cf7955d916024808301926020929190829003018186803b158015612fdf57600080fd5b505afa158015612ff3573d6000803e3d6000fd5b505050506040513d602081101561300957600080fd5b505190506000808060ff841660011480613026575060ff84166003145b1561329c576004805460408051638810632360e01b8152928301899052516001600160a01b03909116916388106323916024808301926020929190829003018186803b15801561307557600080fd5b505afa158015613089573d6000803e3d6000fd5b505050506040513d602081101561309f57600080fd5b505192506130ad8386615a56565b6003546040805163d135836560e01b81526001600160a01b038c81166004830152915193955091169163d135836591602480820192602092909190829003018186803b1580156130fc57600080fd5b505afa158015613110573d6000803e3d6000fd5b505050506040513d602081101561312657600080fd5b50516003549091506001600160a01b03166318b868458961314784866157ed565b6040518363ffffffff1660e01b815260040180836001600160a01b0316815260200182815260200192505050600060405180830381600087803b15801561318d57600080fd5b505af11580156131a1573d6000803e3d6000fd5b50506003546040805163d135836560e01b81526001600160a01b038c81166004830152915191909216935063d135836592506024808301926020929190829003018186803b1580156131f257600080fd5b505afa158015613206573d6000803e3d6000fd5b505050506040513d602081101561321c57600080fd5b50516003549091506001600160a01b03166318b868458861323d848661578c565b6040518363ffffffff1660e01b815260040180836001600160a01b0316815260200182815260200192505050600060405180830381600087803b15801561328357600080fd5b505af1158015613297573d6000803e3d6000fd5b505050505b60ff8416600214806132b1575060ff84166004145b156135d5576004805460408051639a751bbd60e01b8152928301899052516000926001600160a01b0390921691639a751bbd916024808301926020929190829003018186803b15801561330357600080fd5b505afa158015613317573d6000803e3d6000fd5b505050506040513d602081101561332d57600080fd5b50516004805460408051638810632360e01b81529283018b9052519293506001600160a01b031691638810632391602480820192602092909190829003018186803b15801561337b57600080fd5b505afa15801561338f573d6000803e3d6000fd5b505050506040513d60208110156133a557600080fd5b505193506133b38487615a56565b6003546040805163154a838b60e11b81526001600160a01b0385811660048301528d811660248301529151939650911691632a95071691604480820192602092909190829003018186803b15801561340a57600080fd5b505afa15801561341e573d6000803e3d6000fd5b505050506040513d602081101561343457600080fd5b50516003549092506001600160a01b03166392aa02ea828b61345686886157ed565b6040518463ffffffff1660e01b815260040180846001600160a01b03168152602001836001600160a01b031681526020018281526020019350505050600060405180830381600087803b1580156134ac57600080fd5b505af11580156134c0573d6000803e3d6000fd5b50506003546040805163154a838b60e11b81526001600160a01b0386811660048301528d811660248301529151919092169350632a95071692506044808301926020929190829003018186803b15801561351957600080fd5b505afa15801561352d573d6000803e3d6000fd5b505050506040513d602081101561354357600080fd5b50516003549092506001600160a01b03166392aa02ea828a613565868861578c565b6040518463ffffffff1660e01b815260040180846001600160a01b03168152602001836001600160a01b031681526020018281526020019350505050600060405180830381600087803b1580156135bb57600080fd5b505af11580156135cf573d6000803e3d6000fd5b50505050505b60048054604080516388c2560760e01b81529283018990526001600160a01b038a8116602485015290519116916388c2560791604480830192600092919082900301818387803b15801561362857600080fd5b505af115801561363c573d6000803e3d6000fd5b505050505050505050505050565b60026001541415613690576040805162461bcd60e51b815260206004820152601f6024820152600080516020615cb5833981519152604482015290519081900360640190fd5b600260015561369d6123f3565b156136dd576040805162461bcd60e51b81526020600482015260106024820152600080516020615d96833981519152604482015290519081900360640190fd5b6004805460408051633eb53ba560e21b81529283018a9052805160009384936001600160a01b03169263fad4ee9492602480840193829003018186803b15801561372657600080fd5b505afa15801561373a573d6000803e3d6000fd5b505050506040513d604081101561375057600080fd5b50805160209091015190925090508682146137a4576040805162461bcd60e51b815260206004820152600f60248201526e494e434f52524543545f505249434560881b604482015290519081900360640190fd5b3481146137e7576040805162461bcd60e51b815260206004820152600c60248201526b494e434f52524543545f444560a01b604482015290519081900360640190fd5b600480546040805163e875a61360e01b81529283018c9052516000926001600160a01b039092169163e875a613916024808301926020929190829003018186803b15801561383457600080fd5b505afa158015613848573d6000803e3d6000fd5b505050506040513d602081101561385e57600080fd5b50516040805163d505accf60e01b815233600482015230602482015260448101869052606481018a905260ff8916608482015260a4810188905260c4810187905290519192506001600160a01b0383169163d505accf9160e48082019260009290919082900301818387803b1580156138d657600080fd5b505af11580156138ea573d6000803e3d6000fd5b50506004805460408051635723037f60e11b81529283018f90526001600160a01b038e8116602485015233604485015290519116935063ae4606fe9250606480830192600092919082900301818387803b15801561394757600080fd5b505af115801561395b573d6000803e3d6000fd5b5050600354604080516323b872dd60e01b81523360048201526001600160a01b03928316602482015260448101889052905191851693506323b872dd92506064808201926020929091908290030181600087803b1580156139bb57600080fd5b505af11580156139cf573d6000803e3d6000fd5b505050506040513d60208110156139e557600080fd5b50506003546040805163d135836560e01b815233600482015290516000926001600160a01b03169163d1358365916024808301926020929190829003018186803b158015613a3257600080fd5b505afa158015613a46573d6000803e3d6000fd5b505050506040513d6020811015613a5c57600080fd5b50516003549091506001600160a01b03166318b8684533613a7d843461578c565b6040518363ffffffff1660e01b815260040180836001600160a01b0316815260200182815260200192505050600060405180830381600087803b158015613ac357600080fd5b505af1158015613ad7573d6000803e3d6000fd5b50506003546040805163154a838b60e11b81526001600160a01b0387811660048301523360248301529151919092169350632a95071692506044808301926020929190829003018186803b158015613b2e57600080fd5b505afa158015613b42573d6000803e3d6000fd5b505050506040513d6020811015613b5857600080fd5b50516003549091506001600160a01b03166392aa02ea8333612e24858961578c565b613b8261584a565b6001600160a01b0316613b936128e5565b6001600160a01b031614613bdc576040805162461bcd60e51b81526020600482018190526024820152600080516020615d56833981519152604482015290519081900360640190fd5b613be581615aaf565b600580546001600160a01b0319166001600160a01b0383169081179091556040805191825233602083015280517f7b81c5e3a8e5647e11ccd172baaaf534f02cb16cd563be7c3c70c9354215bdb19281900390910190a150565b60026001541415613c85576040805162461bcd60e51b815260206004820152601f6024820152600080516020615cb5833981519152604482015290519081900360640190fd5b6002600155613c926123f3565b15613cd2576040805162461bcd60e51b81526020600482015260106024820152600080516020615d96833981519152604482015290519081900360640190fd5b6004805460408051633eb53ba560e21b81529283018d9052805160009384936001600160a01b03169263fad4ee9492602480840193829003018186803b158015613d1b57600080fd5b505afa158015613d2f573d6000803e3d6000fd5b505050506040513d6040811015613d4557600080fd5b508051602090910151909250905081613d5e8b836157ed565b14613da2576040805162461bcd60e51b815260206004820152600f60248201526e494e434f52524543545f46554e445360881b604482015290519081900360640190fd5b600480546040805163e875a61360e01b81529283018f9052516000926001600160a01b039092169163e875a613916024808301926020929190829003018186803b158015613def57600080fd5b505afa158015613e03573d6000803e3d6000fd5b505050506040513d6020811015613e1957600080fd5b810190808051906020019092919050505090506000600460009054906101000a90046001600160a01b03166001600160a01b0316639a751bbd8f6040518263ffffffff1660e01b81526004018082815260200191505060206040518083038186803b158015613e8757600080fd5b505afa158015613e9b573d6000803e3d6000fd5b505050506040513d6020811015613eb157600080fd5b50516040805163d505accf60e01b815233600482015230602482015260448101879052606481018e905260ff8d16608482015260a481018c905260c481018b905290519192506001600160a01b0384169163d505accf9160e48082019260009290919082900301818387803b158015613f2957600080fd5b505af1158015613f3d573d6000803e3d6000fd5b50506040805163d505accf60e01b815233600482015230602482015260448101879052606481018f905260ff8b16608482015260a481018a905260c4810189905290516001600160a01b038516935063d505accf925060e480830192600092919082900301818387803b158015613fb357600080fd5b505af1158015613fc7573d6000803e3d6000fd5b50505050600460009054906101000a90046001600160a01b03166001600160a01b031663ae4606fe8f8f336040518463ffffffff1660e01b815260040180848152602001836001600160a01b03168152602001826001600160a01b031681526020019350505050600060405180830381600087803b15801561404857600080fd5b505af115801561405c573d6000803e3d6000fd5b5050600354604080516323b872dd60e01b81523360048201526001600160a01b03928316602482015260448101899052905191861693506323b872dd92506064808201926020929091908290030181600087803b1580156140bc57600080fd5b505af11580156140d0573d6000803e3d6000fd5b505050506040513d60208110156140e657600080fd5b5050600354604080516323b872dd60e01b81523360048201526001600160a01b039283166024820152604481018690529051918316916323b872dd916064808201926020929091908290030181600087803b15801561414457600080fd5b505af1158015614158573d6000803e3d6000fd5b505050506040513d602081101561416e57600080fd5b50506003546040805163154a838b60e11b81526001600160a01b03858116600483015233602483015291516000939290921691632a95071691604480820192602092909190829003018186803b1580156141c757600080fd5b505afa1580156141db573d6000803e3d6000fd5b505050506040513d60208110156141f157600080fd5b50516003549091506001600160a01b03166392aa02ea8433614213858a61578c565b6040518463ffffffff1660e01b815260040180846001600160a01b03168152602001836001600160a01b031681526020018281526020019350505050600060405180830381600087803b15801561426957600080fd5b505af115801561427d573d6000803e3d6000fd5b50506003546040805163154a838b60e11b81526001600160a01b0387811660048301523360248301529151919092169350632a95071692506044808301926020929190829003018186803b1580156142d457600080fd5b505afa1580156142e8573d6000803e3d6000fd5b505050506040513d60208110156142fe57600080fd5b50516003549091506001600160a01b03166392aa02ea8333614320858961578c565b6040518463ffffffff1660e01b815260040180846001600160a01b03168152602001836001600160a01b031681526020018281526020019350505050600060405180830381600087803b15801561437657600080fd5b505af115801561438a573d6000803e3d6000fd5b5050600180555050505050505050505050505050505050565b6143ab6123f3565b156143eb576040805162461bcd60e51b81526020600482015260106024820152600080516020615d96833981519152604482015290519081900360640190fd5b6143f488615aaf565b6144356144308383600581811061440757fe5b905060200201358484600281811061441b57fe5b90506020020135615a5690919063ffffffff16565b615b05565b6144628861445d8484600581811061444957fe5b905060200201358585600381811061441b57fe5b615bcb565b61448a8861445d8484600581811061447657fe5b905060200201358585600481811061441b57fe5b866144af8383600581811061449b57fe5b905060200201358484600381811061441b57fe5b146144f3576040805162461bcd60e51b815260206004820152600f60248201526e494e434f52524543545f46554e445360881b604482015290519081900360640190fd5b6040805163d505accf60e01b8152336004820152306024820152604481018990526064810188905260ff8716608482015260a4810186905260c4810185905290516001600160a01b038a169163d505accf9160e480830192600092919082900301818387803b15801561456557600080fd5b505af1158015614579573d6000803e3d6000fd5b5050600454600092506001600160a01b0316905063797f2a26338585858161459d57fe5b90506020020135868660018181106145b157fe5b90506020020135878760028181106145c557fe5b90506020020135888860038181106145d957fe5b90506020020135898960048181106145ed57fe5b905060200201358a8a600581811061460157fe5b905060200201356040518863ffffffff1660e01b815260040180886001600160a01b03168152602001878152602001868152602001858152602001848152602001838152602001828152602001975050505050505050602060405180830381600087803b15801561467157600080fd5b505af1158015614685573d6000803e3d6000fd5b505050506040513d602081101561469b57600080fd5b505160048054604080516319eb920160e31b8152928301849052600260248401526000604484018190526001600160a01b038e81166064860152915194955091169263cf5c900892608480820193929182900301818387803b15801561470057600080fd5b505af1158015614714573d6000803e3d6000fd5b5050600354604080516323b872dd60e01b81523360048201526001600160a01b039283166024820152604481018d90529051918d1693506323b872dd92506064808201926020929091908290030181600087803b15801561477457600080fd5b505af1158015614788573d6000803e3d6000fd5b505050506040513d602081101561479e57600080fd5b50506003546040805163154a838b60e11b81526001600160a01b038c8116600483015233602483015291516000939290921691632a95071691604480820192602092909190829003018186803b1580156147f757600080fd5b505afa15801561480b573d6000803e3d6000fd5b505050506040513d602081101561482157600080fd5b50516003549091506001600160a01b03166392aa02ea8b33614843858e61578c565b6040518463ffffffff1660e01b815260040180846001600160a01b03168152602001836001600160a01b031681526020018281526020019350505050600060405180830381600087803b15801561489957600080fd5b505af11580156148ad573d6000803e3d6000fd5b5050505081600080516020615c9583398151915233868660058181106148cf57fe5b604080516001600160a01b039095168552602091820293909301359084015250600282820152519081900360600190a250505050505050505050565b6149136123f3565b15614953576040805162461bcd60e51b81526020600482015260106024820152600080516020615d96833981519152604482015290519081900360640190fd5b61495c89615aaf565b61496588615aaf565b61498d8961445d8484600581811061497957fe5b905060200201358585600281811061441b57fe5b6149a18861445d8484600581811061444957fe5b6149b58861445d8484600581811061447657fe5b866149c68383600581811061449b57fe5b14614a0a576040805162461bcd60e51b815260206004820152600f60248201526e494e434f52524543545f46554e445360881b604482015290519081900360640190fd5b6040805163d505accf60e01b8152336004820152306024820152604481018990526064810188905260ff8716608482015260a4810186905260c4810185905290516001600160a01b038a169163d505accf9160e480830192600092919082900301818387803b158015614a7c57600080fd5b505af1158015614a90573d6000803e3d6000fd5b5050600454600092506001600160a01b0316905063797f2a263385858581614ab457fe5b9050602002013586866001818110614ac857fe5b9050602002013587876002818110614adc57fe5b9050602002013588886003818110614af057fe5b9050602002013589896004818110614b0457fe5b905060200201358a8a6005818110614b1857fe5b905060200201356040518863ffffffff1660e01b815260040180886001600160a01b03168152602001878152602001868152602001858152602001848152602001838152602001828152602001975050505050505050602060405180830381600087803b158015614b8857600080fd5b505af1158015614b9c573d6000803e3d6000fd5b505050506040513d6020811015614bb257600080fd5b505160048054604080516319eb920160e31b815280840185905260248101939093526001600160a01b038e811660448501528d811660648501529051939450169163cf5c90089160848082019260009290919082900301818387803b158015614c1a57600080fd5b505af1158015614c2e573d6000803e3d6000fd5b5050600354604080516323b872dd60e01b81523360048201526001600160a01b039283166024820152604481018d90529051918d1693506323b872dd92506064808201926020929091908290030181600087803b158015614c8e57600080fd5b505af1158015614ca2573d6000803e3d6000fd5b505050506040513d6020811015614cb857600080fd5b50506003546040805163154a838b60e11b81526001600160a01b038c8116600483015233602483015291516000939290921691632a95071691604480820192602092909190829003018186803b158015614d1157600080fd5b505afa158015614d25573d6000803e3d6000fd5b505050506040513d6020811015614d3b57600080fd5b50516003549091506001600160a01b03166392aa02ea8b33614d5d858e61578c565b6040518463ffffffff1660e01b815260040180846001600160a01b03168152602001836001600160a01b031681526020018281526020019350505050600060405180830381600087803b158015614db357600080fd5b505af1158015614dc7573d6000803e3d6000fd5b5050505081600080516020615c958339815191523386866005818110614de957fe5b604080516001600160a01b039095168552602091820293909301359084015250600482820152519081900360600190a25050505050505050505050565b6004546001600160a01b031681565b614e3d6123f3565b15614e7d576040805162461bcd60e51b81526020600482015260106024820152600080516020615d96833981519152604482015290519081900360640190fd5b614e8683615aaf565b614e9a8361445d8484600581811061497957fe5b614ead6144308383600581811061449b57fe5b614ed461443083836005818110614ec057fe5b905060200201358484600481811061441b57fe5b34614ee58383600581811061449b57fe5b14614f29576040805162461bcd60e51b815260206004820152600f60248201526e494e434f52524543545f46554e445360881b604482015290519081900360640190fd5b6004546000906001600160a01b031663797f2a263385858581614f4857fe5b9050602002013586866001818110614f5c57fe5b9050602002013587876002818110614f7057fe5b9050602002013588886003818110614f8457fe5b9050602002013589896004818110614f9857fe5b905060200201358a8a6005818110614fac57fe5b905060200201356040518863ffffffff1660e01b815260040180886001600160a01b03168152602001878152602001868152602001858152602001848152602001838152602001828152602001975050505050505050602060405180830381600087803b15801561501c57600080fd5b505af1158015615030573d6000803e3d6000fd5b505050506040513d602081101561504657600080fd5b505160048054604080516319eb920160e31b8152928301849052600360248401526001600160a01b03888116604485015260006064850181905291519495509091169263cf5c900892608480820193929182900301818387803b1580156150ac57600080fd5b505af11580156150c0573d6000803e3d6000fd5b50506003546040805163d135836560e01b81523360048201529051600094506001600160a01b03909216925063d1358365916024808301926020929190829003018186803b15801561511157600080fd5b505afa158015615125573d6000803e3d6000fd5b505050506040513d602081101561513b57600080fd5b50516003549091506001600160a01b03166318b868453361515c843461578c565b6040518363ffffffff1660e01b815260040180836001600160a01b0316815260200182815260200192505050600060405180830381600087803b1580156151a257600080fd5b505af11580156151b6573d6000803e3d6000fd5b50506003546151d192506001600160a01b03169050346158ee565b81600080516020615c9583398151915233868660058181106151ef57fe5b604080516001600160a01b039095168552602091820293909301359084015250600382820152519081900360600190a25050505050565b6004805460408051633def417960e11b8152928301849052336024840152516001600160a01b0390911691637bde82f291604480830192600092919082900301818387803b15801561216757600080fd5b61527f6123f3565b156152bf576040805162461bcd60e51b81526020600482015260106024820152600080516020615d96833981519152604482015290519081900360640190fd5b6152d26144308383600581811061440757fe5b6152e56144308383600581811061449b57fe5b6152f861443083836005818110614ec057fe5b346153098383600581811061449b57fe5b1461534d576040805162461bcd60e51b815260206004820152600f60248201526e494e434f52524543545f46554e445360881b604482015290519081900360640190fd5b6004546000906001600160a01b031663797f2a26338585858161536c57fe5b905060200201358686600181811061538057fe5b905060200201358787600281811061539457fe5b90506020020135888860038181106153a857fe5b90506020020135898960048181106153bc57fe5b905060200201358a8a60058181106153d057fe5b905060200201356040518863ffffffff1660e01b815260040180886001600160a01b03168152602001878152602001868152602001858152602001848152602001838152602001828152602001975050505050505050602060405180830381600087803b15801561544057600080fd5b505af1158015615454573d6000803e3d6000fd5b505050506040513d602081101561546a57600080fd5b505160048054604080516319eb920160e31b8152928301849052600160248401526000604484018190526064840181905290519394506001600160a01b039091169263cf5c900892608480820193929182900301818387803b1580156154cf57600080fd5b505af11580156154e3573d6000803e3d6000fd5b50506003546040805163d135836560e01b81523360048201529051600094506001600160a01b03909216925063d1358365916024808301926020929190829003018186803b15801561553457600080fd5b505afa158015615548573d6000803e3d6000fd5b505050506040513d602081101561555e57600080fd5b50516003549091506001600160a01b03166318b868453361557f843461578c565b6040518363ffffffff1660e01b815260040180836001600160a01b0316815260200182815260200192505050600060405180830381600087803b1580156155c557600080fd5b505af11580156155d9573d6000803e3d6000fd5b50506003546155f492506001600160a01b03169050346158ee565b81600080516020615c95833981519152338686600581811061561257fe5b604080516001600160a01b039095168552602091820293909301359084015250600182820152519081900360600190a250505050565b61565061584a565b6001600160a01b03166156616128e5565b6001600160a01b0316146156aa576040805162461bcd60e51b81526020600482018190526024820152600080516020615d56833981519152604482015290519081900360640190fd5b6001600160a01b0381166156ef5760405162461bcd60e51b8152600401808060200182810382526026815260200180615cd56026913960400191505060405180910390fd5b6002546040516001600160a01b03808416921690600080516020615d7683398151915290600090a3600280546001600160a01b0319166001600160a01b0392909216919091179055565b6005546001600160a01b0316331461578a576040805162461bcd60e51b815260206004820152600f60248201526e554e415554484f52495a45445f544b60881b604482015290519081900360640190fd5b565b6000828201838110156157e4576040805162461bcd60e51b815260206004820152601b60248201527a536166654d6174683a206164646974696f6e206f766572666c6f7760281b604482015290519081900360640190fd5b90505b92915050565b600082821115615844576040805162461bcd60e51b815260206004820152601e60248201527f536166654d6174683a207375627472616374696f6e206f766572666c6f770000604482015290519081900360640190fd5b50900390565b3390565b6158566123f3565b61589e576040805162461bcd60e51b815260206004820152601460248201527314185d5cd8589b194e881b9bdd081c185d5cd95960621b604482015290519081900360640190fd5b6000805460ff191690557f5db9ee0a495bf2e6ff9c91a7834c1ba4fdd244a5e8aa4e537bd38aeae4b073aa6158d161584a565b604080516001600160a01b039092168252519081900360200190a1565b80471015615943576040805162461bcd60e51b815260206004820152601d60248201527f416464726573733a20696e73756666696369656e742062616c616e6365000000604482015290519081900360640190fd5b6040516000906001600160a01b0384169083908381818185875af1925050503d806000811461598e576040519150601f19603f3d011682016040523d82523d6000602084013e615993565b606091505b50509050806159d35760405162461bcd60e51b815260040180806020018281038252603a815260200180615cfb603a913960400191505060405180910390fd5b505050565b6159e06123f3565b15615a20576040805162461bcd60e51b81526020600482015260106024820152600080516020615d96833981519152604482015290519081900360640190fd5b6000805460ff191660011790557f62e78cea01bee320cd4e420270b5ea74000d11b0c9f74754ebdbfc544b05a2586158d161584a565b600082615a65575060006157e7565b82820282848281615a7257fe5b04146157e45760405162461bcd60e51b8152600401808060200182810382526021815260200180615d356021913960400191505060405180910390fd5b6001600160a01b038116615b02576040805162461bcd60e51b8152602060048201526015602482015274494e56414c49445f544f4b454e5f4144445245535360581b604482015290519081900360640190fd5b50565b600660009054906101000a90046001600160a01b03166001600160a01b0316630f878aed6040518163ffffffff1660e01b815260040160206040518083038186803b158015615b5357600080fd5b505afa158015615b67573d6000803e3d6000fd5b505050506040513d6020811015615b7d57600080fd5b5051811115615b02576040805162461bcd60e51b8152602060048201526015602482015274159053155157d05093d59157d1551217d312535255605a1b604482015290519081900360640190fd5b60065460408051635a860c8760e01b81526001600160a01b03858116600483015291519190921691635a860c87916024808301926020929190829003018186803b158015615c1857600080fd5b505afa158015615c2c573d6000803e3d6000fd5b505050506040513d6020811015615c4257600080fd5b5051811115615c90576040805162461bcd60e51b8152602060048201526015602482015274159053155157d05093d59157d512d397d312535255605a1b604482015290519081900360640190fd5b505056fe9cd76efe5f04f329bc3381df2c7d9749916aa2213a2823c6c7b37f0d16f1018d5265656e7472616e637947756172643a207265656e7472616e742063616c6c004f776e61626c653a206e6577206f776e657220697320746865207a65726f2061646472657373416464726573733a20756e61626c6520746f2073656e642076616c75652c20726563697069656e74206d61792068617665207265766572746564536166654d6174683a206d756c7469706c69636174696f6e206f766572666c6f774f776e61626c653a2063616c6c6572206973206e6f7420746865206f776e65728be0079c531659141344cd1fd0a4f28419497f9722a3daafe3b4186f6b6457e05061757361626c653a2070617573656400000000000000000000000000000000a26469706673582212201f2b163a32d0c57c67d20e1f1a8a151b1e2db8f149327a2394847417fc11d6e264736f6c63430007010033",
  "source": "// SPDX-License-Identifier: LGPL-3.0-or-later\npragma solidity 0.7.1;\n\nimport \"@openzeppelin/contracts/utils/ReentrancyGuard.sol\";\nimport \"@openzeppelin/contracts/math/SafeMath.sol\";\nimport \"@openzeppelin/contracts/access/Ownable.sol\";\nimport \"@openzeppelin/contracts/utils/Pausable.sol\";\nimport \"@openzeppelin/contracts/utils/Address.sol\";\nimport \"./IVoucherKernel.sol\";\nimport \"./UsingHelpers.sol\";\nimport \"./IERC20WithPermit.sol\";\nimport \"./ERC1155ERC721.sol\";\nimport \"./IFundLimitsOracle.sol\";\nimport \"./IBosonRouter.sol\";\nimport \"./ICashier.sol\";\n\n/**\n * @title Contract for managing funds\n *  Roughly following OpenZeppelin's Escrow at https://github.com/OpenZeppelin/openzeppelin-solidity/contracts/payment/\n */\ncontract BosonRouter is\n    IBosonRouter,\n    UsingHelpers,\n    Pausable,\n    ReentrancyGuard,\n    Ownable\n{\n    using Address for address payable;\n    using SafeMath for uint256;\n\n    address public cashierAddress;\n    address public voucherKernel;\n    address public tokensContractAddress;\n    address public fundLimitsOracle;\n\n    event LogOrderCreated(\n        uint256 indexed _tokenIdSupply,\n        address _seller,\n        uint256 _quantity,\n        uint8 _paymentType\n    );\n\n    event LogTokenContractSet(address _newTokenContract, address _triggeredBy);\n\n    function notZeroAddress(address tokenAddress) private pure {\n        require(tokenAddress != address(0), \"INVALID_TOKEN_ADDRESS\");\n    }\n\n    function onlyTokensContract() private view {\n        require(msg.sender == tokensContractAddress, \"UNAUTHORIZED_TK\");\n    }\n\n    function notAboveETHLimit(uint256 value) internal view {\n        require(\n            value <= IFundLimitsOracle(fundLimitsOracle).getETHLimit(),\n            \"VALUE_ABOVE_ETH_LIMIT\"\n        );\n    }\n\n    function notAboveTokenLimit(address _tokenAddress, uint256 value)\n        internal\n        view\n    {\n        require(\n            value <=\n                IFundLimitsOracle(fundLimitsOracle).getTokenLimit(\n                    _tokenAddress\n                ),\n            \"VALUE_ABOVE_TKN_LIMIT\"\n        );\n    }\n\n    constructor(\n        address _voucherKernel,\n        address _tokensContractAddress,\n        address _fundLimitsOracle,\n        address _cashierAddress\n    ) {\n        voucherKernel = _voucherKernel;\n        tokensContractAddress = _tokensContractAddress;\n        fundLimitsOracle = _fundLimitsOracle;\n        cashierAddress = _cashierAddress;\n    }\n\n    /**\n     * @notice Pause the Cashier && the Voucher Kernel contracts in case of emergency.\n     * All functions related to creating new batch, requestVoucher or withdraw will be paused, hence cannot be executed.\n     * There is special function for withdrawing funds if contract is paused.\n     */\n    function pause() external override onlyOwner {\n        _pause();\n        IVoucherKernel(voucherKernel).pause();\n        ICashier(cashierAddress).pause();\n    }\n\n    /**\n     * @notice Unpause the Cashier && the Voucher Kernel contracts.\n     * All functions related to creating new batch, requestVoucher or withdraw will be unpaused.\n     */\n    function unpause() external override onlyOwner {\n        require(\n            ICashier(cashierAddress).canUnpause(),\n            \"Contracts unpauseable!\"\n        );\n\n        _unpause();\n        IVoucherKernel(voucherKernel).unpause();\n        ICashier(cashierAddress).unpause();\n    }\n\n    /**\n     * @notice Issuer/Seller offers promises as supply tokens and needs to escrow the deposit\n        @param metadata metadata which is required for creation of a voucher\n        Metadata array is used as in some scenarios we need several more params, as we need to recover \n        owner address in order to permit the contract to transfer funds in his behalf. \n        Since the params get too many, we end up in situation that the stack is too deep.\n        \n        uint256 _validFrom = metadata[0];\n        uint256 _validTo = metadata[1];\n        uint256 _price = metadata[2];\n        uint256 _depositSe = metadata[3];\n        uint256 _depositBu = metadata[4];\n        uint256 _quantity = metadata[5];\n     */\n    function requestCreateOrderETHETH(uint256[] calldata metadata)\n        external\n        payable\n        override\n        whenNotPaused\n    {\n        notAboveETHLimit(metadata[2].mul(metadata[5]));\n        notAboveETHLimit(metadata[3].mul(metadata[5]));\n        notAboveETHLimit(metadata[4].mul(metadata[5]));\n        require(metadata[3].mul(metadata[5]) == msg.value, \"INCORRECT_FUNDS\");\n        //hex\"54\" FISSION.code(FISSION.Category.Finance, FISSION.Status.InsufficientFunds)\n\n        uint256 tokenIdSupply =\n            IVoucherKernel(voucherKernel).createTokenSupplyID(\n                msg.sender,\n                metadata[0],\n                metadata[1],\n                metadata[2],\n                metadata[3],\n                metadata[4],\n                metadata[5]\n            );\n\n        IVoucherKernel(voucherKernel).createPaymentMethod(\n            tokenIdSupply,\n            ETHETH,\n            address(0),\n            address(0)\n        );\n\n        //checks\n        //(i) this is for separate promise allocation, not in prototype\n        //uint256 depositSe = IVoucherKernel(voucherKernel).getPromiseDepositSe(promiseId);\n        //require(depositSe * _quantity == weiReceived, \"INCORRECT_FUNDS\");   //hex\"54\" FISSION.code(FISSION.Category.Finance, FISSION.Status.InsufficientFunds)\n        //(ii) prototype check\n\n        //record funds in escrow ...\n        uint256 amount = ICashier(cashierAddress).getEscrowAmount(msg.sender);\n        ICashier(cashierAddress).updateEscrowAmount(\n            msg.sender,\n            amount.add(msg.value)\n        );\n\n        payable(cashierAddress).sendValue(msg.value);\n\n        emit LogOrderCreated(tokenIdSupply, msg.sender, metadata[5], ETHETH);\n    }\n\n    function requestCreateOrderTKNTKNWithPermit(\n        address _tokenPriceAddress,\n        address _tokenDepositAddress,\n        uint256 _tokensSent,\n        uint256 deadline,\n        uint8 v,\n        bytes32 r,\n        bytes32 s,\n        uint256[] calldata metadata\n    ) external override whenNotPaused {\n        notZeroAddress(_tokenPriceAddress);\n        notZeroAddress(_tokenDepositAddress);\n        notAboveTokenLimit(_tokenPriceAddress, metadata[2].mul(metadata[5]));\n        notAboveTokenLimit(_tokenDepositAddress, metadata[3].mul(metadata[5]));\n        notAboveTokenLimit(_tokenDepositAddress, metadata[4].mul(metadata[5]));\n\n        require(metadata[3].mul(metadata[5]) == _tokensSent, \"INCORRECT_FUNDS\");\n        //hex\"54\" FISSION.code(FISSION.Category.Finance, FISSION.Status.InsufficientFunds)\n\n        IERC20WithPermit(_tokenDepositAddress).permit(\n            msg.sender,\n            address(this),\n            _tokensSent,\n            deadline,\n            v,\n            r,\n            s\n        );\n\n        uint256 tokenIdSupply =\n            IVoucherKernel(voucherKernel).createTokenSupplyID(\n                msg.sender,\n                metadata[0],\n                metadata[1],\n                metadata[2],\n                metadata[3],\n                metadata[4],\n                metadata[5]\n            );\n\n        IVoucherKernel(voucherKernel).createPaymentMethod(\n            tokenIdSupply,\n            TKNTKN,\n            _tokenPriceAddress,\n            _tokenDepositAddress\n        );\n\n        IERC20WithPermit(_tokenDepositAddress).transferFrom(\n            msg.sender,\n            address(cashierAddress),\n            _tokensSent\n        );\n\n        //record funds in escrowTokens ...\n        uint256 amount =\n            ICashier(cashierAddress).getEscrowTokensAmount(\n                _tokenDepositAddress,\n                msg.sender\n            );\n        ICashier(cashierAddress).updateEscrowTokensAmount(\n            _tokenDepositAddress,\n            msg.sender,\n            amount.add(_tokensSent)\n        );\n\n        emit LogOrderCreated(tokenIdSupply, msg.sender, metadata[5], TKNTKN);\n    }\n\n    function requestCreateOrderETHTKNWithPermit(\n        address _tokenDepositAddress,\n        uint256 _tokensSent,\n        uint256 deadline,\n        uint8 v,\n        bytes32 r,\n        bytes32 s,\n        uint256[] calldata metadata\n    ) external override whenNotPaused {\n        notZeroAddress(_tokenDepositAddress);\n        notAboveETHLimit(metadata[2].mul(metadata[5]));\n        notAboveTokenLimit(_tokenDepositAddress, metadata[3].mul(metadata[5]));\n        notAboveTokenLimit(_tokenDepositAddress, metadata[4].mul(metadata[5]));\n\n        require(metadata[3].mul(metadata[5]) == _tokensSent, \"INCORRECT_FUNDS\");\n        //hex\"54\" FISSION.code(FISSION.Category.Finance, FISSION.Status.InsufficientFunds)\n\n        IERC20WithPermit(_tokenDepositAddress).permit(\n            msg.sender,\n            address(this),\n            _tokensSent,\n            deadline,\n            v,\n            r,\n            s\n        );\n\n        uint256 tokenIdSupply =\n            IVoucherKernel(voucherKernel).createTokenSupplyID(\n                msg.sender,\n                metadata[0],\n                metadata[1],\n                metadata[2],\n                metadata[3],\n                metadata[4],\n                metadata[5]\n            );\n\n        IVoucherKernel(voucherKernel).createPaymentMethod(\n            tokenIdSupply,\n            ETHTKN,\n            address(0),\n            _tokenDepositAddress\n        );\n\n        IERC20WithPermit(_tokenDepositAddress).transferFrom(\n            msg.sender,\n            address(cashierAddress),\n            _tokensSent\n        );\n\n        //record funds in escrowTokens ...\n        uint256 amount =\n            ICashier(cashierAddress).getEscrowTokensAmount(\n                _tokenDepositAddress,\n                msg.sender\n            );\n        ICashier(cashierAddress).updateEscrowTokensAmount(\n            _tokenDepositAddress,\n            msg.sender,\n            amount.add(_tokensSent)\n        );\n\n        emit LogOrderCreated(tokenIdSupply, msg.sender, metadata[5], ETHTKN);\n    }\n\n    function requestCreateOrderTKNETH(\n        address _tokenPriceAddress,\n        uint256[] calldata metadata\n    ) external payable override whenNotPaused {\n        notZeroAddress(_tokenPriceAddress);\n        notAboveTokenLimit(_tokenPriceAddress, metadata[2].mul(metadata[5]));\n        notAboveETHLimit(metadata[3].mul(metadata[5]));\n        notAboveETHLimit(metadata[4].mul(metadata[5]));\n\n        require(metadata[3].mul(metadata[5]) == msg.value, \"INCORRECT_FUNDS\");\n        //hex\"54\" FISSION.code(FISSION.Category.Finance, FISSION.Status.InsufficientFunds)\n\n        uint256 tokenIdSupply =\n            IVoucherKernel(voucherKernel).createTokenSupplyID(\n                msg.sender,\n                metadata[0],\n                metadata[1],\n                metadata[2],\n                metadata[3],\n                metadata[4],\n                metadata[5]\n            );\n        IVoucherKernel(voucherKernel).createPaymentMethod(\n            tokenIdSupply,\n            TKNETH,\n            _tokenPriceAddress,\n            address(0)\n        );\n\n        uint256 amount = ICashier(cashierAddress).getEscrowAmount(msg.sender);\n        ICashier(cashierAddress).updateEscrowAmount(\n            msg.sender,\n            amount.add(msg.value)\n        );\n\n        payable(cashierAddress).sendValue(msg.value);\n\n        emit LogOrderCreated(tokenIdSupply, msg.sender, metadata[5], TKNETH);\n    }\n\n    /**\n     * @notice Consumer requests/buys a voucher by filling an order and receiving a Voucher Token in return\n     * @param _tokenIdSupply    ID of the supply token\n     * @param _issuer           Address of the issuer of the supply token\n     */\n    function requestVoucherETHETH(uint256 _tokenIdSupply, address _issuer)\n        external\n        payable\n        override\n        nonReentrant\n        whenNotPaused\n    {\n        uint256 weiReceived = msg.value;\n\n        //checks\n        (uint256 price, , uint256 depositBu) =\n            IVoucherKernel(voucherKernel).getOrderCosts(_tokenIdSupply);\n        require(price.add(depositBu) == weiReceived, \"INCORRECT_FUNDS\");\n        //hex\"54\" FISSION.code(FISSION.Category.Finance, FISSION.Status.InsufficientFunds)\n\n        IVoucherKernel(voucherKernel).fillOrder(\n            _tokenIdSupply,\n            _issuer,\n            msg.sender\n        );\n\n        //record funds in escrow ...\n        uint256 amount = ICashier(cashierAddress).getEscrowAmount(msg.sender);\n        ICashier(cashierAddress).updateEscrowAmount(\n            msg.sender,\n            amount.add(weiReceived)\n        );\n\n        payable(cashierAddress).sendValue(msg.value);\n    }\n\n    function requestVoucherTKNTKNWithPermit(\n        uint256 _tokenIdSupply,\n        address _issuer,\n        uint256 _tokensSent,\n        uint256 deadline,\n        uint8 vPrice,\n        bytes32 rPrice,\n        bytes32 sPrice, // tokenPrice\n        uint8 vDeposit,\n        bytes32 rDeposit,\n        bytes32 sDeposit // tokenDeposits\n    ) external override nonReentrant whenNotPaused {\n        //checks\n        (uint256 price, uint256 depositBu) =\n            IVoucherKernel(voucherKernel).getBuyerOrderCosts(_tokenIdSupply);\n        require(_tokensSent.sub(depositBu) == price, \"INCORRECT_FUNDS\");\n\n        address tokenPriceAddress =\n            IVoucherKernel(voucherKernel).getVoucherPriceToken(_tokenIdSupply);\n        address tokenDepositAddress =\n            IVoucherKernel(voucherKernel).getVoucherDepositToken(\n                _tokenIdSupply\n            );\n\n        IERC20WithPermit(tokenPriceAddress).permit(\n            msg.sender,\n            address(this),\n            price,\n            deadline,\n            vPrice,\n            rPrice,\n            sPrice\n        );\n        IERC20WithPermit(tokenDepositAddress).permit(\n            msg.sender,\n            address(this),\n            depositBu,\n            deadline,\n            vDeposit,\n            rDeposit,\n            sDeposit\n        );\n\n        IVoucherKernel(voucherKernel).fillOrder(\n            _tokenIdSupply,\n            _issuer,\n            msg.sender\n        );\n\n        IERC20WithPermit(tokenPriceAddress).transferFrom(\n            msg.sender,\n            address(cashierAddress),\n            price\n        );\n        IERC20WithPermit(tokenDepositAddress).transferFrom(\n            msg.sender,\n            address(cashierAddress),\n            depositBu\n        );\n\n        //record funds in escrowTokens for the Price token...\n        uint256 amount =\n            ICashier(cashierAddress).getEscrowTokensAmount(\n                tokenPriceAddress,\n                msg.sender\n            );\n        ICashier(cashierAddress).updateEscrowTokensAmount(\n            tokenPriceAddress,\n            msg.sender,\n            amount.add(price)\n        );\n\n        //record funds in escrowTokens for the Deposit token...\n        amount = ICashier(cashierAddress).getEscrowTokensAmount(\n            tokenDepositAddress,\n            msg.sender\n        );\n        ICashier(cashierAddress).updateEscrowTokensAmount(\n            tokenDepositAddress,\n            msg.sender,\n            amount.add(depositBu)\n        );\n    }\n\n    function requestVoucherTKNTKNSameWithPermit(\n        uint256 _tokenIdSupply,\n        address _issuer,\n        uint256 _tokensSent,\n        uint256 deadline,\n        uint8 v,\n        bytes32 r,\n        bytes32 s\n    ) external override nonReentrant whenNotPaused {\n        //checks\n        (uint256 price, uint256 depositBu) =\n            IVoucherKernel(voucherKernel).getBuyerOrderCosts(_tokenIdSupply);\n        require(_tokensSent.sub(depositBu) == price, \"INCORRECT_FUNDS\");\n\n        address tokenPriceAddress =\n            IVoucherKernel(voucherKernel).getVoucherPriceToken(_tokenIdSupply);\n        address tokenDepositAddress =\n            IVoucherKernel(voucherKernel).getVoucherDepositToken(\n                _tokenIdSupply\n            );\n\n        require(tokenPriceAddress == tokenDepositAddress, \"INVALID_CALL\");\n\n        // If tokenPriceAddress && tokenPriceAddress are the same\n        // practically it's not of importance to each we are sending the funds\n        IERC20WithPermit(tokenPriceAddress).permit(\n            msg.sender,\n            address(this),\n            _tokensSent,\n            deadline,\n            v,\n            r,\n            s\n        );\n\n        IVoucherKernel(voucherKernel).fillOrder(\n            _tokenIdSupply,\n            _issuer,\n            msg.sender\n        );\n\n        IERC20WithPermit(tokenPriceAddress).transferFrom(\n            msg.sender,\n            address(cashierAddress),\n            _tokensSent\n        );\n\n        //record funds in escrowTokens ...\n        uint256 amount =\n            ICashier(cashierAddress).getEscrowTokensAmount(\n                tokenPriceAddress,\n                msg.sender\n            );\n        ICashier(cashierAddress).updateEscrowTokensAmount(\n            tokenPriceAddress,\n            msg.sender,\n            amount.add(_tokensSent)\n        );\n    }\n\n    function requestVoucherETHTKNWithPermit(\n        uint256 _tokenIdSupply,\n        address _issuer,\n        uint256 _tokensDeposit,\n        uint256 deadline,\n        uint8 v,\n        bytes32 r,\n        bytes32 s\n    ) external payable override nonReentrant whenNotPaused {\n        //checks\n        (uint256 price, uint256 depositBu) =\n            IVoucherKernel(voucherKernel).getBuyerOrderCosts(_tokenIdSupply);\n        require(price == msg.value, \"INCORRECT_PRICE\");\n        //hex\"54\" FISSION.code(FISSION.Category.Finance, FISSION.Status.InsufficientFunds)\n        require(depositBu == _tokensDeposit, \"INCORRECT_DE\");\n        //hex\"54\" FISSION.code(FISSION.Category.Finance, FISSION.Status.InsufficientFunds)\n\n        address tokenDepositAddress =\n            IVoucherKernel(voucherKernel).getVoucherDepositToken(\n                _tokenIdSupply\n            );\n        IERC20WithPermit(tokenDepositAddress).permit(\n            msg.sender,\n            address(this),\n            _tokensDeposit,\n            deadline,\n            v,\n            r,\n            s\n        );\n\n        IVoucherKernel(voucherKernel).fillOrder(\n            _tokenIdSupply,\n            _issuer,\n            msg.sender\n        );\n\n        IERC20WithPermit(tokenDepositAddress).transferFrom(\n            msg.sender,\n            address(cashierAddress),\n            _tokensDeposit\n        );\n\n        //record funds in escrow ...\n        uint256 amount = ICashier(cashierAddress).getEscrowAmount(msg.sender);\n        ICashier(cashierAddress).updateEscrowAmount(\n            msg.sender,\n            amount.add(msg.value)\n        );\n\n        //record funds in escrowTokens ...\n        amount = ICashier(cashierAddress).getEscrowTokensAmount(\n            tokenDepositAddress,\n            msg.sender\n        );\n        ICashier(cashierAddress).updateEscrowTokensAmount(\n            tokenDepositAddress,\n            msg.sender,\n            amount.add(_tokensDeposit)\n        );\n\n        payable(cashierAddress).sendValue(msg.value);\n    }\n\n    function requestVoucherTKNETHWithPermit(\n        uint256 _tokenIdSupply,\n        address _issuer,\n        uint256 _tokensPrice,\n        uint256 deadline,\n        uint8 v,\n        bytes32 r,\n        bytes32 s\n    ) external payable override nonReentrant whenNotPaused {\n        //checks\n        (uint256 price, uint256 depositBu) =\n            IVoucherKernel(voucherKernel).getBuyerOrderCosts(_tokenIdSupply);\n        require(price == _tokensPrice, \"INCORRECT_PRICE\");\n        //hex\"54\" FISSION.code(FISSION.Category.Finance, FISSION.Status.InsufficientFunds)\n        require(depositBu == msg.value, \"INCORRECT_DE\");\n        //hex\"54\" FISSION.code(FISSION.Category.Finance, FISSION.Status.InsufficientFunds)\n\n        address tokenPriceAddress =\n            IVoucherKernel(voucherKernel).getVoucherPriceToken(_tokenIdSupply);\n        IERC20WithPermit(tokenPriceAddress).permit(\n            msg.sender,\n            address(this),\n            price,\n            deadline,\n            v,\n            r,\n            s\n        );\n\n        IVoucherKernel(voucherKernel).fillOrder(\n            _tokenIdSupply,\n            _issuer,\n            msg.sender\n        );\n\n        IERC20WithPermit(tokenPriceAddress).transferFrom(\n            msg.sender,\n            address(cashierAddress),\n            price\n        );\n\n        //record funds in escrow ...\n        uint256 amount = ICashier(cashierAddress).getEscrowAmount(msg.sender);\n        ICashier(cashierAddress).updateEscrowAmount(\n            msg.sender,\n            amount.add(msg.value)\n        );\n\n        //record funds in escrowTokens ...\n        amount = ICashier(cashierAddress).getEscrowTokensAmount(\n            tokenPriceAddress,\n            msg.sender\n        );\n        ICashier(cashierAddress).updateEscrowTokensAmount(\n            tokenPriceAddress,\n            msg.sender,\n            amount.add(price)\n        );\n\n        payable(cashierAddress).sendValue(msg.value);\n    }\n\n    /**\n     * @notice Seller burns the remaining supply in case it's no longer in exchange and withdrawal of the locked deposits for them are being sent back.\n     * @param _tokenIdSupply an ID of a supply token (ERC-1155) which will be burned and deposits will be returned for\n     */\n    function requestCancelOrFaultVoucherSet(uint256 _tokenIdSupply)\n        external\n        override\n        nonReentrant\n        whenNotPaused\n    {\n        uint256 _burnedSupplyQty =\n            IVoucherKernel(voucherKernel).cancelOrFaultVoucherSet(\n                _tokenIdSupply,\n                msg.sender\n            );\n        ICashier(cashierAddress).withdrawDepositsSe(\n            _tokenIdSupply,\n            _burnedSupplyQty,\n            msg.sender\n        );\n    }\n\n    /**\n     * @notice Redemption of the vouchers promise\n     * @param _tokenIdVoucher   ID of the voucher\n     */\n    function redeem(uint256 _tokenIdVoucher) external override {\n        IVoucherKernel(voucherKernel).redeem(_tokenIdVoucher, msg.sender);\n    }\n\n    /**\n     * @notice Refunding a voucher\n     * @param _tokenIdVoucher   ID of the voucher\n     */\n    function refund(uint256 _tokenIdVoucher) external override {\n        IVoucherKernel(voucherKernel).refund(_tokenIdVoucher, msg.sender);\n    }\n\n    /**\n     * @notice Issue a complain for a voucher\n     * @param _tokenIdVoucher   ID of the voucher\n     */\n    function complain(uint256 _tokenIdVoucher) external override {\n        IVoucherKernel(voucherKernel).complain(_tokenIdVoucher, msg.sender);\n    }\n\n    /**\n     * @notice Cancel/Fault transaction by the Seller, admitting to a fault or backing out of the deal\n     * @param _tokenIdVoucher   ID of the voucher\n     */\n    function cancelOrFault(uint256 _tokenIdVoucher) external override {\n        IVoucherKernel(voucherKernel).cancelOrFault(\n            _tokenIdVoucher,\n            msg.sender\n        );\n    }\n\n    /**\n     * @notice Hook which will be triggered when a _tokenIdVoucher will be transferred. Escrow funds should be allocated to the new owner.\n     * @param _from prev owner of the _tokenIdVoucher\n     * @param _to next owner of the _tokenIdVoucher\n     * @param _tokenIdVoucher _tokenIdVoucher that has been transferred\n     */\n    function _onERC721Transfer(\n        address _from,\n        address _to,\n        uint256 _tokenIdVoucher\n    ) external override {\n        onlyTokensContract();\n        uint256 tokenSupplyId =\n            IVoucherKernel(voucherKernel).getIdSupplyFromVoucher(\n                _tokenIdVoucher\n            );\n        uint8 paymentType =\n            IVoucherKernel(voucherKernel).getVoucherPaymentMethod(\n                tokenSupplyId\n            );\n\n        uint256 amount;\n        address tokenAddress;\n\n        (uint256 price, uint256 depositBu) =\n            IVoucherKernel(voucherKernel).getBuyerOrderCosts(tokenSupplyId);\n\n        if (paymentType == ETHETH) {\n            uint256 totalAmount = price.add(depositBu);\n\n            amount = ICashier(cashierAddress).getEscrowAmount(_from);\n            ICashier(cashierAddress).updateEscrowAmount(\n                _from,\n                amount.sub(totalAmount)\n            );\n\n            amount = ICashier(cashierAddress).getEscrowAmount(_to);\n            ICashier(cashierAddress).updateEscrowAmount(\n                _to,\n                amount.add(totalAmount)\n            );\n        }\n\n        if (paymentType == ETHTKN) {\n            amount = ICashier(cashierAddress).getEscrowAmount(_from);\n            ICashier(cashierAddress).updateEscrowAmount(\n                _from,\n                amount.sub(price)\n            );\n\n            amount = ICashier(cashierAddress).getEscrowAmount(_to);\n            ICashier(cashierAddress).updateEscrowAmount(_to, amount.add(price));\n\n            tokenAddress = IVoucherKernel(voucherKernel).getVoucherDepositToken(\n                tokenSupplyId\n            );\n\n            amount = ICashier(cashierAddress).getEscrowTokensAmount(\n                tokenAddress,\n                _from\n            );\n            ICashier(cashierAddress).updateEscrowTokensAmount(\n                tokenAddress,\n                _from,\n                amount.sub(depositBu)\n            );\n\n            amount = ICashier(cashierAddress).getEscrowTokensAmount(\n                tokenAddress,\n                _to\n            );\n            ICashier(cashierAddress).updateEscrowTokensAmount(\n                tokenAddress,\n                _to,\n                amount.add(depositBu)\n            );\n        }\n\n        if (paymentType == TKNETH) {\n            tokenAddress = IVoucherKernel(voucherKernel).getVoucherPriceToken(\n                tokenSupplyId\n            );\n\n            amount = ICashier(cashierAddress).getEscrowTokensAmount(\n                tokenAddress,\n                _from\n            );\n            ICashier(cashierAddress).updateEscrowTokensAmount(\n                tokenAddress,\n                _from,\n                amount.sub(price)\n            );\n\n            amount = ICashier(cashierAddress).getEscrowTokensAmount(\n                tokenAddress,\n                _to\n            );\n            ICashier(cashierAddress).updateEscrowTokensAmount(\n                tokenAddress,\n                _to,\n                amount.add(price)\n            );\n\n            amount = ICashier(cashierAddress).getEscrowAmount(_from);\n            ICashier(cashierAddress).updateEscrowAmount(\n                _from,\n                amount.sub(depositBu)\n            );\n\n            amount = ICashier(cashierAddress).getEscrowAmount(_to);\n            ICashier(cashierAddress).updateEscrowAmount(\n                _to,\n                amount.add(depositBu)\n            );\n        }\n\n        if (paymentType == TKNTKN) {\n            tokenAddress = IVoucherKernel(voucherKernel).getVoucherPriceToken(\n                tokenSupplyId\n            );\n\n            amount = ICashier(cashierAddress).getEscrowTokensAmount(\n                tokenAddress,\n                _from\n            );\n            ICashier(cashierAddress).updateEscrowTokensAmount(\n                tokenAddress,\n                _from,\n                amount.sub(price)\n            );\n\n            amount = ICashier(cashierAddress).getEscrowTokensAmount(\n                tokenAddress,\n                _to\n            );\n            ICashier(cashierAddress).updateEscrowTokensAmount(\n                tokenAddress,\n                _to,\n                amount.add(price)\n            );\n\n            tokenAddress = IVoucherKernel(voucherKernel).getVoucherDepositToken(\n                tokenSupplyId\n            );\n\n            amount = ICashier(cashierAddress).getEscrowTokensAmount(\n                tokenAddress,\n                _from\n            );\n            ICashier(cashierAddress).updateEscrowTokensAmount(\n                tokenAddress,\n                _from,\n                amount.sub(depositBu)\n            );\n\n            amount = ICashier(cashierAddress).getEscrowTokensAmount(\n                tokenAddress,\n                _to\n            );\n            ICashier(cashierAddress).updateEscrowTokensAmount(\n                tokenAddress,\n                _to,\n                amount.add(depositBu)\n            );\n        }\n    }\n\n    /**\n     * @notice Pre-validation when a transfer from the the Tokens contract is triggered. Only the whole supply is allowed for transfer, otherwise reverts.\n     * @param _from owner of the _tokenSupplyId\n     * @param _tokenSupplyId _tokenSupplyId which will be validated\n     * @param _value qty which is desired to be transferred\n     */\n    function _beforeERC1155Transfer(\n        address _from,\n        uint256 _tokenSupplyId,\n        uint256 _value\n    ) external view override {\n        onlyTokensContract();\n        uint256 _tokenSupplyQty =\n            IVoucherKernel(voucherKernel).getRemQtyForSupply(\n                _tokenSupplyId,\n                _from\n            );\n        require(_tokenSupplyQty == _value, \"INVALID_QTY\");\n    }\n\n    /**\n     * @notice After the transfer happens the _tokenSupplyId should be updated in the promise. Escrow funds for the seller's deposits (If in ETH) should be allocated to the new owner as well.\n     * @param _from prev owner of the _tokenSupplyId\n     * @param _to nex owner of the _tokenSupplyId\n     * @param _tokenSupplyId _tokenSupplyId for transfer\n     * @param _value qty which has been transferred\n     */\n    function _onERC1155Transfer(\n        address _from,\n        address _to,\n        uint256 _tokenSupplyId,\n        uint256 _value\n    ) external override {\n        onlyTokensContract();\n        uint8 paymentType =\n            IVoucherKernel(voucherKernel).getVoucherPaymentMethod(\n                _tokenSupplyId\n            );\n\n        uint256 depositSe;\n        uint256 totalAmount;\n        uint256 amount;\n\n        if (paymentType == ETHETH || paymentType == TKNETH) {\n            depositSe = IVoucherKernel(voucherKernel).getSellerDeposit(\n                _tokenSupplyId\n            );\n            totalAmount = depositSe.mul(_value);\n\n            amount = ICashier(cashierAddress).getEscrowAmount(_from);\n            ICashier(cashierAddress).updateEscrowAmount(\n                _from,\n                amount.sub(totalAmount)\n            );\n\n            amount = ICashier(cashierAddress).getEscrowAmount(_to);\n            ICashier(cashierAddress).updateEscrowAmount(\n                _to,\n                amount.add(totalAmount)\n            );\n        }\n\n        if (paymentType == ETHTKN || paymentType == TKNTKN) {\n            address tokenDepositAddress =\n                IVoucherKernel(voucherKernel).getVoucherDepositToken(\n                    _tokenSupplyId\n                );\n\n            depositSe = IVoucherKernel(voucherKernel).getSellerDeposit(\n                _tokenSupplyId\n            );\n            totalAmount = depositSe.mul(_value);\n\n            amount = ICashier(cashierAddress).getEscrowTokensAmount(\n                tokenDepositAddress,\n                _from\n            );\n            ICashier(cashierAddress).updateEscrowTokensAmount(\n                tokenDepositAddress,\n                _from,\n                amount.sub(totalAmount)\n            );\n\n            amount = ICashier(cashierAddress).getEscrowTokensAmount(\n                tokenDepositAddress,\n                _to\n            );\n            ICashier(cashierAddress).updateEscrowTokensAmount(\n                tokenDepositAddress,\n                _to,\n                amount.add(totalAmount)\n            );\n        }\n\n        IVoucherKernel(voucherKernel).setSupplyHolderOnTransfer(\n            _tokenSupplyId,\n            _to\n        );\n    }\n\n    // // // // // // // //\n    // UTILS\n    // // // // // // // //\n\n    /**\n     * @notice Set the address of the ERC1155ERC721 contract\n     * @param _tokensContractAddress   The address of the ERC1155ERC721 contract\n     */\n    function setTokenContractAddress(address _tokensContractAddress)\n        external\n        override\n        onlyOwner\n    {\n        notZeroAddress(_tokensContractAddress);\n        tokensContractAddress = _tokensContractAddress;\n        emit LogTokenContractSet(_tokensContractAddress, msg.sender);\n    }\n}\n",
  "sourcePath": "/Users/hristiyangeorgiev/Documents/Projects/Redeemeum/ContractsBackupBeforeRebase/contracts/BosonRouter.sol",
  "compiler": {
    "name": "solc",
    "version": "0.7.1+commit.f4a555be.Emscripten.clang"
  },
  "schemaVersion": "3.0.22",
  "updatedAt": "2021-02-11T14:07:53.820Z",
  "devdoc": {
    "kind": "dev",
    "methods": {
      "_beforeERC1155Transfer(address,uint256,uint256)": {
        "params": {
          "_from": "owner of the _tokenSupplyId",
          "_tokenSupplyId": "_tokenSupplyId which will be validated",
          "_value": "qty which is desired to be transferred"
        }
      },
      "_onERC1155Transfer(address,address,uint256,uint256)": {
        "params": {
          "_from": "prev owner of the _tokenSupplyId",
          "_to": "nex owner of the _tokenSupplyId",
          "_tokenSupplyId": "_tokenSupplyId for transfer",
          "_value": "qty which has been transferred"
        }
      },
      "_onERC721Transfer(address,address,uint256)": {
        "params": {
          "_from": "prev owner of the _tokenIdVoucher",
          "_to": "next owner of the _tokenIdVoucher",
          "_tokenIdVoucher": "_tokenIdVoucher that has been transferred"
        }
      },
      "cancelOrFault(uint256)": {
        "params": {
          "_tokenIdVoucher": "ID of the voucher"
        }
      },
      "complain(uint256)": {
        "params": {
          "_tokenIdVoucher": "ID of the voucher"
        }
      },
      "owner()": {
        "details": "Returns the address of the current owner."
      },
      "paused()": {
        "details": "Returns true if the contract is paused, and false otherwise."
      },
      "redeem(uint256)": {
        "params": {
          "_tokenIdVoucher": "ID of the voucher"
        }
      },
      "refund(uint256)": {
        "params": {
          "_tokenIdVoucher": "ID of the voucher"
        }
      },
      "renounceOwnership()": {
        "details": "Leaves the contract without owner. It will not be possible to call `onlyOwner` functions anymore. Can only be called by the current owner. NOTE: Renouncing ownership will leave the contract without an owner, thereby removing any functionality that is only available to the owner."
      },
      "requestCancelOrFaultVoucherSet(uint256)": {
        "params": {
          "_tokenIdSupply": "an ID of a supply token (ERC-1155) which will be burned and deposits will be returned for"
        }
      },
      "requestCreateOrderETHETH(uint256[])": {
        "params": {
          "metadata": "metadata which is required for creation of a voucher Metadata array is used as in some scenarios we need several more params, as we need to recover  owner address in order to permit the contract to transfer funds in his behalf.  Since the params get too many, we end up in situation that the stack is too deep. uint256 _validFrom = metadata[0]; uint256 _validTo = metadata[1]; uint256 _price = metadata[2]; uint256 _depositSe = metadata[3]; uint256 _depositBu = metadata[4]; uint256 _quantity = metadata[5];"
        }
      },
      "requestVoucherETHETH(uint256,address)": {
        "params": {
          "_issuer": "Address of the issuer of the supply token",
          "_tokenIdSupply": "ID of the supply token"
        }
      },
      "setTokenContractAddress(address)": {
        "params": {
          "_tokensContractAddress": "The address of the ERC1155ERC721 contract"
        }
      },
      "transferOwnership(address)": {
        "details": "Transfers ownership of the contract to a new account (`newOwner`). Can only be called by the current owner."
      }
    },
    "title": "Contract for managing funds  Roughly following OpenZeppelin's Escrow at https://github.com/OpenZeppelin/openzeppelin-solidity/contracts/payment/",
    "version": 1
  },
  "userdoc": {
    "kind": "user",
    "methods": {
      "_beforeERC1155Transfer(address,uint256,uint256)": {
        "notice": "Pre-validation when a transfer from the the Tokens contract is triggered. Only the whole supply is allowed for transfer, otherwise reverts."
      },
      "_onERC1155Transfer(address,address,uint256,uint256)": {
        "notice": "After the transfer happens the _tokenSupplyId should be updated in the promise. Escrow funds for the seller's deposits (If in ETH) should be allocated to the new owner as well."
      },
      "_onERC721Transfer(address,address,uint256)": {
        "notice": "Hook which will be triggered when a _tokenIdVoucher will be transferred. Escrow funds should be allocated to the new owner."
      },
      "cancelOrFault(uint256)": {
        "notice": "Cancel/Fault transaction by the Seller, admitting to a fault or backing out of the deal"
      },
      "complain(uint256)": {
        "notice": "Issue a complain for a voucher"
      },
      "pause()": {
        "notice": "Pause the Cashier && the Voucher Kernel contracts in case of emergency. All functions related to creating new batch, requestVoucher or withdraw will be paused, hence cannot be executed. There is special function for withdrawing funds if contract is paused."
      },
      "redeem(uint256)": {
        "notice": "Redemption of the vouchers promise"
      },
      "refund(uint256)": {
        "notice": "Refunding a voucher"
      },
      "requestCancelOrFaultVoucherSet(uint256)": {
        "notice": "Seller burns the remaining supply in case it's no longer in exchange and withdrawal of the locked deposits for them are being sent back."
      },
      "requestCreateOrderETHETH(uint256[])": {
        "notice": "Issuer/Seller offers promises as supply tokens and needs to escrow the deposit"
      },
      "requestVoucherETHETH(uint256,address)": {
        "notice": "Consumer requests/buys a voucher by filling an order and receiving a Voucher Token in return"
      },
      "setTokenContractAddress(address)": {
        "notice": "Set the address of the ERC1155ERC721 contract"
      },
      "unpause()": {
        "notice": "Unpause the Cashier && the Voucher Kernel contracts. All functions related to creating new batch, requestVoucher or withdraw will be unpaused."
      }
    },
    "version": 1
  }
}