{
  "contractName": "BosonToken",
  "abi": [
    {
      "inputs": [
        {
          "internalType": "string",
          "name": "name",
          "type": "string"
        },
        {
          "internalType": "string",
          "name": "symbol",
          "type": "string"
        },
        {
          "internalType": "address",
          "name": "_initialTokenOwner",
          "type": "address"
        }
      ],
      "stateMutability": "nonpayable",
      "type": "constructor"
    },
    {
      "anonymous": false,
      "inputs": [
        {
          "indexed": true,
          "internalType": "address",
          "name": "owner",
          "type": "address"
        },
        {
          "indexed": true,
          "internalType": "address",
          "name": "spender",
          "type": "address"
        },
        {
          "indexed": false,
          "internalType": "uint256",
          "name": "value",
          "type": "uint256"
        }
      ],
      "name": "Approval",
      "type": "event"
    },
    {
      "anonymous": false,
      "inputs": [
        {
          "indexed": false,
          "internalType": "address",
          "name": "account",
          "type": "address"
        }
      ],
      "name": "Paused",
      "type": "event"
    },
    {
      "anonymous": false,
      "inputs": [
        {
          "indexed": true,
          "internalType": "bytes32",
          "name": "role",
          "type": "bytes32"
        },
        {
          "indexed": true,
          "internalType": "bytes32",
          "name": "previousAdminRole",
          "type": "bytes32"
        },
        {
          "indexed": true,
          "internalType": "bytes32",
          "name": "newAdminRole",
          "type": "bytes32"
        }
      ],
      "name": "RoleAdminChanged",
      "type": "event"
    },
    {
      "anonymous": false,
      "inputs": [
        {
          "indexed": true,
          "internalType": "bytes32",
          "name": "role",
          "type": "bytes32"
        },
        {
          "indexed": true,
          "internalType": "address",
          "name": "account",
          "type": "address"
        },
        {
          "indexed": true,
          "internalType": "address",
          "name": "sender",
          "type": "address"
        }
      ],
      "name": "RoleGranted",
      "type": "event"
    },
    {
      "anonymous": false,
      "inputs": [
        {
          "indexed": true,
          "internalType": "bytes32",
          "name": "role",
          "type": "bytes32"
        },
        {
          "indexed": true,
          "internalType": "address",
          "name": "account",
          "type": "address"
        },
        {
          "indexed": true,
          "internalType": "address",
          "name": "sender",
          "type": "address"
        }
      ],
      "name": "RoleRevoked",
      "type": "event"
    },
    {
      "anonymous": false,
      "inputs": [
        {
          "indexed": true,
          "internalType": "address",
          "name": "from",
          "type": "address"
        },
        {
          "indexed": true,
          "internalType": "address",
          "name": "to",
          "type": "address"
        },
        {
          "indexed": false,
          "internalType": "uint256",
          "name": "value",
          "type": "uint256"
        }
      ],
      "name": "Transfer",
      "type": "event"
    },
    {
      "anonymous": false,
      "inputs": [
        {
          "indexed": false,
          "internalType": "address",
          "name": "account",
          "type": "address"
        }
      ],
      "name": "Unpaused",
      "type": "event"
    },
    {
      "inputs": [],
      "name": "DEFAULT_ADMIN_ROLE",
      "outputs": [
        {
          "internalType": "bytes32",
          "name": "",
          "type": "bytes32"
        }
      ],
      "stateMutability": "view",
      "type": "function",
      "constant": true
    },
    {
      "inputs": [],
      "name": "DOMAIN_SEPARATOR",
      "outputs": [
        {
          "internalType": "bytes32",
          "name": "",
          "type": "bytes32"
        }
      ],
      "stateMutability": "view",
      "type": "function",
      "constant": true
    },
    {
      "inputs": [],
      "name": "PAUSER_ROLE",
      "outputs": [
        {
          "internalType": "bytes32",
          "name": "",
          "type": "bytes32"
        }
      ],
      "stateMutability": "view",
      "type": "function",
      "constant": true
    },
    {
      "inputs": [],
      "name": "PERMIT_TYPEHASH",
      "outputs": [
        {
          "internalType": "bytes32",
          "name": "",
          "type": "bytes32"
        }
      ],
      "stateMutability": "view",
      "type": "function",
      "constant": true
    },
    {
      "inputs": [
        {
          "internalType": "address",
          "name": "",
          "type": "address"
        },
        {
          "internalType": "address",
          "name": "",
          "type": "address"
        }
      ],
      "name": "allowance",
      "outputs": [
        {
          "internalType": "uint256",
          "name": "",
          "type": "uint256"
        }
      ],
      "stateMutability": "view",
      "type": "function",
      "constant": true
    },
    {
      "inputs": [
        {
          "internalType": "address",
          "name": "spender",
          "type": "address"
        },
        {
          "internalType": "uint256",
          "name": "value",
          "type": "uint256"
        }
      ],
      "name": "approve",
      "outputs": [
        {
          "internalType": "bool",
          "name": "",
          "type": "bool"
        }
      ],
      "stateMutability": "nonpayable",
      "type": "function"
    },
    {
      "inputs": [
        {
          "internalType": "address",
          "name": "",
          "type": "address"
        }
      ],
      "name": "balanceOf",
      "outputs": [
        {
          "internalType": "uint256",
          "name": "",
          "type": "uint256"
        }
      ],
      "stateMutability": "view",
      "type": "function",
      "constant": true
    },
    {
      "inputs": [],
      "name": "chainId",
      "outputs": [
        {
          "internalType": "uint256",
          "name": "",
          "type": "uint256"
        }
      ],
      "stateMutability": "view",
      "type": "function",
      "constant": true
    },
    {
      "inputs": [],
      "name": "decimals",
      "outputs": [
        {
          "internalType": "uint8",
          "name": "",
          "type": "uint8"
        }
      ],
      "stateMutability": "view",
      "type": "function",
      "constant": true
    },
    {
      "inputs": [
        {
          "internalType": "address",
          "name": "spender",
          "type": "address"
        },
        {
          "internalType": "uint256",
          "name": "subtractedValue",
          "type": "uint256"
        }
      ],
      "name": "decreaseAllowance",
      "outputs": [
        {
          "internalType": "bool",
          "name": "",
          "type": "bool"
        }
      ],
      "stateMutability": "nonpayable",
      "type": "function"
    },
    {
      "inputs": [
        {
          "internalType": "bytes32",
          "name": "role",
          "type": "bytes32"
        }
      ],
      "name": "getRoleAdmin",
      "outputs": [
        {
          "internalType": "bytes32",
          "name": "",
          "type": "bytes32"
        }
      ],
      "stateMutability": "view",
      "type": "function",
      "constant": true
    },
    {
      "inputs": [
        {
          "internalType": "bytes32",
          "name": "role",
          "type": "bytes32"
        },
        {
          "internalType": "uint256",
          "name": "index",
          "type": "uint256"
        }
      ],
      "name": "getRoleMember",
      "outputs": [
        {
          "internalType": "address",
          "name": "",
          "type": "address"
        }
      ],
      "stateMutability": "view",
      "type": "function",
      "constant": true
    },
    {
      "inputs": [
        {
          "internalType": "bytes32",
          "name": "role",
          "type": "bytes32"
        }
      ],
      "name": "getRoleMemberCount",
      "outputs": [
        {
          "internalType": "uint256",
          "name": "",
          "type": "uint256"
        }
      ],
      "stateMutability": "view",
      "type": "function",
      "constant": true
    },
    {
      "inputs": [
        {
          "internalType": "bytes32",
          "name": "role",
          "type": "bytes32"
        },
        {
          "internalType": "address",
          "name": "account",
          "type": "address"
        }
      ],
      "name": "grantRole",
      "outputs": [],
      "stateMutability": "nonpayable",
      "type": "function"
    },
    {
      "inputs": [
        {
          "internalType": "bytes32",
          "name": "role",
          "type": "bytes32"
        },
        {
          "internalType": "address",
          "name": "account",
          "type": "address"
        }
      ],
      "name": "hasRole",
      "outputs": [
        {
          "internalType": "bool",
          "name": "",
          "type": "bool"
        }
      ],
      "stateMutability": "view",
      "type": "function",
      "constant": true
    },
    {
      "inputs": [
        {
          "internalType": "address",
          "name": "spender",
          "type": "address"
        },
        {
          "internalType": "uint256",
          "name": "addedValue",
          "type": "uint256"
        }
      ],
      "name": "increaseAllowance",
      "outputs": [
        {
          "internalType": "bool",
          "name": "",
          "type": "bool"
        }
      ],
      "stateMutability": "nonpayable",
      "type": "function"
    },
    {
      "inputs": [],
      "name": "name",
      "outputs": [
        {
          "internalType": "string",
          "name": "",
          "type": "string"
        }
      ],
      "stateMutability": "view",
      "type": "function",
      "constant": true
    },
    {
      "inputs": [
        {
          "internalType": "address",
          "name": "",
          "type": "address"
        }
      ],
      "name": "nonces",
      "outputs": [
        {
          "internalType": "uint256",
          "name": "",
          "type": "uint256"
        }
      ],
      "stateMutability": "view",
      "type": "function",
      "constant": true
    },
    {
      "inputs": [],
      "name": "paused",
      "outputs": [
        {
          "internalType": "bool",
          "name": "",
          "type": "bool"
        }
      ],
      "stateMutability": "view",
      "type": "function",
      "constant": true
    },
    {
      "inputs": [
        {
          "internalType": "address",
          "name": "owner",
          "type": "address"
        },
        {
          "internalType": "address",
          "name": "spender",
          "type": "address"
        },
        {
          "internalType": "uint256",
          "name": "value",
          "type": "uint256"
        },
        {
          "internalType": "uint256",
          "name": "deadline",
          "type": "uint256"
        },
        {
          "internalType": "uint8",
          "name": "v",
          "type": "uint8"
        },
        {
          "internalType": "bytes32",
          "name": "r",
          "type": "bytes32"
        },
        {
          "internalType": "bytes32",
          "name": "s",
          "type": "bytes32"
        }
      ],
      "name": "permit",
      "outputs": [],
      "stateMutability": "nonpayable",
      "type": "function"
    },
    {
      "inputs": [
        {
          "internalType": "bytes32",
          "name": "role",
          "type": "bytes32"
        },
        {
          "internalType": "address",
          "name": "account",
          "type": "address"
        }
      ],
      "name": "renounceRole",
      "outputs": [],
      "stateMutability": "nonpayable",
      "type": "function"
    },
    {
      "inputs": [
        {
          "internalType": "bytes32",
          "name": "role",
          "type": "bytes32"
        },
        {
          "internalType": "address",
          "name": "account",
          "type": "address"
        }
      ],
      "name": "revokeRole",
      "outputs": [],
      "stateMutability": "nonpayable",
      "type": "function"
    },
    {
      "inputs": [],
      "name": "symbol",
      "outputs": [
        {
          "internalType": "string",
          "name": "",
          "type": "string"
        }
      ],
      "stateMutability": "view",
      "type": "function",
      "constant": true
    },
    {
      "inputs": [],
      "name": "totalSupply",
      "outputs": [
        {
          "internalType": "uint256",
          "name": "",
          "type": "uint256"
        }
      ],
      "stateMutability": "view",
      "type": "function",
      "constant": true
    },
    {
      "inputs": [
        {
          "internalType": "address",
          "name": "to",
          "type": "address"
        },
        {
          "internalType": "uint256",
          "name": "value",
          "type": "uint256"
        }
      ],
      "name": "transfer",
      "outputs": [
        {
          "internalType": "bool",
          "name": "",
          "type": "bool"
        }
      ],
      "stateMutability": "nonpayable",
      "type": "function"
    },
    {
      "inputs": [
        {
          "internalType": "address",
          "name": "from",
          "type": "address"
        },
        {
          "internalType": "address",
          "name": "to",
          "type": "address"
        },
        {
          "internalType": "uint256",
          "name": "value",
          "type": "uint256"
        }
      ],
      "name": "transferFrom",
      "outputs": [
        {
          "internalType": "bool",
          "name": "",
          "type": "bool"
        }
      ],
      "stateMutability": "nonpayable",
      "type": "function"
    },
    {
      "inputs": [],
      "name": "pause",
      "outputs": [],
      "stateMutability": "nonpayable",
      "type": "function"
    },
    {
      "inputs": [],
      "name": "unpause",
      "outputs": [],
      "stateMutability": "nonpayable",
      "type": "function"
    }
  ],
  "bytecode": "0x60806040523480156200001157600080fd5b5060405162001d5638038062001d56833981810160405260608110156200003757600080fd5b81019080805160405193929190846401000000008211156200005857600080fd5b9083019060208201858111156200006e57600080fd5b82516401000000008111828201881017156200008957600080fd5b82525081516020918201929091019080838360005b83811015620000b85781810151838201526020016200009e565b50505050905090810190601f168015620000e65780820380516001836020036101000a031916815260200191505b50604052602001805160405193929190846401000000008211156200010a57600080fd5b9083019060208201858111156200012057600080fd5b82516401000000008111828201881017156200013b57600080fd5b82525081516020918201929091019080838360005b838110156200016a57818101518382015260200162000150565b50505050905090810190601f168015620001985780820380516001836020036101000a031916815260200191505b506040526020908101516000805460ff1916905585519093508592508491620001c791600291850190620005c4565b508051620001dd906003906020840190620005c4565b50620001f16001600160e01b036200038116565b60015560405180605262001d04823960520190506040518091039020600260405180828054600181600116156101000203166002900480156200026e5780601f106200024b5761010080835404028352918201916200026e565b820191906000526020600020905b81548152906001019060200180831162000259575b50506040805191829003822082820182526001808452603160f81b60209485015254825180850197909752868301919091527fc89efdaa54c0f20c7adf612882df0950f5a951637e0307cdcb4c672f298b8bc6606087015260808601523060a0808701919091528151808703909101815260c09095019052835193019290922060075550620003209250600091506200031190506001600160e01b036200038616565b6001600160e01b036200038a16565b604080516a5041555345525f524f4c4560a81b8152905190819003600b0190206200035890620003116001600160e01b036200038616565b62000378816aa56fa5b99019a5c80000006001600160e01b03620003a316565b50505062000666565b465b90565b3390565b6200039f82826001600160e01b036200044c16565b5050565b620003bf81600454620004d060201b620010f31790919060201c565b6004556001600160a01b038216600090815260056020908152604090912054620003f4918390620010f3620004d0821b17901c565b6001600160a01b03831660008181526005602090815260408083209490945583518581529351929391927fddf252ad1be2c89b69c2b068fc378daa952ba7f163c4a11628f55a4df523b3ef9281900390910190a35050565b6000828152600960209081526040909120620004739183906200133762000534821b17901c565b156200039f576200048c6001600160e01b036200038616565b6001600160a01b0316816001600160a01b0316837f2f8788117e7eff1d82e926ec794901d17c78024a50270940304540a733656f0d60405160405180910390a45050565b6000828201838110156200052b576040805162461bcd60e51b815260206004820152601b60248201527f536166654d6174683a206164646974696f6e206f766572666c6f770000000000604482015290519081900360640190fd5b90505b92915050565b60006200052b836001600160a01b0384166001600160e01b036200055416565b60006200056b83836001600160e01b03620005ac16565b620005a3575081546001818101845560008481526020808220909301849055845484825282860190935260409020919091556200052e565b5060006200052e565b60009081526001919091016020526040902054151590565b828054600181600116156101000203166002900490600052602060002090601f016020900481019282601f106200060757805160ff191683800117855562000637565b8280016001018555821562000637579182015b82811115620006375782518255916020019190600101906200061a565b506200064592915062000649565b5090565b6200038391905b8082111562000645576000815560010162000650565b61168e80620006766000396000f3fe608060405234801561001057600080fd5b50600436106101c45760003560e01c80637ecebe00116100f9578063a457c2d711610097578063d505accf11610071578063d505accf14610503578063d547741f14610554578063dd62ed3e14610580578063e63ab1e9146105ae576101c4565b8063a457c2d71461048e578063a9059cbb146104ba578063ca15c873146104e6576101c4565b806391d14854116100d357806391d148541461044a57806395d89b41146104765780639a8a05921461047e578063a217fddf14610486576101c4565b80637ecebe00146103dd5780638456cb59146104035780639010d07c1461040b576101c4565b8063313ce567116101665780633950935111610140578063395093511461037b5780633f4ba83a146103a75780635c975abb146103af57806370a08231146103b7576101c4565b8063313ce567146103295780633644e5151461034757806336568abe1461034f576101c4565b806323b872dd116101a257806323b872dd146102a0578063248a9ca3146102d65780632f2ff15d146102f357806330adf81f14610321576101c4565b806306fdde03146101c9578063095ea7b31461024657806318160ddd14610286575b600080fd5b6101d16105b6565b6040805160208082528351818301528351919283929083019185019080838360005b8381101561020b5781810151838201526020016101f3565b50505050905090810190601f1680156102385780820380516001836020036101000a031916815260200191505b509250505060405180910390f35b6102726004803603604081101561025c57600080fd5b506001600160a01b038135169060200135610641565b604080519115158252519081900360200190f35b61028e6106a5565b60408051918252519081900360200190f35b610272600480360360608110156102b657600080fd5b506001600160a01b038135811691602081013590911690604001356106ab565b61028e600480360360208110156102ec57600080fd5b5035610794565b61031f6004803603604081101561030957600080fd5b50803590602001356001600160a01b03166107a9565b005b61028e610815565b610331610839565b6040805160ff9092168252519081900360200190f35b61028e61083e565b61031f6004803603604081101561036557600080fd5b50803590602001356001600160a01b0316610844565b6102726004803603604081101561039157600080fd5b506001600160a01b0381351690602001356108a5565b61031f6108e6565b610272610957565b61028e600480360360208110156103cd57600080fd5b50356001600160a01b0316610960565b61028e600480360360208110156103f357600080fd5b50356001600160a01b0316610972565b61031f610984565b61042e6004803603604081101561042157600080fd5b50803590602001356109f3565b604080516001600160a01b039092168252519081900360200190f35b6102726004803603604081101561046057600080fd5b50803590602001356001600160a01b0316610a18565b6101d1610a36565b61028e610a91565b61028e610a97565b610272600480360360408110156104a457600080fd5b506001600160a01b038135169060200135610a9c565b610272600480360360408110156104d057600080fd5b506001600160a01b038135169060200135610af1565b61028e600480360360208110156104fc57600080fd5b5035610b4b565b61031f600480360360e081101561051957600080fd5b506001600160a01b03813581169160208101359091169060408101359060608101359060ff6080820135169060a08101359060c00135610b62565b61031f6004803603604081101561056a57600080fd5b50803590602001356001600160a01b0316610dff565b61028e6004803603604081101561059657600080fd5b506001600160a01b0381358116916020013516610e58565b61028e610e75565b6002805460408051602060018416156101000260001901909316849004601f810184900484028201840190925281815292918301828280156106395780601f1061060e57610100808354040283529160200191610639565b820191906000526020600020905b81548152906001019060200180831161061c57829003601f168201915b505050505081565b600061064b610957565b15610690576040805162461bcd60e51b815260206004820152601060248201526f14185d5cd8589b194e881c185d5cd95960821b604482015290519081900360640190fd5b61069b338484610e98565b5060015b92915050565b60045481565b60006106b5610957565b156106fa576040805162461bcd60e51b815260206004820152601060248201526f14185d5cd8589b194e881c185d5cd95960821b604482015290519081900360640190fd5b6001600160a01b03841660009081526006602090815260408083203384529091529020546000191461077f576001600160a01b038416600090815260066020908152604080832033845290915290205461075a908363ffffffff610efa16565b6001600160a01b03851660009081526006602090815260408083203384529091529020555b61078a848484610f57565b5060019392505050565b60009081526009602052604090206002015490565b6000828152600960205260409020600201546107cc906107c7611011565b610a18565b6108075760405162461bcd60e51b815260040180806020018281038252602f815260200180611514602f913960400191505060405180910390fd5b6108118282611015565b5050565b7f6e71edae12b1b97f4d1f60370fef10105fa2faae0126114a169c64845d6126c981565b601281565b60075481565b61084c611011565b6001600160a01b0316816001600160a01b03161461089b5760405162461bcd60e51b815260040180806020018281038252602f81526020018061162a602f913960400191505060405180910390fd5b6108118282611084565b3360008181526006602090815260408083206001600160a01b0387168452909152812054909161069b9185906108e1908663ffffffff6110f316565b610e98565b604080516a5041555345525f524f4c4560a81b8152905190819003600b019020610912906107c7611011565b61094d5760405162461bcd60e51b81526004018080602001828103825260398152602001806115436039913960400191505060405180910390fd5b61095561114d565b565b60005460ff1690565b60056020526000908152604090205481565b60086020526000908152604090205481565b604080516a5041555345525f524f4c4560a81b8152905190819003600b0190206109b0906107c7611011565b6109eb5760405162461bcd60e51b81526004018080602001828103825260378152602001806115ce6037913960400191505060405180910390fd5b6109556111ed565b6000828152600960205260408120610a11908363ffffffff61127016565b9392505050565b6000828152600960205260408120610a11908363ffffffff61127c16565b6003805460408051602060026001851615610100026000190190941693909304601f810184900484028201840190925281815292918301828280156106395780601f1061060e57610100808354040283529160200191610639565b60015481565b600081565b600061069b33846108e185604051806060016040528060258152602001611605602591393360009081526006602090815260408083206001600160a01b038d168452909152902054919063ffffffff61129116565b6000610afb610957565b15610b40576040805162461bcd60e51b815260206004820152601060248201526f14185d5cd8589b194e881c185d5cd95960821b604482015290519081900360640190fd5b61069b338484610f57565b600081815260096020526040812061069f90611328565b6000610b6c611333565b90506001548114610bba576040805162461bcd60e51b8152602060048201526013602482015272556e737570706f72746564206e6574776f726b60681b604482015290519081900360640190fd5b610bc2610957565b15610c07576040805162461bcd60e51b815260206004820152601060248201526f14185d5cd8589b194e881c185d5cd95960821b604482015290519081900360640190fd5b42851015610c5c576040805162461bcd60e51b815260206004820152601860248201527f4552433230576974685065726d69743a20455850495245440000000000000000604482015290519081900360640190fd5b6007546001600160a01b03808a1660008181526008602090815260408083208054600180820190925582517f6e71edae12b1b97f4d1f60370fef10105fa2faae0126114a169c64845d6126c98186015280840196909652958e166060860152608085018d905260a085019590955260c08085018c90528151808603909101815260e08501825280519083012061190160f01b6101008601526101028501969096526101228085019690965280518085039096018652610142840180825286519683019690962095839052610162840180825286905260ff8a166101828501526101a284018990526101c28401889052519193926101e280820193601f1981019281900390910190855afa158015610d77573d6000803e3d6000fd5b5050604051601f1901519150506001600160a01b03811615801590610dad5750896001600160a01b0316816001600160a01b0316145b610de85760405162461bcd60e51b81526004018080602001828103825260228152602001806115ac6022913960400191505060405180910390fd5b610df38a8a8a610e98565b50505050505050505050565b600082815260096020526040902060020154610e1d906107c7611011565b61089b5760405162461bcd60e51b815260040180806020018281038252603081526020018061157c6030913960400191505060405180910390fd5b600660209081526000928352604080842090915290825290205481565b604080516a5041555345525f524f4c4560a81b8152905190819003600b01902081565b6001600160a01b03808416600081815260066020908152604080832094871680845294825291829020859055815185815291517f8c5be1e5ebec7d5bd14f71427d1e84f3dd0314c0f7b2291e5b200ac8c7c3b9259281900390910190a3505050565b600082821115610f51576040805162461bcd60e51b815260206004820152601e60248201527f536166654d6174683a207375627472616374696f6e206f766572666c6f770000604482015290519081900360640190fd5b50900390565b6001600160a01b038316600090815260056020526040902054610f80908263ffffffff610efa16565b6001600160a01b038085166000908152600560205260408082209390935590841681522054610fb5908263ffffffff6110f316565b6001600160a01b0380841660008181526005602090815260409182902094909455805185815290519193928716927fddf252ad1be2c89b69c2b068fc378daa952ba7f163c4a11628f55a4df523b3ef92918290030190a3505050565b3390565b6000828152600960205260409020611033908263ffffffff61133716565b1561081157611040611011565b6001600160a01b0316816001600160a01b0316837f2f8788117e7eff1d82e926ec794901d17c78024a50270940304540a733656f0d60405160405180910390a45050565b60008281526009602052604090206110a2908263ffffffff61134c16565b15610811576110af611011565b6001600160a01b0316816001600160a01b0316837ff6391f5c32d9c69d2a47ea670b442974b53935d1edc7fd64eb21e047a839171b60405160405180910390a45050565b600082820183811015610a11576040805162461bcd60e51b815260206004820152601b60248201527f536166654d6174683a206164646974696f6e206f766572666c6f770000000000604482015290519081900360640190fd5b611155610957565b61119d576040805162461bcd60e51b815260206004820152601460248201527314185d5cd8589b194e881b9bdd081c185d5cd95960621b604482015290519081900360640190fd5b6000805460ff191690557f5db9ee0a495bf2e6ff9c91a7834c1ba4fdd244a5e8aa4e537bd38aeae4b073aa6111d0611011565b604080516001600160a01b039092168252519081900360200190a1565b6111f5610957565b1561123a576040805162461bcd60e51b815260206004820152601060248201526f14185d5cd8589b194e881c185d5cd95960821b604482015290519081900360640190fd5b6000805460ff191660011790557f62e78cea01bee320cd4e420270b5ea74000d11b0c9f74754ebdbfc544b05a2586111d0611011565b6000610a118383611361565b6000610a11836001600160a01b0384166113c5565b600081848411156113205760405162461bcd60e51b81526004018080602001828103825283818151815260200191508051906020019080838360005b838110156112e55781810151838201526020016112cd565b50505050905090810190601f1680156113125780820380516001836020036101000a031916815260200191505b509250505060405180910390fd5b505050900390565b600061069f826113dd565b4690565b6000610a11836001600160a01b0384166113e1565b6000610a11836001600160a01b03841661142b565b815460009082106113a35760405162461bcd60e51b81526004018080602001828103825260228152602001806114f26022913960400191505060405180910390fd5b8260000182815481106113b257fe5b9060005260206000200154905092915050565b60009081526001919091016020526040902054151590565b5490565b60006113ed83836113c5565b6114235750815460018181018455600084815260208082209093018490558454848252828601909352604090209190915561069f565b50600061069f565b600081815260018301602052604081205480156114e7578354600019808301919081019060009087908390811061145e57fe5b906000526020600020015490508087600001848154811061147b57fe5b6000918252602080832090910192909255828152600189810190925260409020908401905586548790806114ab57fe5b6001900381819060005260206000200160009055905586600101600087815260200190815260200160002060009055600194505050505061069f565b600091505061069f56fe456e756d657261626c655365743a20696e646578206f7574206f6620626f756e6473416363657373436f6e74726f6c3a2073656e646572206d75737420626520616e2061646d696e20746f206772616e7445524332305072657365744d696e7465725061757365723a206d75737420686176652070617573657220726f6c6520746f20756e7061757365416363657373436f6e74726f6c3a2073656e646572206d75737420626520616e2061646d696e20746f207265766f6b654552433230576974685065726d69743a20494e56414c49445f5349474e415455524545524332305072657365744d696e7465725061757365723a206d75737420686176652070617573657220726f6c6520746f20706175736545524332303a2064656372656173656420616c6c6f77616e63652062656c6f77207a65726f416363657373436f6e74726f6c3a2063616e206f6e6c792072656e6f756e636520726f6c657320666f722073656c66a264697066735822122082df4f87718a247bc2944cfb6311959ea75e524cc467cad47eefbaaec140cae964736f6c63430006060033454950373132446f6d61696e28737472696e67206e616d652c737472696e672076657273696f6e2c75696e7432353620636861696e49642c6164647265737320766572696679696e67436f6e747261637429",
  "source": "// SPDX-License-Identifier: LGPL-3.0-or-later\npragma solidity 0.6.6;\n\nimport \"./ERC20Permit.sol\";\nimport \"@openzeppelin/contracts/access/AccessControl.sol\";\n\ncontract BosonToken is ERC20Permit, AccessControl {\n    bytes32 public constant PAUSER_ROLE = keccak256(\"PAUSER_ROLE\");\n    uint256 private constant ONE_MILLION = 1 * 10**6;\n\n    constructor(\n        string memory name,\n        string memory symbol,\n        address _initialTokenOwner\n    ) public ERC20Permit(name, symbol) {\n        _setupRole(DEFAULT_ADMIN_ROLE, _msgSender());\n        _setupRole(PAUSER_ROLE, _msgSender());\n\n        _mint(_initialTokenOwner, 200 * ONE_MILLION * 1 ether);\n    }\n\n    /**\n     * @notice When Token contract is paused, no Token interactions are possible (e.g. approve, transfer, transferFrom or permit)\n     * Requirements:\n     *\n     * - Caller must have PAUSER_ROLE\n     */\n    function pause() public {\n        require(\n            hasRole(PAUSER_ROLE, _msgSender()),\n            \"ERC20PresetMinterPauser: must have pauser role to pause\"\n        );\n        _pause();\n    }\n\n    /**\n     * @notice When Token contract is unpaused, all Token interactions can be executed (e.g. approve, transfer, transferFrom or permit)\n     * Requirements:\n     *\n     * - Caller must have PAUSER_ROLE\n     */\n    function unpause() public {\n        require(\n            hasRole(PAUSER_ROLE, _msgSender()),\n            \"ERC20PresetMinterPauser: must have pauser role to unpause\"\n        );\n        _unpause();\n    }\n}\n",
  "sourcePath": "/Users/hristiyangeorgiev/Documents/Projects/Redeemeum/token/token-contract/contracts/BosonToken.sol",
  "compiler": {
    "name": "solc",
    "version": "0.6.6+commit.6c089d02.Emscripten.clang"
  },
  "schemaVersion": "3.0.22",
  "updatedAt": "2021-03-08T15:44:34.995Z",
  "networkType": "ethereum",
  "devdoc": {
    "methods": {
      "approve(address,uint256)": {
        "details": "Sets `value` as the allowance of `spender` over the caller's tokens.     * Returns a boolean value indicating whether the operation succeeded.     * Emits an {Approval} event."
      },
      "decreaseAllowance(address,uint256)": {
        "details": "Atomically decreases the allowance granted to `spender` by the caller.     * This is an alternative to {approve} that can be used as a mitigation for problems related to race condition     * Emits an {Approval} event indicating the updated allowance."
      },
      "getRoleAdmin(bytes32)": {
        "details": "Returns the admin role that controls `role`. See {grantRole} and {revokeRole}.     * To change a role's admin, use {_setRoleAdmin}."
      },
      "getRoleMember(bytes32,uint256)": {
        "details": "Returns one of the accounts that have `role`. `index` must be a value between 0 and {getRoleMemberCount}, non-inclusive.     * Role bearers are not sorted in any particular way, and their ordering may change at any point.     * WARNING: When using {getRoleMember} and {getRoleMemberCount}, make sure you perform all queries on the same block. See the following https://forum.openzeppelin.com/t/iterating-over-elements-on-enumerableset-in-openzeppelin-contracts/2296[forum post] for more information."
      },
      "getRoleMemberCount(bytes32)": {
        "details": "Returns the number of accounts that have `role`. Can be used together with {getRoleMember} to enumerate all bearers of a role."
      },
      "grantRole(bytes32,address)": {
        "details": "Grants `role` to `account`.     * If `account` had not been already granted `role`, emits a {RoleGranted} event.     * Requirements:     * - the caller must have ``role``'s admin role."
      },
      "hasRole(bytes32,address)": {
        "details": "Returns `true` if `account` has been granted `role`."
      },
      "increaseAllowance(address,uint256)": {
        "details": "Atomically increases the allowance granted to `spender` by the caller.     * This is an alternative to {approve} that can be used as a mitigation for problems related to race condition     * Emits an {Approval} event indicating the updated allowance."
      },
      "paused()": {
        "details": "Returns true if the contract is paused, and false otherwise."
      },
      "permit(address,address,uint256,uint256,uint8,bytes32,bytes32)": {
        "details": "Sets `value` as the allowance of `spender` over `owner`'s tokens, given `owner`'s signed approval.     * Emits an {Approval} event.     * Requirements:     * - `spender` cannot be the zero address. - `deadline` must be a timestamp in the future. - `v`, `r` and `s` must be a valid signature from `owner` over the EIP712-formatted function arguments. - the signature must use ``owner``'s current nonce (see {nonces}).     * For more information on the signature format, see the https://eips.ethereum.org/EIPS/eip-2612#specification[relevant EIP section]."
      },
      "renounceRole(bytes32,address)": {
        "details": "Revokes `role` from the calling account.     * Roles are often managed via {grantRole} and {revokeRole}: this function's purpose is to provide a mechanism for accounts to lose their privileges if they are compromised (such as when a trusted device is misplaced).     * If the calling account had been granted `role`, emits a {RoleRevoked} event.     * Requirements:     * - the caller must be `account`."
      },
      "revokeRole(bytes32,address)": {
        "details": "Revokes `role` from `account`.     * If `account` had been granted `role`, emits a {RoleRevoked} event.     * Requirements:     * - the caller must have ``role``'s admin role."
      },
      "transfer(address,uint256)": {
        "details": "Moves `value` tokens from the caller's account to `recipient`.     * Returns a boolean value indicating whether the operation succeeded.     * Emits a {Transfer} event."
      },
      "transferFrom(address,address,uint256)": {
        "details": "Moves `value` tokens from `from` to `to` using the allowance mechanism. `amount` is then deducted from the caller's allowance.     * Returns a boolean value indicating whether the operation succeeded.     * Emits a {Transfer} event."
      }
    }
  },
  "userdoc": {
    "methods": {
      "pause()": {
        "notice": "When Token contract is paused, no Token interactions are possible (e.g. approve, transfer, transferFrom or permit) Requirements:     * - Caller must have PAUSER_ROLE"
      },
      "unpause()": {
        "notice": "When Token contract is unpaused, all Token interactions can be executed (e.g. approve, transfer, transferFrom or permit) Requirements:     * - Caller must have PAUSER_ROLE"
      }
    }
  }
}