{
    "contractName": "BosonRouter",
    "abi": [
        {
            "inputs": [
                {
                    "internalType": "address",
                    "name": "_voucherKernel",
                    "type": "address"
                },
                {
                    "internalType": "address",
                    "name": "_fundLimitsOracle",
                    "type": "address"
                },
                {
                    "internalType": "address",
                    "name": "_cashierAddress",
                    "type": "address"
                }
            ],
            "stateMutability": "nonpayable",
            "type": "constructor"
        },
        {
            "anonymous": false,
            "inputs": [
                {
                    "indexed": true,
                    "internalType": "uint256",
                    "name": "_tokenIdSupply",
                    "type": "uint256"
                },
                {
                    "indexed": false,
                    "internalType": "address",
                    "name": "_seller",
                    "type": "address"
                },
                {
                    "indexed": false,
                    "internalType": "uint256",
                    "name": "_quantity",
                    "type": "uint256"
                },
                {
                    "indexed": false,
                    "internalType": "uint8",
                    "name": "_paymentType",
                    "type": "uint8"
                },
                {
                    "indexed": false,
                    "internalType": "uint256",
                    "name": "_correlationId",
                    "type": "uint256"
                }
            ],
            "name": "LogOrderCreated",
            "type": "event"
        },
        {
            "anonymous": false,
            "inputs": [
                {
                    "indexed": true,
                    "internalType": "address",
                    "name": "previousOwner",
                    "type": "address"
                },
                {
                    "indexed": true,
                    "internalType": "address",
                    "name": "newOwner",
                    "type": "address"
                }
            ],
            "name": "OwnershipTransferred",
            "type": "event"
        },
        {
            "anonymous": false,
            "inputs": [
                {
                    "indexed": false,
                    "internalType": "address",
                    "name": "account",
                    "type": "address"
                }
            ],
            "name": "Paused",
            "type": "event"
        },
        {
            "anonymous": false,
            "inputs": [
                {
                    "indexed": false,
                    "internalType": "address",
                    "name": "account",
                    "type": "address"
                }
            ],
            "name": "Unpaused",
            "type": "event"
        },
        {
            "inputs": [],
            "name": "owner",
            "outputs": [
                {
                    "internalType": "address",
                    "name": "",
                    "type": "address"
                }
            ],
            "stateMutability": "view",
            "type": "function",
            "constant": true
        },
        {
            "inputs": [],
            "name": "paused",
            "outputs": [
                {
                    "internalType": "bool",
                    "name": "",
                    "type": "bool"
                }
            ],
            "stateMutability": "view",
            "type": "function",
            "constant": true
        },
        {
            "inputs": [],
            "name": "renounceOwnership",
            "outputs": [],
            "stateMutability": "nonpayable",
            "type": "function"
        },
        {
            "inputs": [
                {
                    "internalType": "address",
                    "name": "newOwner",
                    "type": "address"
                }
            ],
            "name": "transferOwnership",
            "outputs": [],
            "stateMutability": "nonpayable",
            "type": "function"
        },
        {
            "inputs": [],
            "name": "pause",
            "outputs": [],
            "stateMutability": "nonpayable",
            "type": "function"
        },
        {
            "inputs": [],
            "name": "unpause",
            "outputs": [],
            "stateMutability": "nonpayable",
            "type": "function"
        },
        {
            "inputs": [
                {
                    "internalType": "uint256[]",
                    "name": "metadata",
                    "type": "uint256[]"
                }
            ],
            "name": "requestCreateOrderETHETH",
            "outputs": [],
            "stateMutability": "payable",
            "type": "function",
            "payable": true
        },
        {
            "inputs": [
                {
                    "internalType": "address",
                    "name": "_tokenPriceAddress",
                    "type": "address"
                },
                {
                    "internalType": "address",
                    "name": "_tokenDepositAddress",
                    "type": "address"
                },
                {
                    "internalType": "uint256",
                    "name": "_tokensSent",
                    "type": "uint256"
                },
                {
                    "internalType": "uint256",
                    "name": "deadline",
                    "type": "uint256"
                },
                {
                    "internalType": "uint8",
                    "name": "v",
                    "type": "uint8"
                },
                {
                    "internalType": "bytes32",
                    "name": "r",
                    "type": "bytes32"
                },
                {
                    "internalType": "bytes32",
                    "name": "s",
                    "type": "bytes32"
                },
                {
                    "internalType": "uint256[]",
                    "name": "metadata",
                    "type": "uint256[]"
                }
            ],
            "name": "requestCreateOrderTKNTKNWithPermit",
            "outputs": [],
            "stateMutability": "nonpayable",
            "type": "function"
        },
        {
            "inputs": [
                {
                    "internalType": "address",
                    "name": "_tokenDepositAddress",
                    "type": "address"
                },
                {
                    "internalType": "uint256",
                    "name": "_tokensSent",
                    "type": "uint256"
                },
                {
                    "internalType": "uint256",
                    "name": "deadline",
                    "type": "uint256"
                },
                {
                    "internalType": "uint8",
                    "name": "v",
                    "type": "uint8"
                },
                {
                    "internalType": "bytes32",
                    "name": "r",
                    "type": "bytes32"
                },
                {
                    "internalType": "bytes32",
                    "name": "s",
                    "type": "bytes32"
                },
                {
                    "internalType": "uint256[]",
                    "name": "metadata",
                    "type": "uint256[]"
                }
            ],
            "name": "requestCreateOrderETHTKNWithPermit",
            "outputs": [],
            "stateMutability": "nonpayable",
            "type": "function"
        },
        {
            "inputs": [
                {
                    "internalType": "address",
                    "name": "_tokenPriceAddress",
                    "type": "address"
                },
                {
                    "internalType": "uint256[]",
                    "name": "metadata",
                    "type": "uint256[]"
                }
            ],
            "name": "requestCreateOrderTKNETH",
            "outputs": [],
            "stateMutability": "payable",
            "type": "function",
            "payable": true
        },
        {
            "inputs": [
                {
                    "internalType": "uint256",
                    "name": "_tokenIdSupply",
                    "type": "uint256"
                },
                {
                    "internalType": "address",
                    "name": "_issuer",
                    "type": "address"
                }
            ],
            "name": "requestVoucherETHETH",
            "outputs": [],
            "stateMutability": "payable",
            "type": "function",
            "payable": true
        },
        {
            "inputs": [
                {
                    "internalType": "uint256",
                    "name": "_tokenIdSupply",
                    "type": "uint256"
                },
                {
                    "internalType": "address",
                    "name": "_issuer",
                    "type": "address"
                },
                {
                    "internalType": "uint256",
                    "name": "_tokensSent",
                    "type": "uint256"
                },
                {
                    "internalType": "uint256",
                    "name": "deadline",
                    "type": "uint256"
                },
                {
                    "internalType": "uint8",
                    "name": "vPrice",
                    "type": "uint8"
                },
                {
                    "internalType": "bytes32",
                    "name": "rPrice",
                    "type": "bytes32"
                },
                {
                    "internalType": "bytes32",
                    "name": "sPrice",
                    "type": "bytes32"
                },
                {
                    "internalType": "uint8",
                    "name": "vDeposit",
                    "type": "uint8"
                },
                {
                    "internalType": "bytes32",
                    "name": "rDeposit",
                    "type": "bytes32"
                },
                {
                    "internalType": "bytes32",
                    "name": "sDeposit",
                    "type": "bytes32"
                }
            ],
            "name": "requestVoucherTKNTKNWithPermit",
            "outputs": [],
            "stateMutability": "nonpayable",
            "type": "function"
        },
        {
            "inputs": [
                {
                    "internalType": "uint256",
                    "name": "_tokenIdSupply",
                    "type": "uint256"
                },
                {
                    "internalType": "address",
                    "name": "_issuer",
                    "type": "address"
                },
                {
                    "internalType": "uint256",
                    "name": "_tokensSent",
                    "type": "uint256"
                },
                {
                    "internalType": "uint256",
                    "name": "deadline",
                    "type": "uint256"
                },
                {
                    "internalType": "uint8",
                    "name": "v",
                    "type": "uint8"
                },
                {
                    "internalType": "bytes32",
                    "name": "r",
                    "type": "bytes32"
                },
                {
                    "internalType": "bytes32",
                    "name": "s",
                    "type": "bytes32"
                }
            ],
            "name": "requestVoucherTKNTKNSameWithPermit",
            "outputs": [],
            "stateMutability": "nonpayable",
            "type": "function"
        },
        {
            "inputs": [
                {
                    "internalType": "uint256",
                    "name": "_tokenIdSupply",
                    "type": "uint256"
                },
                {
                    "internalType": "address",
                    "name": "_issuer",
                    "type": "address"
                },
                {
                    "internalType": "uint256",
                    "name": "_tokensDeposit",
                    "type": "uint256"
                },
                {
                    "internalType": "uint256",
                    "name": "deadline",
                    "type": "uint256"
                },
                {
                    "internalType": "uint8",
                    "name": "v",
                    "type": "uint8"
                },
                {
                    "internalType": "bytes32",
                    "name": "r",
                    "type": "bytes32"
                },
                {
                    "internalType": "bytes32",
                    "name": "s",
                    "type": "bytes32"
                }
            ],
            "name": "requestVoucherETHTKNWithPermit",
            "outputs": [],
            "stateMutability": "payable",
            "type": "function",
            "payable": true
        },
        {
            "inputs": [
                {
                    "internalType": "uint256",
                    "name": "_tokenIdSupply",
                    "type": "uint256"
                },
                {
                    "internalType": "address",
                    "name": "_issuer",
                    "type": "address"
                },
                {
                    "internalType": "uint256",
                    "name": "_tokensPrice",
                    "type": "uint256"
                },
                {
                    "internalType": "uint256",
                    "name": "deadline",
                    "type": "uint256"
                },
                {
                    "internalType": "uint8",
                    "name": "v",
                    "type": "uint8"
                },
                {
                    "internalType": "bytes32",
                    "name": "r",
                    "type": "bytes32"
                },
                {
                    "internalType": "bytes32",
                    "name": "s",
                    "type": "bytes32"
                }
            ],
            "name": "requestVoucherTKNETHWithPermit",
            "outputs": [],
            "stateMutability": "payable",
            "type": "function",
            "payable": true
        },
        {
            "inputs": [
                {
                    "internalType": "uint256",
                    "name": "_tokenIdSupply",
                    "type": "uint256"
                }
            ],
            "name": "requestCancelOrFaultVoucherSet",
            "outputs": [],
            "stateMutability": "nonpayable",
            "type": "function"
        },
        {
            "inputs": [
                {
                    "internalType": "uint256",
                    "name": "_tokenIdVoucher",
                    "type": "uint256"
                }
            ],
            "name": "redeem",
            "outputs": [],
            "stateMutability": "nonpayable",
            "type": "function"
        },
        {
            "inputs": [
                {
                    "internalType": "uint256",
                    "name": "_tokenIdVoucher",
                    "type": "uint256"
                }
            ],
            "name": "refund",
            "outputs": [],
            "stateMutability": "nonpayable",
            "type": "function"
        },
        {
            "inputs": [
                {
                    "internalType": "uint256",
                    "name": "_tokenIdVoucher",
                    "type": "uint256"
                }
            ],
            "name": "complain",
            "outputs": [],
            "stateMutability": "nonpayable",
            "type": "function"
        },
        {
            "inputs": [
                {
                    "internalType": "uint256",
                    "name": "_tokenIdVoucher",
                    "type": "uint256"
                }
            ],
            "name": "cancelOrFault",
            "outputs": [],
            "stateMutability": "nonpayable",
            "type": "function"
        },
        {
            "inputs": [
                {
                    "internalType": "address",
                    "name": "_party",
                    "type": "address"
                }
            ],
            "name": "incrementCorrelationId",
            "outputs": [],
            "stateMutability": "nonpayable",
            "type": "function"
        },
        {
            "inputs": [
                {
                    "internalType": "address",
                    "name": "_party",
                    "type": "address"
                }
            ],
            "name": "getCorrelationId",
            "outputs": [
                {
                    "internalType": "uint256",
                    "name": "",
                    "type": "uint256"
                }
            ],
            "stateMutability": "view",
            "type": "function",
            "constant": true
        },
        {
            "inputs": [],
            "name": "getCashierAddress",
            "outputs": [
                {
                    "internalType": "address",
                    "name": "",
                    "type": "address"
                }
            ],
            "stateMutability": "view",
            "type": "function",
            "constant": true
        },
        {
            "inputs": [],
            "name": "getVoucherKernelAddress",
            "outputs": [
                {
                    "internalType": "address",
                    "name": "",
                    "type": "address"
                }
            ],
            "stateMutability": "view",
            "type": "function",
            "constant": true
        },
        {
            "inputs": [],
            "name": "getFundLimitOracleAddress",
            "outputs": [
                {
                    "internalType": "address",
                    "name": "",
                    "type": "address"
                }
            ],
            "stateMutability": "view",
            "type": "function",
            "constant": true
        }
    ],
    "bytecode": "0x60806040523480156200001157600080fd5b5060405162003d2238038062003d22833981810160405260608110156200003757600080fd5b50805160208201516040909201516000805460ff19168155600180559192916200006062000112565b600280546001600160a01b0319166001600160a01b038316908117909155604051919250906000907f8be0079c531659141344cd1fd0a4f28419497f9722a3daafe3b4186f6b6457e0908290a350620000b98362000116565b620000c48262000116565b620000cf8162000116565b600580546001600160a01b039485166001600160a01b0319918216179091556006805493851693821693909317909255600480549190931691161790556200015a565b3390565b6001600160a01b03811662000157576040805162461bcd60e51b8152602060048201526002602482015261304160f01b604482015290519081900360640190fd5b50565b613bb8806200016a6000396000f3fe6080604052600436106101265760003560e01c80630353b31e1461012b5780630bd747051461017057806317d001b01461019c5780631a245b8e146101cd578063278ecde114610227578063284f0923146102515780633f4ba83a1461027b5780635c975abb146102905780636ad0cfe1146102b9578063715018a6146102e5578063765e0fb8146102fa5780637ff97ac1146103245780638456cb59146103575780638da5cb5b1461036c57806392fcbdc114610381578063ad7f0493146103ce578063b2c076c81461041b578063bc16ba471461048e578063c241649a14610539578063d7e308bd146105f1578063db006a751461066f578063dea7f42314610699578063e3f5d2d514610707578063f2fde38b1461071c578063f9d930991461074f575b600080fd5b34801561013757600080fd5b5061015e6004803603602081101561014e57600080fd5b50356001600160a01b0316610764565b60408051918252519081900360200190f35b34801561017c57600080fd5b5061019a6004803603602081101561019357600080fd5b503561077f565b005b3480156101a857600080fd5b506101b1610922565b604080516001600160a01b039092168252519081900360200190f35b3480156101d957600080fd5b5061019a600480360360e08110156101f057600080fd5b508035906001600160a01b036020820135169060408101359060608101359060ff6080820135169060a08101359060c00135610931565b34801561023357600080fd5b5061019a6004803603602081101561024a57600080fd5b5035610e3e565b34801561025d57600080fd5b5061019a6004803603602081101561027457600080fd5b5035610eac565b34801561028757600080fd5b5061019a610eff565b34801561029c57600080fd5b506102a5611078565b604080519115158252519081900360200190f35b61019a600480360360408110156102cf57600080fd5b50803590602001356001600160a01b0316611081565b3480156102f157600080fd5b5061019a6112eb565b34801561030657600080fd5b5061019a6004803603602081101561031d57600080fd5b5035611385565b34801561033057600080fd5b5061019a6004803603602081101561034757600080fd5b50356001600160a01b03166113d8565b34801561036357600080fd5b5061019a6113f8565b34801561037857600080fd5b506101b16114b3565b61019a600480360360e081101561039757600080fd5b508035906001600160a01b036020820135169060408101359060608101359060ff6080820135169060a08101359060c001356114c2565b61019a600480360360e08110156103e457600080fd5b508035906001600160a01b036020820135169060408101359060608101359060ff6080820135169060a08101359060c0013561197d565b34801561042757600080fd5b5061019a600480360361014081101561043f57600080fd5b508035906001600160a01b036020820135169060408101359060608101359060ff608082013581169160a08101359160c08201359160e081013590911690610100810135906101200135611dcf565b34801561049a57600080fd5b5061019a600480360360e08110156104b157600080fd5b6001600160a01b038235169160208101359160408201359160ff6060820135169160808201359160a08101359181019060e0810160c0820135600160201b8111156104fb57600080fd5b82018360208201111561050d57600080fd5b803590602001918460208302840111600160201b8311171561052e57600080fd5b509092509050612440565b34801561054557600080fd5b5061019a600480360361010081101561055d57600080fd5b6001600160a01b03823581169260208101359091169160408201359160608101359160ff6080830135169160a08101359160c08201359190810190610100810160e0820135600160201b8111156105b357600080fd5b8201836020820111156105c557600080fd5b803590602001918460208302840111600160201b831117156105e657600080fd5b509092509050612924565b61019a6004803603604081101561060757600080fd5b6001600160a01b038235169190810190604081016020820135600160201b81111561063157600080fd5b82018360208201111561064357600080fd5b803590602001918460208302840111600160201b8311171561066457600080fd5b509092509050612db8565b34801561067b57600080fd5b5061019a6004803603602081101561069257600080fd5b5035613168565b61019a600480360360208110156106af57600080fd5b810190602081018135600160201b8111156106c957600080fd5b8201836020820111156106db57600080fd5b803590602001918460208302840111600160201b831117156106fc57600080fd5b5090925090506131bb565b34801561071357600080fd5b506101b1613549565b34801561072857600080fd5b5061019a6004803603602081101561073f57600080fd5b50356001600160a01b0316613558565b34801561075b57600080fd5b506101b1613649565b6001600160a01b031660009081526003602052604090205490565b600260015414156107c5576040805162461bcd60e51b815260206004820152601f6024820152600080516020613a9c833981519152604482015290519081900360640190fd5b60026001556107d2611078565b15610812576040805162461bcd60e51b81526020600482015260106024820152600080516020613b63833981519152604482015290519081900360640190fd5b600554604080516322af217960e11b81526004810184905233602482015290516000926001600160a01b03169163455e42f291604480830192602092919082900301818787803b15801561086557600080fd5b505af1158015610879573d6000803e3d6000fd5b505050506040513d602081101561088f57600080fd5b50516004805460408051632990c23f60e11b815292830186905260248301849052336044840152519293506001600160a01b031691635321847e9160648082019260009290919082900301818387803b1580156108eb57600080fd5b505af11580156108ff573d6000803e3d6000fd5b505033600090815260036020526040902080546001908101909155805550505050565b6006546001600160a01b031690565b60026001541415610977576040805162461bcd60e51b815260206004820152601f6024820152600080516020613a9c833981519152604482015290519081900360640190fd5b6002600155610984611078565b156109c4576040805162461bcd60e51b81526020600482015260106024820152600080516020613b63833981519152604482015290519081900360640190fd5b60055460408051633eb53ba560e21b8152600481018a9052815160009384936001600160a01b039091169263fad4ee949260248083019392829003018186803b158015610a1057600080fd5b505afa158015610a24573d6000803e3d6000fd5b505050506040513d6040811015610a3a57600080fd5b508051602090910151909250905081610a538883613658565b14610a8a576040805162461bcd60e51b815260206004820152600260248201526124a360f11b604482015290519081900360640190fd5b6005546040805163e875a61360e01b8152600481018c905290516000926001600160a01b03169163e875a613916024808301926020929190829003018186803b158015610ad657600080fd5b505afa158015610aea573d6000803e3d6000fd5b505050506040513d6020811015610b0057600080fd5b505160055460408051639a751bbd60e01b8152600481018e905290519293506000926001600160a01b0390921691639a751bbd91602480820192602092909190829003018186803b158015610b5457600080fd5b505afa158015610b68573d6000803e3d6000fd5b505050506040513d6020811015610b7e57600080fd5b505190506001600160a01b0382811690821614610bc7576040805162461bcd60e51b8152602060048201526002602482015261494360f01b604482015290519081900360640190fd5b6040805163d505accf60e01b8152336004820152306024820152604481018b9052606481018a905260ff8916608482015260a4810188905260c4810187905290516001600160a01b0384169163d505accf9160e480830192600092919082900301818387803b158015610c3957600080fd5b505af1158015610c4d573d6000803e3d6000fd5b50505050600560009054906101000a90046001600160a01b03166001600160a01b031663b0df130d8c8c33600460036000336001600160a01b03166001600160a01b031681526020019081526020016000206000815480929190600101919050556040518663ffffffff1660e01b815260040180868152602001856001600160a01b03168152602001846001600160a01b031681526020018360ff16815260200182815260200195505050505050600060405180830381600087803b158015610d1557600080fd5b505af1158015610d29573d6000803e3d6000fd5b505060048054604080516323b872dd60e01b815233938101939093526001600160a01b039182166024840152604483018e90525190861693506323b872dd925060648083019260209291908290030181600087803b158015610d8a57600080fd5b505af1158015610d9e573d6000803e3d6000fd5b505050506040513d6020811015610db457600080fd5b505060048054604080516302853b5d60e31b81526001600160a01b0386811694820194909452336024820152604481018d905290519290911691631429dae89160648082019260009290919082900301818387803b158015610e1557600080fd5b505af1158015610e29573d6000803e3d6000fd5b50506001805550505050505050505050505050565b60055460408051631eb489b760e21b81526004810184905233602482015290516001600160a01b0390921691637ad226dc9160448082019260009290919082900301818387803b158015610e9157600080fd5b505af1158015610ea5573d6000803e3d6000fd5b5050505050565b600554604080516366db9a0960e01b81526004810184905233602482015290516001600160a01b03909216916366db9a099160448082019260009290919082900301818387803b158015610e9157600080fd5b610f076136ba565b6004805460408051635702442760e11b815290516001600160a01b039092169263ae04884e928282019260209290829003018186803b158015610f4957600080fd5b505afa158015610f5d573d6000803e3d6000fd5b505050506040513d6020811015610f7357600080fd5b5051610fab576040805162461bcd60e51b81526020600482015260026024820152612aa360f11b604482015290519081900360640190fd5b610fb3613715565b600560009054906101000a90046001600160a01b03166001600160a01b0316633f4ba83a6040518163ffffffff1660e01b8152600401600060405180830381600087803b15801561100357600080fd5b505af1158015611017573d6000803e3d6000fd5b50506004805460408051631fa5d41d60e11b815290516001600160a01b039092169450633f4ba83a9350808301926000929182900301818387803b15801561105e57600080fd5b505af1158015611072573d6000803e3d6000fd5b50505050565b60005460ff1690565b600260015414156110c7576040805162461bcd60e51b815260206004820152601f6024820152600080516020613a9c833981519152604482015290519081900360640190fd5b60026001556110d4611078565b15611114576040805162461bcd60e51b81526020600482015260106024820152600080516020613b63833981519152604482015290519081900360640190fd5b6005546040805163d887b4e760e01b8152600481018590529051349260009283926001600160a01b039092169163d887b4e791602480820192606092909190829003018186803b15801561116757600080fd5b505afa15801561117b573d6000803e3d6000fd5b505050506040513d606081101561119157600080fd5b5080516040909101519092509050826111aa83836137b5565b146111e1576040805162461bcd60e51b815260206004820152600260248201526124a360f11b604482015290519081900360640190fd5b6005543360008181526003602052604080822080546001818101909255825163b0df130d60e01b8152600481018c90526001600160a01b038b811660248301526044820196909652606481019290925260848201529051929093169263b0df130d9260a4808301939282900301818387803b15801561125f57600080fd5b505af1158015611273573d6000803e3d6000fd5b50506004805460408051631994684560e01b81523393810193909352516001600160a01b03909116935063199468459250349160248082019260009290919082900301818588803b1580156112c757600080fd5b505af11580156112db573d6000803e3d6000fd5b5050600180555050505050505050565b6112f3613814565b6001600160a01b03166113046114b3565b6001600160a01b03161461134d576040805162461bcd60e51b81526020600482018190526024820152600080516020613b23833981519152604482015290519081900360640190fd5b6002546040516000916001600160a01b031690600080516020613b43833981519152908390a3600280546001600160a01b0319169055565b60055460408051631ebaf54360e31b81526004810184905233602482015290516001600160a01b039092169163f5d7aa189160448082019260009290919082900301818387803b158015610e9157600080fd5b6001600160a01b0316600090815260036020526040902080546001019055565b6114006136ba565b611408613818565b600560009054906101000a90046001600160a01b03166001600160a01b0316638456cb596040518163ffffffff1660e01b8152600401600060405180830381600087803b15801561145857600080fd5b505af115801561146c573d6000803e3d6000fd5b50506004805460408051638456cb5960e01b815290516001600160a01b039092169450638456cb599350808301926000929182900301818387803b15801561105e57600080fd5b6002546001600160a01b031690565b60026001541415611508576040805162461bcd60e51b815260206004820152601f6024820152600080516020613a9c833981519152604482015290519081900360640190fd5b6002600155611515611078565b15611555576040805162461bcd60e51b81526020600482015260106024820152600080516020613b63833981519152604482015290519081900360640190fd5b60055460408051633eb53ba560e21b8152600481018a9052815160009384936001600160a01b039091169263fad4ee949260248083019392829003018186803b1580156115a157600080fd5b505afa1580156115b5573d6000803e3d6000fd5b505050506040513d60408110156115cb57600080fd5b5080516020909101519092509050348214611612576040805162461bcd60e51b8152602060048201526002602482015261049560f41b604482015290519081900360640190fd5b86811461164b576040805162461bcd60e51b8152602060048201526002602482015261125160f21b604482015290519081900360640190fd5b60055460408051639a751bbd60e01b8152600481018c905290516000926001600160a01b031691639a751bbd916024808301926020929190829003018186803b15801561169757600080fd5b505afa1580156116ab573d6000803e3d6000fd5b505050506040513d60208110156116c157600080fd5b50516040805163d505accf60e01b8152336004820152306024820152604481018b9052606481018a905260ff8916608482015260a4810188905260c4810187905290519192506001600160a01b0383169163d505accf9160e48082019260009290919082900301818387803b15801561173957600080fd5b505af115801561174d573d6000803e3d6000fd5b50505050600560009054906101000a90046001600160a01b03166001600160a01b031663b0df130d8b8b33600260036000336001600160a01b03166001600160a01b031681526020019081526020016000206000815480929190600101919050556040518663ffffffff1660e01b815260040180868152602001856001600160a01b03168152602001846001600160a01b031681526020018360ff16815260200182815260200195505050505050600060405180830381600087803b15801561181557600080fd5b505af1158015611829573d6000803e3d6000fd5b505060048054604080516323b872dd60e01b815233938101939093526001600160a01b039182166024840152604483018d90525190851693506323b872dd925060648083019260209291908290030181600087803b15801561188a57600080fd5b505af115801561189e573d6000803e3d6000fd5b505050506040513d60208110156118b457600080fd5b505060048054604080516302853b5d60e31b81526001600160a01b0385811694820194909452336024820152604481018c905290519290911691631429dae89160648082019260009290919082900301818387803b15801561191557600080fd5b505af1158015611929573d6000803e3d6000fd5b50506004805460408051631994684560e01b81523393810193909352516001600160a01b03909116935063199468459250349160248082019260009290919082900301818588803b158015610e1557600080fd5b600260015414156119c3576040805162461bcd60e51b815260206004820152601f6024820152600080516020613a9c833981519152604482015290519081900360640190fd5b60026001556119d0611078565b15611a10576040805162461bcd60e51b81526020600482015260106024820152600080516020613b63833981519152604482015290519081900360640190fd5b60055460408051633eb53ba560e21b8152600481018a9052815160009384936001600160a01b039091169263fad4ee949260248083019392829003018186803b158015611a5c57600080fd5b505afa158015611a70573d6000803e3d6000fd5b505050506040513d6040811015611a8657600080fd5b5080516020909101519092509050868214611acd576040805162461bcd60e51b8152602060048201526002602482015261049560f41b604482015290519081900360640190fd5b348114611b06576040805162461bcd60e51b8152602060048201526002602482015261125160f21b604482015290519081900360640190fd5b6005546040805163e875a61360e01b8152600481018c905290516000926001600160a01b03169163e875a613916024808301926020929190829003018186803b158015611b5257600080fd5b505afa158015611b66573d6000803e3d6000fd5b505050506040513d6020811015611b7c57600080fd5b50516040805163d505accf60e01b815233600482015230602482015260448101869052606481018a905260ff8916608482015260a4810188905260c4810187905290519192506001600160a01b0383169163d505accf9160e48082019260009290919082900301818387803b158015611bf457600080fd5b505af1158015611c08573d6000803e3d6000fd5b50505050600560009054906101000a90046001600160a01b03166001600160a01b031663b0df130d8b8b336003806000336001600160a01b03166001600160a01b031681526020019081526020016000206000815480929190600101919050556040518663ffffffff1660e01b815260040180868152602001856001600160a01b03168152602001846001600160a01b031681526020018360ff16815260200182815260200195505050505050600060405180830381600087803b158015611ccf57600080fd5b505af1158015611ce3573d6000803e3d6000fd5b505060048054604080516323b872dd60e01b815233938101939093526001600160a01b039182166024840152604483018890525190851693506323b872dd925060648083019260209291908290030181600087803b158015611d4457600080fd5b505af1158015611d58573d6000803e3d6000fd5b505050506040513d6020811015611d6e57600080fd5b505060048054604080516302853b5d60e31b81526001600160a01b03858116948201949094523360248201526044810187905290519290911691631429dae89160648082019260009290919082900301818387803b15801561191557600080fd5b60026001541415611e15576040805162461bcd60e51b815260206004820152601f6024820152600080516020613a9c833981519152604482015290519081900360640190fd5b6002600155611e22611078565b15611e62576040805162461bcd60e51b81526020600482015260106024820152600080516020613b63833981519152604482015290519081900360640190fd5b60055460408051633eb53ba560e21b8152600481018d9052815160009384936001600160a01b039091169263fad4ee949260248083019392829003018186803b158015611eae57600080fd5b505afa158015611ec2573d6000803e3d6000fd5b505050506040513d6040811015611ed857600080fd5b508051602090910151909250905081611ef18b83613658565b14611f28576040805162461bcd60e51b815260206004820152600260248201526124a360f11b604482015290519081900360640190fd5b6005546040805163e875a61360e01b8152600481018f905290516000926001600160a01b03169163e875a613916024808301926020929190829003018186803b158015611f7457600080fd5b505afa158015611f88573d6000803e3d6000fd5b505050506040513d6020811015611f9e57600080fd5b810190808051906020019092919050505090506000600560009054906101000a90046001600160a01b03166001600160a01b0316639a751bbd8f6040518263ffffffff1660e01b81526004018082815260200191505060206040518083038186803b15801561200c57600080fd5b505afa158015612020573d6000803e3d6000fd5b505050506040513d602081101561203657600080fd5b50516040805163d505accf60e01b815233600482015230602482015260448101879052606481018e905260ff8d16608482015260a481018c905260c481018b905290519192506001600160a01b0384169163d505accf9160e48082019260009290919082900301818387803b1580156120ae57600080fd5b505af11580156120c2573d6000803e3d6000fd5b50506040805163d505accf60e01b815233600482015230602482015260448101879052606481018f905260ff8b16608482015260a481018a905260c4810189905290516001600160a01b038516935063d505accf925060e480830192600092919082900301818387803b15801561213857600080fd5b505af115801561214c573d6000803e3d6000fd5b50505050600560009054906101000a90046001600160a01b03166001600160a01b031663b0df130d8f8f33600460036000336001600160a01b03166001600160a01b031681526020019081526020016000206000815480929190600101919050556040518663ffffffff1660e01b815260040180868152602001856001600160a01b03168152602001846001600160a01b031681526020018360ff16815260200182815260200195505050505050600060405180830381600087803b15801561221457600080fd5b505af1158015612228573d6000803e3d6000fd5b505060048054604080516323b872dd60e01b815233938101939093526001600160a01b039182166024840152604483018990525190861693506323b872dd925060648083019260209291908290030181600087803b15801561228957600080fd5b505af115801561229d573d6000803e3d6000fd5b505050506040513d60208110156122b357600080fd5b505060048054604080516323b872dd60e01b815233938101939093526001600160a01b0391821660248401526044830186905251908316916323b872dd9160648083019260209291908290030181600087803b15801561231257600080fd5b505af1158015612326573d6000803e3d6000fd5b505050506040513d602081101561233c57600080fd5b505060048054604080516302853b5d60e31b81526001600160a01b03868116948201949094523360248201526044810188905290519290911691631429dae89160648082019260009290919082900301818387803b15801561239d57600080fd5b505af11580156123b1573d6000803e3d6000fd5b505060048054604080516302853b5d60e31b81526001600160a01b0387811694820194909452336024820152604481018990529051929091169350631429dae8925060648082019260009290919082900301818387803b15801561241457600080fd5b505af1158015612428573d6000803e3d6000fd5b50506001805550505050505050505050505050505050565b612448611078565b15612488576040805162461bcd60e51b81526020600482015260106024820152600080516020613b63833981519152604482015290519081900360640190fd5b61249188613896565b6124d26124cd838360058181106124a457fe5b90506020020135848460028181106124b857fe5b905060200201356138d990919063ffffffff16565b613932565b6124ff886124fa848460058181106124e657fe5b90506020020135858560038181106124b857fe5b6139e5565b612527886124fa8484600581811061251357fe5b90506020020135858560048181106124b857fe5b8661254c8383600581811061253857fe5b90506020020135848460038181106124b857fe5b14612583576040805162461bcd60e51b815260206004820152600260248201526124a360f11b604482015290519081900360640190fd5b6040805163d505accf60e01b8152336004820152306024820152604481018990526064810188905260ff8716608482015260a4810186905260c4810185905290516001600160a01b038a169163d505accf9160e480830192600092919082900301818387803b1580156125f557600080fd5b505af1158015612609573d6000803e3d6000fd5b5050600554600092506001600160a01b0316905063797f2a26338585858161262d57fe5b905060200201358686600181811061264157fe5b905060200201358787600281811061265557fe5b905060200201358888600381811061266957fe5b905060200201358989600481811061267d57fe5b905060200201358a8a600581811061269157fe5b905060200201356040518863ffffffff1660e01b815260040180886001600160a01b03168152602001878152602001868152602001858152602001848152602001838152602001828152602001975050505050505050602060405180830381600087803b15801561270157600080fd5b505af1158015612715573d6000803e3d6000fd5b505050506040513d602081101561272b57600080fd5b5051600554604080516319eb920160e31b815260048101849052600260248201526000604482018190526001600160a01b038e811660648401529251949550919092169263cf5c900892608480820193929182900301818387803b15801561279257600080fd5b505af11580156127a6573d6000803e3d6000fd5b505060048054604080516323b872dd60e01b815233938101939093526001600160a01b039182166024840152604483018d905251908d1693506323b872dd925060648083019260209291908290030181600087803b15801561280757600080fd5b505af115801561281b573d6000803e3d6000fd5b505050506040513d602081101561283157600080fd5b505060048054604080516302853b5d60e31b81526001600160a01b038d811694820194909452336024820152604481018c905290519290911691631429dae89160648082019260009290919082900301818387803b15801561289257600080fd5b505af11580156128a6573d6000803e3d6000fd5b5050505080600080516020613ae283398151915233858560058181106128c857fe5b3360009081526003602090815260409182902080546001810190915582516001600160a01b03979097168752928102949094013593850193909352600284840152606084015250519081900360800190a2505050505050505050565b61292c611078565b1561296c576040805162461bcd60e51b81526020600482015260106024820152600080516020613b63833981519152604482015290519081900360640190fd5b61297589613896565b61297e88613896565b6129a6896124fa8484600581811061299257fe5b90506020020135858560028181106124b857fe5b6129ba886124fa848460058181106124e657fe5b6129ce886124fa8484600581811061251357fe5b866129df8383600581811061253857fe5b14612a16576040805162461bcd60e51b815260206004820152600260248201526124a360f11b604482015290519081900360640190fd5b6040805163d505accf60e01b8152336004820152306024820152604481018990526064810188905260ff8716608482015260a4810186905260c4810185905290516001600160a01b038a169163d505accf9160e480830192600092919082900301818387803b158015612a8857600080fd5b505af1158015612a9c573d6000803e3d6000fd5b5050600554600092506001600160a01b0316905063797f2a263385858581612ac057fe5b9050602002013586866001818110612ad457fe5b9050602002013587876002818110612ae857fe5b9050602002013588886003818110612afc57fe5b9050602002013589896004818110612b1057fe5b905060200201358a8a6005818110612b2457fe5b905060200201356040518863ffffffff1660e01b815260040180886001600160a01b03168152602001878152602001868152602001858152602001848152602001838152602001828152602001975050505050505050602060405180830381600087803b158015612b9457600080fd5b505af1158015612ba8573d6000803e3d6000fd5b505050506040513d6020811015612bbe57600080fd5b5051600554604080516319eb920160e31b8152600481810185905260248201526001600160a01b038e811660448301528d81166064830152915193945091169163cf5c90089160848082019260009290919082900301818387803b158015612c2557600080fd5b505af1158015612c39573d6000803e3d6000fd5b505060048054604080516323b872dd60e01b815233938101939093526001600160a01b039182166024840152604483018d905251908d1693506323b872dd925060648083019260209291908290030181600087803b158015612c9a57600080fd5b505af1158015612cae573d6000803e3d6000fd5b505050506040513d6020811015612cc457600080fd5b505060048054604080516302853b5d60e31b81526001600160a01b038d811694820194909452336024820152604481018c905290519290911691631429dae89160648082019260009290919082900301818387803b158015612d2557600080fd5b505af1158015612d39573d6000803e3d6000fd5b5050505080600080516020613ae28339815191523385856005818110612d5b57fe5b3360009081526003602090815260409182902080546001810190915582516001600160a01b03979097168752928102949094013593850193909352600484840152606084015250519081900360800190a250505050505050505050565b60026001541415612dfe576040805162461bcd60e51b815260206004820152601f6024820152600080516020613a9c833981519152604482015290519081900360640190fd5b6002600155612e0b611078565b15612e4b576040805162461bcd60e51b81526020600482015260106024820152600080516020613b63833981519152604482015290519081900360640190fd5b612e5483613896565b612e68836124fa8484600581811061299257fe5b612e7b6124cd8383600581811061253857fe5b612ea26124cd83836005818110612e8e57fe5b90506020020135848460048181106124b857fe5b34612eb38383600581811061253857fe5b14612eea576040805162461bcd60e51b815260206004820152600260248201526124a360f11b604482015290519081900360640190fd5b6005546000906001600160a01b031663797f2a263385858581612f0957fe5b9050602002013586866001818110612f1d57fe5b9050602002013587876002818110612f3157fe5b9050602002013588886003818110612f4557fe5b9050602002013589896004818110612f5957fe5b905060200201358a8a6005818110612f6d57fe5b905060200201356040518863ffffffff1660e01b815260040180886001600160a01b03168152602001878152602001868152602001858152602001848152602001838152602001828152602001975050505050505050602060405180830381600087803b158015612fdd57600080fd5b505af1158015612ff1573d6000803e3d6000fd5b505050506040513d602081101561300757600080fd5b5051600554604080516319eb920160e31b815260048101849052600360248201526001600160a01b03888116604483015260006064830181905292519495509092169263cf5c900892608480820193929182900301818387803b15801561306d57600080fd5b505af1158015613081573d6000803e3d6000fd5b50506004805460408051631994684560e01b81523393810193909352516001600160a01b03909116935063199468459250349160248082019260009290919082900301818588803b1580156130d557600080fd5b505af11580156130e9573d6000803e3d6000fd5b505050505080600080516020613ae2833981519152338585600581811061310c57fe5b3360009081526003602081815260409283902080546001810190915583516001600160a01b0398909816885293810295909501359486019490945284810193909352606084015250519081900360800190a25050600180555050565b60055460408051633def417960e11b81526004810184905233602482015290516001600160a01b0390921691637bde82f29160448082019260009290919082900301818387803b158015610e9157600080fd5b60026001541415613201576040805162461bcd60e51b815260206004820152601f6024820152600080516020613a9c833981519152604482015290519081900360640190fd5b600260015561320e611078565b1561324e576040805162461bcd60e51b81526020600482015260106024820152600080516020613b63833981519152604482015290519081900360640190fd5b6132616124cd838360058181106124a457fe5b6132746124cd8383600581811061253857fe5b6132876124cd83836005818110612e8e57fe5b346132988383600581811061253857fe5b146132cf576040805162461bcd60e51b815260206004820152600260248201526124a360f11b604482015290519081900360640190fd5b6005546000906001600160a01b031663797f2a2633858585816132ee57fe5b905060200201358686600181811061330257fe5b905060200201358787600281811061331657fe5b905060200201358888600381811061332a57fe5b905060200201358989600481811061333e57fe5b905060200201358a8a600581811061335257fe5b905060200201356040518863ffffffff1660e01b815260040180886001600160a01b03168152602001878152602001868152602001858152602001848152602001838152602001828152602001975050505050505050602060405180830381600087803b1580156133c257600080fd5b505af11580156133d6573d6000803e3d6000fd5b505050506040513d60208110156133ec57600080fd5b5051600554604080516319eb920160e31b815260048101849052600160248201526000604482018190526064820181905291519394506001600160a01b039092169263cf5c900892608480820193929182900301818387803b15801561345157600080fd5b505af1158015613465573d6000803e3d6000fd5b50506004805460408051631994684560e01b81523393810193909352516001600160a01b03909116935063199468459250349160248082019260009290919082900301818588803b1580156134b957600080fd5b505af11580156134cd573d6000803e3d6000fd5b505050505080600080516020613ae283398151915233858560058181106134f057fe5b336000908152600360209081526040918290208054600181810190925583516001600160a01b0398909816885293820295909501359086015284810193909352606084015250519081900360800190a250506001805550565b6005546001600160a01b031690565b613560613814565b6001600160a01b03166135716114b3565b6001600160a01b0316146135ba576040805162461bcd60e51b81526020600482018190526024820152600080516020613b23833981519152604482015290519081900360640190fd5b6001600160a01b0381166135ff5760405162461bcd60e51b8152600401808060200182810382526026815260200180613abc6026913960400191505060405180910390fd5b6002546040516001600160a01b03808416921690600080516020613b4383398151915290600090a3600280546001600160a01b0319166001600160a01b0392909216919091179055565b6004546001600160a01b031690565b6000828211156136af576040805162461bcd60e51b815260206004820152601e60248201527f536166654d6174683a207375627472616374696f6e206f766572666c6f770000604482015290519081900360640190fd5b508082035b92915050565b6136c2613814565b6001600160a01b03166136d36114b3565b6001600160a01b031614613713576040805162461bcd60e51b81526020600482015260026024820152614e4f60f01b604482015290519081900360640190fd5b565b61371d611078565b613765576040805162461bcd60e51b815260206004820152601460248201527314185d5cd8589b194e881b9bdd081c185d5cd95960621b604482015290519081900360640190fd5b6000805460ff191690557f5db9ee0a495bf2e6ff9c91a7834c1ba4fdd244a5e8aa4e537bd38aeae4b073aa613798613814565b604080516001600160a01b039092168252519081900360200190a1565b60008282018381101561380d576040805162461bcd60e51b815260206004820152601b60248201527a536166654d6174683a206164646974696f6e206f766572666c6f7760281b604482015290519081900360640190fd5b9392505050565b3390565b613820611078565b15613860576040805162461bcd60e51b81526020600482015260106024820152600080516020613b63833981519152604482015290519081900360640190fd5b6000805460ff191660011790557f62e78cea01bee320cd4e420270b5ea74000d11b0c9f74754ebdbfc544b05a258613798613814565b6001600160a01b0381166138d6576040805162461bcd60e51b8152602060048201526002602482015261304160f01b604482015290519081900360640190fd5b50565b6000826138e8575060006136b4565b828202828482816138f557fe5b041461380d5760405162461bcd60e51b8152600401808060200182810382526021815260200180613b026021913960400191505060405180910390fd5b600660009054906101000a90046001600160a01b03166001600160a01b0316630f878aed6040518163ffffffff1660e01b815260040160206040518083038186803b15801561398057600080fd5b505afa158015613994573d6000803e3d6000fd5b505050506040513d60208110156139aa57600080fd5b50518111156138d6576040805162461bcd60e51b8152602060048201526002602482015261105360f21b604482015290519081900360640190fd5b60065460408051635a860c8760e01b81526001600160a01b03858116600483015291519190921691635a860c87916024808301926020929190829003018186803b158015613a3257600080fd5b505afa158015613a46573d6000803e3d6000fd5b505050506040513d6020811015613a5c57600080fd5b5051811115613a97576040805162461bcd60e51b8152602060048201526002602482015261105360f21b604482015290519081900360640190fd5b505056fe5265656e7472616e637947756172643a207265656e7472616e742063616c6c004f776e61626c653a206e6577206f776e657220697320746865207a65726f2061646472657373306fc6597e2ee1311ae9c98a7cb35eefa1fb5eccecc259e85185cb2aaf157146536166654d6174683a206d756c7469706c69636174696f6e206f766572666c6f774f776e61626c653a2063616c6c6572206973206e6f7420746865206f776e65728be0079c531659141344cd1fd0a4f28419497f9722a3daafe3b4186f6b6457e05061757361626c653a2070617573656400000000000000000000000000000000a26469706673582212200acff1259167916819b3e37b57351a59ce9d6d417bc58bdeef974e7d2613d81464736f6c63430007010033",
    "source": "// SPDX-License-Identifier: LGPL-3.0-or-later\r\npragma solidity 0.7.1;\r\n\r\nimport \"@openzeppelin/contracts/utils/ReentrancyGuard.sol\";\r\nimport \"@openzeppelin/contracts/math/SafeMath.sol\";\r\nimport \"@openzeppelin/contracts/access/Ownable.sol\";\r\nimport \"@openzeppelin/contracts/utils/Pausable.sol\";\r\nimport \"@openzeppelin/contracts/utils/Address.sol\";\r\nimport \"./interfaces/IVoucherKernel.sol\";\r\nimport \"./interfaces/IERC20WithPermit.sol\";\r\nimport \"./interfaces/IFundLimitsOracle.sol\";\r\nimport \"./interfaces/IBosonRouter.sol\";\r\nimport \"./interfaces/ICashier.sol\";\r\nimport \"./UsingHelpers.sol\";\r\n\r\n/**\r\n * @title Contract for interacting with Boson Protocol from the user's perspective.\r\n */\r\ncontract BosonRouter is\r\n    IBosonRouter,\r\n    UsingHelpers,\r\n    Pausable,\r\n    ReentrancyGuard,\r\n    Ownable\r\n{\r\n    using Address for address payable;\r\n    using SafeMath for uint256;\r\n\r\n    mapping(address => uint256) private correlationIds; // whenever a seller or a buyer interacts with the smart contract, a personal txID is emitted from an event.\r\n\r\n    address private cashierAddress;\r\n    address private voucherKernel;\r\n    address private fundLimitsOracle;\r\n\r\n    event LogOrderCreated(\r\n        uint256 indexed _tokenIdSupply,\r\n        address _seller,\r\n        uint256 _quantity,\r\n        uint8 _paymentType,\r\n        uint256 _correlationId\r\n    );\r\n\r\n    /**\r\n     * @notice Acts as a modifier, but it's cheaper. Checking if a non-zero address is provided, otherwise reverts.\r\n     */\r\n    function notZeroAddress(address tokenAddress) private pure {\r\n        require(tokenAddress != address(0), \"0A\"); //zero address\r\n    }\r\n\r\n    /**\r\n     * @notice Acts as a modifier, but it's cheaper. Replacement of onlyOwner modifier. If the caller is not the owner of the contract, reverts.\r\n     */\r\n    function onlyRouterOwner() internal view {\r\n        require(owner() == _msgSender(), \"NO\"); //not owner\r\n    }\r\n\r\n    /**\r\n     * @notice Acts as a modifier, but it's cheaper. Checks whether provided value corresponds to the limits in the FundLimitsOracle.\r\n     * @param value the specified value is per voucher set level. E.g. deposit * qty should not be greater or equal to the limit in the FundLimitsOracle (ETH).\r\n     */\r\n    function notAboveETHLimit(uint256 value) internal view {\r\n        require(\r\n            value <= IFundLimitsOracle(fundLimitsOracle).getETHLimit(),\r\n            \"AL\" // above limit\r\n        );\r\n    }\r\n\r\n    /**\r\n     * @notice Acts as a modifier, but it's cheaper. Checks whether provided value corresponds to the limits in the FundLimitsOracle.\r\n     * @param _tokenAddress the token address which, we are getting the limits for.\r\n     * @param value the specified value is per voucher set level. E.g. deposit * qty should not be greater or equal to the limit in the FundLimitsOracle (ETH).\r\n     */\r\n    function notAboveTokenLimit(address _tokenAddress, uint256 value)\r\n        internal\r\n        view\r\n    {\r\n        require(\r\n            value <=\r\n                IFundLimitsOracle(fundLimitsOracle).getTokenLimit(\r\n                    _tokenAddress\r\n                ),\r\n            \"AL\" //above limit\r\n        );\r\n    }\r\n\r\n    constructor(\r\n        address _voucherKernel,\r\n        address _fundLimitsOracle,\r\n        address _cashierAddress\r\n    ) {\r\n        notZeroAddress(_voucherKernel);\r\n        notZeroAddress(_fundLimitsOracle);\r\n        notZeroAddress(_cashierAddress);\r\n\r\n        voucherKernel = _voucherKernel;\r\n        fundLimitsOracle = _fundLimitsOracle;\r\n        cashierAddress = _cashierAddress;\r\n    }\r\n\r\n    /**\r\n     * @notice Pause the Cashier && the Voucher Kernel contracts in case of emergency.\r\n     * All functions related to creating new batch, requestVoucher or withdraw will be paused, hence cannot be executed.\r\n     * There is special function for withdrawing funds if contract is paused.\r\n     */\r\n    function pause() external override {\r\n        onlyRouterOwner();\r\n        _pause();\r\n        IVoucherKernel(voucherKernel).pause();\r\n        ICashier(cashierAddress).pause();\r\n    }\r\n\r\n    /**\r\n     * @notice Unpause the Cashier && the Voucher Kernel contracts.\r\n     * All functions related to creating new batch, requestVoucher or withdraw will be unpaused.\r\n     */\r\n    function unpause() external override {\r\n        onlyRouterOwner();\r\n        require(ICashier(cashierAddress).canUnpause(), \"UF\"); //unpaused forbidden\r\n\r\n        _unpause();\r\n        IVoucherKernel(voucherKernel).unpause();\r\n        ICashier(cashierAddress).unpause();\r\n    }\r\n\r\n    /**\r\n     * @notice Issuer/Seller offers promises as supply tokens and needs to escrow the deposit\r\n        @param metadata metadata which is required for creation of a voucher\r\n        Metadata array is used as in some scenarios we need several more params, as we need to recover \r\n        owner address in order to permit the contract to transfer funds on his behalf. \r\n        Since the params get too many, we end up in situation that the stack is too deep.\r\n        \r\n        uint256 _validFrom = metadata[0];\r\n        uint256 _validTo = metadata[1];\r\n        uint256 _price = metadata[2];\r\n        uint256 _depositSe = metadata[3];\r\n        uint256 _depositBu = metadata[4];\r\n        uint256 _quantity = metadata[5];\r\n     */\r\n    function requestCreateOrderETHETH(uint256[] calldata metadata)\r\n        external\r\n        payable\r\n        override\r\n        nonReentrant\r\n        whenNotPaused\r\n    {\r\n        notAboveETHLimit(metadata[2].mul(metadata[5]));\r\n        notAboveETHLimit(metadata[3].mul(metadata[5]));\r\n        notAboveETHLimit(metadata[4].mul(metadata[5]));\r\n        require(metadata[3].mul(metadata[5]) == msg.value, \"IF\"); //invalid funds\r\n        //hex\"54\" FISSION.code(FISSION.Category.Finance, FISSION.Status.InsufficientFunds)\r\n\r\n        uint256 tokenIdSupply =\r\n            IVoucherKernel(voucherKernel).createTokenSupplyID(\r\n                msg.sender,\r\n                metadata[0],\r\n                metadata[1],\r\n                metadata[2],\r\n                metadata[3],\r\n                metadata[4],\r\n                metadata[5]\r\n            );\r\n\r\n        IVoucherKernel(voucherKernel).createPaymentMethod(\r\n            tokenIdSupply,\r\n            ETHETH,\r\n            address(0),\r\n            address(0)\r\n        );\r\n\r\n        //record funds in escrow ...\r\n        ICashier(cashierAddress).addEscrowAmount{value: msg.value}(msg.sender);\r\n\r\n        emit LogOrderCreated(\r\n            tokenIdSupply,\r\n            msg.sender,\r\n            metadata[5],\r\n            ETHETH,\r\n            correlationIds[msg.sender]++\r\n        );\r\n    }\r\n\r\n    function requestCreateOrderTKNTKNWithPermit(\r\n        address _tokenPriceAddress,\r\n        address _tokenDepositAddress,\r\n        uint256 _tokensSent,\r\n        uint256 deadline,\r\n        uint8 v,\r\n        bytes32 r,\r\n        bytes32 s,\r\n        uint256[] calldata metadata\r\n    ) external override whenNotPaused {\r\n        notZeroAddress(_tokenPriceAddress);\r\n        notZeroAddress(_tokenDepositAddress);\r\n        notAboveTokenLimit(_tokenPriceAddress, metadata[2].mul(metadata[5]));\r\n        notAboveTokenLimit(_tokenDepositAddress, metadata[3].mul(metadata[5]));\r\n        notAboveTokenLimit(_tokenDepositAddress, metadata[4].mul(metadata[5]));\r\n\r\n        require(metadata[3].mul(metadata[5]) == _tokensSent, \"IF\"); //invalid funds\r\n        //hex\"54\" FISSION.code(FISSION.Category.Finance, FISSION.Status.InsufficientFunds)\r\n\r\n        IERC20WithPermit(_tokenDepositAddress).permit(\r\n            msg.sender,\r\n            address(this),\r\n            _tokensSent,\r\n            deadline,\r\n            v,\r\n            r,\r\n            s\r\n        );\r\n\r\n        uint256 tokenIdSupply =\r\n            IVoucherKernel(voucherKernel).createTokenSupplyID(\r\n                msg.sender,\r\n                metadata[0],\r\n                metadata[1],\r\n                metadata[2],\r\n                metadata[3],\r\n                metadata[4],\r\n                metadata[5]\r\n            );\r\n\r\n        IVoucherKernel(voucherKernel).createPaymentMethod(\r\n            tokenIdSupply,\r\n            TKNTKN,\r\n            _tokenPriceAddress,\r\n            _tokenDepositAddress\r\n        );\r\n\r\n        IERC20WithPermit(_tokenDepositAddress).transferFrom(\r\n            msg.sender,\r\n            address(cashierAddress),\r\n            _tokensSent\r\n        );\r\n\r\n        //record funds in escrowTokens ...\r\n        ICashier(cashierAddress).addEscrowTokensAmount(\r\n            _tokenDepositAddress,\r\n            msg.sender,\r\n            _tokensSent\r\n        );\r\n\r\n        emit LogOrderCreated(\r\n            tokenIdSupply,\r\n            msg.sender,\r\n            metadata[5],\r\n            TKNTKN,\r\n            correlationIds[msg.sender]++\r\n        );\r\n    }\r\n\r\n    function requestCreateOrderETHTKNWithPermit(\r\n        address _tokenDepositAddress,\r\n        uint256 _tokensSent,\r\n        uint256 deadline,\r\n        uint8 v,\r\n        bytes32 r,\r\n        bytes32 s,\r\n        uint256[] calldata metadata\r\n    ) external override whenNotPaused {\r\n        notZeroAddress(_tokenDepositAddress);\r\n        notAboveETHLimit(metadata[2].mul(metadata[5]));\r\n        notAboveTokenLimit(_tokenDepositAddress, metadata[3].mul(metadata[5]));\r\n        notAboveTokenLimit(_tokenDepositAddress, metadata[4].mul(metadata[5]));\r\n\r\n        require(metadata[3].mul(metadata[5]) == _tokensSent, \"IF\"); //invalid funds\r\n        //hex\"54\" FISSION.code(FISSION.Category.Finance, FISSION.Status.InsufficientFunds)\r\n\r\n        IERC20WithPermit(_tokenDepositAddress).permit(\r\n            msg.sender,\r\n            address(this),\r\n            _tokensSent,\r\n            deadline,\r\n            v,\r\n            r,\r\n            s\r\n        );\r\n\r\n        uint256 tokenIdSupply =\r\n            IVoucherKernel(voucherKernel).createTokenSupplyID(\r\n                msg.sender,\r\n                metadata[0],\r\n                metadata[1],\r\n                metadata[2],\r\n                metadata[3],\r\n                metadata[4],\r\n                metadata[5]\r\n            );\r\n\r\n        IVoucherKernel(voucherKernel).createPaymentMethod(\r\n            tokenIdSupply,\r\n            ETHTKN,\r\n            address(0),\r\n            _tokenDepositAddress\r\n        );\r\n\r\n        IERC20WithPermit(_tokenDepositAddress).transferFrom(\r\n            msg.sender,\r\n            address(cashierAddress),\r\n            _tokensSent\r\n        );\r\n\r\n        //record funds in escrowTokens ...\r\n        ICashier(cashierAddress).addEscrowTokensAmount(\r\n            _tokenDepositAddress,\r\n            msg.sender,\r\n            _tokensSent\r\n        );\r\n\r\n        emit LogOrderCreated(\r\n            tokenIdSupply,\r\n            msg.sender,\r\n            metadata[5],\r\n            ETHTKN,\r\n            correlationIds[msg.sender]++\r\n        );\r\n    }\r\n\r\n    function requestCreateOrderTKNETH(\r\n        address _tokenPriceAddress,\r\n        uint256[] calldata metadata\r\n    ) external payable override nonReentrant whenNotPaused {\r\n        notZeroAddress(_tokenPriceAddress);\r\n        notAboveTokenLimit(_tokenPriceAddress, metadata[2].mul(metadata[5]));\r\n        notAboveETHLimit(metadata[3].mul(metadata[5]));\r\n        notAboveETHLimit(metadata[4].mul(metadata[5]));\r\n\r\n        require(metadata[3].mul(metadata[5]) == msg.value, \"IF\"); //invalid funds\r\n        //hex\"54\" FISSION.code(FISSION.Category.Finance, FISSION.Status.InsufficientFunds)\r\n\r\n        uint256 tokenIdSupply =\r\n            IVoucherKernel(voucherKernel).createTokenSupplyID(\r\n                msg.sender,\r\n                metadata[0],\r\n                metadata[1],\r\n                metadata[2],\r\n                metadata[3],\r\n                metadata[4],\r\n                metadata[5]\r\n            );\r\n        IVoucherKernel(voucherKernel).createPaymentMethod(\r\n            tokenIdSupply,\r\n            TKNETH,\r\n            _tokenPriceAddress,\r\n            address(0)\r\n        );\r\n\r\n        //record funds in escrow ...\r\n        ICashier(cashierAddress).addEscrowAmount{value: msg.value}(msg.sender);\r\n\r\n        emit LogOrderCreated(\r\n            tokenIdSupply,\r\n            msg.sender,\r\n            metadata[5],\r\n            TKNETH,\r\n            correlationIds[msg.sender]++\r\n        );\r\n    }\r\n\r\n    /**\r\n     * @notice Consumer requests/buys a voucher by filling an order and receiving a Voucher Token in return\r\n     * @param _tokenIdSupply    ID of the supply token\r\n     * @param _issuer           Address of the issuer of the supply token\r\n     */\r\n    function requestVoucherETHETH(uint256 _tokenIdSupply, address _issuer)\r\n        external\r\n        payable\r\n        override\r\n        nonReentrant\r\n        whenNotPaused\r\n    {\r\n        uint256 weiReceived = msg.value;\r\n\r\n        //checks\r\n        (uint256 price, , uint256 depositBu) =\r\n            IVoucherKernel(voucherKernel).getOrderCosts(_tokenIdSupply);\r\n        require(price.add(depositBu) == weiReceived, \"IF\"); //invalid funds\r\n        //hex\"54\" FISSION.code(FISSION.Category.Finance, FISSION.Status.InsufficientFunds)\r\n\r\n        IVoucherKernel(voucherKernel).fillOrder(\r\n            _tokenIdSupply,\r\n            _issuer,\r\n            msg.sender,\r\n            ETHETH,\r\n            correlationIds[msg.sender]++\r\n        );\r\n\r\n        //record funds in escrow ...\r\n        ICashier(cashierAddress).addEscrowAmount{value: msg.value}(msg.sender);\r\n    }\r\n\r\n    function requestVoucherTKNTKNWithPermit(\r\n        uint256 _tokenIdSupply,\r\n        address _issuer,\r\n        uint256 _tokensSent,\r\n        uint256 deadline,\r\n        uint8 vPrice,\r\n        bytes32 rPrice,\r\n        bytes32 sPrice, // tokenPrice\r\n        uint8 vDeposit,\r\n        bytes32 rDeposit,\r\n        bytes32 sDeposit // tokenDeposits\r\n    ) external override nonReentrant whenNotPaused {\r\n        (uint256 price, uint256 depositBu) =\r\n            IVoucherKernel(voucherKernel).getBuyerOrderCosts(_tokenIdSupply);\r\n        require(_tokensSent.sub(depositBu) == price, \"IF\"); //invalid funds\r\n\r\n        address tokenPriceAddress =\r\n            IVoucherKernel(voucherKernel).getVoucherPriceToken(_tokenIdSupply);\r\n        address tokenDepositAddress =\r\n            IVoucherKernel(voucherKernel).getVoucherDepositToken(\r\n                _tokenIdSupply\r\n            );\r\n\r\n        IERC20WithPermit(tokenPriceAddress).permit(\r\n            msg.sender,\r\n            address(this),\r\n            price,\r\n            deadline,\r\n            vPrice,\r\n            rPrice,\r\n            sPrice\r\n        );\r\n        IERC20WithPermit(tokenDepositAddress).permit(\r\n            msg.sender,\r\n            address(this),\r\n            depositBu,\r\n            deadline,\r\n            vDeposit,\r\n            rDeposit,\r\n            sDeposit\r\n        );\r\n\r\n        IVoucherKernel(voucherKernel).fillOrder(\r\n            _tokenIdSupply,\r\n            _issuer,\r\n            msg.sender,\r\n            TKNTKN,\r\n            correlationIds[msg.sender]++\r\n        );\r\n\r\n        IERC20WithPermit(tokenPriceAddress).transferFrom(\r\n            msg.sender,\r\n            address(cashierAddress),\r\n            price\r\n        );\r\n        IERC20WithPermit(tokenDepositAddress).transferFrom(\r\n            msg.sender,\r\n            address(cashierAddress),\r\n            depositBu\r\n        );\r\n\r\n        //record funds in escrowTokens for the Price token...\r\n        ICashier(cashierAddress).addEscrowTokensAmount(\r\n            tokenPriceAddress,\r\n            msg.sender,\r\n            price\r\n        );\r\n\r\n        //record funds in escrowTokens for the Deposit token...\r\n        ICashier(cashierAddress).addEscrowTokensAmount(\r\n            tokenDepositAddress,\r\n            msg.sender,\r\n            depositBu\r\n        );\r\n    }\r\n\r\n    function requestVoucherTKNTKNSameWithPermit(\r\n        uint256 _tokenIdSupply,\r\n        address _issuer,\r\n        uint256 _tokensSent,\r\n        uint256 deadline,\r\n        uint8 v,\r\n        bytes32 r,\r\n        bytes32 s\r\n    ) external override nonReentrant whenNotPaused {\r\n        (uint256 price, uint256 depositBu) =\r\n            IVoucherKernel(voucherKernel).getBuyerOrderCosts(_tokenIdSupply);\r\n        require(_tokensSent.sub(depositBu) == price, \"IF\"); //invalid funds\r\n\r\n        address tokenPriceAddress =\r\n            IVoucherKernel(voucherKernel).getVoucherPriceToken(_tokenIdSupply);\r\n        address tokenDepositAddress =\r\n            IVoucherKernel(voucherKernel).getVoucherDepositToken(\r\n                _tokenIdSupply\r\n            );\r\n\r\n        require(tokenPriceAddress == tokenDepositAddress, \"IC\"); //invalid caller\r\n\r\n        // If tokenPriceAddress && tokenPriceAddress are the same\r\n        // practically it's not of importance to each we are sending the funds\r\n        IERC20WithPermit(tokenPriceAddress).permit(\r\n            msg.sender,\r\n            address(this),\r\n            _tokensSent,\r\n            deadline,\r\n            v,\r\n            r,\r\n            s\r\n        );\r\n\r\n        IVoucherKernel(voucherKernel).fillOrder(\r\n            _tokenIdSupply,\r\n            _issuer,\r\n            msg.sender,\r\n            TKNTKN,\r\n            correlationIds[msg.sender]++\r\n        );\r\n\r\n        IERC20WithPermit(tokenPriceAddress).transferFrom(\r\n            msg.sender,\r\n            address(cashierAddress),\r\n            _tokensSent\r\n        );\r\n\r\n        //record funds in escrowTokens ...\r\n        ICashier(cashierAddress).addEscrowTokensAmount(\r\n            tokenPriceAddress,\r\n            msg.sender,\r\n            _tokensSent\r\n        );\r\n    }\r\n\r\n    function requestVoucherETHTKNWithPermit(\r\n        uint256 _tokenIdSupply,\r\n        address _issuer,\r\n        uint256 _tokensDeposit,\r\n        uint256 deadline,\r\n        uint8 v,\r\n        bytes32 r,\r\n        bytes32 s\r\n    ) external payable override nonReentrant whenNotPaused {\r\n        (uint256 price, uint256 depositBu) =\r\n            IVoucherKernel(voucherKernel).getBuyerOrderCosts(_tokenIdSupply);\r\n        require(price == msg.value, \"IP\"); //invalid price\r\n        //hex\"54\" FISSION.code(FISSION.Category.Finance, FISSION.Status.InsufficientFunds)\r\n        require(depositBu == _tokensDeposit, \"ID\"); // invalid deposit\r\n        //hex\"54\" FISSION.code(FISSION.Category.Finance, FISSION.Status.InsufficientFunds)\r\n\r\n        address tokenDepositAddress =\r\n            IVoucherKernel(voucherKernel).getVoucherDepositToken(\r\n                _tokenIdSupply\r\n            );\r\n        IERC20WithPermit(tokenDepositAddress).permit(\r\n            msg.sender,\r\n            address(this),\r\n            _tokensDeposit,\r\n            deadline,\r\n            v,\r\n            r,\r\n            s\r\n        );\r\n\r\n        IVoucherKernel(voucherKernel).fillOrder(\r\n            _tokenIdSupply,\r\n            _issuer,\r\n            msg.sender,\r\n            ETHTKN,\r\n            correlationIds[msg.sender]++\r\n        );\r\n\r\n        IERC20WithPermit(tokenDepositAddress).transferFrom(\r\n            msg.sender,\r\n            address(cashierAddress),\r\n            _tokensDeposit\r\n        );\r\n\r\n        //record funds in escrowTokens ...\r\n        ICashier(cashierAddress).addEscrowTokensAmount(\r\n            tokenDepositAddress,\r\n            msg.sender,\r\n            _tokensDeposit\r\n        );\r\n\r\n        //record funds in escrow ...\r\n        ICashier(cashierAddress).addEscrowAmount{value: msg.value}(\r\n            msg.sender\r\n        );\r\n\r\n    }\r\n\r\n    function requestVoucherTKNETHWithPermit(\r\n        uint256 _tokenIdSupply,\r\n        address _issuer,\r\n        uint256 _tokensPrice,\r\n        uint256 deadline,\r\n        uint8 v,\r\n        bytes32 r,\r\n        bytes32 s\r\n    ) external payable override nonReentrant whenNotPaused {\r\n        (uint256 price, uint256 depositBu) =\r\n            IVoucherKernel(voucherKernel).getBuyerOrderCosts(_tokenIdSupply);\r\n        require(price == _tokensPrice, \"IP\"); //invalid price\r\n        //hex\"54\" FISSION.code(FISSION.Category.Finance, FISSION.Status.InsufficientFunds)\r\n        require(depositBu == msg.value, \"ID\"); // invalid deposit\r\n        //hex\"54\" FISSION.code(FISSION.Category.Finance, FISSION.Status.InsufficientFunds)\r\n\r\n        address tokenPriceAddress =\r\n            IVoucherKernel(voucherKernel).getVoucherPriceToken(_tokenIdSupply);\r\n        IERC20WithPermit(tokenPriceAddress).permit(\r\n            msg.sender,\r\n            address(this),\r\n            price,\r\n            deadline,\r\n            v,\r\n            r,\r\n            s\r\n        );\r\n\r\n        IVoucherKernel(voucherKernel).fillOrder(\r\n            _tokenIdSupply,\r\n            _issuer,\r\n            msg.sender,\r\n            TKNETH,\r\n            correlationIds[msg.sender]++\r\n        );\r\n\r\n        IERC20WithPermit(tokenPriceAddress).transferFrom(\r\n            msg.sender,\r\n            address(cashierAddress),\r\n            price\r\n        );\r\n\r\n        //record funds in escrowTokens ...\r\n        ICashier(cashierAddress).addEscrowTokensAmount(\r\n            tokenPriceAddress,\r\n            msg.sender,\r\n            price\r\n        );\r\n\r\n        //record funds in escrow ...\r\n        ICashier(cashierAddress).addEscrowAmount{value:msg.value}(msg.sender);\r\n    }\r\n\r\n    /**\r\n     * @notice Seller burns the remaining supply in case it's no longer in exchange and withdrawal of the locked deposits for them are being sent back.\r\n     * @param _tokenIdSupply an ID of a supply token (ERC-1155) which will be burned and deposits will be returned for\r\n     */\r\n    function requestCancelOrFaultVoucherSet(uint256 _tokenIdSupply)\r\n        external\r\n        override\r\n        nonReentrant\r\n        whenNotPaused\r\n    {\r\n        uint256 _burnedSupplyQty =\r\n            IVoucherKernel(voucherKernel).cancelOrFaultVoucherSet(\r\n                _tokenIdSupply,\r\n                msg.sender\r\n            );\r\n        ICashier(cashierAddress).withdrawDepositsSe(\r\n            _tokenIdSupply,\r\n            _burnedSupplyQty,\r\n            msg.sender\r\n        );\r\n\r\n        correlationIds[msg.sender]++;\r\n    }\r\n\r\n    /**\r\n     * @notice Redemption of the vouchers promise\r\n     * @param _tokenIdVoucher   ID of the voucher\r\n     */\r\n    function redeem(uint256 _tokenIdVoucher) external override {\r\n        IVoucherKernel(voucherKernel).redeem(_tokenIdVoucher, msg.sender);\r\n    }\r\n\r\n    /**\r\n     * @notice Refunding a voucher\r\n     * @param _tokenIdVoucher   ID of the voucher\r\n     */\r\n    function refund(uint256 _tokenIdVoucher) external override {\r\n        IVoucherKernel(voucherKernel).refund(_tokenIdVoucher, msg.sender);\r\n    }\r\n\r\n    /**\r\n     * @notice Issue a complain for a voucher\r\n     * @param _tokenIdVoucher   ID of the voucher\r\n     */\r\n    function complain(uint256 _tokenIdVoucher) external override {\r\n        IVoucherKernel(voucherKernel).complain(_tokenIdVoucher, msg.sender);\r\n    }\r\n\r\n    /**\r\n     * @notice Cancel/Fault transaction by the Seller, admitting to a fault or backing out of the deal\r\n     * @param _tokenIdVoucher   ID of the voucher\r\n     */\r\n    function cancelOrFault(uint256 _tokenIdVoucher) external override {\r\n        IVoucherKernel(voucherKernel).cancelOrFault(\r\n            _tokenIdVoucher,\r\n            msg.sender\r\n        );\r\n    }\r\n\r\n    /**\r\n     * @notice Increment a seller or buyer's correlation Id\r\n     * @param _party   The address of the seller or buyer\r\n     */\r\n    function incrementCorrelationId(address _party) \r\n        external\r\n        override\r\n    {\r\n         correlationIds[_party]++;\r\n    }\r\n\r\n    /**\r\n     * @notice Return a seller or buyer's correlation Id\r\n     * @param _party   The address of the seller or buyer\r\n     * @return the specified party's correlation Id\r\n     */\r\n    function getCorrelationId(address _party) \r\n        external\r\n        override\r\n        view\r\n        returns (uint256)\r\n    {\r\n        return correlationIds[_party];\r\n    }\r\n\r\n    /**\r\n     * @notice Get the address of Cashier contract\r\n     * @return Address of Cashier address\r\n     */\r\n    function getCashierAddress() \r\n        external \r\n        view \r\n        override\r\n        returns (address)\r\n    {\r\n        return cashierAddress;\r\n    }\r\n\r\n     /**\r\n     * @notice Get the address of Voucher Kernel contract\r\n     * @return Address of Voucher Kernel contract\r\n     */\r\n    function getVoucherKernelAddress() \r\n        external \r\n        view \r\n        override\r\n        returns (address)\r\n    {\r\n        return voucherKernel;\r\n    }\r\n\r\n    /**\r\n     * @notice Get the address of Fund Limits Oracle contract\r\n     * @return Address of Fund Limits Oracle contract\r\n     */\r\n    function getFundLimitOracleAddress() \r\n        external \r\n        view \r\n        override\r\n        returns (address)\r\n    {\r\n        return fundLimitsOracle;\r\n    }\r\n}\r\n",
    "sourcePath": "E:/Ludo/Documents/Developpement/BOSON/contracts/contracts/BosonRouter.sol",
    "compiler": {
        "name": "solc",
        "version": "0.7.1+commit.f4a555be.Emscripten.clang"
    },
    "schemaVersion": "3.0.22",
    "updatedAt": "2021-07-07T10:31:40.149Z",
    "networkType": "ethereum",
    "devdoc": {
        "kind": "dev",
        "methods": {
            "cancelOrFault(uint256)": {
                "params": {
                    "_tokenIdVoucher": "ID of the voucher"
                }
            },
            "complain(uint256)": {
                "params": {
                    "_tokenIdVoucher": "ID of the voucher"
                }
            },
            "getCashierAddress()": {
                "returns": {
                    "_0": "Address of Cashier address"
                }
            },
            "getCorrelationId(address)": {
                "params": {
                    "_party": "The address of the seller or buyer"
                },
                "returns": {
                    "_0": "the specified party's correlation Id"
                }
            },
            "getFundLimitOracleAddress()": {
                "returns": {
                    "_0": "Address of Fund Limits Oracle contract"
                }
            },
            "getVoucherKernelAddress()": {
                "returns": {
                    "_0": "Address of Voucher Kernel contract"
                }
            },
            "incrementCorrelationId(address)": {
                "params": {
                    "_party": "The address of the seller or buyer"
                }
            },
            "owner()": {
                "details": "Returns the address of the current owner."
            },
            "paused()": {
                "details": "Returns true if the contract is paused, and false otherwise."
            },
            "redeem(uint256)": {
                "params": {
                    "_tokenIdVoucher": "ID of the voucher"
                }
            },
            "refund(uint256)": {
                "params": {
                    "_tokenIdVoucher": "ID of the voucher"
                }
            },
            "renounceOwnership()": {
                "details": "Leaves the contract without owner. It will not be possible to call `onlyOwner` functions anymore. Can only be called by the current owner. NOTE: Renouncing ownership will leave the contract without an owner, thereby removing any functionality that is only available to the owner."
            },
            "requestCancelOrFaultVoucherSet(uint256)": {
                "params": {
                    "_tokenIdSupply": "an ID of a supply token (ERC-1155) which will be burned and deposits will be returned for"
                }
            },
            "requestCreateOrderETHETH(uint256[])": {
                "params": {
                    "metadata": "metadata which is required for creation of a voucher Metadata array is used as in some scenarios we need several more params, as we need to recover  owner address in order to permit the contract to transfer funds on his behalf.  Since the params get too many, we end up in situation that the stack is too deep. uint256 _validFrom = metadata[0]; uint256 _validTo = metadata[1]; uint256 _price = metadata[2]; uint256 _depositSe = metadata[3]; uint256 _depositBu = metadata[4]; uint256 _quantity = metadata[5];"
                }
            },
            "requestVoucherETHETH(uint256,address)": {
                "params": {
                    "_issuer": "Address of the issuer of the supply token",
                    "_tokenIdSupply": "ID of the supply token"
                }
            },
            "transferOwnership(address)": {
                "details": "Transfers ownership of the contract to a new account (`newOwner`). Can only be called by the current owner."
            }
        },
        "title": "Contract for interacting with Boson Protocol from the user's perspective.",
        "version": 1
    },
    "userdoc": {
        "kind": "user",
        "methods": {
            "cancelOrFault(uint256)": {
                "notice": "Cancel/Fault transaction by the Seller, admitting to a fault or backing out of the deal"
            },
            "complain(uint256)": {
                "notice": "Issue a complain for a voucher"
            },
            "getCashierAddress()": {
                "notice": "Get the address of Cashier contract"
            },
            "getCorrelationId(address)": {
                "notice": "Return a seller or buyer's correlation Id"
            },
            "getFundLimitOracleAddress()": {
                "notice": "Get the address of Fund Limits Oracle contract"
            },
            "getVoucherKernelAddress()": {
                "notice": "Get the address of Voucher Kernel contract"
            },
            "incrementCorrelationId(address)": {
                "notice": "Increment a seller or buyer's correlation Id"
            },
            "pause()": {
                "notice": "Pause the Cashier && the Voucher Kernel contracts in case of emergency. All functions related to creating new batch, requestVoucher or withdraw will be paused, hence cannot be executed. There is special function for withdrawing funds if contract is paused."
            },
            "redeem(uint256)": {
                "notice": "Redemption of the vouchers promise"
            },
            "refund(uint256)": {
                "notice": "Refunding a voucher"
            },
            "requestCancelOrFaultVoucherSet(uint256)": {
                "notice": "Seller burns the remaining supply in case it's no longer in exchange and withdrawal of the locked deposits for them are being sent back."
            },
            "requestCreateOrderETHETH(uint256[])": {
                "notice": "Issuer/Seller offers promises as supply tokens and needs to escrow the deposit"
            },
            "requestVoucherETHETH(uint256,address)": {
                "notice": "Consumer requests/buys a voucher by filling an order and receiving a Voucher Token in return"
            },
            "unpause()": {
                "notice": "Unpause the Cashier && the Voucher Kernel contracts. All functions related to creating new batch, requestVoucher or withdraw will be unpaused."
            }
        },
        "version": 1
    }
}