{
  "contractName": "BosonRouter",
  "abi": [
    {
      "inputs": [
        {
          "internalType": "address",
          "name": "_voucherKernel",
          "type": "address"
        },
        {
          "internalType": "address",
          "name": "_tokensContractAddress",
          "type": "address"
        },
        {
          "internalType": "address",
          "name": "_fundLimitsOracle",
          "type": "address"
        },
        {
          "internalType": "address",
          "name": "_cashierAddress",
          "type": "address"
        }
      ],
      "stateMutability": "nonpayable",
      "type": "constructor"
    },
    {
      "anonymous": false,
      "inputs": [
        {
          "indexed": true,
          "internalType": "uint256",
          "name": "_tokenIdSupply",
          "type": "uint256"
        },
        {
          "indexed": false,
          "internalType": "address",
          "name": "_seller",
          "type": "address"
        },
        {
          "indexed": false,
          "internalType": "uint256",
          "name": "_quantity",
          "type": "uint256"
        },
        {
          "indexed": false,
          "internalType": "uint8",
          "name": "_paymentType",
          "type": "uint8"
        },
        {
          "indexed": false,
          "internalType": "uint256",
          "name": "_correlationId",
          "type": "uint256"
        }
      ],
      "name": "LogOrderCreated",
      "type": "event"
    },
    {
      "anonymous": false,
      "inputs": [
        {
          "indexed": false,
          "internalType": "address",
          "name": "_newTokenContract",
          "type": "address"
        },
        {
          "indexed": false,
          "internalType": "address",
          "name": "_triggeredBy",
          "type": "address"
        }
      ],
      "name": "LogTokenContractSet",
      "type": "event"
    },
    {
      "anonymous": false,
      "inputs": [
        {
          "indexed": true,
          "internalType": "address",
          "name": "previousOwner",
          "type": "address"
        },
        {
          "indexed": true,
          "internalType": "address",
          "name": "newOwner",
          "type": "address"
        }
      ],
      "name": "OwnershipTransferred",
      "type": "event"
    },
    {
      "anonymous": false,
      "inputs": [
        {
          "indexed": false,
          "internalType": "address",
          "name": "account",
          "type": "address"
        }
      ],
      "name": "Paused",
      "type": "event"
    },
    {
      "anonymous": false,
      "inputs": [
        {
          "indexed": false,
          "internalType": "address",
          "name": "account",
          "type": "address"
        }
      ],
      "name": "Unpaused",
      "type": "event"
    },
    {
      "inputs": [],
      "name": "cashierAddress",
      "outputs": [
        {
          "internalType": "address",
          "name": "",
          "type": "address"
        }
      ],
      "stateMutability": "view",
      "type": "function",
      "constant": true
    },
    {
      "inputs": [
        {
          "internalType": "address",
          "name": "",
          "type": "address"
        }
      ],
      "name": "correlationIds",
      "outputs": [
        {
          "internalType": "uint256",
          "name": "",
          "type": "uint256"
        }
      ],
      "stateMutability": "view",
      "type": "function",
      "constant": true
    },
    {
      "inputs": [],
      "name": "fundLimitsOracle",
      "outputs": [
        {
          "internalType": "address",
          "name": "",
          "type": "address"
        }
      ],
      "stateMutability": "view",
      "type": "function",
      "constant": true
    },
    {
      "inputs": [],
      "name": "owner",
      "outputs": [
        {
          "internalType": "address",
          "name": "",
          "type": "address"
        }
      ],
      "stateMutability": "view",
      "type": "function",
      "constant": true
    },
    {
      "inputs": [],
      "name": "paused",
      "outputs": [
        {
          "internalType": "bool",
          "name": "",
          "type": "bool"
        }
      ],
      "stateMutability": "view",
      "type": "function",
      "constant": true
    },
    {
      "inputs": [],
      "name": "renounceOwnership",
      "outputs": [],
      "stateMutability": "nonpayable",
      "type": "function"
    },
    {
      "inputs": [],
      "name": "tokensContractAddress",
      "outputs": [
        {
          "internalType": "address",
          "name": "",
          "type": "address"
        }
      ],
      "stateMutability": "view",
      "type": "function",
      "constant": true
    },
    {
      "inputs": [
        {
          "internalType": "address",
          "name": "newOwner",
          "type": "address"
        }
      ],
      "name": "transferOwnership",
      "outputs": [],
      "stateMutability": "nonpayable",
      "type": "function"
    },
    {
      "inputs": [],
      "name": "voucherKernel",
      "outputs": [
        {
          "internalType": "address",
          "name": "",
          "type": "address"
        }
      ],
      "stateMutability": "view",
      "type": "function",
      "constant": true
    },
    {
      "inputs": [],
      "name": "pause",
      "outputs": [],
      "stateMutability": "nonpayable",
      "type": "function"
    },
    {
      "inputs": [],
      "name": "unpause",
      "outputs": [],
      "stateMutability": "nonpayable",
      "type": "function"
    },
    {
      "inputs": [
        {
          "internalType": "uint256[]",
          "name": "metadata",
          "type": "uint256[]"
        }
      ],
      "name": "requestCreateOrderETHETH",
      "outputs": [],
      "stateMutability": "payable",
      "type": "function",
      "payable": true
    },
    {
      "inputs": [
        {
          "internalType": "address",
          "name": "_tokenPriceAddress",
          "type": "address"
        },
        {
          "internalType": "address",
          "name": "_tokenDepositAddress",
          "type": "address"
        },
        {
          "internalType": "uint256",
          "name": "_tokensSent",
          "type": "uint256"
        },
        {
          "internalType": "uint256",
          "name": "deadline",
          "type": "uint256"
        },
        {
          "internalType": "uint8",
          "name": "v",
          "type": "uint8"
        },
        {
          "internalType": "bytes32",
          "name": "r",
          "type": "bytes32"
        },
        {
          "internalType": "bytes32",
          "name": "s",
          "type": "bytes32"
        },
        {
          "internalType": "uint256[]",
          "name": "metadata",
          "type": "uint256[]"
        }
      ],
      "name": "requestCreateOrderTKNTKNWithPermit",
      "outputs": [],
      "stateMutability": "nonpayable",
      "type": "function"
    },
    {
      "inputs": [
        {
          "internalType": "address",
          "name": "_tokenDepositAddress",
          "type": "address"
        },
        {
          "internalType": "uint256",
          "name": "_tokensSent",
          "type": "uint256"
        },
        {
          "internalType": "uint256",
          "name": "deadline",
          "type": "uint256"
        },
        {
          "internalType": "uint8",
          "name": "v",
          "type": "uint8"
        },
        {
          "internalType": "bytes32",
          "name": "r",
          "type": "bytes32"
        },
        {
          "internalType": "bytes32",
          "name": "s",
          "type": "bytes32"
        },
        {
          "internalType": "uint256[]",
          "name": "metadata",
          "type": "uint256[]"
        }
      ],
      "name": "requestCreateOrderETHTKNWithPermit",
      "outputs": [],
      "stateMutability": "nonpayable",
      "type": "function"
    },
    {
      "inputs": [
        {
          "internalType": "address",
          "name": "_tokenPriceAddress",
          "type": "address"
        },
        {
          "internalType": "uint256[]",
          "name": "metadata",
          "type": "uint256[]"
        }
      ],
      "name": "requestCreateOrderTKNETH",
      "outputs": [],
      "stateMutability": "payable",
      "type": "function",
      "payable": true
    },
    {
      "inputs": [
        {
          "internalType": "uint256",
          "name": "_tokenIdSupply",
          "type": "uint256"
        },
        {
          "internalType": "address",
          "name": "_issuer",
          "type": "address"
        }
      ],
      "name": "requestVoucherETHETH",
      "outputs": [],
      "stateMutability": "payable",
      "type": "function",
      "payable": true
    },
    {
      "inputs": [
        {
          "internalType": "uint256",
          "name": "_tokenIdSupply",
          "type": "uint256"
        },
        {
          "internalType": "address",
          "name": "_issuer",
          "type": "address"
        },
        {
          "internalType": "uint256",
          "name": "_tokensSent",
          "type": "uint256"
        },
        {
          "internalType": "uint256",
          "name": "deadline",
          "type": "uint256"
        },
        {
          "internalType": "uint8",
          "name": "vPrice",
          "type": "uint8"
        },
        {
          "internalType": "bytes32",
          "name": "rPrice",
          "type": "bytes32"
        },
        {
          "internalType": "bytes32",
          "name": "sPrice",
          "type": "bytes32"
        },
        {
          "internalType": "uint8",
          "name": "vDeposit",
          "type": "uint8"
        },
        {
          "internalType": "bytes32",
          "name": "rDeposit",
          "type": "bytes32"
        },
        {
          "internalType": "bytes32",
          "name": "sDeposit",
          "type": "bytes32"
        }
      ],
      "name": "requestVoucherTKNTKNWithPermit",
      "outputs": [],
      "stateMutability": "nonpayable",
      "type": "function"
    },
    {
      "inputs": [
        {
          "internalType": "uint256",
          "name": "_tokenIdSupply",
          "type": "uint256"
        },
        {
          "internalType": "address",
          "name": "_issuer",
          "type": "address"
        },
        {
          "internalType": "uint256",
          "name": "_tokensSent",
          "type": "uint256"
        },
        {
          "internalType": "uint256",
          "name": "deadline",
          "type": "uint256"
        },
        {
          "internalType": "uint8",
          "name": "v",
          "type": "uint8"
        },
        {
          "internalType": "bytes32",
          "name": "r",
          "type": "bytes32"
        },
        {
          "internalType": "bytes32",
          "name": "s",
          "type": "bytes32"
        }
      ],
      "name": "requestVoucherTKNTKNSameWithPermit",
      "outputs": [],
      "stateMutability": "nonpayable",
      "type": "function"
    },
    {
      "inputs": [
        {
          "internalType": "uint256",
          "name": "_tokenIdSupply",
          "type": "uint256"
        },
        {
          "internalType": "address",
          "name": "_issuer",
          "type": "address"
        },
        {
          "internalType": "uint256",
          "name": "_tokensDeposit",
          "type": "uint256"
        },
        {
          "internalType": "uint256",
          "name": "deadline",
          "type": "uint256"
        },
        {
          "internalType": "uint8",
          "name": "v",
          "type": "uint8"
        },
        {
          "internalType": "bytes32",
          "name": "r",
          "type": "bytes32"
        },
        {
          "internalType": "bytes32",
          "name": "s",
          "type": "bytes32"
        }
      ],
      "name": "requestVoucherETHTKNWithPermit",
      "outputs": [],
      "stateMutability": "payable",
      "type": "function",
      "payable": true
    },
    {
      "inputs": [
        {
          "internalType": "uint256",
          "name": "_tokenIdSupply",
          "type": "uint256"
        },
        {
          "internalType": "address",
          "name": "_issuer",
          "type": "address"
        },
        {
          "internalType": "uint256",
          "name": "_tokensPrice",
          "type": "uint256"
        },
        {
          "internalType": "uint256",
          "name": "deadline",
          "type": "uint256"
        },
        {
          "internalType": "uint8",
          "name": "v",
          "type": "uint8"
        },
        {
          "internalType": "bytes32",
          "name": "r",
          "type": "bytes32"
        },
        {
          "internalType": "bytes32",
          "name": "s",
          "type": "bytes32"
        }
      ],
      "name": "requestVoucherTKNETHWithPermit",
      "outputs": [],
      "stateMutability": "payable",
      "type": "function",
      "payable": true
    },
    {
      "inputs": [
        {
          "internalType": "uint256",
          "name": "_tokenIdSupply",
          "type": "uint256"
        }
      ],
      "name": "requestCancelOrFaultVoucherSet",
      "outputs": [],
      "stateMutability": "nonpayable",
      "type": "function"
    },
    {
      "inputs": [
        {
          "internalType": "uint256",
          "name": "_tokenIdVoucher",
          "type": "uint256"
        }
      ],
      "name": "redeem",
      "outputs": [],
      "stateMutability": "nonpayable",
      "type": "function"
    },
    {
      "inputs": [
        {
          "internalType": "uint256",
          "name": "_tokenIdVoucher",
          "type": "uint256"
        }
      ],
      "name": "refund",
      "outputs": [],
      "stateMutability": "nonpayable",
      "type": "function"
    },
    {
      "inputs": [
        {
          "internalType": "uint256",
          "name": "_tokenIdVoucher",
          "type": "uint256"
        }
      ],
      "name": "complain",
      "outputs": [],
      "stateMutability": "nonpayable",
      "type": "function"
    },
    {
      "inputs": [
        {
          "internalType": "uint256",
          "name": "_tokenIdVoucher",
          "type": "uint256"
        }
      ],
      "name": "cancelOrFault",
      "outputs": [],
      "stateMutability": "nonpayable",
      "type": "function"
    },
    {
      "inputs": [
        {
          "internalType": "address",
          "name": "_from",
          "type": "address"
        },
        {
          "internalType": "address",
          "name": "_to",
          "type": "address"
        },
        {
          "internalType": "uint256",
          "name": "_tokenIdVoucher",
          "type": "uint256"
        }
      ],
      "name": "_onERC721Transfer",
      "outputs": [],
      "stateMutability": "nonpayable",
      "type": "function"
    },
    {
      "inputs": [
        {
          "internalType": "address",
          "name": "_from",
          "type": "address"
        },
        {
          "internalType": "uint256",
          "name": "_tokenSupplyId",
          "type": "uint256"
        },
        {
          "internalType": "uint256",
          "name": "_value",
          "type": "uint256"
        }
      ],
      "name": "_beforeERC1155Transfer",
      "outputs": [],
      "stateMutability": "view",
      "type": "function",
      "constant": true
    },
    {
      "inputs": [
        {
          "internalType": "address",
          "name": "_from",
          "type": "address"
        },
        {
          "internalType": "address",
          "name": "_to",
          "type": "address"
        },
        {
          "internalType": "uint256",
          "name": "_tokenSupplyId",
          "type": "uint256"
        },
        {
          "internalType": "uint256",
          "name": "_value",
          "type": "uint256"
        }
      ],
      "name": "_onERC1155Transfer",
      "outputs": [],
      "stateMutability": "nonpayable",
      "type": "function"
    },
    {
      "inputs": [
        {
          "internalType": "address",
          "name": "_tokensContractAddress",
          "type": "address"
        }
      ],
      "name": "setTokenContractAddress",
      "outputs": [],
      "stateMutability": "nonpayable",
      "type": "function"
    }
  ],
  "bytecode": "0x60806040523480156200001157600080fd5b506040516200611b3803806200611b833981810160405260808110156200003757600080fd5b508051602082015160408301516060909301516000805460ff1916815560018055929391926200006662000108565b600280546001600160a01b0319166001600160a01b038316908117909155604051919250906000907f8be0079c531659141344cd1fd0a4f28419497f9722a3daafe3b4186f6b6457e0908290a350600580546001600160a01b039586166001600160a01b03199182161790915560068054948616948216949094179093556007805492851692841692909217909155600480549190931691161790556200010c565b3390565b615fff806200011c6000396000f3fe6080604052600436106101525760003560e01c806301855459146101575780630bd747051461019c5780631a245b8e146101c6578063278ecde114610220578063284f09231461024a57806339af1faf146102745780633f4ba83a146102a55780634f755c3e146102ba57806351b99203146102cf5780635c975abb146102e45780636ad0cfe11461030d578063715018a614610339578063765e0fb81461034e5780638456cb59146103785780638da5cb5b1461038d57806392fcbdc1146103a25780639692d856146103ef578063aa35569b1461042e578063ad7f049314610477578063b23d4854146104c4578063b2c076c8146104f7578063bc16ba471461056a578063c241649a14610615578063cbe0d73b146106cd578063d3fdebbb146106e2578063d7e308bd14610727578063db006a75146107a5578063dea7f423146107cf578063f2fde38b1461083d575b600080fd5b34801561016357600080fd5b5061019a6004803603606081101561017a57600080fd5b506001600160a01b03813581169160208101359091169060400135610870565b005b3480156101a857600080fd5b5061019a600480360360208110156101bf57600080fd5b5035611b13565b3480156101d257600080fd5b5061019a600480360360e08110156101e957600080fd5b508035906001600160a01b036020820135169060408101359060608101359060ff6080820135169060a08101359060c00135611cb6565b34801561022c57600080fd5b5061019a6004803603602081101561024357600080fd5b503561225b565b34801561025657600080fd5b5061019a6004803603602081101561026d57600080fd5b50356122c9565b34801561028057600080fd5b5061028961231c565b604080516001600160a01b039092168252519081900360200190f35b3480156102b157600080fd5b5061019a61232b565b3480156102c657600080fd5b506102896124a7565b3480156102db57600080fd5b506102896124b6565b3480156102f057600080fd5b506102f96124c5565b604080519115158252519081900360200190f35b61019a6004803603604081101561032357600080fd5b50803590602001356001600160a01b03166124ce565b34801561034557600080fd5b5061019a6127dd565b34801561035a57600080fd5b5061019a6004803603602081101561037157600080fd5b5035612877565b34801561038457600080fd5b5061019a6128ca565b34801561039957600080fd5b50610289612985565b61019a600480360360e08110156103b857600080fd5b508035906001600160a01b036020820135169060408101359060608101359060ff6080820135169060a08101359060c00135612994565b3480156103fb57600080fd5b5061019a6004803603606081101561041257600080fd5b506001600160a01b038135169060208101359060400135612fb5565b34801561043a57600080fd5b5061019a6004803603608081101561045157600080fd5b506001600160a01b03813581169160208101359091169060408101359060600135613080565b61019a600480360360e081101561048d57600080fd5b508035906001600160a01b036020820135169060408101359060608101359060ff6080820135169060a08101359060c00135613783565b3480156104d057600080fd5b5061019a600480360360208110156104e757600080fd5b50356001600160a01b0316613d0d565b34801561050357600080fd5b5061019a600480360361014081101561051b57600080fd5b508035906001600160a01b036020820135169060408101359060608101359060ff608082013581169160a08101359160c08201359160e081013590911690610100810135906101200135613d78565b34801561057657600080fd5b5061019a600480360360e081101561058d57600080fd5b6001600160a01b038235169160208101359160408201359160ff6060820135169160808201359160a08101359181019060e0810160c0820135600160201b8111156105d757600080fd5b8201836020820111156105e957600080fd5b803590602001918460208302840111600160201b8311171561060a57600080fd5b509092509050614517565b34801561062157600080fd5b5061019a600480360361010081101561063957600080fd5b6001600160a01b03823581169260208101359091169160408201359160608101359160ff6080830135169160a08101359160c08201359190810190610100810160e0820135600160201b81111561068f57600080fd5b8201836020820111156106a157600080fd5b803590602001918460208302840111600160201b831117156106c257600080fd5b509092509050614a9b565b3480156106d957600080fd5b50610289614fcf565b3480156106ee57600080fd5b506107156004803603602081101561070557600080fd5b50356001600160a01b0316614fde565b60408051918252519081900360200190f35b61019a6004803603604081101561073d57600080fd5b6001600160a01b038235169190810190604081016020820135600160201b81111561076757600080fd5b82018360208201111561077957600080fd5b803590602001918460208302840111600160201b8311171561079a57600080fd5b509092509050614ff0565b3480156107b157600080fd5b5061019a600480360360208110156107c857600080fd5b50356153fc565b61019a600480360360208110156107e557600080fd5b810190602081018135600160201b8111156107ff57600080fd5b82018360208201111561081157600080fd5b803590602001918460208302840111600160201b8311171561083257600080fd5b50909250905061544f565b34801561084957600080fd5b5061019a6004803603602081101561086057600080fd5b50356001600160a01b0316615839565b61087861592a565b6005546040805163035e54d560e31b81526004810184905290516000926001600160a01b031691631af2a6a8916024808301926020929190829003018186803b1580156108c457600080fd5b505afa1580156108d8573d6000803e3d6000fd5b505050506040513d60208110156108ee57600080fd5b505160055460408051631cf7955d60e01b81526004810184905290519293506000926001600160a01b0390921691631cf7955d91602480820192602092909190829003018186803b15801561094257600080fd5b505afa158015610956573d6000803e3d6000fd5b505050506040513d602081101561096c57600080fd5b505160055460408051633eb53ba560e21b81526004810186905281519394506000938493849384936001600160a01b039092169263fad4ee94926024808201939291829003018186803b1580156109c257600080fd5b505afa1580156109d6573d6000803e3d6000fd5b505050506040513d60408110156109ec57600080fd5b508051602090910151909250905060ff851660011415610c1a576000610a128383615973565b600480546040805163d135836560e01b81526001600160a01b038f811694820194909452905193945091169163d135836591602480820192602092909190829003018186803b158015610a6457600080fd5b505afa158015610a78573d6000803e3d6000fd5b505050506040513d6020811015610a8e57600080fd5b50516004549095506001600160a01b03166318b868458b610aaf88856159d4565b6040518363ffffffff1660e01b815260040180836001600160a01b0316815260200182815260200192505050600060405180830381600087803b158015610af557600080fd5b505af1158015610b09573d6000803e3d6000fd5b50505050600460009054906101000a90046001600160a01b03166001600160a01b031663d13583658a6040518263ffffffff1660e01b815260040180826001600160a01b0316815260200191505060206040518083038186803b158015610b6f57600080fd5b505afa158015610b83573d6000803e3d6000fd5b505050506040513d6020811015610b9957600080fd5b50516004549095506001600160a01b03166318b868458a610bba8885615973565b6040518363ffffffff1660e01b815260040180836001600160a01b0316815260200182815260200192505050600060405180830381600087803b158015610c0057600080fd5b505af1158015610c14573d6000803e3d6000fd5b50505050505b60ff8516600214156110dc57600460009054906101000a90046001600160a01b03166001600160a01b031663d13583658a6040518263ffffffff1660e01b815260040180826001600160a01b0316815260200191505060206040518083038186803b158015610c8857600080fd5b505afa158015610c9c573d6000803e3d6000fd5b505050506040513d6020811015610cb257600080fd5b50516004549094506001600160a01b03166318b868458a610cd387866159d4565b6040518363ffffffff1660e01b815260040180836001600160a01b0316815260200182815260200192505050600060405180830381600087803b158015610d1957600080fd5b505af1158015610d2d573d6000803e3d6000fd5b50505050600460009054906101000a90046001600160a01b03166001600160a01b031663d1358365896040518263ffffffff1660e01b815260040180826001600160a01b0316815260200191505060206040518083038186803b158015610d9357600080fd5b505afa158015610da7573d6000803e3d6000fd5b505050506040513d6020811015610dbd57600080fd5b50516004549094506001600160a01b03166318b8684589610dde8786615973565b6040518363ffffffff1660e01b815260040180836001600160a01b0316815260200182815260200192505050600060405180830381600087803b158015610e2457600080fd5b505af1158015610e38573d6000803e3d6000fd5b505060055460408051639a751bbd60e01b8152600481018b905290516001600160a01b039092169350639a751bbd9250602480820192602092909190829003018186803b158015610e8857600080fd5b505afa158015610e9c573d6000803e3d6000fd5b505050506040513d6020811015610eb257600080fd5b5051600480546040805163154a838b60e11b81526001600160a01b03808616948201949094528d841660248201529051939650911691632a95071691604480820192602092909190829003018186803b158015610f0e57600080fd5b505afa158015610f22573d6000803e3d6000fd5b505050506040513d6020811015610f3857600080fd5b50516004549094506001600160a01b03166392aa02ea848b610f5a88866159d4565b6040518463ffffffff1660e01b815260040180846001600160a01b03168152602001836001600160a01b031681526020018281526020019350505050600060405180830381600087803b158015610fb057600080fd5b505af1158015610fc4573d6000803e3d6000fd5b5050600480546040805163154a838b60e11b81526001600160a01b03898116948201949094528d841660248201529051929091169350632a9507169250604480820192602092909190829003018186803b15801561102157600080fd5b505afa158015611035573d6000803e3d6000fd5b505050506040513d602081101561104b57600080fd5b50516004549094506001600160a01b03166392aa02ea848a61106d8886615973565b6040518463ffffffff1660e01b815260040180846001600160a01b03168152602001836001600160a01b031681526020018281526020019350505050600060405180830381600087803b1580156110c357600080fd5b505af11580156110d7573d6000803e3d6000fd5b505050505b60ff85166003141561159e576005546040805163e875a61360e01b81526004810189905290516001600160a01b039092169163e875a61391602480820192602092909190829003018186803b15801561113457600080fd5b505afa158015611148573d6000803e3d6000fd5b505050506040513d602081101561115e57600080fd5b5051600480546040805163154a838b60e11b81526001600160a01b03808616948201949094528d841660248201529051939650911691632a95071691604480820192602092909190829003018186803b1580156111ba57600080fd5b505afa1580156111ce573d6000803e3d6000fd5b505050506040513d60208110156111e457600080fd5b50516004549094506001600160a01b03166392aa02ea848b61120688876159d4565b6040518463ffffffff1660e01b815260040180846001600160a01b03168152602001836001600160a01b031681526020018281526020019350505050600060405180830381600087803b15801561125c57600080fd5b505af1158015611270573d6000803e3d6000fd5b5050600480546040805163154a838b60e11b81526001600160a01b03898116948201949094528d841660248201529051929091169350632a9507169250604480820192602092909190829003018186803b1580156112cd57600080fd5b505afa1580156112e1573d6000803e3d6000fd5b505050506040513d60208110156112f757600080fd5b50516004549094506001600160a01b03166392aa02ea848a6113198887615973565b6040518463ffffffff1660e01b815260040180846001600160a01b03168152602001836001600160a01b031681526020018281526020019350505050600060405180830381600087803b15801561136f57600080fd5b505af1158015611383573d6000803e3d6000fd5b50505050600460009054906101000a90046001600160a01b03166001600160a01b031663d13583658a6040518263ffffffff1660e01b815260040180826001600160a01b0316815260200191505060206040518083038186803b1580156113e957600080fd5b505afa1580156113fd573d6000803e3d6000fd5b505050506040513d602081101561141357600080fd5b50516004549094506001600160a01b03166318b868458a61143487856159d4565b6040518363ffffffff1660e01b815260040180836001600160a01b0316815260200182815260200192505050600060405180830381600087803b15801561147a57600080fd5b505af115801561148e573d6000803e3d6000fd5b50505050600460009054906101000a90046001600160a01b03166001600160a01b031663d1358365896040518263ffffffff1660e01b815260040180826001600160a01b0316815260200191505060206040518083038186803b1580156114f457600080fd5b505afa158015611508573d6000803e3d6000fd5b505050506040513d602081101561151e57600080fd5b50516004549094506001600160a01b03166318b868458961153f8785615973565b6040518363ffffffff1660e01b815260040180836001600160a01b0316815260200182815260200192505050600060405180830381600087803b15801561158557600080fd5b505af1158015611599573d6000803e3d6000fd5b505050505b60ff851660041415611ae9576005546040805163e875a61360e01b81526004810189905290516001600160a01b039092169163e875a61391602480820192602092909190829003018186803b1580156115f657600080fd5b505afa15801561160a573d6000803e3d6000fd5b505050506040513d602081101561162057600080fd5b5051600480546040805163154a838b60e11b81526001600160a01b03808616948201949094528d841660248201529051939650911691632a95071691604480820192602092909190829003018186803b15801561167c57600080fd5b505afa158015611690573d6000803e3d6000fd5b505050506040513d60208110156116a657600080fd5b50516004549094506001600160a01b03166392aa02ea848b6116c888876159d4565b6040518463ffffffff1660e01b815260040180846001600160a01b03168152602001836001600160a01b031681526020018281526020019350505050600060405180830381600087803b15801561171e57600080fd5b505af1158015611732573d6000803e3d6000fd5b5050600480546040805163154a838b60e11b81526001600160a01b03898116948201949094528d841660248201529051929091169350632a9507169250604480820192602092909190829003018186803b15801561178f57600080fd5b505afa1580156117a3573d6000803e3d6000fd5b505050506040513d60208110156117b957600080fd5b50516004549094506001600160a01b03166392aa02ea848a6117db8887615973565b6040518463ffffffff1660e01b815260040180846001600160a01b03168152602001836001600160a01b031681526020018281526020019350505050600060405180830381600087803b15801561183157600080fd5b505af1158015611845573d6000803e3d6000fd5b505060055460408051639a751bbd60e01b8152600481018b905290516001600160a01b039092169350639a751bbd9250602480820192602092909190829003018186803b15801561189557600080fd5b505afa1580156118a9573d6000803e3d6000fd5b505050506040513d60208110156118bf57600080fd5b5051600480546040805163154a838b60e11b81526001600160a01b03808616948201949094528d841660248201529051939650911691632a95071691604480820192602092909190829003018186803b15801561191b57600080fd5b505afa15801561192f573d6000803e3d6000fd5b505050506040513d602081101561194557600080fd5b50516004549094506001600160a01b03166392aa02ea848b61196788866159d4565b6040518463ffffffff1660e01b815260040180846001600160a01b03168152602001836001600160a01b031681526020018281526020019350505050600060405180830381600087803b1580156119bd57600080fd5b505af11580156119d1573d6000803e3d6000fd5b5050600480546040805163154a838b60e11b81526001600160a01b03898116948201949094528d841660248201529051929091169350632a9507169250604480820192602092909190829003018186803b158015611a2e57600080fd5b505afa158015611a42573d6000803e3d6000fd5b505050506040513d6020811015611a5857600080fd5b50516004549094506001600160a01b03166392aa02ea848a611a7a8886615973565b6040518463ffffffff1660e01b815260040180846001600160a01b03168152602001836001600160a01b031681526020018281526020019350505050600060405180830381600087803b158015611ad057600080fd5b505af1158015611ae4573d6000803e3d6000fd5b505050505b5050506001600160a01b039094166000908152600360205260409020805460010190555050505050565b60026001541415611b59576040805162461bcd60e51b815260206004820152601f6024820152600080516020615ea9833981519152604482015290519081900360640190fd5b6002600155611b666124c5565b15611ba6576040805162461bcd60e51b81526020600482015260106024820152600080516020615faa833981519152604482015290519081900360640190fd5b600554604080516322af217960e11b81526004810184905233602482015290516000926001600160a01b03169163455e42f291604480830192602092919082900301818787803b158015611bf957600080fd5b505af1158015611c0d573d6000803e3d6000fd5b505050506040513d6020811015611c2357600080fd5b50516004805460408051632990c23f60e11b815292830186905260248301849052336044840152519293506001600160a01b031691635321847e9160648082019260009290919082900301818387803b158015611c7f57600080fd5b505af1158015611c93573d6000803e3d6000fd5b505033600090815260036020526040902080546001908101909155805550505050565b60026001541415611cfc576040805162461bcd60e51b815260206004820152601f6024820152600080516020615ea9833981519152604482015290519081900360640190fd5b6002600155611d096124c5565b15611d49576040805162461bcd60e51b81526020600482015260106024820152600080516020615faa833981519152604482015290519081900360640190fd5b60055460408051633eb53ba560e21b8152600481018a9052815160009384936001600160a01b039091169263fad4ee949260248083019392829003018186803b158015611d9557600080fd5b505afa158015611da9573d6000803e3d6000fd5b505050506040513d6040811015611dbf57600080fd5b508051602090910151909250905081611dd888836159d4565b14611e12576040805162461bcd60e51b8152602060048201526005602482015264494e5f465560d81b604482015290519081900360640190fd5b6005546040805163e875a61360e01b8152600481018c905290516000926001600160a01b03169163e875a613916024808301926020929190829003018186803b158015611e5e57600080fd5b505afa158015611e72573d6000803e3d6000fd5b505050506040513d6020811015611e8857600080fd5b505160055460408051639a751bbd60e01b8152600481018e905290519293506000926001600160a01b0390921691639a751bbd91602480820192602092909190829003018186803b158015611edc57600080fd5b505afa158015611ef0573d6000803e3d6000fd5b505050506040513d6020811015611f0657600080fd5b505190506001600160a01b0382811690821614611f53576040805162461bcd60e51b81526020600480830191909152602482015263494e5f4360e01b604482015290519081900360640190fd5b6040805163d505accf60e01b8152336004820152306024820152604481018b9052606481018a905260ff8916608482015260a4810188905260c4810187905290516001600160a01b0384169163d505accf9160e480830192600092919082900301818387803b158015611fc557600080fd5b505af1158015611fd9573d6000803e3d6000fd5b50505050600560009054906101000a90046001600160a01b03166001600160a01b031663590f6f688c8c3360036000336001600160a01b03166001600160a01b031681526020019081526020016000206000815480929190600101919050556040518563ffffffff1660e01b815260040180858152602001846001600160a01b03168152602001836001600160a01b03168152602001828152602001945050505050600060405180830381600087803b15801561209557600080fd5b505af11580156120a9573d6000803e3d6000fd5b505060048054604080516323b872dd60e01b815233938101939093526001600160a01b039182166024840152604483018e90525190861693506323b872dd925060648083019260209291908290030181600087803b15801561210a57600080fd5b505af115801561211e573d6000803e3d6000fd5b505050506040513d602081101561213457600080fd5b5050600480546040805163154a838b60e11b81526001600160a01b0386811694820194909452336024820152905160009390921691632a95071691604480820192602092909190829003018186803b15801561218f57600080fd5b505afa1580156121a3573d6000803e3d6000fd5b505050506040513d60208110156121b957600080fd5b50516004549091506001600160a01b03166392aa02ea84336121db858f615973565b6040518463ffffffff1660e01b815260040180846001600160a01b03168152602001836001600160a01b031681526020018281526020019350505050600060405180830381600087803b15801561223157600080fd5b505af1158015612245573d6000803e3d6000fd5b5050600180555050505050505050505050505050565b60055460408051631eb489b760e21b81526004810184905233602482015290516001600160a01b0390921691637ad226dc9160448082019260009290919082900301818387803b1580156122ae57600080fd5b505af11580156122c2573d6000803e3d6000fd5b5050505050565b600554604080516366db9a0960e01b81526004810184905233602482015290516001600160a01b03909216916366db9a099160448082019260009290919082900301818387803b1580156122ae57600080fd5b6006546001600160a01b031681565b612333615a31565b6004805460408051635702442760e11b815290516001600160a01b039092169263ae04884e928282019260209290829003018186803b15801561237557600080fd5b505afa158015612389573d6000803e3d6000fd5b505050506040513d602081101561239f57600080fd5b50516123da576040805162461bcd60e51b815260206004820152600560248201526455505f4e4160d81b604482015290519081900360640190fd5b6123e2615a8e565b600560009054906101000a90046001600160a01b03166001600160a01b0316633f4ba83a6040518163ffffffff1660e01b8152600401600060405180830381600087803b15801561243257600080fd5b505af1158015612446573d6000803e3d6000fd5b50506004805460408051631fa5d41d60e11b815290516001600160a01b039092169450633f4ba83a9350808301926000929182900301818387803b15801561248d57600080fd5b505af11580156124a1573d6000803e3d6000fd5b50505050565b6004546001600160a01b031681565b6007546001600160a01b031681565b60005460ff1690565b60026001541415612514576040805162461bcd60e51b815260206004820152601f6024820152600080516020615ea9833981519152604482015290519081900360640190fd5b60026001556125216124c5565b15612561576040805162461bcd60e51b81526020600482015260106024820152600080516020615faa833981519152604482015290519081900360640190fd5b6005546040805163d887b4e760e01b8152600481018590529051349260009283926001600160a01b039092169163d887b4e791602480820192606092909190829003018186803b1580156125b457600080fd5b505afa1580156125c8573d6000803e3d6000fd5b505050506040513d60608110156125de57600080fd5b5080516040909101519092509050826125f78383615973565b14612631576040805162461bcd60e51b8152602060048201526005602482015264494e5f465560d81b604482015290519081900360640190fd5b600554336000818152600360205260408082208054600181019091558151630b21eded60e31b8152600481018b90526001600160a01b038a81166024830152604482019590955260648101919091529051929093169263590f6f68926084808301939282900301818387803b1580156126a957600080fd5b505af11580156126bd573d6000803e3d6000fd5b5050600480546040805163d135836560e01b8152339381019390935251600094506001600160a01b03909116925063d135836591602480820192602092909190829003018186803b15801561271157600080fd5b505afa158015612725573d6000803e3d6000fd5b505050506040513d602081101561273b57600080fd5b50516004549091506001600160a01b03166318b868453361275c8488615973565b6040518363ffffffff1660e01b815260040180836001600160a01b0316815260200182815260200192505050600060405180830381600087803b1580156127a257600080fd5b505af11580156127b6573d6000803e3d6000fd5b50506004546127d192506001600160a01b0316905034615b2e565b50506001805550505050565b6127e5615c18565b6001600160a01b03166127f6612985565b6001600160a01b03161461283f576040805162461bcd60e51b81526020600482018190526024820152600080516020615f6a833981519152604482015290519081900360640190fd5b6002546040516000916001600160a01b031690600080516020615f8a833981519152908390a3600280546001600160a01b0319169055565b60055460408051631ebaf54360e31b81526004810184905233602482015290516001600160a01b039092169163f5d7aa189160448082019260009290919082900301818387803b1580156122ae57600080fd5b6128d2615a31565b6128da615c1c565b600560009054906101000a90046001600160a01b03166001600160a01b0316638456cb596040518163ffffffff1660e01b8152600401600060405180830381600087803b15801561292a57600080fd5b505af115801561293e573d6000803e3d6000fd5b50506004805460408051638456cb5960e01b815290516001600160a01b039092169450638456cb599350808301926000929182900301818387803b15801561248d57600080fd5b6002546001600160a01b031690565b600260015414156129da576040805162461bcd60e51b815260206004820152601f6024820152600080516020615ea9833981519152604482015290519081900360640190fd5b60026001556129e76124c5565b15612a27576040805162461bcd60e51b81526020600482015260106024820152600080516020615faa833981519152604482015290519081900360640190fd5b60055460408051633eb53ba560e21b8152600481018a9052815160009384936001600160a01b039091169263fad4ee949260248083019392829003018186803b158015612a7357600080fd5b505afa158015612a87573d6000803e3d6000fd5b505050506040513d6040811015612a9d57600080fd5b5080516020909101519092509050348214612ae8576040805162461bcd60e51b815260206004808301919091526024820152630494e5f560e41b604482015290519081900360640190fd5b868114612b25576040805162461bcd60e51b81526020600480830191909152602482015263125397d160e21b604482015290519081900360640190fd5b60055460408051639a751bbd60e01b8152600481018c905290516000926001600160a01b031691639a751bbd916024808301926020929190829003018186803b158015612b7157600080fd5b505afa158015612b85573d6000803e3d6000fd5b505050506040513d6020811015612b9b57600080fd5b50516040805163d505accf60e01b8152336004820152306024820152604481018b9052606481018a905260ff8916608482015260a4810188905260c4810187905290519192506001600160a01b0383169163d505accf9160e48082019260009290919082900301818387803b158015612c1357600080fd5b505af1158015612c27573d6000803e3d6000fd5b50505050600560009054906101000a90046001600160a01b03166001600160a01b031663590f6f688b8b3360036000336001600160a01b03166001600160a01b031681526020019081526020016000206000815480929190600101919050556040518563ffffffff1660e01b815260040180858152602001846001600160a01b03168152602001836001600160a01b03168152602001828152602001945050505050600060405180830381600087803b158015612ce357600080fd5b505af1158015612cf7573d6000803e3d6000fd5b505060048054604080516323b872dd60e01b815233938101939093526001600160a01b039182166024840152604483018d90525190851693506323b872dd925060648083019260209291908290030181600087803b158015612d5857600080fd5b505af1158015612d6c573d6000803e3d6000fd5b505050506040513d6020811015612d8257600080fd5b5050600480546040805163d135836560e01b81523393810193909352516000926001600160a01b039092169163d1358365916024808301926020929190829003018186803b158015612dd357600080fd5b505afa158015612de7573d6000803e3d6000fd5b505050506040513d6020811015612dfd57600080fd5b50516004549091506001600160a01b03166318b8684533612e1e8434615973565b6040518363ffffffff1660e01b815260040180836001600160a01b0316815260200182815260200192505050600060405180830381600087803b158015612e6457600080fd5b505af1158015612e78573d6000803e3d6000fd5b5050600480546040805163154a838b60e11b81526001600160a01b03888116948201949094523360248201529051929091169350632a9507169250604480820192602092909190829003018186803b158015612ed357600080fd5b505afa158015612ee7573d6000803e3d6000fd5b505050506040513d6020811015612efd57600080fd5b50516004549091506001600160a01b03166392aa02ea8333612f1f858e615973565b6040518463ffffffff1660e01b815260040180846001600160a01b03168152602001836001600160a01b031681526020018281526020019350505050600060405180830381600087803b158015612f7557600080fd5b505af1158015612f89573d6000803e3d6000fd5b5050600454612fa492506001600160a01b0316905034615b2e565b505060018055505050505050505050565b612fbd61592a565b6005546040805163e31a007960e01b8152600481018590526001600160a01b0386811660248301529151600093929092169163e31a007991604480820192602092909190829003018186803b15801561301557600080fd5b505afa158015613029573d6000803e3d6000fd5b505050506040513d602081101561303f57600080fd5b505190508181146124a1576040805162461bcd60e51b8152602060048201526006602482015265494e5f51545960d01b604482015290519081900360640190fd5b61308861592a565b60055460408051631cf7955d60e01b81526004810185905290516000926001600160a01b031691631cf7955d916024808301926020929190829003018186803b1580156130d457600080fd5b505afa1580156130e8573d6000803e3d6000fd5b505050506040513d60208110156130fe57600080fd5b505190506000808060ff84166001148061311b575060ff84166003145b156133ab5760055460408051638810632360e01b81526004810189905290516001600160a01b0390921691638810632391602480820192602092909190829003018186803b15801561316c57600080fd5b505afa158015613180573d6000803e3d6000fd5b505050506040513d602081101561319657600080fd5b505192506131a48386615c9a565b600480546040805163d135836560e01b81526001600160a01b038d811694820194909452905193955091169163d135836591602480820192602092909190829003018186803b1580156131f657600080fd5b505afa15801561320a573d6000803e3d6000fd5b505050506040513d602081101561322057600080fd5b50516004549091506001600160a01b03166318b868458961324184866159d4565b6040518363ffffffff1660e01b815260040180836001600160a01b0316815260200182815260200192505050600060405180830381600087803b15801561328757600080fd5b505af115801561329b573d6000803e3d6000fd5b50505050600460009054906101000a90046001600160a01b03166001600160a01b031663d1358365886040518263ffffffff1660e01b815260040180826001600160a01b0316815260200191505060206040518083038186803b15801561330157600080fd5b505afa158015613315573d6000803e3d6000fd5b505050506040513d602081101561332b57600080fd5b50516004549091506001600160a01b03166318b868458861334c8486615973565b6040518363ffffffff1660e01b815260040180836001600160a01b0316815260200182815260200192505050600060405180830381600087803b15801561339257600080fd5b505af11580156133a6573d6000803e3d6000fd5b505050505b60ff8416600214806133c0575060ff84166004145b156136ed5760055460408051639a751bbd60e01b81526004810189905290516000926001600160a01b031691639a751bbd916024808301926020929190829003018186803b15801561341157600080fd5b505afa158015613425573d6000803e3d6000fd5b505050506040513d602081101561343b57600080fd5b505160055460408051638810632360e01b8152600481018b905290519293506001600160a01b0390911691638810632391602480820192602092909190829003018186803b15801561348c57600080fd5b505afa1580156134a0573d6000803e3d6000fd5b505050506040513d60208110156134b657600080fd5b505193506134c48487615c9a565b600480546040805163154a838b60e11b81526001600160a01b03868116948201949094528d841660248201529051939650911691632a95071691604480820192602092909190829003018186803b15801561351e57600080fd5b505afa158015613532573d6000803e3d6000fd5b505050506040513d602081101561354857600080fd5b50516004549092506001600160a01b03166392aa02ea828b61356a86886159d4565b6040518463ffffffff1660e01b815260040180846001600160a01b03168152602001836001600160a01b031681526020018281526020019350505050600060405180830381600087803b1580156135c057600080fd5b505af11580156135d4573d6000803e3d6000fd5b5050600480546040805163154a838b60e11b81526001600160a01b03878116948201949094528d841660248201529051929091169350632a9507169250604480820192602092909190829003018186803b15801561363157600080fd5b505afa158015613645573d6000803e3d6000fd5b505050506040513d602081101561365b57600080fd5b50516004549092506001600160a01b03166392aa02ea828a61367d8688615973565b6040518463ffffffff1660e01b815260040180846001600160a01b03168152602001836001600160a01b031681526020018281526020019350505050600060405180830381600087803b1580156136d357600080fd5b505af11580156136e7573d6000803e3d6000fd5b50505050505b600554604080516388c2560760e01b8152600481018990526001600160a01b038a81166024830152915191909216916388c2560791604480830192600092919082900301818387803b15801561374257600080fd5b505af1158015613756573d6000803e3d6000fd5b5050506001600160a01b039097166000908152600360205260409020805460010190555050505050505050565b600260015414156137c9576040805162461bcd60e51b815260206004820152601f6024820152600080516020615ea9833981519152604482015290519081900360640190fd5b60026001556137d66124c5565b15613816576040805162461bcd60e51b81526020600482015260106024820152600080516020615faa833981519152604482015290519081900360640190fd5b60055460408051633eb53ba560e21b8152600481018a9052815160009384936001600160a01b039091169263fad4ee949260248083019392829003018186803b15801561386257600080fd5b505afa158015613876573d6000803e3d6000fd5b505050506040513d604081101561388c57600080fd5b50805160209091015190925090508682146138d7576040805162461bcd60e51b815260206004808301919091526024820152630494e5f560e41b604482015290519081900360640190fd5b348114613913576040805162461bcd60e51b8152602060048201526005602482015264494e5f444560d81b604482015290519081900360640190fd5b6005546040805163e875a61360e01b8152600481018c905290516000926001600160a01b03169163e875a613916024808301926020929190829003018186803b15801561395f57600080fd5b505afa158015613973573d6000803e3d6000fd5b505050506040513d602081101561398957600080fd5b50516040805163d505accf60e01b815233600482015230602482015260448101869052606481018a905260ff8916608482015260a4810188905260c4810187905290519192506001600160a01b0383169163d505accf9160e48082019260009290919082900301818387803b158015613a0157600080fd5b505af1158015613a15573d6000803e3d6000fd5b50505050600560009054906101000a90046001600160a01b03166001600160a01b031663590f6f688b8b3360036000336001600160a01b03166001600160a01b031681526020019081526020016000206000815480929190600101919050556040518563ffffffff1660e01b815260040180858152602001846001600160a01b03168152602001836001600160a01b03168152602001828152602001945050505050600060405180830381600087803b158015613ad157600080fd5b505af1158015613ae5573d6000803e3d6000fd5b505060048054604080516323b872dd60e01b815233938101939093526001600160a01b039182166024840152604483018890525190851693506323b872dd925060648083019260209291908290030181600087803b158015613b4657600080fd5b505af1158015613b5a573d6000803e3d6000fd5b505050506040513d6020811015613b7057600080fd5b5050600480546040805163d135836560e01b81523393810193909352516000926001600160a01b039092169163d1358365916024808301926020929190829003018186803b158015613bc157600080fd5b505afa158015613bd5573d6000803e3d6000fd5b505050506040513d6020811015613beb57600080fd5b50516004549091506001600160a01b03166318b8684533613c0c8434615973565b6040518363ffffffff1660e01b815260040180836001600160a01b0316815260200182815260200192505050600060405180830381600087803b158015613c5257600080fd5b505af1158015613c66573d6000803e3d6000fd5b5050600480546040805163154a838b60e11b81526001600160a01b03888116948201949094523360248201529051929091169350632a9507169250604480820192602092909190829003018186803b158015613cc157600080fd5b505afa158015613cd5573d6000803e3d6000fd5b505050506040513d6020811015613ceb57600080fd5b50516004549091506001600160a01b03166392aa02ea8333612f1f8589615973565b613d15615a31565b613d1e81615cf3565b600680546001600160a01b0319166001600160a01b0383169081179091556040805191825233602083015280517f7b81c5e3a8e5647e11ccd172baaaf534f02cb16cd563be7c3c70c9354215bdb19281900390910190a150565b60026001541415613dbe576040805162461bcd60e51b815260206004820152601f6024820152600080516020615ea9833981519152604482015290519081900360640190fd5b6002600155613dcb6124c5565b15613e0b576040805162461bcd60e51b81526020600482015260106024820152600080516020615faa833981519152604482015290519081900360640190fd5b60055460408051633eb53ba560e21b8152600481018d9052815160009384936001600160a01b039091169263fad4ee949260248083019392829003018186803b158015613e5757600080fd5b505afa158015613e6b573d6000803e3d6000fd5b505050506040513d6040811015613e8157600080fd5b508051602090910151909250905081613e9a8b836159d4565b14613ed4576040805162461bcd60e51b8152602060048201526005602482015264494e5f465560d81b604482015290519081900360640190fd5b6005546040805163e875a61360e01b8152600481018f905290516000926001600160a01b03169163e875a613916024808301926020929190829003018186803b158015613f2057600080fd5b505afa158015613f34573d6000803e3d6000fd5b505050506040513d6020811015613f4a57600080fd5b810190808051906020019092919050505090506000600560009054906101000a90046001600160a01b03166001600160a01b0316639a751bbd8f6040518263ffffffff1660e01b81526004018082815260200191505060206040518083038186803b158015613fb857600080fd5b505afa158015613fcc573d6000803e3d6000fd5b505050506040513d6020811015613fe257600080fd5b50516040805163d505accf60e01b815233600482015230602482015260448101879052606481018e905260ff8d16608482015260a481018c905260c481018b905290519192506001600160a01b0384169163d505accf9160e48082019260009290919082900301818387803b15801561405a57600080fd5b505af115801561406e573d6000803e3d6000fd5b50506040805163d505accf60e01b815233600482015230602482015260448101879052606481018f905260ff8b16608482015260a481018a905260c4810189905290516001600160a01b038516935063d505accf925060e480830192600092919082900301818387803b1580156140e457600080fd5b505af11580156140f8573d6000803e3d6000fd5b50505050600560009054906101000a90046001600160a01b03166001600160a01b031663590f6f688f8f3360036000336001600160a01b03166001600160a01b031681526020019081526020016000206000815480929190600101919050556040518563ffffffff1660e01b815260040180858152602001846001600160a01b03168152602001836001600160a01b03168152602001828152602001945050505050600060405180830381600087803b1580156141b457600080fd5b505af11580156141c8573d6000803e3d6000fd5b505060048054604080516323b872dd60e01b815233938101939093526001600160a01b039182166024840152604483018990525190861693506323b872dd925060648083019260209291908290030181600087803b15801561422957600080fd5b505af115801561423d573d6000803e3d6000fd5b505050506040513d602081101561425357600080fd5b505060048054604080516323b872dd60e01b815233938101939093526001600160a01b0391821660248401526044830186905251908316916323b872dd9160648083019260209291908290030181600087803b1580156142b257600080fd5b505af11580156142c6573d6000803e3d6000fd5b505050506040513d60208110156142dc57600080fd5b5050600480546040805163154a838b60e11b81526001600160a01b0386811694820194909452336024820152905160009390921691632a95071691604480820192602092909190829003018186803b15801561433757600080fd5b505afa15801561434b573d6000803e3d6000fd5b505050506040513d602081101561436157600080fd5b50516004549091506001600160a01b03166392aa02ea8433614383858a615973565b6040518463ffffffff1660e01b815260040180846001600160a01b03168152602001836001600160a01b031681526020018281526020019350505050600060405180830381600087803b1580156143d957600080fd5b505af11580156143ed573d6000803e3d6000fd5b5050600480546040805163154a838b60e11b81526001600160a01b03888116948201949094523360248201529051929091169350632a9507169250604480820192602092909190829003018186803b15801561444857600080fd5b505afa15801561445c573d6000803e3d6000fd5b505050506040513d602081101561447257600080fd5b50516004549091506001600160a01b03166392aa02ea83336144948589615973565b6040518463ffffffff1660e01b815260040180846001600160a01b03168152602001836001600160a01b031681526020018281526020019350505050600060405180830381600087803b1580156144ea57600080fd5b505af11580156144fe573d6000803e3d6000fd5b5050600180555050505050505050505050505050505050565b61451f6124c5565b1561455f576040805162461bcd60e51b81526020600482015260106024820152600080516020615faa833981519152604482015290519081900360640190fd5b61456888615cf3565b6145a96145a48383600581811061457b57fe5b905060200201358484600281811061458f57fe5b90506020020135615c9a90919063ffffffff16565b615d37565b6145d6886145d1848460058181106145bd57fe5b905060200201358585600381811061458f57fe5b615dee565b6145fe886145d1848460058181106145ea57fe5b905060200201358585600481811061458f57fe5b866146238383600581811061460f57fe5b905060200201358484600381811061458f57fe5b1461465d576040805162461bcd60e51b8152602060048201526005602482015264494e5f465560d81b604482015290519081900360640190fd5b6040805163d505accf60e01b8152336004820152306024820152604481018990526064810188905260ff8716608482015260a4810186905260c4810185905290516001600160a01b038a169163d505accf9160e480830192600092919082900301818387803b1580156146cf57600080fd5b505af11580156146e3573d6000803e3d6000fd5b5050600554600092506001600160a01b0316905063797f2a26338585858161470757fe5b905060200201358686600181811061471b57fe5b905060200201358787600281811061472f57fe5b905060200201358888600381811061474357fe5b905060200201358989600481811061475757fe5b905060200201358a8a600581811061476b57fe5b905060200201356040518863ffffffff1660e01b815260040180886001600160a01b03168152602001878152602001868152602001858152602001848152602001838152602001828152602001975050505050505050602060405180830381600087803b1580156147db57600080fd5b505af11580156147ef573d6000803e3d6000fd5b505050506040513d602081101561480557600080fd5b5051600554604080516319eb920160e31b815260048101849052600260248201526000604482018190526001600160a01b038e811660648401529251949550919092169263cf5c900892608480820193929182900301818387803b15801561486c57600080fd5b505af1158015614880573d6000803e3d6000fd5b505060048054604080516323b872dd60e01b815233938101939093526001600160a01b039182166024840152604483018d905251908d1693506323b872dd925060648083019260209291908290030181600087803b1580156148e157600080fd5b505af11580156148f5573d6000803e3d6000fd5b505050506040513d602081101561490b57600080fd5b5050600480546040805163154a838b60e11b81526001600160a01b038d811694820194909452336024820152905160009390921691632a95071691604480820192602092909190829003018186803b15801561496657600080fd5b505afa15801561497a573d6000803e3d6000fd5b505050506040513d602081101561499057600080fd5b50516004549091506001600160a01b03166392aa02ea8b336149b2858e615973565b6040518463ffffffff1660e01b815260040180846001600160a01b03168152602001836001600160a01b031681526020018281526020019350505050600060405180830381600087803b158015614a0857600080fd5b505af1158015614a1c573d6000803e3d6000fd5b5050505081600080516020615f298339815191523386866005818110614a3e57fe5b3360009081526003602090815260409182902080546001810190915582516001600160a01b03979097168752928102949094013593850193909352600284840152606084015250519081900360800190a250505050505050505050565b614aa36124c5565b15614ae3576040805162461bcd60e51b81526020600482015260106024820152600080516020615faa833981519152604482015290519081900360640190fd5b614aec89615cf3565b614af588615cf3565b614b1d896145d184846005818110614b0957fe5b905060200201358585600281811061458f57fe5b614b31886145d1848460058181106145bd57fe5b614b45886145d1848460058181106145ea57fe5b86614b568383600581811061460f57fe5b14614b90576040805162461bcd60e51b8152602060048201526005602482015264494e5f465560d81b604482015290519081900360640190fd5b6040805163d505accf60e01b8152336004820152306024820152604481018990526064810188905260ff8716608482015260a4810186905260c4810185905290516001600160a01b038a169163d505accf9160e480830192600092919082900301818387803b158015614c0257600080fd5b505af1158015614c16573d6000803e3d6000fd5b5050600554600092506001600160a01b0316905063797f2a263385858581614c3a57fe5b9050602002013586866001818110614c4e57fe5b9050602002013587876002818110614c6257fe5b9050602002013588886003818110614c7657fe5b9050602002013589896004818110614c8a57fe5b905060200201358a8a6005818110614c9e57fe5b905060200201356040518863ffffffff1660e01b815260040180886001600160a01b03168152602001878152602001868152602001858152602001848152602001838152602001828152602001975050505050505050602060405180830381600087803b158015614d0e57600080fd5b505af1158015614d22573d6000803e3d6000fd5b505050506040513d6020811015614d3857600080fd5b5051600554604080516319eb920160e31b8152600481810185905260248201526001600160a01b038e811660448301528d81166064830152915193945091169163cf5c90089160848082019260009290919082900301818387803b158015614d9f57600080fd5b505af1158015614db3573d6000803e3d6000fd5b505060048054604080516323b872dd60e01b815233938101939093526001600160a01b039182166024840152604483018d905251908d1693506323b872dd925060648083019260209291908290030181600087803b158015614e1457600080fd5b505af1158015614e28573d6000803e3d6000fd5b505050506040513d6020811015614e3e57600080fd5b5050600480546040805163154a838b60e11b81526001600160a01b038d811694820194909452336024820152905160009390921691632a95071691604480820192602092909190829003018186803b158015614e9957600080fd5b505afa158015614ead573d6000803e3d6000fd5b505050506040513d6020811015614ec357600080fd5b50516004549091506001600160a01b03166392aa02ea8b33614ee5858e615973565b6040518463ffffffff1660e01b815260040180846001600160a01b03168152602001836001600160a01b031681526020018281526020019350505050600060405180830381600087803b158015614f3b57600080fd5b505af1158015614f4f573d6000803e3d6000fd5b5050505081600080516020615f298339815191523386866005818110614f7157fe5b3360009081526003602090815260409182902080546001810190915582516001600160a01b03979097168752928102949094013593850193909352600484840152606084015250519081900360800190a25050505050505050505050565b6005546001600160a01b031681565b60036020526000908152604090205481565b614ff86124c5565b15615038576040805162461bcd60e51b81526020600482015260106024820152600080516020615faa833981519152604482015290519081900360640190fd5b61504183615cf3565b615055836145d184846005818110614b0957fe5b6150686145a48383600581811061460f57fe5b61508f6145a48383600581811061507b57fe5b905060200201358484600481811061458f57fe5b346150a08383600581811061460f57fe5b146150da576040805162461bcd60e51b8152602060048201526005602482015264494e5f465560d81b604482015290519081900360640190fd5b6005546000906001600160a01b031663797f2a2633858585816150f957fe5b905060200201358686600181811061510d57fe5b905060200201358787600281811061512157fe5b905060200201358888600381811061513557fe5b905060200201358989600481811061514957fe5b905060200201358a8a600581811061515d57fe5b905060200201356040518863ffffffff1660e01b815260040180886001600160a01b03168152602001878152602001868152602001858152602001848152602001838152602001828152602001975050505050505050602060405180830381600087803b1580156151cd57600080fd5b505af11580156151e1573d6000803e3d6000fd5b505050506040513d60208110156151f757600080fd5b5051600554604080516319eb920160e31b815260048101849052600360248201526001600160a01b03888116604483015260006064830181905292519495509092169263cf5c900892608480820193929182900301818387803b15801561525d57600080fd5b505af1158015615271573d6000803e3d6000fd5b5050600480546040805163d135836560e01b8152339381019390935251600094506001600160a01b03909116925063d135836591602480820192602092909190829003018186803b1580156152c557600080fd5b505afa1580156152d9573d6000803e3d6000fd5b505050506040513d60208110156152ef57600080fd5b50516004549091506001600160a01b03166318b86845336153108434615973565b6040518363ffffffff1660e01b815260040180836001600160a01b0316815260200182815260200192505050600060405180830381600087803b15801561535657600080fd5b505af115801561536a573d6000803e3d6000fd5b505060045461538592506001600160a01b0316905034615b2e565b81600080516020615f2983398151915233868660058181106153a357fe5b3360009081526003602081815260409283902080546001810190915583516001600160a01b0398909816885293810295909501359486019490945284810193909352606084015250519081900360800190a25050505050565b60055460408051633def417960e11b81526004810184905233602482015290516001600160a01b0390921691637bde82f29160448082019260009290919082900301818387803b1580156122ae57600080fd5b6154576124c5565b15615497576040805162461bcd60e51b81526020600482015260106024820152600080516020615faa833981519152604482015290519081900360640190fd5b6154aa6145a48383600581811061457b57fe5b6154bd6145a48383600581811061460f57fe5b6154d06145a48383600581811061507b57fe5b346154e18383600581811061460f57fe5b1461551b576040805162461bcd60e51b8152602060048201526005602482015264494e5f465560d81b604482015290519081900360640190fd5b6005546000906001600160a01b031663797f2a26338585858161553a57fe5b905060200201358686600181811061554e57fe5b905060200201358787600281811061556257fe5b905060200201358888600381811061557657fe5b905060200201358989600481811061558a57fe5b905060200201358a8a600581811061559e57fe5b905060200201356040518863ffffffff1660e01b815260040180886001600160a01b03168152602001878152602001868152602001858152602001848152602001838152602001828152602001975050505050505050602060405180830381600087803b15801561560e57600080fd5b505af1158015615622573d6000803e3d6000fd5b505050506040513d602081101561563857600080fd5b5051600554604080516319eb920160e31b815260048101849052600160248201526000604482018190526064820181905291519394506001600160a01b039092169263cf5c900892608480820193929182900301818387803b15801561569d57600080fd5b505af11580156156b1573d6000803e3d6000fd5b5050600480546040805163d135836560e01b8152339381019390935251600094506001600160a01b03909116925063d135836591602480820192602092909190829003018186803b15801561570557600080fd5b505afa158015615719573d6000803e3d6000fd5b505050506040513d602081101561572f57600080fd5b50516004549091506001600160a01b03166318b86845336157508434615973565b6040518363ffffffff1660e01b815260040180836001600160a01b0316815260200182815260200192505050600060405180830381600087803b15801561579657600080fd5b505af11580156157aa573d6000803e3d6000fd5b50506004546157c592506001600160a01b0316905034615b2e565b81600080516020615f2983398151915233868660058181106157e357fe5b336000908152600360209081526040918290208054600181810190925583516001600160a01b0398909816885293820295909501359086015284810193909352606084015250519081900360800190a250505050565b615841615c18565b6001600160a01b0316615852612985565b6001600160a01b03161461589b576040805162461bcd60e51b81526020600482018190526024820152600080516020615f6a833981519152604482015290519081900360640190fd5b6001600160a01b0381166158e05760405162461bcd60e51b8152600401808060200182810382526026815260200180615ec96026913960400191505060405180910390fd5b6002546040516001600160a01b03808416921690600080516020615f8a83398151915290600090a3600280546001600160a01b0319166001600160a01b0392909216919091179055565b6006546001600160a01b03163314615971576040805162461bcd60e51b8152602060048201526005602482015264554e5f544b60d81b604482015290519081900360640190fd5b565b6000828201838110156159cb576040805162461bcd60e51b815260206004820152601b60248201527a536166654d6174683a206164646974696f6e206f766572666c6f7760281b604482015290519081900360640190fd5b90505b92915050565b600082821115615a2b576040805162461bcd60e51b815260206004820152601e60248201527f536166654d6174683a207375627472616374696f6e206f766572666c6f770000604482015290519081900360640190fd5b50900390565b615a39615c18565b6001600160a01b0316615a4a612985565b6001600160a01b031614615971576040805162461bcd60e51b815260206004808301919091526024820152634e4f544f60e01b604482015290519081900360640190fd5b615a966124c5565b615ade576040805162461bcd60e51b815260206004820152601460248201527314185d5cd8589b194e881b9bdd081c185d5cd95960621b604482015290519081900360640190fd5b6000805460ff191690557f5db9ee0a495bf2e6ff9c91a7834c1ba4fdd244a5e8aa4e537bd38aeae4b073aa615b11615c18565b604080516001600160a01b039092168252519081900360200190a1565b80471015615b83576040805162461bcd60e51b815260206004820152601d60248201527f416464726573733a20696e73756666696369656e742062616c616e6365000000604482015290519081900360640190fd5b6040516000906001600160a01b0384169083908381818185875af1925050503d8060008114615bce576040519150601f19603f3d011682016040523d82523d6000602084013e615bd3565b606091505b5050905080615c135760405162461bcd60e51b815260040180806020018281038252603a815260200180615eef603a913960400191505060405180910390fd5b505050565b3390565b615c246124c5565b15615c64576040805162461bcd60e51b81526020600482015260106024820152600080516020615faa833981519152604482015290519081900360640190fd5b6000805460ff191660011790557f62e78cea01bee320cd4e420270b5ea74000d11b0c9f74754ebdbfc544b05a258615b11615c18565b600082615ca9575060006159ce565b82820282848281615cb657fe5b04146159cb5760405162461bcd60e51b8152600401808060200182810382526021815260200180615f496021913960400191505060405180910390fd5b6001600160a01b038116615d34576040805162461bcd60e51b8152602060048201526003602482015262305f4160e81b604482015290519081900360640190fd5b50565b600760009054906101000a90046001600160a01b03166001600160a01b0316630f878aed6040518163ffffffff1660e01b815260040160206040518083038186803b158015615d8557600080fd5b505afa158015615d99573d6000803e3d6000fd5b505050506040513d6020811015615daf57600080fd5b5051811115615d34576040805162461bcd60e51b81526020600480830191909152602482015263105097d360e21b604482015290519081900360640190fd5b60075460408051635a860c8760e01b81526001600160a01b03858116600483015291519190921691635a860c87916024808301926020929190829003018186803b158015615e3b57600080fd5b505afa158015615e4f573d6000803e3d6000fd5b505050506040513d6020811015615e6557600080fd5b5051811115615ea4576040805162461bcd60e51b81526020600480830191909152602482015263105097d360e21b604482015290519081900360640190fd5b505056fe5265656e7472616e637947756172643a207265656e7472616e742063616c6c004f776e61626c653a206e6577206f776e657220697320746865207a65726f2061646472657373416464726573733a20756e61626c6520746f2073656e642076616c75652c20726563697069656e74206d61792068617665207265766572746564306fc6597e2ee1311ae9c98a7cb35eefa1fb5eccecc259e85185cb2aaf157146536166654d6174683a206d756c7469706c69636174696f6e206f766572666c6f774f776e61626c653a2063616c6c6572206973206e6f7420746865206f776e65728be0079c531659141344cd1fd0a4f28419497f9722a3daafe3b4186f6b6457e05061757361626c653a2070617573656400000000000000000000000000000000a26469706673582212204f4192ffc21df12bb70abccdeeecc8dd2cf0a474b2038ea3a13636ef9fedb2db64736f6c63430007010033",
  "source": "// SPDX-License-Identifier: LGPL-3.0-or-later\npragma solidity 0.7.1;\n\nimport \"@openzeppelin/contracts/utils/ReentrancyGuard.sol\";\nimport \"@openzeppelin/contracts/math/SafeMath.sol\";\nimport \"@openzeppelin/contracts/access/Ownable.sol\";\nimport \"@openzeppelin/contracts/utils/Pausable.sol\";\nimport \"@openzeppelin/contracts/utils/Address.sol\";\nimport \"./interfaces/IVoucherKernel.sol\";\nimport \"./interfaces/IERC20WithPermit.sol\";\nimport \"./interfaces/IFundLimitsOracle.sol\";\nimport \"./interfaces/IBosonRouter.sol\";\nimport \"./interfaces/ICashier.sol\";\nimport \"./ERC1155ERC721.sol\";\nimport \"./UsingHelpers.sol\";\n\n/**\n * @title Contract for interacting with Boson Protocol from the user's perspective.\n */\ncontract BosonRouter is\n    IBosonRouter,\n    UsingHelpers,\n    Pausable,\n    ReentrancyGuard,\n    Ownable\n{\n    using Address for address payable;\n    using SafeMath for uint256;\n\n    mapping(address => uint256) public correlationIds; // whenever a seller or a buyer interacts with the smart contract, a personal txID is emitted from an event.\n\n    using SafeMath for uint256;\n\n    address public cashierAddress;\n    address public voucherKernel;\n    address public tokensContractAddress;\n    address public fundLimitsOracle;\n\n    event LogOrderCreated(\n        uint256 indexed _tokenIdSupply,\n        address _seller,\n        uint256 _quantity,\n        uint8 _paymentType,\n        uint256 _correlationId\n    );\n\n    event LogTokenContractSet(address _newTokenContract, address _triggeredBy);\n\n    /**\n     * @notice Acts as a modifier, but it's cheaper. Checking if a non-zero address is provided, otherwise reverts.\n     */\n    function notZeroAddress(address tokenAddress) private pure {\n        require(tokenAddress != address(0), \"0_A\"); //zero address\n    }\n\n    /**\n     * @notice Acts as a modifier, but it's cheaper. The only caller must be tokensContractAddress, otherwise reverts.\n     */\n    function onlyTokensContract() private view {\n        require(msg.sender == tokensContractAddress, \"UN_TK\"); // Unauthorized token address\n    }\n\n    /**\n     * @notice Acts as a modifier, but it's cheaper. Replacement of onlyOwner modifier. If the caller is not the owner of the contract, reverts.\n     */\n    function onlyRouterOwner() internal view {\n        require(owner() == _msgSender(), \"NOTO\"); //not owner\n    }\n\n    /**\n     * @notice Acts as a modifier, but it's cheaper. Checks whether provided value corresponds to the limits in the FundLimitsOracle.\n     * @param value the specified value is per voucher set level. E.g. deposit * qty should not be greater or equal to the limit in the FundLimitsOracle (ETH).\n     */\n    function notAboveETHLimit(uint256 value) internal view {\n        require(\n            value <= IFundLimitsOracle(fundLimitsOracle).getETHLimit(),\n            \"AB_L\" // above limit\n        );\n    }\n\n    /**\n     * @notice Acts as a modifier, but it's cheaper. Checks whether provided value corresponds to the limits in the FundLimitsOracle.\n     * @param _tokenAddress the token address which, we are getting the limits for.\n     * @param value the specified value is per voucher set level. E.g. deposit * qty should not be greater or equal to the limit in the FundLimitsOracle (ETH).\n     */\n    function notAboveTokenLimit(address _tokenAddress, uint256 value)\n        internal\n        view\n    {\n        require(\n            value <=\n                IFundLimitsOracle(fundLimitsOracle).getTokenLimit(\n                    _tokenAddress\n                ),\n            \"AB_L\" //above limit\n        );\n    }\n\n    constructor(\n        address _voucherKernel,\n        address _tokensContractAddress,\n        address _fundLimitsOracle,\n        address _cashierAddress\n    ) {\n        voucherKernel = _voucherKernel;\n        tokensContractAddress = _tokensContractAddress;\n        fundLimitsOracle = _fundLimitsOracle;\n        cashierAddress = _cashierAddress;\n    }\n\n    /**\n     * @notice Pause the Cashier && the Voucher Kernel contracts in case of emergency.\n     * All functions related to creating new batch, requestVoucher or withdraw will be paused, hence cannot be executed.\n     * There is special function for withdrawing funds if contract is paused.\n     */\n    function pause() external override {\n        onlyRouterOwner();\n        _pause();\n        IVoucherKernel(voucherKernel).pause();\n        ICashier(cashierAddress).pause();\n    }\n\n    /**\n     * @notice Unpause the Cashier && the Voucher Kernel contracts.\n     * All functions related to creating new batch, requestVoucher or withdraw will be unpaused.\n     */\n    function unpause() external override {\n        onlyRouterOwner();\n        require(ICashier(cashierAddress).canUnpause(), \"UP_NA\"); //unpaused not allowed\n\n        _unpause();\n        IVoucherKernel(voucherKernel).unpause();\n        ICashier(cashierAddress).unpause();\n    }\n\n    /**\n     * @notice Issuer/Seller offers promises as supply tokens and needs to escrow the deposit\n        @param metadata metadata which is required for creation of a voucher\n        Metadata array is used as in some scenarios we need several more params, as we need to recover \n        owner address in order to permit the contract to transfer funds on his behalf. \n        Since the params get too many, we end up in situation that the stack is too deep.\n        \n        uint256 _validFrom = metadata[0];\n        uint256 _validTo = metadata[1];\n        uint256 _price = metadata[2];\n        uint256 _depositSe = metadata[3];\n        uint256 _depositBu = metadata[4];\n        uint256 _quantity = metadata[5];\n     */\n    function requestCreateOrderETHETH(uint256[] calldata metadata)\n        external\n        payable\n        override\n        whenNotPaused\n    {\n        notAboveETHLimit(metadata[2].mul(metadata[5]));\n        notAboveETHLimit(metadata[3].mul(metadata[5]));\n        notAboveETHLimit(metadata[4].mul(metadata[5]));\n        require(metadata[3].mul(metadata[5]) == msg.value, \"IN_FU\"); //invalid funds\n        //hex\"54\" FISSION.code(FISSION.Category.Finance, FISSION.Status.InsufficientFunds)\n\n        uint256 tokenIdSupply =\n            IVoucherKernel(voucherKernel).createTokenSupplyID(\n                msg.sender,\n                metadata[0],\n                metadata[1],\n                metadata[2],\n                metadata[3],\n                metadata[4],\n                metadata[5]\n            );\n\n        IVoucherKernel(voucherKernel).createPaymentMethod(\n            tokenIdSupply,\n            ETHETH,\n            address(0),\n            address(0)\n        );\n\n        //record funds in escrow ...\n        uint256 amount = ICashier(cashierAddress).getEscrowAmount(msg.sender);\n        ICashier(cashierAddress).updateEscrowAmount(\n            msg.sender,\n            amount.add(msg.value)\n        );\n\n        payable(cashierAddress).sendValue(msg.value);\n\n        emit LogOrderCreated(\n            tokenIdSupply,\n            msg.sender,\n            metadata[5],\n            ETHETH,\n            correlationIds[msg.sender]++\n        );\n    }\n\n    function requestCreateOrderTKNTKNWithPermit(\n        address _tokenPriceAddress,\n        address _tokenDepositAddress,\n        uint256 _tokensSent,\n        uint256 deadline,\n        uint8 v,\n        bytes32 r,\n        bytes32 s,\n        uint256[] calldata metadata\n    ) external override whenNotPaused {\n        notZeroAddress(_tokenPriceAddress);\n        notZeroAddress(_tokenDepositAddress);\n        notAboveTokenLimit(_tokenPriceAddress, metadata[2].mul(metadata[5]));\n        notAboveTokenLimit(_tokenDepositAddress, metadata[3].mul(metadata[5]));\n        notAboveTokenLimit(_tokenDepositAddress, metadata[4].mul(metadata[5]));\n\n        require(metadata[3].mul(metadata[5]) == _tokensSent, \"IN_FU\"); //invalid funds\n        //hex\"54\" FISSION.code(FISSION.Category.Finance, FISSION.Status.InsufficientFunds)\n\n        IERC20WithPermit(_tokenDepositAddress).permit(\n            msg.sender,\n            address(this),\n            _tokensSent,\n            deadline,\n            v,\n            r,\n            s\n        );\n\n        uint256 tokenIdSupply =\n            IVoucherKernel(voucherKernel).createTokenSupplyID(\n                msg.sender,\n                metadata[0],\n                metadata[1],\n                metadata[2],\n                metadata[3],\n                metadata[4],\n                metadata[5]\n            );\n\n        IVoucherKernel(voucherKernel).createPaymentMethod(\n            tokenIdSupply,\n            TKNTKN,\n            _tokenPriceAddress,\n            _tokenDepositAddress\n        );\n\n        IERC20WithPermit(_tokenDepositAddress).transferFrom(\n            msg.sender,\n            address(cashierAddress),\n            _tokensSent\n        );\n\n        //record funds in escrowTokens ...\n        uint256 amount =\n            ICashier(cashierAddress).getEscrowTokensAmount(\n                _tokenDepositAddress,\n                msg.sender\n            );\n        ICashier(cashierAddress).updateEscrowTokensAmount(\n            _tokenDepositAddress,\n            msg.sender,\n            amount.add(_tokensSent)\n        );\n\n        emit LogOrderCreated(\n            tokenIdSupply,\n            msg.sender,\n            metadata[5],\n            TKNTKN,\n            correlationIds[msg.sender]++\n        );\n    }\n\n    function requestCreateOrderETHTKNWithPermit(\n        address _tokenDepositAddress,\n        uint256 _tokensSent,\n        uint256 deadline,\n        uint8 v,\n        bytes32 r,\n        bytes32 s,\n        uint256[] calldata metadata\n    ) external override whenNotPaused {\n        notZeroAddress(_tokenDepositAddress);\n        notAboveETHLimit(metadata[2].mul(metadata[5]));\n        notAboveTokenLimit(_tokenDepositAddress, metadata[3].mul(metadata[5]));\n        notAboveTokenLimit(_tokenDepositAddress, metadata[4].mul(metadata[5]));\n\n        require(metadata[3].mul(metadata[5]) == _tokensSent, \"IN_FU\"); //invalid funds\n        //hex\"54\" FISSION.code(FISSION.Category.Finance, FISSION.Status.InsufficientFunds)\n\n        IERC20WithPermit(_tokenDepositAddress).permit(\n            msg.sender,\n            address(this),\n            _tokensSent,\n            deadline,\n            v,\n            r,\n            s\n        );\n\n        uint256 tokenIdSupply =\n            IVoucherKernel(voucherKernel).createTokenSupplyID(\n                msg.sender,\n                metadata[0],\n                metadata[1],\n                metadata[2],\n                metadata[3],\n                metadata[4],\n                metadata[5]\n            );\n\n        IVoucherKernel(voucherKernel).createPaymentMethod(\n            tokenIdSupply,\n            ETHTKN,\n            address(0),\n            _tokenDepositAddress\n        );\n\n        IERC20WithPermit(_tokenDepositAddress).transferFrom(\n            msg.sender,\n            address(cashierAddress),\n            _tokensSent\n        );\n\n        //record funds in escrowTokens ...\n        uint256 amount =\n            ICashier(cashierAddress).getEscrowTokensAmount(\n                _tokenDepositAddress,\n                msg.sender\n            );\n        ICashier(cashierAddress).updateEscrowTokensAmount(\n            _tokenDepositAddress,\n            msg.sender,\n            amount.add(_tokensSent)\n        );\n\n        emit LogOrderCreated(\n            tokenIdSupply,\n            msg.sender,\n            metadata[5],\n            ETHTKN,\n            correlationIds[msg.sender]++\n        );\n    }\n\n    function requestCreateOrderTKNETH(\n        address _tokenPriceAddress,\n        uint256[] calldata metadata\n    ) external payable override whenNotPaused {\n        notZeroAddress(_tokenPriceAddress);\n        notAboveTokenLimit(_tokenPriceAddress, metadata[2].mul(metadata[5]));\n        notAboveETHLimit(metadata[3].mul(metadata[5]));\n        notAboveETHLimit(metadata[4].mul(metadata[5]));\n\n        require(metadata[3].mul(metadata[5]) == msg.value, \"IN_FU\"); //invalid funds\n        //hex\"54\" FISSION.code(FISSION.Category.Finance, FISSION.Status.InsufficientFunds)\n\n        uint256 tokenIdSupply =\n            IVoucherKernel(voucherKernel).createTokenSupplyID(\n                msg.sender,\n                metadata[0],\n                metadata[1],\n                metadata[2],\n                metadata[3],\n                metadata[4],\n                metadata[5]\n            );\n        IVoucherKernel(voucherKernel).createPaymentMethod(\n            tokenIdSupply,\n            TKNETH,\n            _tokenPriceAddress,\n            address(0)\n        );\n\n        uint256 amount = ICashier(cashierAddress).getEscrowAmount(msg.sender);\n        ICashier(cashierAddress).updateEscrowAmount(\n            msg.sender,\n            amount.add(msg.value)\n        );\n\n        payable(cashierAddress).sendValue(msg.value);\n\n        emit LogOrderCreated(\n            tokenIdSupply,\n            msg.sender,\n            metadata[5],\n            TKNETH,\n            correlationIds[msg.sender]++\n        );\n    }\n\n    /**\n     * @notice Consumer requests/buys a voucher by filling an order and receiving a Voucher Token in return\n     * @param _tokenIdSupply    ID of the supply token\n     * @param _issuer           Address of the issuer of the supply token\n     */\n    function requestVoucherETHETH(uint256 _tokenIdSupply, address _issuer)\n        external\n        payable\n        override\n        nonReentrant\n        whenNotPaused\n    {\n        uint256 weiReceived = msg.value;\n\n        //checks\n        (uint256 price, , uint256 depositBu) =\n            IVoucherKernel(voucherKernel).getOrderCosts(_tokenIdSupply);\n        require(price.add(depositBu) == weiReceived, \"IN_FU\"); //invalid funds\n        //hex\"54\" FISSION.code(FISSION.Category.Finance, FISSION.Status.InsufficientFunds)\n\n        IVoucherKernel(voucherKernel).fillOrder(\n            _tokenIdSupply,\n            _issuer,\n            msg.sender,\n            correlationIds[msg.sender]++\n        );\n\n        //record funds in escrow ...\n        uint256 amount = ICashier(cashierAddress).getEscrowAmount(msg.sender);\n        ICashier(cashierAddress).updateEscrowAmount(\n            msg.sender,\n            amount.add(weiReceived)\n        );\n\n        payable(cashierAddress).sendValue(msg.value);\n    }\n\n    function requestVoucherTKNTKNWithPermit(\n        uint256 _tokenIdSupply,\n        address _issuer,\n        uint256 _tokensSent,\n        uint256 deadline,\n        uint8 vPrice,\n        bytes32 rPrice,\n        bytes32 sPrice, // tokenPrice\n        uint8 vDeposit,\n        bytes32 rDeposit,\n        bytes32 sDeposit // tokenDeposits\n    ) external override nonReentrant whenNotPaused {\n\n        (uint256 price, uint256 depositBu) =\n            IVoucherKernel(voucherKernel).getBuyerOrderCosts(_tokenIdSupply);\n        require(_tokensSent.sub(depositBu) == price, \"IN_FU\"); //invalid funds\n\n        address tokenPriceAddress =\n            IVoucherKernel(voucherKernel).getVoucherPriceToken(_tokenIdSupply);\n        address tokenDepositAddress =\n            IVoucherKernel(voucherKernel).getVoucherDepositToken(\n                _tokenIdSupply\n            );\n\n        IERC20WithPermit(tokenPriceAddress).permit(\n            msg.sender,\n            address(this),\n            price,\n            deadline,\n            vPrice,\n            rPrice,\n            sPrice\n        );\n        IERC20WithPermit(tokenDepositAddress).permit(\n            msg.sender,\n            address(this),\n            depositBu,\n            deadline,\n            vDeposit,\n            rDeposit,\n            sDeposit\n        );\n\n        IVoucherKernel(voucherKernel).fillOrder(\n            _tokenIdSupply,\n            _issuer,\n            msg.sender,\n            correlationIds[msg.sender]++\n        );\n\n        IERC20WithPermit(tokenPriceAddress).transferFrom(\n            msg.sender,\n            address(cashierAddress),\n            price\n        );\n        IERC20WithPermit(tokenDepositAddress).transferFrom(\n            msg.sender,\n            address(cashierAddress),\n            depositBu\n        );\n\n        //record funds in escrowTokens for the Price token...\n        uint256 amount =\n            ICashier(cashierAddress).getEscrowTokensAmount(\n                tokenPriceAddress,\n                msg.sender\n            );\n        ICashier(cashierAddress).updateEscrowTokensAmount(\n            tokenPriceAddress,\n            msg.sender,\n            amount.add(price)\n        );\n\n        //record funds in escrowTokens for the Deposit token...\n        amount = ICashier(cashierAddress).getEscrowTokensAmount(\n            tokenDepositAddress,\n            msg.sender\n        );\n        ICashier(cashierAddress).updateEscrowTokensAmount(\n            tokenDepositAddress,\n            msg.sender,\n            amount.add(depositBu)\n        );\n    }\n\n    function requestVoucherTKNTKNSameWithPermit(\n        uint256 _tokenIdSupply,\n        address _issuer,\n        uint256 _tokensSent,\n        uint256 deadline,\n        uint8 v,\n        bytes32 r,\n        bytes32 s\n    ) external override nonReentrant whenNotPaused {\n\n        (uint256 price, uint256 depositBu) =\n            IVoucherKernel(voucherKernel).getBuyerOrderCosts(_tokenIdSupply);\n        require(_tokensSent.sub(depositBu) == price, \"IN_FU\"); //invalid funds\n\n        address tokenPriceAddress =\n            IVoucherKernel(voucherKernel).getVoucherPriceToken(_tokenIdSupply);\n        address tokenDepositAddress =\n            IVoucherKernel(voucherKernel).getVoucherDepositToken(\n                _tokenIdSupply\n            );\n\n        require(tokenPriceAddress == tokenDepositAddress, \"IN_C\"); //invalid caller\n\n        // If tokenPriceAddress && tokenPriceAddress are the same\n        // practically it's not of importance to each we are sending the funds\n        IERC20WithPermit(tokenPriceAddress).permit(\n            msg.sender,\n            address(this),\n            _tokensSent,\n            deadline,\n            v,\n            r,\n            s\n        );\n\n        IVoucherKernel(voucherKernel).fillOrder(\n            _tokenIdSupply,\n            _issuer,\n            msg.sender,\n            correlationIds[msg.sender]++\n        );\n\n        IERC20WithPermit(tokenPriceAddress).transferFrom(\n            msg.sender,\n            address(cashierAddress),\n            _tokensSent\n        );\n\n        //record funds in escrowTokens ...\n        uint256 amount =\n            ICashier(cashierAddress).getEscrowTokensAmount(\n                tokenPriceAddress,\n                msg.sender\n            );\n        ICashier(cashierAddress).updateEscrowTokensAmount(\n            tokenPriceAddress,\n            msg.sender,\n            amount.add(_tokensSent)\n        );\n    }\n\n    function requestVoucherETHTKNWithPermit(\n        uint256 _tokenIdSupply,\n        address _issuer,\n        uint256 _tokensDeposit,\n        uint256 deadline,\n        uint8 v,\n        bytes32 r,\n        bytes32 s\n    ) external payable override nonReentrant whenNotPaused {\n\n        (uint256 price, uint256 depositBu) =\n            IVoucherKernel(voucherKernel).getBuyerOrderCosts(_tokenIdSupply);\n        require(price == msg.value, \"IN_P\"); //invalid price\n        //hex\"54\" FISSION.code(FISSION.Category.Finance, FISSION.Status.InsufficientFunds)\n        require(depositBu == _tokensDeposit, \"IN_D\"); // invalid deposit\n        //hex\"54\" FISSION.code(FISSION.Category.Finance, FISSION.Status.InsufficientFunds)\n\n        address tokenDepositAddress =\n            IVoucherKernel(voucherKernel).getVoucherDepositToken(\n                _tokenIdSupply\n            );\n        IERC20WithPermit(tokenDepositAddress).permit(\n            msg.sender,\n            address(this),\n            _tokensDeposit,\n            deadline,\n            v,\n            r,\n            s\n        );\n\n        IVoucherKernel(voucherKernel).fillOrder(\n            _tokenIdSupply,\n            _issuer,\n            msg.sender,\n            correlationIds[msg.sender]++\n        );\n\n        IERC20WithPermit(tokenDepositAddress).transferFrom(\n            msg.sender,\n            address(cashierAddress),\n            _tokensDeposit\n        );\n\n        //record funds in escrow ...\n        uint256 amount = ICashier(cashierAddress).getEscrowAmount(msg.sender);\n        ICashier(cashierAddress).updateEscrowAmount(\n            msg.sender,\n            amount.add(msg.value)\n        );\n\n        //record funds in escrowTokens ...\n        amount = ICashier(cashierAddress).getEscrowTokensAmount(\n            tokenDepositAddress,\n            msg.sender\n        );\n        ICashier(cashierAddress).updateEscrowTokensAmount(\n            tokenDepositAddress,\n            msg.sender,\n            amount.add(_tokensDeposit)\n        );\n\n        payable(cashierAddress).sendValue(msg.value);\n    }\n\n    function requestVoucherTKNETHWithPermit(\n        uint256 _tokenIdSupply,\n        address _issuer,\n        uint256 _tokensPrice,\n        uint256 deadline,\n        uint8 v,\n        bytes32 r,\n        bytes32 s\n    ) external payable override nonReentrant whenNotPaused {\n\n        (uint256 price, uint256 depositBu) =\n            IVoucherKernel(voucherKernel).getBuyerOrderCosts(_tokenIdSupply);\n        require(price == _tokensPrice, \"IN_P\"); //invalid price\n        //hex\"54\" FISSION.code(FISSION.Category.Finance, FISSION.Status.InsufficientFunds)\n        require(depositBu == msg.value, \"IN_DE\"); // invalid deposit\n        //hex\"54\" FISSION.code(FISSION.Category.Finance, FISSION.Status.InsufficientFunds)\n\n        address tokenPriceAddress =\n            IVoucherKernel(voucherKernel).getVoucherPriceToken(_tokenIdSupply);\n        IERC20WithPermit(tokenPriceAddress).permit(\n            msg.sender,\n            address(this),\n            price,\n            deadline,\n            v,\n            r,\n            s\n        );\n\n        IVoucherKernel(voucherKernel).fillOrder(\n            _tokenIdSupply,\n            _issuer,\n            msg.sender,\n            correlationIds[msg.sender]++\n        );\n\n        IERC20WithPermit(tokenPriceAddress).transferFrom(\n            msg.sender,\n            address(cashierAddress),\n            price\n        );\n\n        //record funds in escrow ...\n        uint256 amount = ICashier(cashierAddress).getEscrowAmount(msg.sender);\n        ICashier(cashierAddress).updateEscrowAmount(\n            msg.sender,\n            amount.add(msg.value)\n        );\n\n        //record funds in escrowTokens ...\n        amount = ICashier(cashierAddress).getEscrowTokensAmount(\n            tokenPriceAddress,\n            msg.sender\n        );\n        ICashier(cashierAddress).updateEscrowTokensAmount(\n            tokenPriceAddress,\n            msg.sender,\n            amount.add(price)\n        );\n\n        payable(cashierAddress).sendValue(msg.value);\n    }\n\n    /**\n     * @notice Seller burns the remaining supply in case it's no longer in exchange and withdrawal of the locked deposits for them are being sent back.\n     * @param _tokenIdSupply an ID of a supply token (ERC-1155) which will be burned and deposits will be returned for\n     */\n    function requestCancelOrFaultVoucherSet(uint256 _tokenIdSupply)\n        external\n        override\n        nonReentrant\n        whenNotPaused\n    {\n        uint256 _burnedSupplyQty =\n            IVoucherKernel(voucherKernel).cancelOrFaultVoucherSet(\n                _tokenIdSupply,\n                msg.sender\n            );\n        ICashier(cashierAddress).withdrawDepositsSe(\n            _tokenIdSupply,\n            _burnedSupplyQty,\n            msg.sender\n        );\n\n        correlationIds[msg.sender]++;\n    }\n\n    /**\n     * @notice Redemption of the vouchers promise\n     * @param _tokenIdVoucher   ID of the voucher\n     */\n    function redeem(uint256 _tokenIdVoucher) external override {\n        IVoucherKernel(voucherKernel).redeem(_tokenIdVoucher, msg.sender);\n    }\n\n    /**\n     * @notice Refunding a voucher\n     * @param _tokenIdVoucher   ID of the voucher\n     */\n    function refund(uint256 _tokenIdVoucher) external override {\n        IVoucherKernel(voucherKernel).refund(_tokenIdVoucher, msg.sender);\n    }\n\n    /**\n     * @notice Issue a complain for a voucher\n     * @param _tokenIdVoucher   ID of the voucher\n     */\n    function complain(uint256 _tokenIdVoucher) external override {\n        IVoucherKernel(voucherKernel).complain(_tokenIdVoucher, msg.sender);\n    }\n\n    /**\n     * @notice Cancel/Fault transaction by the Seller, admitting to a fault or backing out of the deal\n     * @param _tokenIdVoucher   ID of the voucher\n     */\n    function cancelOrFault(uint256 _tokenIdVoucher) external override {\n        IVoucherKernel(voucherKernel).cancelOrFault(\n            _tokenIdVoucher,\n            msg.sender\n        );\n    }\n\n    /**\n     * @notice Hook which will be triggered when a _tokenIdVoucher will be transferred. Escrow funds should be allocated to the new owner.\n     * @param _from prev owner of the _tokenIdVoucher\n     * @param _to next owner of the _tokenIdVoucher\n     * @param _tokenIdVoucher _tokenIdVoucher that has been transferred\n     */\n    function _onERC721Transfer(\n        address _from,\n        address _to,\n        uint256 _tokenIdVoucher\n    ) external override {\n        onlyTokensContract();\n        uint256 tokenSupplyId =\n            IVoucherKernel(voucherKernel).getIdSupplyFromVoucher(\n                _tokenIdVoucher\n            );\n        uint8 paymentType =\n            IVoucherKernel(voucherKernel).getVoucherPaymentMethod(\n                tokenSupplyId\n            );\n\n        uint256 amount;\n        address tokenAddress;\n\n        (uint256 price, uint256 depositBu) =\n            IVoucherKernel(voucherKernel).getBuyerOrderCosts(tokenSupplyId);\n\n        if (paymentType == ETHETH) {\n            uint256 totalAmount = price.add(depositBu);\n\n            amount = ICashier(cashierAddress).getEscrowAmount(_from);\n            ICashier(cashierAddress).updateEscrowAmount(\n                _from,\n                amount.sub(totalAmount)\n            );\n\n            amount = ICashier(cashierAddress).getEscrowAmount(_to);\n            ICashier(cashierAddress).updateEscrowAmount(\n                _to,\n                amount.add(totalAmount)\n            );\n        }\n\n        if (paymentType == ETHTKN) {\n            amount = ICashier(cashierAddress).getEscrowAmount(_from);\n            ICashier(cashierAddress).updateEscrowAmount(\n                _from,\n                amount.sub(price)\n            );\n\n            amount = ICashier(cashierAddress).getEscrowAmount(_to);\n            ICashier(cashierAddress).updateEscrowAmount(_to, amount.add(price));\n\n            tokenAddress = IVoucherKernel(voucherKernel).getVoucherDepositToken(\n                tokenSupplyId\n            );\n\n            amount = ICashier(cashierAddress).getEscrowTokensAmount(\n                tokenAddress,\n                _from\n            );\n            ICashier(cashierAddress).updateEscrowTokensAmount(\n                tokenAddress,\n                _from,\n                amount.sub(depositBu)\n            );\n\n            amount = ICashier(cashierAddress).getEscrowTokensAmount(\n                tokenAddress,\n                _to\n            );\n            ICashier(cashierAddress).updateEscrowTokensAmount(\n                tokenAddress,\n                _to,\n                amount.add(depositBu)\n            );\n        }\n\n        if (paymentType == TKNETH) {\n            tokenAddress = IVoucherKernel(voucherKernel).getVoucherPriceToken(\n                tokenSupplyId\n            );\n\n            amount = ICashier(cashierAddress).getEscrowTokensAmount(\n                tokenAddress,\n                _from\n            );\n            ICashier(cashierAddress).updateEscrowTokensAmount(\n                tokenAddress,\n                _from,\n                amount.sub(price)\n            );\n\n            amount = ICashier(cashierAddress).getEscrowTokensAmount(\n                tokenAddress,\n                _to\n            );\n            ICashier(cashierAddress).updateEscrowTokensAmount(\n                tokenAddress,\n                _to,\n                amount.add(price)\n            );\n\n            amount = ICashier(cashierAddress).getEscrowAmount(_from);\n            ICashier(cashierAddress).updateEscrowAmount(\n                _from,\n                amount.sub(depositBu)\n            );\n\n            amount = ICashier(cashierAddress).getEscrowAmount(_to);\n            ICashier(cashierAddress).updateEscrowAmount(\n                _to,\n                amount.add(depositBu)\n            );\n        }\n\n        if (paymentType == TKNTKN) {\n            tokenAddress = IVoucherKernel(voucherKernel).getVoucherPriceToken(\n                tokenSupplyId\n            );\n\n            amount = ICashier(cashierAddress).getEscrowTokensAmount(\n                tokenAddress,\n                _from\n            );\n            ICashier(cashierAddress).updateEscrowTokensAmount(\n                tokenAddress,\n                _from,\n                amount.sub(price)\n            );\n\n            amount = ICashier(cashierAddress).getEscrowTokensAmount(\n                tokenAddress,\n                _to\n            );\n            ICashier(cashierAddress).updateEscrowTokensAmount(\n                tokenAddress,\n                _to,\n                amount.add(price)\n            );\n\n            tokenAddress = IVoucherKernel(voucherKernel).getVoucherDepositToken(\n                tokenSupplyId\n            );\n\n            amount = ICashier(cashierAddress).getEscrowTokensAmount(\n                tokenAddress,\n                _from\n            );\n            ICashier(cashierAddress).updateEscrowTokensAmount(\n                tokenAddress,\n                _from,\n                amount.sub(depositBu)\n            );\n\n            amount = ICashier(cashierAddress).getEscrowTokensAmount(\n                tokenAddress,\n                _to\n            );\n            ICashier(cashierAddress).updateEscrowTokensAmount(\n                tokenAddress,\n                _to,\n                amount.add(depositBu)\n            );\n        }\n\n        correlationIds[_to]++;\n    }\n\n    /**\n     * @notice Pre-validation when a transfer from the the Tokens contract is triggered. Only the whole supply is allowed for transfer, otherwise reverts.\n     * @param _from owner of the _tokenSupplyId\n     * @param _tokenSupplyId _tokenSupplyId which will be validated\n     * @param _value qty which is desired to be transferred\n     */\n    function _beforeERC1155Transfer(\n        address _from,\n        uint256 _tokenSupplyId,\n        uint256 _value\n    ) external view override {\n        onlyTokensContract();\n        uint256 _tokenSupplyQty =\n            IVoucherKernel(voucherKernel).getRemQtyForSupply(\n                _tokenSupplyId,\n                _from\n            );\n        require(_tokenSupplyQty == _value, \"IN_QTY\"); //invalid qty\n    }\n\n    /**\n     * @notice After the transfer happens the _tokenSupplyId should be updated in the promise. Escrow funds for the seller's deposits (If in ETH) should be allocated to the new owner as well.\n     * @param _from prev owner of the _tokenSupplyId\n     * @param _to nex owner of the _tokenSupplyId\n     * @param _tokenSupplyId _tokenSupplyId for transfer\n     * @param _value qty which has been transferred\n     */\n    function _onERC1155Transfer(\n        address _from,\n        address _to,\n        uint256 _tokenSupplyId,\n        uint256 _value\n    ) external override {\n        onlyTokensContract();\n        uint8 paymentType =\n            IVoucherKernel(voucherKernel).getVoucherPaymentMethod(\n                _tokenSupplyId\n            );\n\n        uint256 depositSe;\n        uint256 totalAmount;\n        uint256 amount;\n\n        if (paymentType == ETHETH || paymentType == TKNETH) {\n            depositSe = IVoucherKernel(voucherKernel).getSellerDeposit(\n                _tokenSupplyId\n            );\n            totalAmount = depositSe.mul(_value);\n\n            amount = ICashier(cashierAddress).getEscrowAmount(_from);\n            ICashier(cashierAddress).updateEscrowAmount(\n                _from,\n                amount.sub(totalAmount)\n            );\n\n            amount = ICashier(cashierAddress).getEscrowAmount(_to);\n            ICashier(cashierAddress).updateEscrowAmount(\n                _to,\n                amount.add(totalAmount)\n            );\n        }\n\n        if (paymentType == ETHTKN || paymentType == TKNTKN) {\n            address tokenDepositAddress =\n                IVoucherKernel(voucherKernel).getVoucherDepositToken(\n                    _tokenSupplyId\n                );\n\n            depositSe = IVoucherKernel(voucherKernel).getSellerDeposit(\n                _tokenSupplyId\n            );\n            totalAmount = depositSe.mul(_value);\n\n            amount = ICashier(cashierAddress).getEscrowTokensAmount(\n                tokenDepositAddress,\n                _from\n            );\n            ICashier(cashierAddress).updateEscrowTokensAmount(\n                tokenDepositAddress,\n                _from,\n                amount.sub(totalAmount)\n            );\n\n            amount = ICashier(cashierAddress).getEscrowTokensAmount(\n                tokenDepositAddress,\n                _to\n            );\n            ICashier(cashierAddress).updateEscrowTokensAmount(\n                tokenDepositAddress,\n                _to,\n                amount.add(totalAmount)\n            );\n        }\n\n        IVoucherKernel(voucherKernel).setSupplyHolderOnTransfer(\n            _tokenSupplyId,\n            _to\n        );\n\n        correlationIds[_to]++;\n    }\n\n    // // // // // // // //\n    // UTILS\n    // // // // // // // //\n\n    /**\n     * @notice Set the address of the ERC1155ERC721 contract\n     * @param _tokensContractAddress   The address of the ERC1155ERC721 contract\n     */\n    function setTokenContractAddress(address _tokensContractAddress)\n        external\n        override\n    {\n        onlyRouterOwner();\n        notZeroAddress(_tokensContractAddress);\n        tokensContractAddress = _tokensContractAddress;\n        emit LogTokenContractSet(_tokensContractAddress, msg.sender);\n    }\n}\n",
  "sourcePath": "/Users/hristiyangeorgiev/Documents/Projects/Redeemeum/bsn-core-prototype/contracts/BosonRouter.sol",
  "compiler": {
    "name": "solc",
    "version": "0.7.1+commit.f4a555be.Emscripten.clang"
  },
  "schemaVersion": "3.0.22",
  "updatedAt": "2021-02-18T15:34:55.902Z",
  "networkType": "ethereum",
  "devdoc": {
    "kind": "dev",
    "methods": {
      "_beforeERC1155Transfer(address,uint256,uint256)": {
        "params": {
          "_from": "owner of the _tokenSupplyId",
          "_tokenSupplyId": "_tokenSupplyId which will be validated",
          "_value": "qty which is desired to be transferred"
        }
      },
      "_onERC1155Transfer(address,address,uint256,uint256)": {
        "params": {
          "_from": "prev owner of the _tokenSupplyId",
          "_to": "nex owner of the _tokenSupplyId",
          "_tokenSupplyId": "_tokenSupplyId for transfer",
          "_value": "qty which has been transferred"
        }
      },
      "_onERC721Transfer(address,address,uint256)": {
        "params": {
          "_from": "prev owner of the _tokenIdVoucher",
          "_to": "next owner of the _tokenIdVoucher",
          "_tokenIdVoucher": "_tokenIdVoucher that has been transferred"
        }
      },
      "cancelOrFault(uint256)": {
        "params": {
          "_tokenIdVoucher": "ID of the voucher"
        }
      },
      "complain(uint256)": {
        "params": {
          "_tokenIdVoucher": "ID of the voucher"
        }
      },
      "owner()": {
        "details": "Returns the address of the current owner."
      },
      "paused()": {
        "details": "Returns true if the contract is paused, and false otherwise."
      },
      "redeem(uint256)": {
        "params": {
          "_tokenIdVoucher": "ID of the voucher"
        }
      },
      "refund(uint256)": {
        "params": {
          "_tokenIdVoucher": "ID of the voucher"
        }
      },
      "renounceOwnership()": {
        "details": "Leaves the contract without owner. It will not be possible to call `onlyOwner` functions anymore. Can only be called by the current owner. NOTE: Renouncing ownership will leave the contract without an owner, thereby removing any functionality that is only available to the owner."
      },
      "requestCancelOrFaultVoucherSet(uint256)": {
        "params": {
          "_tokenIdSupply": "an ID of a supply token (ERC-1155) which will be burned and deposits will be returned for"
        }
      },
      "requestCreateOrderETHETH(uint256[])": {
        "params": {
          "metadata": "metadata which is required for creation of a voucher Metadata array is used as in some scenarios we need several more params, as we need to recover  owner address in order to permit the contract to transfer funds on his behalf.  Since the params get too many, we end up in situation that the stack is too deep. uint256 _validFrom = metadata[0]; uint256 _validTo = metadata[1]; uint256 _price = metadata[2]; uint256 _depositSe = metadata[3]; uint256 _depositBu = metadata[4]; uint256 _quantity = metadata[5];"
        }
      },
      "requestVoucherETHETH(uint256,address)": {
        "params": {
          "_issuer": "Address of the issuer of the supply token",
          "_tokenIdSupply": "ID of the supply token"
        }
      },
      "setTokenContractAddress(address)": {
        "params": {
          "_tokensContractAddress": "The address of the ERC1155ERC721 contract"
        }
      },
      "transferOwnership(address)": {
        "details": "Transfers ownership of the contract to a new account (`newOwner`). Can only be called by the current owner."
      }
    },
    "title": "Contract for interacting with Boson Protocol from the user's perspective.",
    "version": 1
  },
  "userdoc": {
    "kind": "user",
    "methods": {
      "_beforeERC1155Transfer(address,uint256,uint256)": {
        "notice": "Pre-validation when a transfer from the the Tokens contract is triggered. Only the whole supply is allowed for transfer, otherwise reverts."
      },
      "_onERC1155Transfer(address,address,uint256,uint256)": {
        "notice": "After the transfer happens the _tokenSupplyId should be updated in the promise. Escrow funds for the seller's deposits (If in ETH) should be allocated to the new owner as well."
      },
      "_onERC721Transfer(address,address,uint256)": {
        "notice": "Hook which will be triggered when a _tokenIdVoucher will be transferred. Escrow funds should be allocated to the new owner."
      },
      "cancelOrFault(uint256)": {
        "notice": "Cancel/Fault transaction by the Seller, admitting to a fault or backing out of the deal"
      },
      "complain(uint256)": {
        "notice": "Issue a complain for a voucher"
      },
      "pause()": {
        "notice": "Pause the Cashier && the Voucher Kernel contracts in case of emergency. All functions related to creating new batch, requestVoucher or withdraw will be paused, hence cannot be executed. There is special function for withdrawing funds if contract is paused."
      },
      "redeem(uint256)": {
        "notice": "Redemption of the vouchers promise"
      },
      "refund(uint256)": {
        "notice": "Refunding a voucher"
      },
      "requestCancelOrFaultVoucherSet(uint256)": {
        "notice": "Seller burns the remaining supply in case it's no longer in exchange and withdrawal of the locked deposits for them are being sent back."
      },
      "requestCreateOrderETHETH(uint256[])": {
        "notice": "Issuer/Seller offers promises as supply tokens and needs to escrow the deposit"
      },
      "requestVoucherETHETH(uint256,address)": {
        "notice": "Consumer requests/buys a voucher by filling an order and receiving a Voucher Token in return"
      },
      "setTokenContractAddress(address)": {
        "notice": "Set the address of the ERC1155ERC721 contract"
      },
      "unpause()": {
        "notice": "Unpause the Cashier && the Voucher Kernel contracts. All functions related to creating new batch, requestVoucher or withdraw will be unpaused."
      }
    },
    "version": 1
  }
}