{
  "contractName": "BosonToken",
  "abi": [
    {
      "inputs": [
        {
          "internalType": "string",
          "name": "name",
          "type": "string"
        },
        {
          "internalType": "string",
          "name": "symbol",
          "type": "string"
        }
      ],
      "stateMutability": "nonpayable",
      "type": "constructor"
    },
    {
      "anonymous": false,
      "inputs": [
        {
          "indexed": true,
          "internalType": "address",
          "name": "owner",
          "type": "address"
        },
        {
          "indexed": true,
          "internalType": "address",
          "name": "spender",
          "type": "address"
        },
        {
          "indexed": false,
          "internalType": "uint256",
          "name": "value",
          "type": "uint256"
        }
      ],
      "name": "Approval",
      "type": "event"
    },
    {
      "anonymous": false,
      "inputs": [
        {
          "indexed": false,
          "internalType": "address",
          "name": "account",
          "type": "address"
        }
      ],
      "name": "Paused",
      "type": "event"
    },
    {
      "anonymous": false,
      "inputs": [
        {
          "indexed": true,
          "internalType": "bytes32",
          "name": "role",
          "type": "bytes32"
        },
        {
          "indexed": true,
          "internalType": "bytes32",
          "name": "previousAdminRole",
          "type": "bytes32"
        },
        {
          "indexed": true,
          "internalType": "bytes32",
          "name": "newAdminRole",
          "type": "bytes32"
        }
      ],
      "name": "RoleAdminChanged",
      "type": "event"
    },
    {
      "anonymous": false,
      "inputs": [
        {
          "indexed": true,
          "internalType": "bytes32",
          "name": "role",
          "type": "bytes32"
        },
        {
          "indexed": true,
          "internalType": "address",
          "name": "account",
          "type": "address"
        },
        {
          "indexed": true,
          "internalType": "address",
          "name": "sender",
          "type": "address"
        }
      ],
      "name": "RoleGranted",
      "type": "event"
    },
    {
      "anonymous": false,
      "inputs": [
        {
          "indexed": true,
          "internalType": "bytes32",
          "name": "role",
          "type": "bytes32"
        },
        {
          "indexed": true,
          "internalType": "address",
          "name": "account",
          "type": "address"
        },
        {
          "indexed": true,
          "internalType": "address",
          "name": "sender",
          "type": "address"
        }
      ],
      "name": "RoleRevoked",
      "type": "event"
    },
    {
      "anonymous": false,
      "inputs": [
        {
          "indexed": true,
          "internalType": "address",
          "name": "from",
          "type": "address"
        },
        {
          "indexed": true,
          "internalType": "address",
          "name": "to",
          "type": "address"
        },
        {
          "indexed": false,
          "internalType": "uint256",
          "name": "value",
          "type": "uint256"
        }
      ],
      "name": "Transfer",
      "type": "event"
    },
    {
      "anonymous": false,
      "inputs": [
        {
          "indexed": false,
          "internalType": "address",
          "name": "account",
          "type": "address"
        }
      ],
      "name": "Unpaused",
      "type": "event"
    },
    {
      "inputs": [],
      "name": "ADMIN_ROLE",
      "outputs": [
        {
          "internalType": "bytes32",
          "name": "",
          "type": "bytes32"
        }
      ],
      "stateMutability": "view",
      "type": "function"
    },
    {
      "inputs": [],
      "name": "DEFAULT_ADMIN_ROLE",
      "outputs": [
        {
          "internalType": "bytes32",
          "name": "",
          "type": "bytes32"
        }
      ],
      "stateMutability": "view",
      "type": "function"
    },
    {
      "inputs": [],
      "name": "DOMAIN_SEPARATOR",
      "outputs": [
        {
          "internalType": "bytes32",
          "name": "",
          "type": "bytes32"
        }
      ],
      "stateMutability": "view",
      "type": "function"
    },
    {
      "inputs": [],
      "name": "MINTER_ROLE",
      "outputs": [
        {
          "internalType": "bytes32",
          "name": "",
          "type": "bytes32"
        }
      ],
      "stateMutability": "view",
      "type": "function"
    },
    {
      "inputs": [],
      "name": "PAUSER_ROLE",
      "outputs": [
        {
          "internalType": "bytes32",
          "name": "",
          "type": "bytes32"
        }
      ],
      "stateMutability": "view",
      "type": "function"
    },
    {
      "inputs": [],
      "name": "PERMIT_TYPEHASH",
      "outputs": [
        {
          "internalType": "bytes32",
          "name": "",
          "type": "bytes32"
        }
      ],
      "stateMutability": "view",
      "type": "function"
    },
    {
      "inputs": [
        {
          "internalType": "address",
          "name": "",
          "type": "address"
        },
        {
          "internalType": "address",
          "name": "",
          "type": "address"
        }
      ],
      "name": "allowance",
      "outputs": [
        {
          "internalType": "uint256",
          "name": "",
          "type": "uint256"
        }
      ],
      "stateMutability": "view",
      "type": "function"
    },
    {
      "inputs": [
        {
          "internalType": "address",
          "name": "spender",
          "type": "address"
        },
        {
          "internalType": "uint256",
          "name": "value",
          "type": "uint256"
        }
      ],
      "name": "approve",
      "outputs": [
        {
          "internalType": "bool",
          "name": "",
          "type": "bool"
        }
      ],
      "stateMutability": "nonpayable",
      "type": "function"
    },
    {
      "inputs": [
        {
          "internalType": "address",
          "name": "",
          "type": "address"
        }
      ],
      "name": "balanceOf",
      "outputs": [
        {
          "internalType": "uint256",
          "name": "",
          "type": "uint256"
        }
      ],
      "stateMutability": "view",
      "type": "function"
    },
    {
      "inputs": [],
      "name": "decimals",
      "outputs": [
        {
          "internalType": "uint8",
          "name": "",
          "type": "uint8"
        }
      ],
      "stateMutability": "view",
      "type": "function"
    },
    {
      "inputs": [
        {
          "internalType": "bytes32",
          "name": "role",
          "type": "bytes32"
        }
      ],
      "name": "getRoleAdmin",
      "outputs": [
        {
          "internalType": "bytes32",
          "name": "",
          "type": "bytes32"
        }
      ],
      "stateMutability": "view",
      "type": "function"
    },
    {
      "inputs": [
        {
          "internalType": "bytes32",
          "name": "role",
          "type": "bytes32"
        },
        {
          "internalType": "uint256",
          "name": "index",
          "type": "uint256"
        }
      ],
      "name": "getRoleMember",
      "outputs": [
        {
          "internalType": "address",
          "name": "",
          "type": "address"
        }
      ],
      "stateMutability": "view",
      "type": "function"
    },
    {
      "inputs": [
        {
          "internalType": "bytes32",
          "name": "role",
          "type": "bytes32"
        }
      ],
      "name": "getRoleMemberCount",
      "outputs": [
        {
          "internalType": "uint256",
          "name": "",
          "type": "uint256"
        }
      ],
      "stateMutability": "view",
      "type": "function"
    },
    {
      "inputs": [
        {
          "internalType": "bytes32",
          "name": "role",
          "type": "bytes32"
        },
        {
          "internalType": "address",
          "name": "account",
          "type": "address"
        }
      ],
      "name": "grantRole",
      "outputs": [],
      "stateMutability": "nonpayable",
      "type": "function"
    },
    {
      "inputs": [
        {
          "internalType": "bytes32",
          "name": "role",
          "type": "bytes32"
        },
        {
          "internalType": "address",
          "name": "account",
          "type": "address"
        }
      ],
      "name": "hasRole",
      "outputs": [
        {
          "internalType": "bool",
          "name": "",
          "type": "bool"
        }
      ],
      "stateMutability": "view",
      "type": "function"
    },
    {
      "inputs": [],
      "name": "name",
      "outputs": [
        {
          "internalType": "string",
          "name": "",
          "type": "string"
        }
      ],
      "stateMutability": "view",
      "type": "function"
    },
    {
      "inputs": [
        {
          "internalType": "address",
          "name": "",
          "type": "address"
        }
      ],
      "name": "nonces",
      "outputs": [
        {
          "internalType": "uint256",
          "name": "",
          "type": "uint256"
        }
      ],
      "stateMutability": "view",
      "type": "function"
    },
    {
      "inputs": [],
      "name": "paused",
      "outputs": [
        {
          "internalType": "bool",
          "name": "",
          "type": "bool"
        }
      ],
      "stateMutability": "view",
      "type": "function"
    },
    {
      "inputs": [
        {
          "internalType": "address",
          "name": "owner",
          "type": "address"
        },
        {
          "internalType": "address",
          "name": "spender",
          "type": "address"
        },
        {
          "internalType": "uint256",
          "name": "value",
          "type": "uint256"
        },
        {
          "internalType": "uint256",
          "name": "deadline",
          "type": "uint256"
        },
        {
          "internalType": "uint8",
          "name": "v",
          "type": "uint8"
        },
        {
          "internalType": "bytes32",
          "name": "r",
          "type": "bytes32"
        },
        {
          "internalType": "bytes32",
          "name": "s",
          "type": "bytes32"
        }
      ],
      "name": "permit",
      "outputs": [],
      "stateMutability": "nonpayable",
      "type": "function"
    },
    {
      "inputs": [
        {
          "internalType": "bytes32",
          "name": "role",
          "type": "bytes32"
        },
        {
          "internalType": "address",
          "name": "account",
          "type": "address"
        }
      ],
      "name": "renounceRole",
      "outputs": [],
      "stateMutability": "nonpayable",
      "type": "function"
    },
    {
      "inputs": [
        {
          "internalType": "bytes32",
          "name": "role",
          "type": "bytes32"
        },
        {
          "internalType": "address",
          "name": "account",
          "type": "address"
        }
      ],
      "name": "revokeRole",
      "outputs": [],
      "stateMutability": "nonpayable",
      "type": "function"
    },
    {
      "inputs": [],
      "name": "symbol",
      "outputs": [
        {
          "internalType": "string",
          "name": "",
          "type": "string"
        }
      ],
      "stateMutability": "view",
      "type": "function"
    },
    {
      "inputs": [],
      "name": "totalSupply",
      "outputs": [
        {
          "internalType": "uint256",
          "name": "",
          "type": "uint256"
        }
      ],
      "stateMutability": "view",
      "type": "function"
    },
    {
      "inputs": [
        {
          "internalType": "address",
          "name": "to",
          "type": "address"
        },
        {
          "internalType": "uint256",
          "name": "value",
          "type": "uint256"
        }
      ],
      "name": "transfer",
      "outputs": [
        {
          "internalType": "bool",
          "name": "",
          "type": "bool"
        }
      ],
      "stateMutability": "nonpayable",
      "type": "function"
    },
    {
      "inputs": [
        {
          "internalType": "address",
          "name": "from",
          "type": "address"
        },
        {
          "internalType": "address",
          "name": "to",
          "type": "address"
        },
        {
          "internalType": "uint256",
          "name": "value",
          "type": "uint256"
        }
      ],
      "name": "transferFrom",
      "outputs": [
        {
          "internalType": "bool",
          "name": "",
          "type": "bool"
        }
      ],
      "stateMutability": "nonpayable",
      "type": "function"
    },
    {
      "inputs": [
        {
          "internalType": "address",
          "name": "_to",
          "type": "address"
        }
      ],
      "name": "grantMinterRole",
      "outputs": [],
      "stateMutability": "nonpayable",
      "type": "function"
    },
    {
      "inputs": [
        {
          "internalType": "address",
          "name": "to",
          "type": "address"
        },
        {
          "internalType": "uint256",
          "name": "amount",
          "type": "uint256"
        }
      ],
      "name": "mint",
      "outputs": [],
      "stateMutability": "nonpayable",
      "type": "function"
    }
  ],
  "bytecode": "0x60806040523480156200001157600080fd5b50604051620018e1380380620018e1833981810160405260408110156200003757600080fd5b81019080805160405193929190846401000000008211156200005857600080fd5b9083019060208201858111156200006e57600080fd5b82516401000000008111828201881017156200008957600080fd5b82525081516020918201929091019080838360005b83811015620000b85781810151838201526020016200009e565b50505050905090810190601f168015620000e65780820380516001836020036101000a031916815260200191505b50604052602001805160405193929190846401000000008211156200010a57600080fd5b9083019060208201858111156200012057600080fd5b82516401000000008111828201881017156200013b57600080fd5b82525081516020918201929091019080838360005b838110156200016a57818101518382015260200162000150565b50505050905090810190601f168015620001985780820380516001836020036101000a031916815260200191505b5060405250506000805460ff1916905550815182908290620001c2906001906020850190620004c0565b508051620001d8906002906020840190620004c0565b5060004690507f8b73c3c69bb8fe3d512ecc4cf759cc79239f7b179b0ffacaa9a75d522b39400f60016040518082805460018160011615610100020316600290048015620002605780601f106200023d57610100808354040283529182019162000260565b820191906000526020600020905b8154815290600101906020018083116200024b575b505060408051918290038220828201825260018352603160f81b602093840152815180840196909652858201527fc89efdaa54c0f20c7adf612882df0950f5a951637e0307cdcb4c672f298b8bc6606086015260808501959095523060a0808601919091528551808603909101815260c09094019094525050805191012060065550620003089050600080516020620018a18339815191526200030262000358565b6200035c565b62000326600080516020620018c18339815191526200030262000358565b62000350600080516020620018a1833981519152600080516020620018c18339815191526200036c565b50506200055c565b3390565b620003688282620003be565b5050565b600082815260086020526040808220600201549051839285917fbd79b86ffe0ab8e8776151514217cd7cacd52c909f66475c3af44e129f0b00ff9190a460009182526008602052604090912060020155565b6000828152600860209081526040909120620003e591839062000caf62000439821b17901c565b156200036857620003f562000358565b6001600160a01b0316816001600160a01b0316837f2f8788117e7eff1d82e926ec794901d17c78024a50270940304540a733656f0d60405160405180910390a45050565b600062000450836001600160a01b03841662000459565b90505b92915050565b6000620004678383620004a8565b6200049f5750815460018181018455600084815260208082209093018490558454848252828601909352604090209190915562000453565b50600062000453565b60009081526001919091016020526040902054151590565b828054600181600116156101000203166002900490600052602060002090601f016020900481019282601f106200050357805160ff191683800117855562000533565b8280016001018555821562000533579182015b828111156200053357825182559160200191906001019062000516565b506200054192915062000545565b5090565b5b8082111562000541576000815560010162000546565b611335806200056c6000396000f3fe608060405234801561001057600080fd5b50600436106101495760003560e01c806306fdde031461014e578063095ea7b3146101cb57806318160ddd1461020b57806323b872dd14610225578063248a9ca31461025b5780632f2ff15d1461027857806330adf81f146102a6578063313ce567146102ae5780633644e515146102cc57806336568abe146102d45780633dd1eb611461030057806340c10f19146103265780635c975abb1461035257806370a082311461035a57806375b238fc146103805780637ecebe00146103885780639010d07c146103ae57806391d14854146103ed57806395d89b4114610419578063a217fddf14610421578063a9059cbb14610429578063ca15c87314610455578063d505accf14610472578063d5391393146104c3578063d547741f146104cb578063dd62ed3e146104f7578063e63ab1e914610525575b600080fd5b61015661052d565b6040805160208082528351818301528351919283929083019185019080838360005b83811015610190578181015183820152602001610178565b50505050905090810190601f1680156101bd5780820380516001836020036101000a031916815260200191505b509250505060405180910390f35b6101f7600480360360408110156101e157600080fd5b506001600160a01b0381351690602001356105ba565b604080519115158252519081900360200190f35b61021361061e565b60408051918252519081900360200190f35b6101f76004803603606081101561023b57600080fd5b506001600160a01b03813581169160208101359091169060400135610624565b6102136004803603602081101561027157600080fd5b5035610707565b6102a46004803603604081101561028e57600080fd5b50803590602001356001600160a01b031661071c565b005b610213610788565b6102b661079a565b6040805160ff9092168252519081900360200190f35b61021361079f565b6102a4600480360360408110156102ea57600080fd5b50803590602001356001600160a01b03166107a5565b6102a46004803603602081101561031657600080fd5b50356001600160a01b0316610806565b6102a46004803603604081101561033c57600080fd5b506001600160a01b038135169060200135610821565b6101f7610880565b6102136004803603602081101561037057600080fd5b50356001600160a01b0316610889565b61021361089b565b6102136004803603602081101561039e57600080fd5b50356001600160a01b03166108bf565b6103d1600480360360408110156103c457600080fd5b50803590602001356108d1565b604080516001600160a01b039092168252519081900360200190f35b6101f76004803603604081101561040357600080fd5b50803590602001356001600160a01b03166108f0565b610156610908565b610213610960565b6101f76004803603604081101561043f57600080fd5b506001600160a01b038135169060200135610965565b6102136004803603602081101561046b57600080fd5b50356109bf565b6102a4600480360360e081101561048857600080fd5b506001600160a01b03813581169160208101359091169060408101359060608101359060ff6080820135169060a08101359060c001356109d6565b610213610c03565b6102a4600480360360408110156104e157600080fd5b50803590602001356001600160a01b0316610c15565b6102136004803603604081101561050d57600080fd5b506001600160a01b0381358116916020013516610c6e565b610213610c8b565b60018054604080516020600284861615610100026000190190941693909304601f810184900484028201840190925281815292918301828280156105b25780601f10610587576101008083540402835291602001916105b2565b820191906000526020600020905b81548152906001019060200180831161059557829003601f168201915b505050505081565b60006105c4610880565b15610609576040805162461bcd60e51b815260206004820152601060248201526f14185d5cd8589b194e881c185d5cd95960821b604482015290519081900360640190fd5b610614338484610cc4565b5060015b92915050565b60035481565b600061062e610880565b15610673576040805162461bcd60e51b815260206004820152601060248201526f14185d5cd8589b194e881c185d5cd95960821b604482015290519081900360640190fd5b6001600160a01b0384166000908152600560209081526040808320338452909152902054600019146106f2576001600160a01b03841660009081526005602090815260408083203384529091529020546106cd9083610d26565b6001600160a01b03851660009081526005602090815260408083203384529091529020555b6106fd848484610d83565b5060019392505050565b60009081526008602052604090206002015490565b60008281526008602052604090206002015461073f9061073a610e1f565b6108f0565b61077a5760405162461bcd60e51b815260040180806020018281038252602f8152602001806111ba602f913960400191505060405180910390fd5b6107848282610e23565b5050565b6000805160206112b183398151915281565b601281565b60065481565b6107ad610e1f565b6001600160a01b0316816001600160a01b0316146107fc5760405162461bcd60e51b815260040180806020018281038252602f8152602001806112d1602f913960400191505060405180910390fd5b6107848282610e8c565b61081e60008051602061124f8339815191528261071c565b50565b61083b60008051602061124f83398151915261073a610e1f565b6108765760405162461bcd60e51b81526004018080602001828103825260368152602001806112196036913960400191505060405180910390fd5b6107848282610ef5565b60005460ff1690565b60046020526000908152604090205481565b7fa49807205ce4d355092ef5a8a18f56e8913cf4a201fbe287825b095693c2177581565b60076020526000908152604090205481565b60008281526008602052604081206108e99083610f6e565b9392505050565b60008281526008602052604081206108e99083610f7a565b6002805460408051602060018416156101000260001901909316849004601f810184900484028201840190925281815292918301828280156105b25780601f10610587576101008083540402835291602001916105b2565b600081565b600061096f610880565b156109b4576040805162461bcd60e51b815260206004820152601060248201526f14185d5cd8589b194e881c185d5cd95960821b604482015290519081900360640190fd5b610614338484610d83565b600081815260086020526040812061061890610f8f565b6109de610880565b15610a23576040805162461bcd60e51b815260206004820152601060248201526f14185d5cd8589b194e881c185d5cd95960821b604482015290519081900360640190fd5b42841015610a73576040805162461bcd60e51b8152602060048201526018602482015277115490cc8c15da5d1a14195c9b5a5d0e881156141254915160421b604482015290519081900360640190fd5b6006546001600160a01b0380891660008181526007602090815260408083208054600180820190925582516000805160206112b18339815191528186015280840196909652958d166060860152608085018c905260a085019590955260c08085018b90528151808603909101815260e08501825280519083012061190160f01b6101008601526101028501969096526101228085019690965280518085039096018652610142840180825286519683019690962095839052610162840180825286905260ff89166101828501526101a284018890526101c28401879052519193926101e280820193601f1981019281900390910190855afa158015610b7c573d6000803e3d6000fd5b5050604051601f1901519150506001600160a01b03811615801590610bb25750886001600160a01b0316816001600160a01b0316145b610bed5760405162461bcd60e51b815260040180806020018281038252602281526020018061128f6022913960400191505060405180910390fd5b610bf8898989610cc4565b505050505050505050565b60008051602061124f83398151915281565b600082815260086020526040902060020154610c339061073a610e1f565b6107fc5760405162461bcd60e51b81526004018080602001828103825260308152602001806111e96030913960400191505060405180910390fd5b600560209081526000928352604080842090915290825290205481565b7f65d7a28e3265b37a6474929f336521b332c1681b933f6cb9f3376673440d862a81565b60006108e9836001600160a01b038416610f9a565b6001600160a01b03808416600081815260056020908152604080832094871680845294825291829020859055815185815291517f8c5be1e5ebec7d5bd14f71427d1e84f3dd0314c0f7b2291e5b200ac8c7c3b9259281900390910190a3505050565b600082821115610d7d576040805162461bcd60e51b815260206004820152601e60248201527f536166654d6174683a207375627472616374696f6e206f766572666c6f770000604482015290519081900360640190fd5b50900390565b6001600160a01b038316600090815260046020526040902054610da69082610d26565b6001600160a01b038085166000908152600460205260408082209390935590841681522054610dd59082610fe4565b6001600160a01b03808416600081815260046020908152604091829020949094558051858152905191939287169260008051602061126f83398151915292918290030190a3505050565b3390565b6000828152600860205260409020610e3b9082610caf565b1561078457610e48610e1f565b6001600160a01b0316816001600160a01b0316837f2f8788117e7eff1d82e926ec794901d17c78024a50270940304540a733656f0d60405160405180910390a45050565b6000828152600860205260409020610ea4908261103c565b1561078457610eb1610e1f565b6001600160a01b0316816001600160a01b0316837ff6391f5c32d9c69d2a47ea670b442974b53935d1edc7fd64eb21e047a839171b60405160405180910390a45050565b600354610f029082610fe4565b6003556001600160a01b038216600090815260046020526040902054610f289082610fe4565b6001600160a01b038316600081815260046020908152604080832094909455835185815293519293919260008051602061126f8339815191529281900390910190a35050565b60006108e98383611051565b60006108e9836001600160a01b0384166110b5565b6000610618826110cd565b6000610fa683836110b5565b610fdc57508154600181810184556000848152602080822090930184905584548482528286019093526040902091909155610618565b506000610618565b6000828201838110156108e9576040805162461bcd60e51b815260206004820152601b60248201527a536166654d6174683a206164646974696f6e206f766572666c6f7760281b604482015290519081900360640190fd5b60006108e9836001600160a01b0384166110d1565b815460009082106110935760405162461bcd60e51b81526004018080602001828103825260228152602001806111986022913960400191505060405180910390fd5b8260000182815481106110a257fe5b9060005260206000200154905092915050565b60009081526001919091016020526040902054151590565b5490565b6000818152600183016020526040812054801561118d578354600019808301919081019060009087908390811061110457fe5b906000526020600020015490508087600001848154811061112157fe5b60009182526020808320909101929092558281526001898101909252604090209084019055865487908061115157fe5b60019003818190600052602060002001600090559055866001016000878152602001908152602001600020600090556001945050505050610618565b600091505061061856fe456e756d657261626c655365743a20696e646578206f7574206f6620626f756e6473416363657373436f6e74726f6c3a2073656e646572206d75737420626520616e2061646d696e20746f206772616e74416363657373436f6e74726f6c3a2073656e646572206d75737420626520616e2061646d696e20746f207265766f6b6545524332305072657365744d696e7465725061757365723a206d7573742068617665206d696e74657220726f6c6520746f206d696e749f2df0fed2c77648de5860a4cc508cd0818c85b8b8a1ab4ceeef8d981c8956a6ddf252ad1be2c89b69c2b068fc378daa952ba7f163c4a11628f55a4df523b3ef4552433230576974685065726d69743a20494e56414c49445f5349474e41545552456e71edae12b1b97f4d1f60370fef10105fa2faae0126114a169c64845d6126c9416363657373436f6e74726f6c3a2063616e206f6e6c792072656e6f756e636520726f6c657320666f722073656c66a2646970667358221220fedd7f3f3b58fcfe9d1a769d1e2c4a3eb87fefec524d95dae3cf33b4787ff89864736f6c634300070100339f2df0fed2c77648de5860a4cc508cd0818c85b8b8a1ab4ceeef8d981c8956a6a49807205ce4d355092ef5a8a18f56e8913cf4a201fbe287825b095693c21775",
  "source": "// SPDX-License-Identifier: LGPL-3.0-or-later\npragma solidity 0.7.1;\n\nimport \"./ERC20WithPermit.sol\";\nimport \"@openzeppelin/contracts/access/AccessControl.sol\";\n\n/**\n * @notice MOCK Token Contract. This contract is only used for, while deploying on rinkeby with verifying contracts,\n * so that we have 2 distinguished contracts concerning tokens for the price of the products, and for the deposits.\n * Will not be used while deploying on prod.\n */\ncontract BosonTokenDeposit is ERC20WithPermit, AccessControl {\n    bytes32 public constant ADMIN_ROLE = keccak256(\"ADMIN_ROLE\");\n    bytes32 public constant MINTER_ROLE = keccak256(\"MINTER_ROLE\");\n    bytes32 public constant PAUSER_ROLE = keccak256(\"PAUSER_ROLE\");\n\n    constructor(string memory name, string memory symbol)\n        ERC20WithPermit(name, symbol)\n    {\n        _setupRole(MINTER_ROLE, _msgSender());\n        _setupRole(ADMIN_ROLE, _msgSender());\n        _setRoleAdmin(MINTER_ROLE, ADMIN_ROLE);\n    }\n\n    function grantMinterRole(address _to) public {\n        grantRole(MINTER_ROLE, _to);\n    }\n\n    function mint(address to, uint256 amount) public {\n        require(\n            hasRole(MINTER_ROLE, _msgSender()),\n            \"ERC20PresetMinterPauser: must have minter role to mint\"\n        );\n        _mint(to, amount);\n    }\n}\n",
  "sourcePath": "/Users/hristiyangeorgiev/Documents/Projects/Redeemeum/ContractsBackupBeforeRebase/contracts/BosonTokenDeposit.sol",
  "compiler": {
    "name": "solc",
    "version": "0.7.1+commit.f4a555be.Emscripten.clang"
  },
  "schemaVersion": "3.0.22",
  "updatedAt": "2021-02-11T16:52:49.981Z",
  "devdoc": {
    "kind": "dev",
    "methods": {
      "getRoleAdmin(bytes32)": {
        "details": "Returns the admin role that controls `role`. See {grantRole} and {revokeRole}. To change a role's admin, use {_setRoleAdmin}."
      },
      "getRoleMember(bytes32,uint256)": {
        "details": "Returns one of the accounts that have `role`. `index` must be a value between 0 and {getRoleMemberCount}, non-inclusive. Role bearers are not sorted in any particular way, and their ordering may change at any point. WARNING: When using {getRoleMember} and {getRoleMemberCount}, make sure you perform all queries on the same block. See the following https://forum.openzeppelin.com/t/iterating-over-elements-on-enumerableset-in-openzeppelin-contracts/2296[forum post] for more information."
      },
      "getRoleMemberCount(bytes32)": {
        "details": "Returns the number of accounts that have `role`. Can be used together with {getRoleMember} to enumerate all bearers of a role."
      },
      "grantRole(bytes32,address)": {
        "details": "Grants `role` to `account`. If `account` had not been already granted `role`, emits a {RoleGranted} event. Requirements: - the caller must have ``role``'s admin role."
      },
      "hasRole(bytes32,address)": {
        "details": "Returns `true` if `account` has been granted `role`."
      },
      "paused()": {
        "details": "Returns true if the contract is paused, and false otherwise."
      },
      "renounceRole(bytes32,address)": {
        "details": "Revokes `role` from the calling account. Roles are often managed via {grantRole} and {revokeRole}: this function's purpose is to provide a mechanism for accounts to lose their privileges if they are compromised (such as when a trusted device is misplaced). If the calling account had been granted `role`, emits a {RoleRevoked} event. Requirements: - the caller must be `account`."
      },
      "revokeRole(bytes32,address)": {
        "details": "Revokes `role` from `account`. If `account` had been granted `role`, emits a {RoleRevoked} event. Requirements: - the caller must have ``role``'s admin role."
      }
    },
    "version": 1
  },
  "userdoc": {
    "kind": "user",
    "methods": {},
    "notice": "MOCK Token Contract. This contract is only used for, while deploying on rinkeby with verifying contracts, so that we have 2 distinguished contracts concerning tokens for the price of the products, and for the deposits. Will not be used while deploying on prod.",
    "version": 1
  }
}