{
  "contractName": "ERC1155ERC721",
  "abi": [
    {
      "inputs": [],
      "stateMutability": "nonpayable",
      "type": "constructor"
    },
    {
      "anonymous": false,
      "inputs": [
        {
          "indexed": true,
          "internalType": "address",
          "name": "_owner",
          "type": "address"
        },
        {
          "indexed": true,
          "internalType": "address",
          "name": "_approved",
          "type": "address"
        },
        {
          "indexed": true,
          "internalType": "uint256",
          "name": "_tokenId",
          "type": "uint256"
        }
      ],
      "name": "Approval",
      "type": "event"
    },
    {
      "anonymous": false,
      "inputs": [
        {
          "indexed": true,
          "internalType": "address",
          "name": "_owner",
          "type": "address"
        },
        {
          "indexed": true,
          "internalType": "address",
          "name": "_operator",
          "type": "address"
        },
        {
          "indexed": false,
          "internalType": "bool",
          "name": "_approved",
          "type": "bool"
        }
      ],
      "name": "ApprovalForAll",
      "type": "event"
    },
    {
      "anonymous": false,
      "inputs": [
        {
          "indexed": false,
          "internalType": "address",
          "name": "_newVoucherKernel",
          "type": "address"
        },
        {
          "indexed": false,
          "internalType": "address",
          "name": "_triggeredBy",
          "type": "address"
        }
      ],
      "name": "LogVoucherKernelSet",
      "type": "event"
    },
    {
      "anonymous": false,
      "inputs": [
        {
          "indexed": true,
          "internalType": "address",
          "name": "_from",
          "type": "address"
        },
        {
          "indexed": true,
          "internalType": "address",
          "name": "_to",
          "type": "address"
        },
        {
          "indexed": true,
          "internalType": "uint256",
          "name": "_tokenId",
          "type": "uint256"
        }
      ],
      "name": "Transfer",
      "type": "event"
    },
    {
      "anonymous": false,
      "inputs": [
        {
          "indexed": true,
          "internalType": "address",
          "name": "_operator",
          "type": "address"
        },
        {
          "indexed": true,
          "internalType": "address",
          "name": "_from",
          "type": "address"
        },
        {
          "indexed": true,
          "internalType": "address",
          "name": "_to",
          "type": "address"
        },
        {
          "indexed": false,
          "internalType": "uint256[]",
          "name": "_ids",
          "type": "uint256[]"
        },
        {
          "indexed": false,
          "internalType": "uint256[]",
          "name": "_values",
          "type": "uint256[]"
        }
      ],
      "name": "TransferBatch",
      "type": "event"
    },
    {
      "anonymous": false,
      "inputs": [
        {
          "indexed": true,
          "internalType": "address",
          "name": "_operator",
          "type": "address"
        },
        {
          "indexed": true,
          "internalType": "address",
          "name": "_from",
          "type": "address"
        },
        {
          "indexed": true,
          "internalType": "address",
          "name": "_to",
          "type": "address"
        },
        {
          "indexed": false,
          "internalType": "uint256",
          "name": "_id",
          "type": "uint256"
        },
        {
          "indexed": false,
          "internalType": "uint256",
          "name": "_value",
          "type": "uint256"
        }
      ],
      "name": "TransferSingle",
      "type": "event"
    },
    {
      "anonymous": false,
      "inputs": [
        {
          "indexed": false,
          "internalType": "string",
          "name": "_value",
          "type": "string"
        },
        {
          "indexed": true,
          "internalType": "uint256",
          "name": "_id",
          "type": "uint256"
        }
      ],
      "name": "URI",
      "type": "event"
    },
    {
      "inputs": [],
      "name": "owner",
      "outputs": [
        {
          "internalType": "address",
          "name": "",
          "type": "address"
        }
      ],
      "stateMutability": "view",
      "type": "function"
    },
    {
      "inputs": [],
      "name": "voucherKernelAddress",
      "outputs": [
        {
          "internalType": "address",
          "name": "",
          "type": "address"
        }
      ],
      "stateMutability": "view",
      "type": "function"
    },
    {
      "inputs": [
        {
          "internalType": "address",
          "name": "_from",
          "type": "address"
        },
        {
          "internalType": "address",
          "name": "_to",
          "type": "address"
        },
        {
          "internalType": "uint256",
          "name": "_tokenId",
          "type": "uint256"
        },
        {
          "internalType": "bytes",
          "name": "_data",
          "type": "bytes"
        }
      ],
      "name": "safeTransferFrom",
      "outputs": [],
      "stateMutability": "nonpayable",
      "type": "function"
    },
    {
      "inputs": [
        {
          "internalType": "address",
          "name": "_from",
          "type": "address"
        },
        {
          "internalType": "address",
          "name": "_to",
          "type": "address"
        },
        {
          "internalType": "uint256",
          "name": "_tokenId",
          "type": "uint256"
        },
        {
          "internalType": "uint256",
          "name": "_value",
          "type": "uint256"
        },
        {
          "internalType": "bytes",
          "name": "_data",
          "type": "bytes"
        }
      ],
      "name": "safeTransferFrom",
      "outputs": [],
      "stateMutability": "nonpayable",
      "type": "function"
    },
    {
      "inputs": [
        {
          "internalType": "address",
          "name": "_from",
          "type": "address"
        },
        {
          "internalType": "address",
          "name": "_to",
          "type": "address"
        },
        {
          "internalType": "uint256",
          "name": "_tokenId",
          "type": "uint256"
        }
      ],
      "name": "safeTransferFrom",
      "outputs": [],
      "stateMutability": "nonpayable",
      "type": "function"
    },
    {
      "inputs": [
        {
          "internalType": "address",
          "name": "_from",
          "type": "address"
        },
        {
          "internalType": "address",
          "name": "_to",
          "type": "address"
        },
        {
          "internalType": "uint256",
          "name": "_tokenId",
          "type": "uint256"
        }
      ],
      "name": "transferFrom",
      "outputs": [],
      "stateMutability": "nonpayable",
      "type": "function"
    },
    {
      "inputs": [
        {
          "internalType": "address",
          "name": "_to",
          "type": "address"
        },
        {
          "internalType": "uint256",
          "name": "_tokenId",
          "type": "uint256"
        }
      ],
      "name": "approve",
      "outputs": [],
      "stateMutability": "nonpayable",
      "type": "function"
    },
    {
      "inputs": [
        {
          "internalType": "uint256",
          "name": "_tokenId",
          "type": "uint256"
        }
      ],
      "name": "getApproved",
      "outputs": [
        {
          "internalType": "address",
          "name": "",
          "type": "address"
        }
      ],
      "stateMutability": "view",
      "type": "function"
    },
    {
      "inputs": [
        {
          "internalType": "address",
          "name": "_from",
          "type": "address"
        },
        {
          "internalType": "address",
          "name": "_to",
          "type": "address"
        },
        {
          "internalType": "uint256[]",
          "name": "_tokenIds",
          "type": "uint256[]"
        },
        {
          "internalType": "uint256[]",
          "name": "_values",
          "type": "uint256[]"
        },
        {
          "internalType": "bytes",
          "name": "_data",
          "type": "bytes"
        }
      ],
      "name": "safeBatchTransferFrom",
      "outputs": [],
      "stateMutability": "nonpayable",
      "type": "function"
    },
    {
      "inputs": [
        {
          "internalType": "address",
          "name": "_account",
          "type": "address"
        },
        {
          "internalType": "uint256",
          "name": "_tokenId",
          "type": "uint256"
        }
      ],
      "name": "balanceOf",
      "outputs": [
        {
          "internalType": "uint256",
          "name": "",
          "type": "uint256"
        }
      ],
      "stateMutability": "view",
      "type": "function"
    },
    {
      "inputs": [
        {
          "internalType": "address",
          "name": "_owner",
          "type": "address"
        }
      ],
      "name": "balanceOf",
      "outputs": [
        {
          "internalType": "uint256",
          "name": "",
          "type": "uint256"
        }
      ],
      "stateMutability": "view",
      "type": "function"
    },
    {
      "inputs": [
        {
          "internalType": "uint256",
          "name": "_tokenId",
          "type": "uint256"
        }
      ],
      "name": "ownerOf",
      "outputs": [
        {
          "internalType": "address",
          "name": "",
          "type": "address"
        }
      ],
      "stateMutability": "view",
      "type": "function"
    },
    {
      "inputs": [
        {
          "internalType": "address[]",
          "name": "_accounts",
          "type": "address[]"
        },
        {
          "internalType": "uint256[]",
          "name": "_tokenIds",
          "type": "uint256[]"
        }
      ],
      "name": "balanceOfBatch",
      "outputs": [
        {
          "internalType": "uint256[]",
          "name": "",
          "type": "uint256[]"
        }
      ],
      "stateMutability": "view",
      "type": "function"
    },
    {
      "inputs": [
        {
          "internalType": "address",
          "name": "_operator",
          "type": "address"
        },
        {
          "internalType": "bool",
          "name": "_approve",
          "type": "bool"
        }
      ],
      "name": "setApprovalForAll",
      "outputs": [],
      "stateMutability": "nonpayable",
      "type": "function"
    },
    {
      "inputs": [
        {
          "internalType": "address",
          "name": "_account",
          "type": "address"
        },
        {
          "internalType": "address",
          "name": "_operator",
          "type": "address"
        }
      ],
      "name": "isApprovedForAll",
      "outputs": [
        {
          "internalType": "bool",
          "name": "",
          "type": "bool"
        }
      ],
      "stateMutability": "view",
      "type": "function"
    },
    {
      "inputs": [
        {
          "internalType": "bytes4",
          "name": "_interfaceId",
          "type": "bytes4"
        }
      ],
      "name": "supportsInterface",
      "outputs": [
        {
          "internalType": "bool",
          "name": "",
          "type": "bool"
        }
      ],
      "stateMutability": "view",
      "type": "function"
    },
    {
      "inputs": [
        {
          "internalType": "address",
          "name": "to",
          "type": "address"
        },
        {
          "internalType": "uint256",
          "name": "tokenId",
          "type": "uint256"
        }
      ],
      "name": "mint",
      "outputs": [
        {
          "internalType": "bool",
          "name": "",
          "type": "bool"
        }
      ],
      "stateMutability": "nonpayable",
      "type": "function"
    },
    {
      "inputs": [
        {
          "internalType": "address",
          "name": "_to",
          "type": "address"
        },
        {
          "internalType": "uint256",
          "name": "_tokenId",
          "type": "uint256"
        },
        {
          "internalType": "uint256",
          "name": "_value",
          "type": "uint256"
        },
        {
          "internalType": "bytes",
          "name": "_data",
          "type": "bytes"
        }
      ],
      "name": "mint",
      "outputs": [],
      "stateMutability": "nonpayable",
      "type": "function"
    },
    {
      "inputs": [
        {
          "internalType": "address",
          "name": "_to",
          "type": "address"
        },
        {
          "internalType": "uint256[]",
          "name": "_tokenIds",
          "type": "uint256[]"
        },
        {
          "internalType": "uint256[]",
          "name": "_values",
          "type": "uint256[]"
        },
        {
          "internalType": "bytes",
          "name": "_data",
          "type": "bytes"
        }
      ],
      "name": "mintBatch",
      "outputs": [],
      "stateMutability": "nonpayable",
      "type": "function"
    },
    {
      "inputs": [
        {
          "internalType": "address",
          "name": "_account",
          "type": "address"
        },
        {
          "internalType": "uint256",
          "name": "_tokenId",
          "type": "uint256"
        },
        {
          "internalType": "uint256",
          "name": "_value",
          "type": "uint256"
        }
      ],
      "name": "burn",
      "outputs": [],
      "stateMutability": "nonpayable",
      "type": "function"
    },
    {
      "inputs": [
        {
          "internalType": "address",
          "name": "_account",
          "type": "address"
        },
        {
          "internalType": "uint256[]",
          "name": "_tokenIds",
          "type": "uint256[]"
        },
        {
          "internalType": "uint256[]",
          "name": "_values",
          "type": "uint256[]"
        }
      ],
      "name": "burnBatch",
      "outputs": [],
      "stateMutability": "nonpayable",
      "type": "function"
    },
    {
      "inputs": [
        {
          "internalType": "string",
          "name": "_newBase",
          "type": "string"
        }
      ],
      "name": "_setMetadataBase",
      "outputs": [],
      "stateMutability": "nonpayable",
      "type": "function"
    },
    {
      "inputs": [
        {
          "internalType": "uint256",
          "name": "_tokenId",
          "type": "uint256"
        }
      ],
      "name": "uri",
      "outputs": [
        {
          "internalType": "string",
          "name": "",
          "type": "string"
        }
      ],
      "stateMutability": "view",
      "type": "function"
    },
    {
      "inputs": [],
      "name": "name",
      "outputs": [
        {
          "internalType": "string",
          "name": "_name",
          "type": "string"
        }
      ],
      "stateMutability": "pure",
      "type": "function"
    },
    {
      "inputs": [],
      "name": "symbol",
      "outputs": [
        {
          "internalType": "string",
          "name": "_symbol",
          "type": "string"
        }
      ],
      "stateMutability": "pure",
      "type": "function"
    },
    {
      "inputs": [
        {
          "internalType": "uint256",
          "name": "_tokenId",
          "type": "uint256"
        }
      ],
      "name": "tokenURI",
      "outputs": [
        {
          "internalType": "string",
          "name": "",
          "type": "string"
        }
      ],
      "stateMutability": "view",
      "type": "function"
    },
    {
      "inputs": [
        {
          "internalType": "address",
          "name": "_voucherKernelAddress",
          "type": "address"
        }
      ],
      "name": "setVoucherKernelAddress",
      "outputs": [],
      "stateMutability": "nonpayable",
      "type": "function"
    }
  ],
  "bytecode": "0x608060405234801561001057600080fd5b50336000806101000a81548173ffffffffffffffffffffffffffffffffffffffff021916908373ffffffffffffffffffffffffffffffffffffffff1602179055506152b5806100606000396000f3fe608060405234801561001057600080fd5b50600436106101a85760003560e01c80634e1273f4116100f9578063a22cb46511610097578063d95be43a11610071578063d95be43a14611114578063e985e9c514611158578063f242432a146111d4578063f5298aca146112a1576101a8565b8063a22cb46514610f18578063b88d4fde14610f68578063c87b56dd1461106d576101a8565b806370a08231116100d357806370a0823114610d04578063731133e914610d5c5780638da5cb5b14610e4b57806395d89b4114610e95576101a8565b80634e1273f414610a075780636352211e14610b2a5780636b20c45414610b98576101a8565b80631f7fdffa1161016657806335649a831161014057806335649a831461082e57806338b6db2e1461087857806340c10f191461093357806342842e0e14610999576101a8565b80631f7fdffa1461045a57806323b872dd1461065d5780632eb2c2d6146106cb576101a8565b8062fdd58e146101ad57806301ffc9a71461020f57806306fdde0314610274578063081812fc146102f7578063095ea7b3146103655780630e89341c146103b3575b600080fd5b6101f9600480360360408110156101c357600080fd5b81019080803573ffffffffffffffffffffffffffffffffffffffff169060200190929190803590602001909291905050506112f9565b6040518082815260200191505060405180910390f35b61025a6004803603602081101561022557600080fd5b8101908080357bffffffffffffffffffffffffffffffffffffffffffffffffffffffff19169060200190929190505050611354565b604051808215151515815260200191505060405180910390f35b61027c611446565b6040518080602001828103825283818151815260200191508051906020019080838360005b838110156102bc5780820151818401526020810190506102a1565b50505050905090810190601f1680156102e95780820380516001836020036101000a031916815260200191505b509250505060405180910390f35b6103236004803603602081101561030d57600080fd5b8101908080359060200190929190505050611483565b604051808273ffffffffffffffffffffffffffffffffffffffff1673ffffffffffffffffffffffffffffffffffffffff16815260200191505060405180910390f35b6103b16004803603604081101561037b57600080fd5b81019080803573ffffffffffffffffffffffffffffffffffffffff16906020019092919080359060200190929190505050611578565b005b6103df600480360360208110156103c957600080fd5b810190808035906020019092919050505061180b565b6040518080602001828103825283818151815260200191508051906020019080838360005b8381101561041f578082015181840152602081019050610404565b50505050905090810190601f16801561044c5780820380516001836020036101000a031916815260200191505b509250505060405180910390f35b61065b6004803603608081101561047057600080fd5b81019080803573ffffffffffffffffffffffffffffffffffffffff169060200190929190803590602001906401000000008111156104ad57600080fd5b8201836020820111156104bf57600080fd5b803590602001918460208302840111640100000000831117156104e157600080fd5b919080806020026020016040519081016040528093929190818152602001838360200280828437600081840152601f19601f8201169050808301925050505050505091929192908035906020019064010000000081111561054157600080fd5b82018360208201111561055357600080fd5b8035906020019184602083028401116401000000008311171561057557600080fd5b919080806020026020016040519081016040528093929190818152602001838360200280828437600081840152601f19601f820116905080830192505050505050509192919290803590602001906401000000008111156105d557600080fd5b8201836020820111156105e757600080fd5b8035906020019184600183028401116401000000008311171561060957600080fd5b91908080601f016020809104026020016040519081016040528093929190818152602001838380828437600081840152601f19601f82011690508083019250505050505050919291929050505061190b565b005b6106c96004803603606081101561067357600080fd5b81019080803573ffffffffffffffffffffffffffffffffffffffff169060200190929190803573ffffffffffffffffffffffffffffffffffffffff16906020019092919080359060200190929190505050611aa5565b005b61082c600480360360a08110156106e157600080fd5b81019080803573ffffffffffffffffffffffffffffffffffffffff169060200190929190803573ffffffffffffffffffffffffffffffffffffffff1690602001909291908035906020019064010000000081111561073e57600080fd5b82018360208201111561075057600080fd5b8035906020019184602083028401116401000000008311171561077257600080fd5b90919293919293908035906020019064010000000081111561079357600080fd5b8201836020820111156107a557600080fd5b803590602001918460208302840111640100000000831117156107c757600080fd5b9091929391929390803590602001906401000000008111156107e857600080fd5b8201836020820111156107fa57600080fd5b8035906020019184600183028401116401000000008311171561081c57600080fd5b9091929391929390505050611bc7565b005b610836612199565b604051808273ffffffffffffffffffffffffffffffffffffffff1673ffffffffffffffffffffffffffffffffffffffff16815260200191505060405180910390f35b6109316004803603602081101561088e57600080fd5b81019080803590602001906401000000008111156108ab57600080fd5b8201836020820111156108bd57600080fd5b803590602001918460018302840111640100000000831117156108df57600080fd5b91908080601f016020809104026020016040519081016040528093929190818152602001838380828437600081840152601f19601f8201169050808301925050505050505091929192905050506121bf565b005b61097f6004803603604081101561094957600080fd5b81019080803573ffffffffffffffffffffffffffffffffffffffff1690602001909291908035906020019092919050505061229b565b604051808215151515815260200191505060405180910390f35b610a05600480360360608110156109af57600080fd5b81019080803573ffffffffffffffffffffffffffffffffffffffff169060200190929190803573ffffffffffffffffffffffffffffffffffffffff16906020019092919080359060200190929190505050612438565b005b610ad360048036036040811015610a1d57600080fd5b8101908080359060200190640100000000811115610a3a57600080fd5b820183602082011115610a4c57600080fd5b80359060200191846020830284011164010000000083111715610a6e57600080fd5b909192939192939080359060200190640100000000811115610a8f57600080fd5b820183602082011115610aa157600080fd5b80359060200191846020830284011164010000000083111715610ac357600080fd5b9091929391929390505050612458565b6040518080602001828103825283818151815260200191508051906020019060200280838360005b83811015610b16578082015181840152602081019050610afb565b505050509050019250505060405180910390f35b610b5660048036036020811015610b4057600080fd5b81019080803590602001909291905050506125ef565b604051808273ffffffffffffffffffffffffffffffffffffffff1673ffffffffffffffffffffffffffffffffffffffff16815260200191505060405180910390f35b610d0260048036036060811015610bae57600080fd5b81019080803573ffffffffffffffffffffffffffffffffffffffff16906020019092919080359060200190640100000000811115610beb57600080fd5b820183602082011115610bfd57600080fd5b80359060200191846020830284011164010000000083111715610c1f57600080fd5b919080806020026020016040519081016040528093929190818152602001838360200280828437600081840152601f19601f82011690508083019250505050505050919291929080359060200190640100000000811115610c7f57600080fd5b820183602082011115610c9157600080fd5b80359060200191846020830284011164010000000083111715610cb357600080fd5b919080806020026020016040519081016040528093929190818152602001838360200280828437600081840152601f19601f8201169050808301925050505050505091929192905050506126d4565b005b610d4660048036036020811015610d1a57600080fd5b81019080803573ffffffffffffffffffffffffffffffffffffffff16906020019092919050505061286c565b6040518082815260200191505060405180910390f35b610e4960048036036080811015610d7257600080fd5b81019080803573ffffffffffffffffffffffffffffffffffffffff169060200190929190803590602001909291908035906020019092919080359060200190640100000000811115610dc357600080fd5b820183602082011115610dd557600080fd5b80359060200191846001830284011164010000000083111715610df757600080fd5b91908080601f016020809104026020016040519081016040528093929190818152602001838380828437600081840152601f19601f820116905080830192505050505050509192919290505050612957565b005b610e53612af1565b604051808273ffffffffffffffffffffffffffffffffffffffff1673ffffffffffffffffffffffffffffffffffffffff16815260200191505060405180910390f35b610e9d612b16565b6040518080602001828103825283818151815260200191508051906020019080838360005b83811015610edd578082015181840152602081019050610ec2565b50505050905090810190601f168015610f0a5780820380516001836020036101000a031916815260200191505b509250505060405180910390f35b610f6660048036036040811015610f2e57600080fd5b81019080803573ffffffffffffffffffffffffffffffffffffffff169060200190929190803515159060200190929190505050612b53565b005b61106b60048036036080811015610f7e57600080fd5b81019080803573ffffffffffffffffffffffffffffffffffffffff169060200190929190803573ffffffffffffffffffffffffffffffffffffffff1690602001909291908035906020019092919080359060200190640100000000811115610fe557600080fd5b820183602082011115610ff757600080fd5b8035906020019184600183028401116401000000008311171561101957600080fd5b91908080601f016020809104026020016040519081016040528093929190818152602001838380828437600081840152601f19601f820116905080830192505050505050509192919290505050612cf6565b005b6110996004803603602081101561108357600080fd5b8101908080359060200190929190505050612f48565b6040518080602001828103825283818151815260200191508051906020019080838360005b838110156110d95780820151818401526020810190506110be565b50505050905090810190601f1680156111065780820380516001836020036101000a031916815260200191505b509250505060405180910390f35b6111566004803603602081101561112a57600080fd5b81019080803573ffffffffffffffffffffffffffffffffffffffff16906020019092919050505061311e565b005b6111ba6004803603604081101561116e57600080fd5b81019080803573ffffffffffffffffffffffffffffffffffffffff169060200190929190803573ffffffffffffffffffffffffffffffffffffffff16906020019092919050505061335e565b604051808215151515815260200191505060405180910390f35b61129f600480360360a08110156111ea57600080fd5b81019080803573ffffffffffffffffffffffffffffffffffffffff169060200190929190803573ffffffffffffffffffffffffffffffffffffffff16906020019092919080359060200190929190803590602001909291908035906020019064010000000081111561125b57600080fd5b82018360208201111561126d57600080fd5b8035906020019184600183028401116401000000008311171561128f57600080fd5b90919293919293905050506133f2565b005b6112f7600480360360608110156112b757600080fd5b81019080803573ffffffffffffffffffffffffffffffffffffffff169060200190929190803590602001909291908035906020019092919050505061381a565b005b60006002600083815260200190815260200160002060008473ffffffffffffffffffffffffffffffffffffffff1673ffffffffffffffffffffffffffffffffffffffff16815260200190815260200160002054905092915050565b60006301ffc9a760e01b827bffffffffffffffffffffffffffffffffffffffffffffffffffffffff191614806113af575063d9b67a2660e01b827bffffffffffffffffffffffffffffffffffffffffffffffffffffffff1916145b806113df57506380ac58cd60e01b827bffffffffffffffffffffffffffffffffffffffffffffffffffffffff1916145b8061140f5750635b5e139f60e01b827bffffffffffffffffffffffffffffffffffffffffffffffffffffffff1916145b8061143f5750630e89341c60e01b827bffffffffffffffffffffffffffffffffffffffffffffffffffffffff1916145b9050919050565b60606040518060400160405280601381526020017f426f736f6e20536d61727420566f756368657200000000000000000000000000815250905090565b60008073ffffffffffffffffffffffffffffffffffffffff166004600084815260200190815260200160002060009054906101000a900473ffffffffffffffffffffffffffffffffffffffff1673ffffffffffffffffffffffffffffffffffffffff16141561153d576040517f08c379a000000000000000000000000000000000000000000000000000000000815260040180806020018281038252602c815260200180615254602c913960400191505060405180910390fd5b6005600083815260200190815260200160002060009054906101000a900473ffffffffffffffffffffffffffffffffffffffff169050919050565b6000611583826125ef565b90508073ffffffffffffffffffffffffffffffffffffffff168373ffffffffffffffffffffffffffffffffffffffff161415611627576040517f08c379a000000000000000000000000000000000000000000000000000000000815260040180806020018281038252600e8152602001807f524544554e44414e545f43414c4c00000000000000000000000000000000000081525060200191505060405180910390fd5b8073ffffffffffffffffffffffffffffffffffffffff163373ffffffffffffffffffffffffffffffffffffffff1614806116e75750600660008273ffffffffffffffffffffffffffffffffffffffff1673ffffffffffffffffffffffffffffffffffffffff16815260200190815260200160002060003373ffffffffffffffffffffffffffffffffffffffff1673ffffffffffffffffffffffffffffffffffffffff16815260200190815260200160002060009054906101000a900460ff165b611759576040517f08c379a000000000000000000000000000000000000000000000000000000000815260040180806020018281038252600e8152602001807f554e415554484f52495a45445f4100000000000000000000000000000000000081525060200191505060405180910390fd5b826005600084815260200190815260200160002060006101000a81548173ffffffffffffffffffffffffffffffffffffffff021916908373ffffffffffffffffffffffffffffffffffffffff160217905550818373ffffffffffffffffffffffffffffffffffffffff168273ffffffffffffffffffffffffffffffffffffffff167f8c5be1e5ebec7d5bd14f71427d1e84f3dd0314c0f7b2291e5b200ac8c7c3b92560405160405180910390a4505050565b60606007611818836139b2565b60405160200180838054600181600116156101000203166002900480156118765780601f10611854576101008083540402835291820191611876565b820191906000526020600020905b815481529060010190602001808311611862575b505082805190602001908083835b602083106118a75780518252602082019150602081019050602083039250611884565b6001836020036101000a038019825116818451168082178552505050505050905001807f2e6a736f6e000000000000000000000000000000000000000000000000000000815250600501925050506040516020818303038152906040529050919050565b600073ffffffffffffffffffffffffffffffffffffffff16600160009054906101000a900473ffffffffffffffffffffffffffffffffffffffff1673ffffffffffffffffffffffffffffffffffffffff1614156119d0576040517f08c379a00000000000000000000000000000000000000000000000000000000081526004018080602001828103825260198152602001807f554e5350454349464945445f564f55434845524b45524e454c0000000000000081525060200191505060405180910390fd5b600160009054906101000a900473ffffffffffffffffffffffffffffffffffffffff1673ffffffffffffffffffffffffffffffffffffffff163373ffffffffffffffffffffffffffffffffffffffff1614611a93576040517f08c379a000000000000000000000000000000000000000000000000000000000815260040180806020018281038252600f8152602001807f554e415554484f52495a45445f564b000000000000000000000000000000000081525060200191505060405180910390fd5b611a9f84848484613af6565b50505050565b3373ffffffffffffffffffffffffffffffffffffffff166005600083815260200190815260200160002060009054906101000a900473ffffffffffffffffffffffffffffffffffffffff1673ffffffffffffffffffffffffffffffffffffffff161480611b4557503373ffffffffffffffffffffffffffffffffffffffff16611b2d826125ef565b73ffffffffffffffffffffffffffffffffffffffff16145b611bb7576040517f08c379a00000000000000000000000000000000000000000000000000000000081526004018080602001828103825260168152602001807f4e4f545f4f574e45525f4e4f525f415050524f5645440000000000000000000081525060200191505060405180910390fd5b611bc2838383613e39565b505050565b600073ffffffffffffffffffffffffffffffffffffffff168773ffffffffffffffffffffffffffffffffffffffff161415611c6a576040517f08c379a00000000000000000000000000000000000000000000000000000000081526004018080602001828103825260138152602001807f554e5350454349464945445f414444524553530000000000000000000000000081525060200191505060405180910390fd5b838390508686905014611ce5576040517f08c379a00000000000000000000000000000000000000000000000000000000081526004018080602001828103825260178152602001807f4d49534d4154434845445f41525241595f4c454e47545300000000000000000081525060200191505060405180910390fd5b3373ffffffffffffffffffffffffffffffffffffffff168873ffffffffffffffffffffffffffffffffffffffff161480611dac575060011515600660008a73ffffffffffffffffffffffffffffffffffffffff1673ffffffffffffffffffffffffffffffffffffffff16815260200190815260200160002060003373ffffffffffffffffffffffffffffffffffffffff1673ffffffffffffffffffffffffffffffffffffffff16815260200190815260200160002060009054906101000a900460ff161515145b611e1e576040517f08c379a000000000000000000000000000000000000000000000000000000000815260040180806020018281038252600f8152602001807f554e415554484f52495a45445f5342000000000000000000000000000000000081525060200191505060405180910390fd5b60008090505b86869050811015611fd8576000878783818110611e3d57fe5b9050602002013590506000868684818110611e5457fe5b905060200201359050611ec0816002600085815260200190815260200160002060008e73ffffffffffffffffffffffffffffffffffffffff1673ffffffffffffffffffffffffffffffffffffffff1681526020019081526020016000205461412990919063ffffffff16565b6002600084815260200190815260200160002060008d73ffffffffffffffffffffffffffffffffffffffff1673ffffffffffffffffffffffffffffffffffffffff16815260200190815260200160002081905550611f776002600084815260200190815260200160002060008c73ffffffffffffffffffffffffffffffffffffffff1673ffffffffffffffffffffffffffffffffffffffff168152602001908152602001600020548261417390919063ffffffff16565b6002600084815260200190815260200160002060008c73ffffffffffffffffffffffffffffffffffffffff1673ffffffffffffffffffffffffffffffffffffffff168152602001908152602001600020819055505050806001019050611e24565b508673ffffffffffffffffffffffffffffffffffffffff168873ffffffffffffffffffffffffffffffffffffffff163373ffffffffffffffffffffffffffffffffffffffff167f4a39dc06d4c0dbc64b70af90fd698a233a518aa5d07e595d983b8c0526c8f7fb898989896040518080602001806020018381038352878782818152602001925060200280828437600081840152601f19601f8201169050808301925050508381038252858582818152602001925060200280828437600081840152601f19601f820116905080830192505050965050505050505060405180910390a461218f338989898980806020026020016040519081016040528093929190818152602001838360200280828437600081840152601f19601f82011690508083019250505050505050888880806020026020016040519081016040528093929190818152602001838360200280828437600081840152601f19601f8201169050808301925050505050505087878080601f016020809104026020016040519081016040528093929190818152602001838380828437600081840152601f19601f820116905080830192505050505050506141fb565b5050505050505050565b600160009054906101000a900473ffffffffffffffffffffffffffffffffffffffff1681565b6000809054906101000a900473ffffffffffffffffffffffffffffffffffffffff1673ffffffffffffffffffffffffffffffffffffffff163373ffffffffffffffffffffffffffffffffffffffff1614612281576040517f08c379a000000000000000000000000000000000000000000000000000000000815260040180806020018281038252600e8152602001807f554e415554484f52495a45445f4f00000000000000000000000000000000000081525060200191505060405180910390fd5b80600790805190602001906122979291906151ae565b5050565b60008073ffffffffffffffffffffffffffffffffffffffff16600160009054906101000a900473ffffffffffffffffffffffffffffffffffffffff1673ffffffffffffffffffffffffffffffffffffffff161415612361576040517f08c379a00000000000000000000000000000000000000000000000000000000081526004018080602001828103825260198152602001807f554e5350454349464945445f564f55434845524b45524e454c0000000000000081525060200191505060405180910390fd5b600160009054906101000a900473ffffffffffffffffffffffffffffffffffffffff1673ffffffffffffffffffffffffffffffffffffffff163373ffffffffffffffffffffffffffffffffffffffff1614612424576040517f08c379a000000000000000000000000000000000000000000000000000000000815260040180806020018281038252600f8152602001807f554e415554484f52495a45445f564b000000000000000000000000000000000081525060200191505060405180910390fd5b61242e83836144ce565b6001905092915050565b61245383838360405180602001604052806000815250612cf6565b505050565b60608282905085859050146124d5576040517f08c379a00000000000000000000000000000000000000000000000000000000081526004018080602001828103825260178152602001807f4d49534d4154434845445f41525241595f4c454e47545300000000000000000081525060200191505060405180910390fd5b60608585905067ffffffffffffffff811180156124f157600080fd5b506040519080825280602002602001820160405280156125205781602001602082028036833780820191505090505b50905060008090505b868690508110156125e2576002600086868481811061254457fe5b905060200201358152602001908152602001600020600088888481811061256757fe5b9050602002013573ffffffffffffffffffffffffffffffffffffffff1673ffffffffffffffffffffffffffffffffffffffff1673ffffffffffffffffffffffffffffffffffffffff168152602001908152602001600020548282815181106125cb57fe5b602002602001018181525050806001019050612529565b5080915050949350505050565b6000806004600084815260200190815260200160002060009054906101000a900473ffffffffffffffffffffffffffffffffffffffff169050600073ffffffffffffffffffffffffffffffffffffffff168173ffffffffffffffffffffffffffffffffffffffff1614156126cb576040517f08c379a000000000000000000000000000000000000000000000000000000000815260040180806020018281038252600f8152602001807f554e444546494e45445f4f574e4552000000000000000000000000000000000081525060200191505060405180910390fd5b80915050919050565b600073ffffffffffffffffffffffffffffffffffffffff16600160009054906101000a900473ffffffffffffffffffffffffffffffffffffffff1673ffffffffffffffffffffffffffffffffffffffff161415612799576040517f08c379a00000000000000000000000000000000000000000000000000000000081526004018080602001828103825260198152602001807f554e5350454349464945445f564f55434845524b45524e454c0000000000000081525060200191505060405180910390fd5b600160009054906101000a900473ffffffffffffffffffffffffffffffffffffffff1673ffffffffffffffffffffffffffffffffffffffff163373ffffffffffffffffffffffffffffffffffffffff161461285c576040517f08c379a000000000000000000000000000000000000000000000000000000000815260040180806020018281038252600f8152602001807f554e415554484f52495a45445f564b000000000000000000000000000000000081525060200191505060405180910390fd5b612867838383614747565b505050565b60008073ffffffffffffffffffffffffffffffffffffffff168273ffffffffffffffffffffffffffffffffffffffff161415612910576040517f08c379a00000000000000000000000000000000000000000000000000000000081526004018080602001828103825260138152602001807f554e5350454349464945445f414444524553530000000000000000000000000081525060200191505060405180910390fd5b600360008373ffffffffffffffffffffffffffffffffffffffff1673ffffffffffffffffffffffffffffffffffffffff168152602001908152602001600020549050919050565b600073ffffffffffffffffffffffffffffffffffffffff16600160009054906101000a900473ffffffffffffffffffffffffffffffffffffffff1673ffffffffffffffffffffffffffffffffffffffff161415612a1c576040517f08c379a00000000000000000000000000000000000000000000000000000000081526004018080602001828103825260198152602001807f554e5350454349464945445f564f55434845524b45524e454c0000000000000081525060200191505060405180910390fd5b600160009054906101000a900473ffffffffffffffffffffffffffffffffffffffff1673ffffffffffffffffffffffffffffffffffffffff163373ffffffffffffffffffffffffffffffffffffffff1614612adf576040517f08c379a000000000000000000000000000000000000000000000000000000000815260040180806020018281038252600f8152602001807f554e415554484f52495a45445f564b000000000000000000000000000000000081525060200191505060405180910390fd5b612aeb84848484614a7a565b50505050565b6000809054906101000a900473ffffffffffffffffffffffffffffffffffffffff1681565b60606040518060400160405280600381526020017f4253560000000000000000000000000000000000000000000000000000000000815250905090565b8173ffffffffffffffffffffffffffffffffffffffff163373ffffffffffffffffffffffffffffffffffffffff161415612bf5576040517f08c379a000000000000000000000000000000000000000000000000000000000815260040180806020018281038252600e8152602001807f524544554e44414e545f43414c4c00000000000000000000000000000000000081525060200191505060405180910390fd5b80600660003373ffffffffffffffffffffffffffffffffffffffff1673ffffffffffffffffffffffffffffffffffffffff16815260200190815260200160002060008473ffffffffffffffffffffffffffffffffffffffff1673ffffffffffffffffffffffffffffffffffffffff16815260200190815260200160002060006101000a81548160ff0219169083151502179055508173ffffffffffffffffffffffffffffffffffffffff163373ffffffffffffffffffffffffffffffffffffffff167f17307eab39ab6107e8899845ad3d59bd9653f200f220920489ca2b5937696c3183604051808215151515815260200191505060405180910390a35050565b612d01848484611aa5565b612d208373ffffffffffffffffffffffffffffffffffffffff16614c6e565b15612f425763150b7a0260e01b7bffffffffffffffffffffffffffffffffffffffffffffffffffffffff19168373ffffffffffffffffffffffffffffffffffffffff1663150b7a02868686866040518563ffffffff1660e01b8152600401808573ffffffffffffffffffffffffffffffffffffffff1673ffffffffffffffffffffffffffffffffffffffff1681526020018473ffffffffffffffffffffffffffffffffffffffff1673ffffffffffffffffffffffffffffffffffffffff16815260200183815260200180602001828103825283818151815260200191508051906020019080838360005b83811015612e25578082015181840152602081019050612e0a565b50505050905090810190601f168015612e525780820380516001836020036101000a031916815260200191505b5095505050505050602060405180830381600087803b158015612e7457600080fd5b505af1158015612e88573d6000803e3d6000fd5b505050506040513d6020811015612e9e57600080fd5b81019080805190602001909291905050507bffffffffffffffffffffffffffffffffffffffffffffffffffffffff191614612f41576040517f08c379a000000000000000000000000000000000000000000000000000000000815260040180806020018281038252601b8152602001807f554e535550504f525445445f4552433732315f5245434549564544000000000081525060200191505060405180910390fd5b5b50505050565b6060600073ffffffffffffffffffffffffffffffffffffffff166004600084815260200190815260200160002060009054906101000a900473ffffffffffffffffffffffffffffffffffffffff1673ffffffffffffffffffffffffffffffffffffffff161415613020576040517f08c379a000000000000000000000000000000000000000000000000000000000815260040180806020018281038252600a8152602001807f494e56414c49445f49440000000000000000000000000000000000000000000081525060200191505060405180910390fd5b600761302b836139b2565b60405160200180838054600181600116156101000203166002900480156130895780601f10613067576101008083540402835291820191613089565b820191906000526020600020905b815481529060010190602001808311613075575b505082805190602001908083835b602083106130ba5780518252602082019150602081019050602083039250613097565b6001836020036101000a038019825116818451168082178552505050505050905001807f2e6a736f6e000000000000000000000000000000000000000000000000000000815250600501925050506040516020818303038152906040529050919050565b6000809054906101000a900473ffffffffffffffffffffffffffffffffffffffff1673ffffffffffffffffffffffffffffffffffffffff163373ffffffffffffffffffffffffffffffffffffffff16146131e0576040517f08c379a000000000000000000000000000000000000000000000000000000000815260040180806020018281038252600e8152602001807f554e415554484f52495a45445f4f00000000000000000000000000000000000081525060200191505060405180910390fd5b600073ffffffffffffffffffffffffffffffffffffffff168173ffffffffffffffffffffffffffffffffffffffff161415613283576040517f08c379a00000000000000000000000000000000000000000000000000000000081526004018080602001828103825260138152602001807f554e5350454349464945445f414444524553530000000000000000000000000081525060200191505060405180910390fd5b80600160006101000a81548173ffffffffffffffffffffffffffffffffffffffff021916908373ffffffffffffffffffffffffffffffffffffffff1602179055507f94d4208cb05337821fef5da6205084b70818af988524d8a2609a53a1ac1033d18133604051808373ffffffffffffffffffffffffffffffffffffffff1673ffffffffffffffffffffffffffffffffffffffff1681526020018273ffffffffffffffffffffffffffffffffffffffff1673ffffffffffffffffffffffffffffffffffffffff1681526020019250505060405180910390a150565b6000600660008473ffffffffffffffffffffffffffffffffffffffff1673ffffffffffffffffffffffffffffffffffffffff16815260200190815260200160002060008373ffffffffffffffffffffffffffffffffffffffff1673ffffffffffffffffffffffffffffffffffffffff16815260200190815260200160002060009054906101000a900460ff16905092915050565b600073ffffffffffffffffffffffffffffffffffffffff168573ffffffffffffffffffffffffffffffffffffffff161415613495576040517f08c379a00000000000000000000000000000000000000000000000000000000081526004018080602001828103825260138152602001807f554e5350454349464945445f414444524553530000000000000000000000000081525060200191505060405180910390fd5b3373ffffffffffffffffffffffffffffffffffffffff168673ffffffffffffffffffffffffffffffffffffffff16148061355c575060011515600660008873ffffffffffffffffffffffffffffffffffffffff1673ffffffffffffffffffffffffffffffffffffffff16815260200190815260200160002060003373ffffffffffffffffffffffffffffffffffffffff1673ffffffffffffffffffffffffffffffffffffffff16815260200190815260200160002060009054906101000a900460ff161515145b6135ce576040517f08c379a000000000000000000000000000000000000000000000000000000000815260040180806020018281038252600f8152602001807f554e415554484f52495a45445f5354000000000000000000000000000000000081525060200191505060405180910390fd5b613631836002600087815260200190815260200160002060008973ffffffffffffffffffffffffffffffffffffffff1673ffffffffffffffffffffffffffffffffffffffff1681526020019081526020016000205461412990919063ffffffff16565b6002600086815260200190815260200160002060008873ffffffffffffffffffffffffffffffffffffffff1673ffffffffffffffffffffffffffffffffffffffff168152602001908152602001600020819055506136e86002600086815260200190815260200160002060008773ffffffffffffffffffffffffffffffffffffffff1673ffffffffffffffffffffffffffffffffffffffff168152602001908152602001600020548461417390919063ffffffff16565b6002600086815260200190815260200160002060008773ffffffffffffffffffffffffffffffffffffffff1673ffffffffffffffffffffffffffffffffffffffff168152602001908152602001600020819055508473ffffffffffffffffffffffffffffffffffffffff168673ffffffffffffffffffffffffffffffffffffffff163373ffffffffffffffffffffffffffffffffffffffff167fc3d58168c5ae7397731d063d5bbf3d657854427343f4c083240f7aacaa2d0f628787604051808381526020018281526020019250505060405180910390a4613812338787878787878080601f016020809104026020016040519081016040528093929190818152602001838380828437600081840152601f19601f82011690508083019250505050505050614cb9565b505050505050565b600073ffffffffffffffffffffffffffffffffffffffff16600160009054906101000a900473ffffffffffffffffffffffffffffffffffffffff1673ffffffffffffffffffffffffffffffffffffffff1614156138df576040517f08c379a00000000000000000000000000000000000000000000000000000000081526004018080602001828103825260198152602001807f554e5350454349464945445f564f55434845524b45524e454c0000000000000081525060200191505060405180910390fd5b600160009054906101000a900473ffffffffffffffffffffffffffffffffffffffff1673ffffffffffffffffffffffffffffffffffffffff163373ffffffffffffffffffffffffffffffffffffffff16146139a2576040517f08c379a000000000000000000000000000000000000000000000000000000000815260040180806020018281038252600f8152602001807f554e415554484f52495a45445f564b000000000000000000000000000000000081525060200191505060405180910390fd5b6139ad838383614f0a565b505050565b606060008214156139fa576040518060400160405280600181526020017f30000000000000000000000000000000000000000000000000000000000000008152509050613af1565b600082905060005b60008214613a24578080600101915050600a8281613a1c57fe5b049150613a02565b60608167ffffffffffffffff81118015613a3d57600080fd5b506040519080825280601f01601f191660200182016040528015613a705781602001600182028036833780820191505090505b50905060006001830390505b60008614613ae957600a8681613a8e57fe5b0660300160f81b82828060019003935081518110613aa857fe5b60200101907effffffffffffffffffffffffffffffffffffffffffffffffffffffffffffff1916908160001a905350600a8681613ae157fe5b049550613a7c565b819450505050505b919050565b600073ffffffffffffffffffffffffffffffffffffffff168473ffffffffffffffffffffffffffffffffffffffff161415613b99576040517f08c379a00000000000000000000000000000000000000000000000000000000081526004018080602001828103825260138152602001807f554e5350454349464945445f414444524553530000000000000000000000000081525060200191505060405180910390fd5b8151835114613c10576040517f08c379a00000000000000000000000000000000000000000000000000000000081526004018080602001828103825260178152602001807f4d49534d4154434845445f41525241595f4c454e47545300000000000000000081525060200191505060405180910390fd5b60008090505b8351811015613d1c57613ca860026000868481518110613c3257fe5b6020026020010151815260200190815260200160002060008773ffffffffffffffffffffffffffffffffffffffff1673ffffffffffffffffffffffffffffffffffffffff16815260200190815260200160002054848381518110613c9257fe5b602002602001015161417390919063ffffffff16565b60026000868481518110613cb857fe5b6020026020010151815260200190815260200160002060008773ffffffffffffffffffffffffffffffffffffffff1673ffffffffffffffffffffffffffffffffffffffff168152602001908152602001600020819055508080600101915050613c16565b508373ffffffffffffffffffffffffffffffffffffffff16600073ffffffffffffffffffffffffffffffffffffffff163373ffffffffffffffffffffffffffffffffffffffff167f4a39dc06d4c0dbc64b70af90fd698a233a518aa5d07e595d983b8c0526c8f7fb8686604051808060200180602001838103835285818151815260200191508051906020019060200280838360005b83811015613dcd578082015181840152602081019050613db2565b50505050905001838103825284818151815260200191508051906020019060200280838360005b83811015613e0f578082015181840152602081019050613df4565b5050505090500194505050505060405180910390a4613e33336000868686866141fb565b50505050565b8273ffffffffffffffffffffffffffffffffffffffff16613e59826125ef565b73ffffffffffffffffffffffffffffffffffffffff1614613ee2576040517f08c379a000000000000000000000000000000000000000000000000000000000815260040180806020018281038252600e8152602001807f554e415554484f52495a45445f5400000000000000000000000000000000000081525060200191505060405180910390fd5b600073ffffffffffffffffffffffffffffffffffffffff168273ffffffffffffffffffffffffffffffffffffffff161415613f85576040517f08c379a00000000000000000000000000000000000000000000000000000000081526004018080602001828103825260138152602001807f554e5350454349464945445f414444524553530000000000000000000000000081525060200191505060405180910390fd5b60006005600083815260200190815260200160002060006101000a81548173ffffffffffffffffffffffffffffffffffffffff021916908373ffffffffffffffffffffffffffffffffffffffff160217905550600360008473ffffffffffffffffffffffffffffffffffffffff1673ffffffffffffffffffffffffffffffffffffffff1681526020019081526020016000206000815480929190600190039190505550600360008373ffffffffffffffffffffffffffffffffffffffff1673ffffffffffffffffffffffffffffffffffffffff16815260200190815260200160002060008154809291906001019190505550816004600083815260200190815260200160002060006101000a81548173ffffffffffffffffffffffffffffffffffffffff021916908373ffffffffffffffffffffffffffffffffffffffff160217905550808273ffffffffffffffffffffffffffffffffffffffff168473ffffffffffffffffffffffffffffffffffffffff167fddf252ad1be2c89b69c2b068fc378daa952ba7f163c4a11628f55a4df523b3ef60405160405180910390a4505050565b600061416b83836040518060400160405280601e81526020017f536166654d6174683a207375627472616374696f6e206f766572666c6f7700008152506150ee565b905092915050565b6000808284019050838110156141f1576040517f08c379a000000000000000000000000000000000000000000000000000000000815260040180806020018281038252601b8152602001807f536166654d6174683a206164646974696f6e206f766572666c6f77000000000081525060200191505060405180910390fd5b8091505092915050565b61421a8473ffffffffffffffffffffffffffffffffffffffff16614c6e565b156144c65763bc197c8160e01b7bffffffffffffffffffffffffffffffffffffffffffffffffffffffff19168473ffffffffffffffffffffffffffffffffffffffff1663bc197c8188888787876040518663ffffffff1660e01b8152600401808673ffffffffffffffffffffffffffffffffffffffff1673ffffffffffffffffffffffffffffffffffffffff1681526020018573ffffffffffffffffffffffffffffffffffffffff1673ffffffffffffffffffffffffffffffffffffffff168152602001806020018060200180602001848103845287818151815260200191508051906020019060200280838360005b8381101561432557808201518184015260208101905061430a565b50505050905001848103835286818151815260200191508051906020019060200280838360005b8381101561436757808201518184015260208101905061434c565b50505050905001848103825285818151815260200191508051906020019080838360005b838110156143a657808201518184015260208101905061438b565b50505050905090810190601f1680156143d35780820380516001836020036101000a031916815260200191505b5098505050505050505050602060405180830381600087803b1580156143f857600080fd5b505af115801561440c573d6000803e3d6000fd5b505050506040513d602081101561442257600080fd5b81019080805190602001909291905050507bffffffffffffffffffffffffffffffffffffffffffffffffffffffff1916146144c5576040517f08c379a000000000000000000000000000000000000000000000000000000000815260040180806020018281038252600d8152602001807f4e4f545f535550504f525445440000000000000000000000000000000000000081525060200191505060405180910390fd5b5b505050505050565b600073ffffffffffffffffffffffffffffffffffffffff168273ffffffffffffffffffffffffffffffffffffffff161415614571576040517f08c379a00000000000000000000000000000000000000000000000000000000081526004018080602001828103825260138152602001807f554e5350454349464945445f414444524553530000000000000000000000000081525060200191505060405180910390fd5b600073ffffffffffffffffffffffffffffffffffffffff166004600083815260200190815260200160002060009054906101000a900473ffffffffffffffffffffffffffffffffffffffff1673ffffffffffffffffffffffffffffffffffffffff1614614646576040517f08c379a000000000000000000000000000000000000000000000000000000000815260040180806020018281038252601c8152602001807f4552433732313a20746f6b656e20616c7265616479206d696e7465640000000081525060200191505060405180910390fd5b816004600083815260200190815260200160002060006101000a81548173ffffffffffffffffffffffffffffffffffffffff021916908373ffffffffffffffffffffffffffffffffffffffff160217905550600360008373ffffffffffffffffffffffffffffffffffffffff1673ffffffffffffffffffffffffffffffffffffffff16815260200190815260200160002060008154809291906001019190505550808273ffffffffffffffffffffffffffffffffffffffff16600073ffffffffffffffffffffffffffffffffffffffff167fddf252ad1be2c89b69c2b068fc378daa952ba7f163c4a11628f55a4df523b3ef60405160405180910390a45050565b600073ffffffffffffffffffffffffffffffffffffffff168373ffffffffffffffffffffffffffffffffffffffff1614156147ea576040517f08c379a00000000000000000000000000000000000000000000000000000000081526004018080602001828103825260138152602001807f554e5350454349464945445f414444524553530000000000000000000000000081525060200191505060405180910390fd5b8051825114614861576040517f08c379a00000000000000000000000000000000000000000000000000000000081526004018080602001828103825260178152602001807f4d49534d4154434845445f41525241595f4c454e47545300000000000000000081525060200191505060405180910390fd5b60008090505b825181101561496d576148f982828151811061487f57fe5b60200260200101516002600086858151811061489757fe5b6020026020010151815260200190815260200160002060008773ffffffffffffffffffffffffffffffffffffffff1673ffffffffffffffffffffffffffffffffffffffff1681526020019081526020016000205461412990919063ffffffff16565b6002600085848151811061490957fe5b6020026020010151815260200190815260200160002060008673ffffffffffffffffffffffffffffffffffffffff1673ffffffffffffffffffffffffffffffffffffffff168152602001908152602001600020819055508080600101915050614867565b50600073ffffffffffffffffffffffffffffffffffffffff168373ffffffffffffffffffffffffffffffffffffffff163373ffffffffffffffffffffffffffffffffffffffff167f4a39dc06d4c0dbc64b70af90fd698a233a518aa5d07e595d983b8c0526c8f7fb8585604051808060200180602001838103835285818151815260200191508051906020019060200280838360005b83811015614a1e578082015181840152602081019050614a03565b50505050905001838103825284818151815260200191508051906020019060200280838360005b83811015614a60578082015181840152602081019050614a45565b5050505090500194505050505060405180910390a4505050565b600073ffffffffffffffffffffffffffffffffffffffff168473ffffffffffffffffffffffffffffffffffffffff161415614b1d576040517f08c379a00000000000000000000000000000000000000000000000000000000081526004018080602001828103825260138152602001807f554e5350454349464945445f414444524553530000000000000000000000000081525060200191505060405180910390fd5b614b80826002600086815260200190815260200160002060008773ffffffffffffffffffffffffffffffffffffffff1673ffffffffffffffffffffffffffffffffffffffff1681526020019081526020016000205461417390919063ffffffff16565b6002600085815260200190815260200160002060008673ffffffffffffffffffffffffffffffffffffffff1673ffffffffffffffffffffffffffffffffffffffff168152602001908152602001600020819055508373ffffffffffffffffffffffffffffffffffffffff16600073ffffffffffffffffffffffffffffffffffffffff163373ffffffffffffffffffffffffffffffffffffffff167fc3d58168c5ae7397731d063d5bbf3d657854427343f4c083240f7aacaa2d0f628686604051808381526020018281526020019250505060405180910390a4614c6833600086868686614cb9565b50505050565b60008060007fc5d2460186f7233c927e7db2dcc703c0e500b653ca82273b7bfad8045d85a47060001b9050833f9150808214158015614cb057506000801b8214155b92505050919050565b614cd88473ffffffffffffffffffffffffffffffffffffffff16614c6e565b15614f025763f23a6e6160e01b7bffffffffffffffffffffffffffffffffffffffffffffffffffffffff19168473ffffffffffffffffffffffffffffffffffffffff1663f23a6e6188888787876040518663ffffffff1660e01b8152600401808673ffffffffffffffffffffffffffffffffffffffff1673ffffffffffffffffffffffffffffffffffffffff1681526020018573ffffffffffffffffffffffffffffffffffffffff1673ffffffffffffffffffffffffffffffffffffffff16815260200184815260200183815260200180602001828103825283818151815260200191508051906020019080838360005b83811015614de4578082015181840152602081019050614dc9565b50505050905090810190601f168015614e115780820380516001836020036101000a031916815260200191505b509650505050505050602060405180830381600087803b158015614e3457600080fd5b505af1158015614e48573d6000803e3d6000fd5b505050506040513d6020811015614e5e57600080fd5b81019080805190602001909291905050507bffffffffffffffffffffffffffffffffffffffffffffffffffffffff191614614f01576040517f08c379a000000000000000000000000000000000000000000000000000000000815260040180806020018281038252600d8152602001807f4e4f545f535550504f525445440000000000000000000000000000000000000081525060200191505060405180910390fd5b5b505050505050565b600073ffffffffffffffffffffffffffffffffffffffff168373ffffffffffffffffffffffffffffffffffffffff161415614fad576040517f08c379a00000000000000000000000000000000000000000000000000000000081526004018080602001828103825260138152602001807f554e5350454349464945445f414444524553530000000000000000000000000081525060200191505060405180910390fd5b615010816002600085815260200190815260200160002060008673ffffffffffffffffffffffffffffffffffffffff1673ffffffffffffffffffffffffffffffffffffffff1681526020019081526020016000205461412990919063ffffffff16565b6002600084815260200190815260200160002060008573ffffffffffffffffffffffffffffffffffffffff1673ffffffffffffffffffffffffffffffffffffffff16815260200190815260200160002081905550600073ffffffffffffffffffffffffffffffffffffffff168373ffffffffffffffffffffffffffffffffffffffff163373ffffffffffffffffffffffffffffffffffffffff167fc3d58168c5ae7397731d063d5bbf3d657854427343f4c083240f7aacaa2d0f628585604051808381526020018281526020019250505060405180910390a4505050565b600083831115829061519b576040517f08c379a00000000000000000000000000000000000000000000000000000000081526004018080602001828103825283818151815260200191508051906020019080838360005b83811015615160578082015181840152602081019050615145565b50505050905090810190601f16801561518d5780820380516001836020036101000a031916815260200191505b509250505060405180910390fd5b5060008385039050809150509392505050565b828054600181600116156101000203166002900490600052602060002090601f016020900481019282601f106151ef57805160ff191683800117855561521d565b8280016001018555821561521d579182015b8281111561521c578251825591602001919060010190615201565b5b50905061522a919061522e565b5090565b61525091905b8082111561524c576000816000905550600101615234565b5090565b9056fe4552433732313a20617070726f76656420717565727920666f72206e6f6e6578697374656e7420746f6b656ea26469706673582212207fc9e72382303e1cce9b58d647f1fa486f39db97e10ed64c57344a50ef6a102564736f6c63430006080033",
  "source": "// SPDX-License-Identifier: LGPL-3.0-or-later\n\npragma solidity >=0.6.2 <0.7.0;\n\nimport \"@openzeppelin/contracts/math/SafeMath.sol\";\nimport \"@openzeppelin/contracts/utils/Address.sol\";\n\nimport \"./IERC1155.sol\";\nimport \"./IERC1155TokenReceiver.sol\";\nimport \"./IERC721.sol\";\nimport \"./IERC721TokenReceiver.sol\";\n\n//preparing for ERC-1066, ERC-1444, EIP-838\n\n/**\n * @title Multi-token contract, implementing ERC-1155 and ERC-721 hybrid \n *  Inspired by: https://github.com/pixowl/sandbox-smart-contracts\n */\ncontract ERC1155ERC721 is IERC1155, IERC721 {    \n    using SafeMath for uint256;\n    using Address for address;\n    \n    //using Counters for Counters.Counter;\n    //Counters.Counter private voucherTokenId; //unique IDs for voucher tokens\n    \n    //min security\n    address public owner;           //contract owner\n    address public voucherKernelAddress;  //address of the VoucherKernel contract\n    \n    //standard reqs\n    //ERC-1155\n    mapping (uint256 => mapping(address => uint256)) private balances; //balance of token ids of an account\n    \n    //ERC-721\n    mapping(address => uint256) private balance721;\n    mapping(uint256 => address) private owners721;\n    mapping(uint256 => address) private operator721;\n    \n    //shared storage: ERC-1155 & ERC-721\n    mapping (address => mapping(address => bool)) private operatorApprovals; //approval of accounts of an operator\n    //metadata is shared, too (but ERC-1155 and ERC-721 have different metadata extension reqs)\n    string internal metadataBase;\n    \n    //ERC-1155 metadata event: URIs are defined in RFC 3986. The URI MUST point to a JSON file that conforms to the ERC-1155 Metadata URI JSON Schema.\n    //not used ATM\n    //event URI(string _value, uint256 indexed _id);\n\n    event LogVoucherKernelSet(\n        address _newVoucherKernel,\n        address _triggeredBy\n    );\n    \n    modifier onlyOwner() {\n        require(msg.sender == owner, \"UNAUTHORIZED_O\");   //hex\"10\" FISSION.code(FISSION.Category.Permission, FISSION.Status.Disallowed_Stop)\n        _;\n    }\n    \n    modifier onlyFromVoucherKernel() {\n        require(voucherKernelAddress != address(0), \"UNSPECIFIED_VOUCHERKERNEL\");  //hex\"20\" FISSION.code(FISSION.Category.Find, FISSION.Status.NotFound_Unequal_OutOfRange)\n        require(msg.sender == voucherKernelAddress, \"UNAUTHORIZED_VK\");   //hex\"10\" FISSION.code(FISSION.Category.Permission, FISSION.Status.Disallowed_Stop)\n        _;\n    }    \n\n    constructor(\n        //address _assetRegistry,\n    )\n        public \n    {\n        owner = msg.sender;\n        \n        //AssetRegistry is currently not used to simplify the process.\n        //assetRegistry = AssetRegistry(_assetRegistry);\n    }\n    \n\n    /**\n     * @notice Transfers amount of _tokenId from-to addresses with safety call.\n     * If _to is a smart contract, will call onERC1155Received\n     * @dev ERC-1155\n     * @param _from    Source address\n     * @param _to      Destination address\n     * @param _tokenId ID of the token\n     * @param _value   Transfer amount\n     * @param _data    Additional data forwarded to onERC1155Received if _to is a contract\n    */\n    function safeTransferFrom(\n        address _from,\n        address _to,\n        uint256 _tokenId,\n        uint256 _value,\n        bytes calldata _data\n    )\n        external\n        override\n    {\n        require(_to != address(0), \"UNSPECIFIED_ADDRESS\"); //hex\"20\" FISSION.code(FISSION.Category.Find, FISSION.Status.NotFound_Unequal_OutOfRange)\n        require(_from == msg.sender || operatorApprovals[_from][msg.sender] == true, \"UNAUTHORIZED_ST\");   //hex\"10\"FISSION.code(FISSION.Category.Permission, FISSION.Status.Disallowed_Stop)\n\n        // SafeMath throws with insuficient funds or if _id is not valid (balance will be 0)\n        balances[_tokenId][_from] = balances[_tokenId][_from].sub(_value);\n        balances[_tokenId][_to] = _value.add(balances[_tokenId][_to]);\n\n        emit TransferSingle(msg.sender, _from, _to, _tokenId, _value);\n\n        //make sure the tx was accepted - in case of a revert below, the event above is reverted, too\n        _doSafeTransferAcceptanceCheck(msg.sender, _from, _to, _tokenId, _value, _data);\n    }   \n    \n    \n    /**\n     * @notice Safely transfers the ownership of a given token ID to another address\n     * If the target address is a contract, it must implement `onERC721Received`,\n     * which is called upon a safe transfer, and return the magic value\n     * `bytes4(keccak256(\"onERC721Received(address,address,uint256,bytes)\"))`; otherwise,\n     * the transfer is reverted.\n     * Requires the msg.sender to be the owner, approved, or operator\n     * @dev ERC-721\n     * @param _from current owner of the token\n     * @param _to address to receive the ownership of the given token ID\n     * @param _tokenId uint256 ID of the token to be transferred\n     */\n    function safeTransferFrom(address _from, address _to, uint256 _tokenId) \n        public \n        override\n    {\n        safeTransferFrom(_from, _to, _tokenId, \"\");\n    }\n\n    /**\n     * @notice Safely transfers the ownership of a given token ID to another address\n     * If the target address is a contract, it must implement `onERC721Received`,\n     * which is called upon a safe transfer, and return the magic value\n     * `bytes4(keccak256(\"onERC721Received(address,address,uint256,bytes)\"))`; otherwise,\n     * the transfer is reverted.\n     * Requires the msg.sender to be the owner, approved, or operator\n     * @dev ERC-721\n     * @param _from current owner of the token\n     * @param _to address to receive the ownership of the given token ID\n     * @param _tokenId uint256 ID of the token to be transferred\n     * @param _data bytes data to send along with a safe transfer check\n     */\n    function safeTransferFrom(address _from, address _to, uint256 _tokenId, bytes memory _data) \n        public\n        override\n    {\n        transferFrom(_from, _to, _tokenId);\n        \n        if (_to.isContract()) {\n            require(ERC721TokenReceiver(_to).onERC721Received(_from, _to, _tokenId, _data) == ERC721TokenReceiver(_to).onERC721Received.selector, \"UNSUPPORTED_ERC721_RECEIVED\");  //hex\"10\" FISSION.code(FISSION.Category.Permission, FISSION.Status.Disallowed_Stop)\n            //bytes4(keccak256(\"onERC721Received(address,address,uint256,bytes)\"))\n        }        \n    }    \n    \n    \n    /**\n     * @notice Transfers the ownership of a given token ID to another address.\n     * Usage of this method is discouraged, use `safeTransferFrom` whenever possible.\n     * Requires the msg.sender to be the owner, approved, or operator.\n     * @dev ERC-721\n     * @param _from current owner of the token\n     * @param _to address to receive the ownership of the given token ID\n     * @param _tokenId uint256 ID of the token to be transferred\n     */\n    function transferFrom(address _from, address _to, uint256 _tokenId) \n        public\n        override\n    {\n        //require(_isApprovedOrOwner(msg.sender, _tokenId), \"ERC721: transfer caller is not owner nor approved\");\n        require(operator721[_tokenId] == msg.sender || ownerOf(_tokenId) == msg.sender, \"NOT_OWNER_NOR_APPROVED\");   //hex\"10\" FISSION.code(FISSION.Category.Permission, FISSION.Status.Disallowed_Stop)\n\n        _transferFrom(_from, _to, _tokenId);\n    }   \n    \n    \n    /**\n     * @notice Internal function to transfer ownership of a given token ID to another address.\n     * As opposed to transferFrom, this imposes no restrictions on msg.sender.\n     * @dev ERC-721\n     * @param _from current owner of the token\n     * @param _to address to receive the ownership of the given token ID\n     * @param _tokenId uint256 ID of the token to be transferred\n     */\n    function _transferFrom(address _from, address _to, uint256 _tokenId) \n        internal \n    {\n        require(ownerOf(_tokenId) == _from, \"UNAUTHORIZED_T\");   //hex\"10\" FISSION.code(FISSION.Category.Permission, FISSION.Status.Disallowed_Stop)\n        require(_to != address(0), \"UNSPECIFIED_ADDRESS\");   //hex\"20\" FISSION.code(FISSION.Category.Find, FISSION.Status.NotFound_Unequal_OutOfRange)\n\n        operator721[_tokenId] = address(0);\n\n        balance721[_from]--;\n        balance721[_to]++;\n        \n        owners721[_tokenId] = _to;\n\n        emit Transfer(_from, _to, _tokenId);\n    }    \n    \n    \n    /**\n     * @notice Approves another address to transfer the given token ID\n     * The zero address indicates there is no approved address.\n     * There can only be one approved address per token at a given time.\n     * Can only be called by the token owner or an approved operator.\n     * @dev ERC-721\n     * @param _to address to be approved for the given token ID\n     * @param _tokenId uint256 ID of the token to be approved\n     */\n    function approve(address _to, uint256 _tokenId) \n        public\n        override\n    {\n        address tokenOwner = ownerOf(_tokenId);\n        require(_to != tokenOwner, \"REDUNDANT_CALL\"); //hex\"18\" FISSION.code(FISSION.Category.Permission, FISSION.Status.NotApplicatableToCurrentState)\n\n        require(msg.sender == tokenOwner || operatorApprovals[tokenOwner][msg.sender],// isApprovedForAll(owner, msg.sender),\n            \"UNAUTHORIZED_A\");   //hex\"10\" FISSION.code(FISSION.Category.Permission, FISSION.Status.Disallowed_Stop)\n            //\"ERC721: approve caller is not owner nor approved for all\"\n\n        operator721[_tokenId] = _to;\n        emit Approval(tokenOwner, _to, _tokenId);\n    }    \n    \n    \n    /**\n     * @notice Gets the approved address for a token ID, or zero if no address set\n     * Reverts if the token ID does not exist.\n     * @dev ERC-721\n     * @param _tokenId uint256 ID of the token to query the approval of\n     * @return address currently approved for the given token ID\n     */\n    function getApproved(uint256 _tokenId) \n        public \n        view\n        override\n        returns (address) \n    {\n        require(owners721[_tokenId] != address(0), \"ERC721: approved query for nonexistent token\");\n        //require(_exists(_tokenId), \"ERC721: approved query for nonexistent token\");\n\n        return operator721[_tokenId];\n    }    \n    \n    \n    /**\n        @notice Transfers amount of _tokenId from-to addresses with safety call.\n        If _to is a smart contract, will call onERC1155BatchReceived\n        @dev ERC-1155\n        @param _from    Source address\n        @param _to      Destination address\n        @param _tokenIds array of token IDs\n        @param _values   array of transfer amounts\n        @param _data    Additional data forwarded to onERC1155BatchReceived if _to is a contract\n    */\n    function safeBatchTransferFrom(\n        address _from,\n        address _to,\n        uint256[] calldata _tokenIds,\n        uint256[] calldata _values,\n        bytes calldata _data\n    )\n        external\n        override\n    {\n        require(_to != address(0), \"UNSPECIFIED_ADDRESS\");  //hex\"20\" FISSION.code(FISSION.Category.Find, FISSION.Status.NotFound_Unequal_OutOfRange)\n        require(_tokenIds.length == _values.length, \"MISMATCHED_ARRAY_LENGTS\");    //hex\"28\" ISSION.code(FISSION.Category.Find, FISSION.Status.Duplicate_Conflict_Collision)\n        require(_from == msg.sender || operatorApprovals[_from][msg.sender] == true, \"UNAUTHORIZED_SB\");   //hex\"10\" FISSION.code(FISSION.Category.Permission, FISSION.Status.Disallowed_Stop)\n\n        for (uint256 i = 0; i < _tokenIds.length; ++i) {\n            uint256 tokenId = _tokenIds[i];\n            uint256 value = _values[i];\n\n            // SafeMath throws with insuficient funds or if _id is not valid (balance will be 0)\n            balances[tokenId][_from] = balances[tokenId][_from].sub(value);\n            balances[tokenId][_to]   = value.add(balances[tokenId][_to]);\n        }\n\n        emit TransferBatch(msg.sender, _from, _to, _tokenIds, _values);\n\n        //make sure the tx was accepted - in case of a revert below, the event above is reverted, too\n        _doSafeBatchTransferAcceptanceCheck(msg.sender, _from, _to, _tokenIds, _values, _data);\n    }    \n    \n    \n    /**\n     * @notice Check successful transfer if recipient is a contract\n     * @dev ERC-1155\n     * @param _operator The operator of the transfer\n     * @param _from     Address of sender\n     * @param _to       Address of recipient\n     * @param _tokenId  ID of the token\n     * @param _value    Value transferred\n     * @param _data     Optional data\n     */\n    function _doSafeTransferAcceptanceCheck(\n        address _operator,\n        address _from,\n        address _to,\n        uint256 _tokenId,\n        uint256 _value,\n        bytes memory _data\n    )\n        internal\n    {\n        if(_to.isContract()) {\n            require(ERC1155TokenReceiver(_to).onERC1155Received(_operator, _from, _tokenId, _value, _data) ==  \n                        ERC1155TokenReceiver(_to).onERC1155Received.selector, \"NOT_SUPPORTED\");  //hex\"10\" FISSION.code(FISSION.Category.Permission, FISSION.Status.Disallowed_Stop)\n        }\n    }\n\n    \n    /**\n     * @notice Check successful transfer if recipient is a contract\n     * @dev ERC-1155\n     * @param _operator The operator of the transfer\n     * @param _from     Address of sender\n     * @param _to       Address of recipient\n     * @param _tokenIds Array of IDs of tokens\n     * @param _values   Array of values transferred\n     * @param _data     Optional data\n     */    \n    function _doSafeBatchTransferAcceptanceCheck(\n        address _operator,\n        address _from,\n        address _to,\n        uint256[] memory _tokenIds,\n        uint256[] memory _values,\n        bytes memory _data\n    )\n        internal\n    {\n        if(_to.isContract()) {\n            require(ERC1155TokenReceiver(_to).onERC1155BatchReceived(_operator, _from, _tokenIds, _values, _data) ==\n                        ERC1155TokenReceiver(_to).onERC1155BatchReceived.selector, \"NOT_SUPPORTED\"); //hex\"10\" FISSION.code(FISSION.Category.Permission, FISSION.Status.Disallowed_Stop)\n        }\n    }      \n    \n    \n    /**\n        @notice Get the balance of tokens of an account\n        @dev ERC-1155\n        @param _account The address of the token holder\n        @param _tokenId ID of the token\n        @return         balance\n     */\n    function balanceOf(address _account, uint256 _tokenId) \n        external \n        view\n        override\n        returns (uint256) \n    {\n        return balances[_tokenId][_account];\n    }  \n    \n    \n    /// @notice Count all NFTs assigned to an owner\n    /// @dev ERC-721\n    /// @param _owner An address for whom to query the balance\n    /// @return The number of NFTs owned by `_owner`, possibly zero\n    function balanceOf(address _owner) \n        public\n        view \n        override\n        returns (uint256)\n    {\n        require(_owner != address(0), \"UNSPECIFIED_ADDRESS\");  //hex\"20\" FISSION.code(FISSION.Category.Find, FISSION.Status.NotFound_Unequal_OutOfRange)\n\n        return balance721[_owner];\n    }\n    \n\n    /**\n     * @notice Gets the owner of the specified token ID.\n     * @dev ERC-721\n     * @param _tokenId uint256 ID of the token to query the owner of\n     * @return address currently marked as the owner of the given token ID\n     */\n    function ownerOf(uint256 _tokenId) \n        public \n        view \n        override\n        returns (address)\n    {\n        address tokenOwner = owners721[_tokenId];\n        require(tokenOwner != address(0), \"UNDEFINED_OWNER\");  //hex\"20\" FISSION.code(FISSION.Category.Find, FISSION.Status.NotFound_Unequal_OutOfRange)\n\n        return tokenOwner;\n    }    \n    \n    \n    \n    /**\n        @notice Get the balance of account-token pairs.\n        @dev ERC-1155\n        @param _accounts The addresses of the token holders\n        @param _tokenIds IDs of the tokens\n        @return         balances\n     */\n    function balanceOfBatch(\n        address[] calldata _accounts,\n        uint256[] calldata _tokenIds\n    )\n        external\n        view\n        override\n        returns (uint256[] memory)\n    {\n        require(_accounts.length == _tokenIds.length, \"MISMATCHED_ARRAY_LENGTS\");  //hex\"28\" FISSION.code(FISSION.Category.Find, FISSION.Status.Duplicate_Conflict_Collision)\n        uint256[] memory batchBalances = new uint256[](_accounts.length);\n\n        for (uint256 i = 0; i < _accounts.length; ++i) {\n            batchBalances[i] = balances[_tokenIds[i]][_accounts[i]];\n        }\n\n        return batchBalances;\n    }    \n    \n    \n    /**\n     * @notice Approves or unapproves the operator.\n     * will revert if the caller attempts to approve itself as it is redundant\n     * @dev ERC-1155 & ERC-721\n     * @param _operator to (un)approve\n     * @param _approve flag to set or unset\n     */\n    function setApprovalForAll(address _operator, bool _approve) \n        external\n        override(IERC1155, IERC721)\n    {\n        require(msg.sender != _operator, \"REDUNDANT_CALL\"); //hex\"18\" FISSION.code(FISSION.Category.Permission, FISSION.Status.NotApplicatableToCurrentState)\n        operatorApprovals[msg.sender][_operator] = _approve;\n        emit ApprovalForAll(msg.sender, _operator, _approve);\n    }  \n    \n    \n    /**\n        @notice Gets approval status of an operator for a given account.\n        @dev ERC-1155 & ERC-721\n        @param _account   token holder\n        @param _operator  operator to check\n        @return           True if the operator is approved, false if not\n    */\n    function isApprovedForAll(address _account, address _operator) \n        public \n        view \n        override(IERC1155, IERC721)\n        returns (bool) \n    {\n        return operatorApprovals[_account][_operator];\n    }     \n    \n\n    /**\n     * @notice Returns true if this contract implements the interface defined by _interfaceId_.\n     * This function call must use less than 30 000 gas. ATM not enforced.\n     */\n    function supportsInterface(bytes4 _interfaceId) \n        external \n        view \n        override\n        returns (bool)\n    {\n        return  //check matching against ERC-165 identifiers\n            _interfaceId == 0x01ffc9a7 || //ERC-165\n            _interfaceId == 0xd9b67a26 || //ERC-1155\n            _interfaceId == 0x80ac58cd || //ERC-721\n            _interfaceId == 0x5b5e139f || //ERC-721 metadata extension\n            _interfaceId == 0x0e89341c; //ERC-1155 metadata extension\n    }\n\n    // // // // // // // //\n    // STANDARD - UTILS \n    // // // // // // // //  \n    /**\n     * @notice Mint an amount of a desired token\n     * Currently no restrictions as to who is allowd to mint - so, it is public.\n     * @dev ERC-1155\n     * @param _to       owner of the minted token\n     * @param _tokenId  ID of the token to be minted\n     * @param _value    Amount of the token to be minted\n     * @param _data     Additional data forwarded to onERC1155BatchReceived if _to is a contract\n     */\n    function mint(address _to, uint256 _tokenId, uint256 _value, bytes memory _data) \n        public \n        onlyFromVoucherKernel\n    {\n        _mint(_to, _tokenId, _value, _data);\n    }    \n    \n    /**\n     * @notice Internal function to mint an amount of a desired token\n     * @dev ERC-1155\n     * @param _to       owner of the minted token\n     * @param _tokenId  ID of the token to be minted\n     * @param _value    Amount of the token to be minted\n     * @param _data     Additional data forwarded to onERC1155BatchReceived if _to is a contract\n     */\n    function _mint(address _to, uint256 _tokenId, uint256 _value, bytes memory _data) \n        internal \n    {\n        require(_to != address(0), \"UNSPECIFIED_ADDRESS\");   //FISSION.code(FISSION.Category.Find, FISSION.Status.NotFound_Unequal_OutOfRange)\n        \n        balances[_tokenId][_to] = balances[_tokenId][_to].add(_value);\n        emit TransferSingle(msg.sender, address(0), _to, _tokenId, _value);\n\n        _doSafeTransferAcceptanceCheck(msg.sender, address(0), _to, _tokenId, _value, _data);\n    }     \n    \n    \n    /**\n     * @notice Function to mint tokens.\n     * @dev ERC-721\n     * @param to The address that will receive the minted tokens.\n     * @param tokenId The token id to mint.\n     * @return A boolean that indicates if the operation was successful.\n     */\n    function mint(address to, uint256 tokenId) \n        public\n        onlyFromVoucherKernel\n        returns (bool) \n    {\n        _mint(to, tokenId);\n        return true;\n    }\n    \n    \n    /**\n     * @notice Internal function to mint a new token.\n     * Reverts if the given token ID already exists.\n     * @dev ERC-721\n     * @param _to The address that will own the minted token\n     * @param _tokenId uint256 ID of the token to be minted\n     */\n    function _mint(address _to, uint256 _tokenId) \n        internal \n    {\n        require(_to != address(0), \"UNSPECIFIED_ADDRESS\");  //hex\"20\" FISSION.code(FISSION.Category.Find, FISSION.Status.NotFound_Unequal_OutOfRange)\n        require(owners721[_tokenId] == address(0), \"ERC721: token already minted\");\n        //require(!_exists(tokenId), \"ERC721: token already minted\");\n\n        owners721[_tokenId] = _to;\n        balance721[_to]++;\n\n        emit Transfer(address(0), _to, _tokenId);\n    }\n    \n    \n    /**\n     * @notice Batch minting of tokens\n     * Currently no restrictions as to who is allowd to mint - so, it is public.\n     * @dev ERC-1155\n     * @param _to The address that will own the minted token\n     * @param _tokenIds IDs of the tokens to be minted\n     * @param _values Amounts of the tokens to be minted\n     * @param _data Additional data forwarded to onERC1155BatchReceived if _to is a contract\n     */\n    function mintBatch(address _to, uint256[] memory _tokenIds, uint256[] memory _values, bytes memory _data) \n        public \n        onlyFromVoucherKernel\n    {\n        //require approved minter\n        \n        _mintBatch(_to, _tokenIds, _values, _data);\n    }   \n    \n    /**\n     * @notice Internal function for batch minting of tokens\\\n     * @dev ERC-1155\n     * @param _to The address that will own the minted token\n     * @param _tokenIds IDs of the tokens to be minted\n     * @param _values Amounts of the tokens to be minted\n     * @param _data Additional data forwarded to onERC1155BatchReceived if _to is a contract\n     */\n    function _mintBatch(address _to, uint256[] memory _tokenIds, uint256[] memory _values, bytes memory _data) \n        internal \n    {\n        require(_to != address(0), \"UNSPECIFIED_ADDRESS\");  //hex\"20\" FISSION.code(FISSION.Category.Find, FISSION.Status.NotFound_Unequal_OutOfRange)\n        require(_tokenIds.length == _values.length, \"MISMATCHED_ARRAY_LENGTS\"); //hex\"28\" FISSION.code(FISSION.Category.Find, FISSION.Status.Duplicate_Conflict_Collision)\n\n        for(uint i = 0; i < _tokenIds.length; i++) {\n            balances[_tokenIds[i]][_to] = _values[i].add(balances[_tokenIds[i]][_to]);\n        }\n\n        emit TransferBatch(msg.sender, address(0), _to, _tokenIds, _values);\n\n        _doSafeBatchTransferAcceptanceCheck(msg.sender, address(0), _to, _tokenIds, _values, _data);\n    }       \n    \n    \n    /**\n     * @notice Burn an amount of tokens with the given ID\n     * @dev ERC-1155\n     * @param _account  Account which owns the token\n     * @param _tokenId  ID of the token\n     * @param _value    Amount of the token\n     */\n    function burn(address _account, uint256 _tokenId, uint256 _value) \n        public \n        onlyFromVoucherKernel\n    {\n        //commented out because this action is limited to onlyFromVoucherKernel, which only calls this in extract721\n        //TODO: function cancelOrder\n        //require(_account == msg.sender || operatorApprovals[_account][msg.sender] == true, \"UNAUTHORIZED_B\"); //hex\"10\" FISSION.code(FISSION.Category.Permission, FISSION.Status.Disallowed_Stop)\n\n        _burn(_account, _tokenId, _value);\n    }\n    \n    /**\n     * @notice Burn an amount of tokens with the given ID\n     * @dev ERC-1155\n     * @param _account  Account which owns the token\n     * @param _tokenId  ID of the token\n     * @param _value    Amount of the token\n     */\n    function _burn(address _account, uint256 _tokenId, uint256 _value) internal {\n        require(_account != address(0), \"UNSPECIFIED_ADDRESS\");   //\"UNSPECIFIED_ADDRESS\" FISSION.code(FISSION.Category.Find, FISSION.Status.NotFound_Unequal_OutOfRange)\n\n        balances[_tokenId][_account] = balances[_tokenId][_account].sub(_value);\n        emit TransferSingle(msg.sender, _account, address(0), _tokenId, _value);\n    }\n    \n    \n    /* Burning ERC-721 is not allowed, as a voucher (being an ERC-721 token) has a final state and shouldn't be destructed. */ \n    \n\n    /**\n     * @notice Batch burn an amounts of tokens\n     * @dev ERC-1155\n     * @param _account Account which owns the token\n     * @param _tokenIds IDs of the tokens\n     * @param _values Amounts of the tokens\n     */\n    function burnBatch(address _account, uint256[] memory _tokenIds, uint256[] memory _values) \n        public \n        onlyFromVoucherKernel\n    {\n        //commented out because this action is limited to onlyFromVoucherKernel, which only calls this in extract721\n        //require(_account == msg.sender || operatorApprovals[_account][msg.sender] == true, \"UNAUTHORIZED_BB\"); //hex\"10\" FISSION.code(FISSION.Category.Permission, FISSION.Status.Disallowed_Stop)\n        \n        _burnBatch(_account, _tokenIds, _values);\n    }  \n    \n    /**\n     * @notice Internal function to batch burn an amounts of tokens\n     * @dev ERC-1155\n     * @param _account Account which owns the token\n     * @param _tokenIds IDs of the tokens\n     * @param _values Amounts of the tokens\n     */\n    function _burnBatch(address _account, uint256[] memory _tokenIds, uint256[] memory _values) \n        internal \n    {\n        require(_account != address(0), \"UNSPECIFIED_ADDRESS\"); //hex\"20\" FISSION.code(FISSION.Category.Find, FISSION.Status.NotFound_Unequal_OutOfRange)\n        require(_tokenIds.length == _values.length, \"MISMATCHED_ARRAY_LENGTS\"); //hex\"28\" FISSION.code(FISSION.Category.Find, FISSION.Status.Duplicate_Conflict_Collision)\n\n        for(uint i = 0; i < _tokenIds.length; i++) {\n            balances[_tokenIds[i]][_account] = balances[_tokenIds[i]][_account].sub(_values[i]);\n        }\n\n        emit TransferBatch(msg.sender, _account, address(0), _tokenIds, _values);\n    }     \n    \n    \n    // // // // // // // //\n    // METADATA EXTENSIONS \n    // // // // // // // //  \n    \n    /**\n     * @notice Setting the URL prefix for tokens metadata\n     * @param _newBase   New prefix to be used\n     */\n    function _setMetadataBase(string memory _newBase) \n        public\n        onlyOwner\n    {\n        metadataBase = _newBase;\n    }\n      \n      \n    /**\n     * @notice A distinct Uniform Resource Identifier (URI) for a given token.\n     * @dev ERC-1155\n     * URIs are defined in RFC 3986. The URI MUST point to a JSON file that conforms to the \"ERC-1155 Metadata URI JSON Schema\".        \n     * @param _tokenId  The ID of the token\n     * @return          Full URI string for metadata of the _tokenId\n    */\n    function uri(uint256 _tokenId)\n        external view \n        returns (string memory)\n    {\n        return string(abi.encodePacked(metadataBase, _uint2str(_tokenId), \".json\"));\n    }\n\n\n    /**\n     * @notice A descriptive name for a collection of NFTs in this contract\n     * @dev ERC-721\n    */\n    function name()\n        external pure \n        returns (string memory _name)\n    {\n        return \"Boson Smart Voucher\";\n    }\n\n    /**\n     * @notice An abbreviated name for NFTs in this contract\n     * @dev ERC-721\n    */\n    function symbol()\n        external pure \n        returns (string memory _symbol)\n    {\n        return \"BSV\";\n    }\n\n    /**\n     * @notice A distinct Uniform Resource Identifier (URI) for a given asset.\n     * @dev ERC-721\n     * Throws if `_tokenId` is not a valid NFT. URIs are defined in RFC 3986. The URI may point to a JSON file that conforms to the \"ERC721 Metadata JSON Schema\".\n     * @param _tokenId  ID of the token\n    */\n    function tokenURI(uint256 _tokenId)\n        external view \n        returns (string memory)\n    {\n        require(owners721[_tokenId] != address(0), \"INVALID_ID\");\n        return string(abi.encodePacked(metadataBase, _uint2str(_tokenId), \".json\"));\n    }\n    \n    \n    // // // // // // // //\n    // UTILS \n    // // // // // // // //  \n    \n    /**\n     * @notice Set the address of the VoucherKernel contract\n     * @param _voucherKernelAddress   The address of the Cashier contract\n     */\n    function setVoucherKernelAddress(address _voucherKernelAddress)\n        external\n        onlyOwner\n    {\n        require(_voucherKernelAddress != address(0), \"UNSPECIFIED_ADDRESS\");  //hex\"20\" FISSION.code(FISSION.Category.Find, FISSION.Status.NotFound_Unequal_OutOfRange)\n        \n        voucherKernelAddress = _voucherKernelAddress;\n        \n        emit LogVoucherKernelSet(_voucherKernelAddress, msg.sender);\n    }\n    \n    \n    /**\n     * @notice Convert UINT to string\n     *  Thank you, Oraclize (aka Provable)!\n     *      https://github.com/provable-things/ethereum-api/blob/master/provableAPI_0.5.sol\n     * @param _i    uint parameter\n     */\n    function _uint2str(uint256 _i) \n        internal pure \n        returns (string memory _uintAsString)\n    {\n        if (_i == 0) {\n            return \"0\";\n        }\n        uint j = _i;\n        uint len;\n        while (j != 0) {\n            len++;\n            j /= 10;\n        }\n        bytes memory bstr = new bytes(len);\n        uint k = len - 1;\n        while (_i != 0) {\n            bstr[k--] = byte(uint8(48 + _i % 10));\n            _i /= 10;\n        }\n        return string(bstr);        \n    }\n    \n}",
  "sourcePath": "/Users/hristiyangeorgiev/Documents/Projects/Redemeum/redemeum-blockchainNew/bsn-core-prototype/contracts/ERC1155ERC721.sol",
  "compiler": {
    "name": "solc",
    "version": "0.6.8+commit.0bbfe453.Emscripten.clang",
    "optimizer": false,
    "runs": 200
  },
  "schemaVersion": "2.3.3",
  "updatedAt": "2020-07-17T12:37:53.074Z"
}