{
  "contractName": "FundLimitsOracle",
  "abi": [
    {
      "inputs": [],
      "stateMutability": "nonpayable",
      "type": "constructor"
    },
    {
      "anonymous": false,
      "inputs": [
        {
          "indexed": false,
          "internalType": "uint256",
          "name": "_newLimit",
          "type": "uint256"
        },
        {
          "indexed": false,
          "internalType": "address",
          "name": "_triggeredBy",
          "type": "address"
        }
      ],
      "name": "LogETHLimitChanged",
      "type": "event"
    },
    {
      "anonymous": false,
      "inputs": [
        {
          "indexed": false,
          "internalType": "uint256",
          "name": "_newLimit",
          "type": "uint256"
        },
        {
          "indexed": false,
          "internalType": "address",
          "name": "_triggeredBy",
          "type": "address"
        }
      ],
      "name": "LogTokenLimitChanged",
      "type": "event"
    },
    {
      "anonymous": false,
      "inputs": [
        {
          "indexed": true,
          "internalType": "address",
          "name": "previousOwner",
          "type": "address"
        },
        {
          "indexed": true,
          "internalType": "address",
          "name": "newOwner",
          "type": "address"
        }
      ],
      "name": "OwnershipTransferred",
      "type": "event"
    },
    {
      "inputs": [],
      "name": "owner",
      "outputs": [
        {
          "internalType": "address",
          "name": "",
          "type": "address"
        }
      ],
      "stateMutability": "view",
      "type": "function",
      "constant": true
    },
    {
      "inputs": [],
      "name": "renounceOwnership",
      "outputs": [],
      "stateMutability": "nonpayable",
      "type": "function"
    },
    {
      "inputs": [
        {
          "internalType": "address",
          "name": "newOwner",
          "type": "address"
        }
      ],
      "name": "transferOwnership",
      "outputs": [],
      "stateMutability": "nonpayable",
      "type": "function"
    },
    {
      "inputs": [
        {
          "internalType": "uint256",
          "name": "_newLimit",
          "type": "uint256"
        }
      ],
      "name": "setETHLimit",
      "outputs": [],
      "stateMutability": "nonpayable",
      "type": "function"
    },
    {
      "inputs": [
        {
          "internalType": "address",
          "name": "_tokenAddress",
          "type": "address"
        },
        {
          "internalType": "uint256",
          "name": "_newLimit",
          "type": "uint256"
        }
      ],
      "name": "setTokenLimit",
      "outputs": [],
      "stateMutability": "nonpayable",
      "type": "function"
    },
    {
      "inputs": [],
      "name": "getETHLimit",
      "outputs": [
        {
          "internalType": "uint256",
          "name": "",
          "type": "uint256"
        }
      ],
      "stateMutability": "view",
      "type": "function",
      "constant": true
    },
    {
      "inputs": [
        {
          "internalType": "address",
          "name": "_tokenAddress",
          "type": "address"
        }
      ],
      "name": "getTokenLimit",
      "outputs": [
        {
          "internalType": "uint256",
          "name": "",
          "type": "uint256"
        }
      ],
      "stateMutability": "view",
      "type": "function",
      "constant": true
    }
  ],
  "bytecode": "0x608060405234801561001057600080fd5b50600061001b610076565b600080546001600160a01b0319166001600160a01b0383169081178255604051929350917f8be0079c531659141344cd1fd0a4f28419497f9722a3daafe3b4186f6b6457e0908290a350670de0b6b3a764000060015561007a565b3390565b61057d806100896000396000f3fe608060405234801561001057600080fd5b506004361061006d5760003560e01c80630f878aed146100725780635a860c871461008c578063715018a6146100b25780638695332f146100bc5780638da5cb5b146100d9578063bc017637146100fd578063f2fde38b14610129575b600080fd5b61007a61014f565b60408051918252519081900360200190f35b61007a600480360360208110156100a257600080fd5b50356001600160a01b0316610155565b6100ba610170565b005b6100ba600480360360208110156100d257600080fd5b503561020a565b6100e16102be565b604080516001600160a01b039092168252519081900360200190f35b6100ba6004803603604081101561011357600080fd5b506001600160a01b0381351690602001356102cd565b6100ba6004803603602081101561013f57600080fd5b50356001600160a01b03166103ed565b60015490565b6001600160a01b031660009081526002602052604090205490565b6101786104dd565b6001600160a01b03166101896102be565b6001600160a01b0316146101d2576040805162461bcd60e51b81526020600482018190526024820152600080516020610508833981519152604482015290519081900360640190fd5b600080546040516001600160a01b0390911690600080516020610528833981519152908390a3600080546001600160a01b0319169055565b6102126104dd565b6001600160a01b03166102236102be565b6001600160a01b03161461026c576040805162461bcd60e51b81526020600482018190526024820152600080516020610508833981519152604482015290519081900360640190fd5b60018190557f9462735486103805dd471af708689460124c6d5016a7b7f897f887cf7020c5218161029b6102be565b604080519283526001600160a01b0390911660208301528051918290030190a150565b6000546001600160a01b031690565b6102d56104dd565b6001600160a01b03166102e66102be565b6001600160a01b03161461032f576040805162461bcd60e51b81526020600482018190526024820152600080516020610508833981519152604482015290519081900360640190fd5b816001600160a01b038116610383576040805162461bcd60e51b8152602060048201526015602482015274494e56414c49445f544f4b454e5f4144445245535360581b604482015290519081900360640190fd5b6001600160a01b03831660009081526002602052604090208290557f6a209be2fe222988596b5f4dd242289077f0f05402d2f1848a97da68c2353894826103c86102be565b604080519283526001600160a01b0390911660208301528051918290030190a1505050565b6103f56104dd565b6001600160a01b03166104066102be565b6001600160a01b03161461044f576040805162461bcd60e51b81526020600482018190526024820152600080516020610508833981519152604482015290519081900360640190fd5b6001600160a01b0381166104945760405162461bcd60e51b81526004018080602001828103825260268152602001806104e26026913960400191505060405180910390fd5b600080546040516001600160a01b038085169392169160008051602061052883398151915291a3600080546001600160a01b0319166001600160a01b0392909216919091179055565b339056fe4f776e61626c653a206e6577206f776e657220697320746865207a65726f20616464726573734f776e61626c653a2063616c6c6572206973206e6f7420746865206f776e65728be0079c531659141344cd1fd0a4f28419497f9722a3daafe3b4186f6b6457e0a26469706673582212200e7a317b0ea8ce2a1098c7db3cb2980aa2c525bb90233802ab2423651e5658fb64736f6c63430007010033",
  "source": "// SPDX-License-Identifier: LGPL-3.0-or-later\r\npragma solidity 0.7.1;\r\n\r\nimport \"@openzeppelin/contracts/access/Ownable.sol\";\r\nimport \"./interfaces/IFundLimitsOracle.sol\";\r\n\r\n/**\r\n * @title Contract for managing maximum allowed funds to be escrowed.\r\n * The purpose is to limit the total funds locked in escrow in the initial stages of the protocol.\r\n */\r\n\r\ncontract FundLimitsOracle is Ownable, IFundLimitsOracle {\r\n    uint256 private ethLimit;\r\n    mapping(address => uint256) private tokenLimits;\r\n\r\n    event LogETHLimitChanged(uint256 _newLimit, address _triggeredBy);\r\n\r\n    event LogTokenLimitChanged(uint256 _newLimit, address _triggeredBy);\r\n\r\n    modifier notZeroAddress(address tokenAddress) {\r\n        require(tokenAddress != address(0), \"INVALID_TOKEN_ADDRESS\");\r\n        _;\r\n    }\r\n\r\n    constructor() {\r\n        ethLimit = 1 ether;\r\n    }\r\n\r\n    /**\r\n     * @notice Set new limit for ETH. It's used while seller tries to create a voucher. The limit is determined by a voucher set. Voucher price * quantity, seller deposit * quantity, buyer deposit * qty must be below the limit.\r\n     * @param _newLimit New limit which will be set.\r\n     */\r\n    function setETHLimit(uint256 _newLimit) external override onlyOwner {\r\n        ethLimit = _newLimit;\r\n        emit LogETHLimitChanged(_newLimit, owner());\r\n    }\r\n\r\n    /**\r\n     * @notice Set new limit for a token. It's used while seller tries to create a voucher. The limit is determined by a voucher set. Voucher price * quantity, seller deposit * quantity, buyer deposit * qty must be below the limit.\r\n     * @param _tokenAddress Address of the token which will be updated.\r\n     * @param _newLimit New limit which will be set. It must comply to the decimals of the token, so the limit is set in the correct decimals.\r\n     */\r\n    function setTokenLimit(address _tokenAddress, uint256 _newLimit)\r\n        external\r\n        override\r\n        onlyOwner\r\n        notZeroAddress(_tokenAddress)\r\n    {\r\n        tokenLimits[_tokenAddress] = _newLimit;\r\n        emit LogTokenLimitChanged(_newLimit, owner());\r\n    }\r\n\r\n    // // // // // // // //\r\n    // GETTERS\r\n    // // // // // // // //\r\n\r\n    /**\r\n     * @notice Get the maximum allowed ETH limit to set as price of voucher, buyer deposit or seller deposit.\r\n     */\r\n    function getETHLimit() external view override returns (uint256) {\r\n        return ethLimit;\r\n    }\r\n\r\n    /**\r\n     * @notice Get the maximum allowed token limit for the specified Token.\r\n     * @param _tokenAddress Address of the token which will be update.\r\n     */\r\n    function getTokenLimit(address _tokenAddress)\r\n        external\r\n        view\r\n        override\r\n        returns (uint256)\r\n    {\r\n        return tokenLimits[_tokenAddress];\r\n    }\r\n}\r\n",
  "sourcePath": "E:/Ludo/Documents/Developpement/BOSON/contracts/contracts/FundLimitsOracle.sol",
  "compiler": {
    "name": "solc",
    "version": "0.7.1+commit.f4a555be.Emscripten.clang"
  },
  "schemaVersion": "3.0.22",
  "updatedAt": "2021-07-07T10:31:41.266Z",
  "networkType": "ethereum",
  "devdoc": {
    "kind": "dev",
    "methods": {
      "getTokenLimit(address)": {
        "params": {
          "_tokenAddress": "Address of the token which will be update."
        }
      },
      "owner()": {
        "details": "Returns the address of the current owner."
      },
      "renounceOwnership()": {
        "details": "Leaves the contract without owner. It will not be possible to call `onlyOwner` functions anymore. Can only be called by the current owner. NOTE: Renouncing ownership will leave the contract without an owner, thereby removing any functionality that is only available to the owner."
      },
      "setETHLimit(uint256)": {
        "params": {
          "_newLimit": "New limit which will be set."
        }
      },
      "setTokenLimit(address,uint256)": {
        "params": {
          "_newLimit": "New limit which will be set. It must comply to the decimals of the token, so the limit is set in the correct decimals.",
          "_tokenAddress": "Address of the token which will be updated."
        }
      },
      "transferOwnership(address)": {
        "details": "Transfers ownership of the contract to a new account (`newOwner`). Can only be called by the current owner."
      }
    },
    "title": "Contract for managing maximum allowed funds to be escrowed. The purpose is to limit the total funds locked in escrow in the initial stages of the protocol.",
    "version": 1
  },
  "userdoc": {
    "kind": "user",
    "methods": {
      "getETHLimit()": {
        "notice": "Get the maximum allowed ETH limit to set as price of voucher, buyer deposit or seller deposit."
      },
      "getTokenLimit(address)": {
        "notice": "Get the maximum allowed token limit for the specified Token."
      },
      "setETHLimit(uint256)": {
        "notice": "Set new limit for ETH. It's used while seller tries to create a voucher. The limit is determined by a voucher set. Voucher price * quantity, seller deposit * quantity, buyer deposit * qty must be below the limit."
      },
      "setTokenLimit(address,uint256)": {
        "notice": "Set new limit for a token. It's used while seller tries to create a voucher. The limit is determined by a voucher set. Voucher price * quantity, seller deposit * quantity, buyer deposit * qty must be below the limit."
      }
    },
    "version": 1
  }
}