{
  "contractName": "VoucherKernel",
  "abi": [
    {
      "inputs": [
        {
          "internalType": "address",
          "name": "_tokensContract",
          "type": "address"
        }
      ],
      "stateMutability": "nonpayable",
      "type": "constructor"
    },
    {
      "anonymous": false,
      "inputs": [
        {
          "indexed": false,
          "internalType": "uint256",
          "name": "_newCancelFaultPeriod",
          "type": "uint256"
        },
        {
          "indexed": false,
          "internalType": "address",
          "name": "_triggeredBy",
          "type": "address"
        }
      ],
      "name": "LogCancelFaultPeriodChanged",
      "type": "event"
    },
    {
      "anonymous": false,
      "inputs": [
        {
          "indexed": false,
          "internalType": "address",
          "name": "_newCashier",
          "type": "address"
        },
        {
          "indexed": false,
          "internalType": "address",
          "name": "_triggeredBy",
          "type": "address"
        }
      ],
      "name": "LogCashierSet",
      "type": "event"
    },
    {
      "anonymous": false,
      "inputs": [
        {
          "indexed": false,
          "internalType": "uint256",
          "name": "_newComplainPeriod",
          "type": "uint256"
        },
        {
          "indexed": false,
          "internalType": "address",
          "name": "_triggeredBy",
          "type": "address"
        }
      ],
      "name": "LogComplainPeriodChanged",
      "type": "event"
    },
    {
      "anonymous": false,
      "inputs": [
        {
          "indexed": false,
          "internalType": "uint256",
          "name": "_tokenIdVoucher",
          "type": "uint256"
        },
        {
          "indexed": false,
          "internalType": "address",
          "name": "_triggeredBy",
          "type": "address"
        }
      ],
      "name": "LogExpirationTriggered",
      "type": "event"
    },
    {
      "anonymous": false,
      "inputs": [
        {
          "indexed": false,
          "internalType": "uint256",
          "name": "_tokenIdVoucher",
          "type": "uint256"
        },
        {
          "indexed": false,
          "internalType": "address",
          "name": "_triggeredBy",
          "type": "address"
        }
      ],
      "name": "LogFinalizeVoucher",
      "type": "event"
    },
    {
      "anonymous": false,
      "inputs": [
        {
          "indexed": false,
          "internalType": "uint256",
          "name": "_tokenIdVoucher",
          "type": "uint256"
        },
        {
          "indexed": false,
          "internalType": "uint8",
          "name": "_type",
          "type": "uint8"
        }
      ],
      "name": "LogFundsReleased",
      "type": "event"
    },
    {
      "anonymous": false,
      "inputs": [
        {
          "indexed": true,
          "internalType": "bytes32",
          "name": "_promiseId",
          "type": "bytes32"
        },
        {
          "indexed": true,
          "internalType": "string",
          "name": "_assetTitle",
          "type": "string"
        },
        {
          "indexed": true,
          "internalType": "address",
          "name": "_seller",
          "type": "address"
        },
        {
          "indexed": false,
          "internalType": "uint256",
          "name": "_validFrom",
          "type": "uint256"
        },
        {
          "indexed": false,
          "internalType": "uint256",
          "name": "_validTo",
          "type": "uint256"
        },
        {
          "indexed": false,
          "internalType": "uint256",
          "name": "_idx",
          "type": "uint256"
        }
      ],
      "name": "LogPromiseCreated",
      "type": "event"
    },
    {
      "anonymous": false,
      "inputs": [
        {
          "indexed": false,
          "internalType": "uint256",
          "name": "_tokenIdVoucher",
          "type": "uint256"
        }
      ],
      "name": "LogVoucherComplain",
      "type": "event"
    },
    {
      "anonymous": false,
      "inputs": [
        {
          "indexed": false,
          "internalType": "uint256",
          "name": "_tokenIdVoucher",
          "type": "uint256"
        }
      ],
      "name": "LogVoucherFaultCancel",
      "type": "event"
    },
    {
      "anonymous": false,
      "inputs": [
        {
          "indexed": false,
          "internalType": "uint256",
          "name": "_tokenIdVoucher",
          "type": "uint256"
        },
        {
          "indexed": false,
          "internalType": "address",
          "name": "_holder",
          "type": "address"
        },
        {
          "indexed": false,
          "internalType": "bytes32",
          "name": "_promiseId",
          "type": "bytes32"
        }
      ],
      "name": "LogVoucherRedeemed",
      "type": "event"
    },
    {
      "anonymous": false,
      "inputs": [
        {
          "indexed": false,
          "internalType": "uint256",
          "name": "_tokenIdVoucher",
          "type": "uint256"
        }
      ],
      "name": "LogVoucherRefunded",
      "type": "event"
    },
    {
      "inputs": [],
      "name": "MASK_NF_INDEX",
      "outputs": [
        {
          "internalType": "uint256",
          "name": "",
          "type": "uint256"
        }
      ],
      "stateMutability": "view",
      "type": "function"
    },
    {
      "inputs": [],
      "name": "MASK_TYPE",
      "outputs": [
        {
          "internalType": "uint256",
          "name": "",
          "type": "uint256"
        }
      ],
      "stateMutability": "view",
      "type": "function"
    },
    {
      "inputs": [],
      "name": "TYPE_NF_BIT",
      "outputs": [
        {
          "internalType": "uint256",
          "name": "",
          "type": "uint256"
        }
      ],
      "stateMutability": "view",
      "type": "function"
    },
    {
      "inputs": [
        {
          "internalType": "address",
          "name": "",
          "type": "address"
        }
      ],
      "name": "accountSupply",
      "outputs": [
        {
          "internalType": "uint256",
          "name": "",
          "type": "uint256"
        }
      ],
      "stateMutability": "view",
      "type": "function"
    },
    {
      "inputs": [],
      "name": "cancelFaultPeriod",
      "outputs": [
        {
          "internalType": "uint256",
          "name": "",
          "type": "uint256"
        }
      ],
      "stateMutability": "view",
      "type": "function"
    },
    {
      "inputs": [],
      "name": "cashierAddress",
      "outputs": [
        {
          "internalType": "address",
          "name": "",
          "type": "address"
        }
      ],
      "stateMutability": "view",
      "type": "function"
    },
    {
      "inputs": [],
      "name": "complainPeriod",
      "outputs": [
        {
          "internalType": "uint256",
          "name": "",
          "type": "uint256"
        }
      ],
      "stateMutability": "view",
      "type": "function"
    },
    {
      "inputs": [
        {
          "internalType": "uint256",
          "name": "",
          "type": "uint256"
        }
      ],
      "name": "ordersPromise",
      "outputs": [
        {
          "internalType": "bytes32",
          "name": "",
          "type": "bytes32"
        }
      ],
      "stateMutability": "view",
      "type": "function"
    },
    {
      "inputs": [],
      "name": "owner",
      "outputs": [
        {
          "internalType": "address",
          "name": "",
          "type": "address"
        }
      ],
      "stateMutability": "view",
      "type": "function"
    },
    {
      "inputs": [
        {
          "internalType": "uint256",
          "name": "",
          "type": "uint256"
        }
      ],
      "name": "promiseKeys",
      "outputs": [
        {
          "internalType": "bytes32",
          "name": "",
          "type": "bytes32"
        }
      ],
      "stateMutability": "view",
      "type": "function"
    },
    {
      "inputs": [
        {
          "internalType": "bytes32",
          "name": "",
          "type": "bytes32"
        }
      ],
      "name": "promises",
      "outputs": [
        {
          "internalType": "bytes32",
          "name": "promiseId",
          "type": "bytes32"
        },
        {
          "internalType": "string",
          "name": "assetTitle",
          "type": "string"
        },
        {
          "internalType": "address",
          "name": "seller",
          "type": "address"
        },
        {
          "internalType": "uint256",
          "name": "validFrom",
          "type": "uint256"
        },
        {
          "internalType": "uint256",
          "name": "validTo",
          "type": "uint256"
        },
        {
          "internalType": "uint256",
          "name": "price",
          "type": "uint256"
        },
        {
          "internalType": "uint256",
          "name": "depositSe",
          "type": "uint256"
        },
        {
          "internalType": "uint256",
          "name": "depositBu",
          "type": "uint256"
        },
        {
          "internalType": "uint256",
          "name": "idx",
          "type": "uint256"
        }
      ],
      "stateMutability": "view",
      "type": "function"
    },
    {
      "inputs": [
        {
          "internalType": "uint256",
          "name": "",
          "type": "uint256"
        }
      ],
      "name": "typeCounters",
      "outputs": [
        {
          "internalType": "uint256",
          "name": "",
          "type": "uint256"
        }
      ],
      "stateMutability": "view",
      "type": "function"
    },
    {
      "inputs": [],
      "name": "typeId",
      "outputs": [
        {
          "internalType": "uint256",
          "name": "",
          "type": "uint256"
        }
      ],
      "stateMutability": "view",
      "type": "function"
    },
    {
      "inputs": [
        {
          "internalType": "uint256",
          "name": "",
          "type": "uint256"
        }
      ],
      "name": "voucherIssuers",
      "outputs": [
        {
          "internalType": "address",
          "name": "",
          "type": "address"
        }
      ],
      "stateMutability": "view",
      "type": "function"
    },
    {
      "inputs": [
        {
          "internalType": "uint256",
          "name": "",
          "type": "uint256"
        }
      ],
      "name": "vouchersStatus",
      "outputs": [
        {
          "internalType": "uint8",
          "name": "status",
          "type": "uint8"
        },
        {
          "internalType": "bool",
          "name": "isPaymentReleased",
          "type": "bool"
        },
        {
          "internalType": "bool",
          "name": "isDepositsReleased",
          "type": "bool"
        },
        {
          "internalType": "uint256",
          "name": "complainPeriodStart",
          "type": "uint256"
        },
        {
          "internalType": "uint256",
          "name": "cancelFaultPeriodStart",
          "type": "uint256"
        }
      ],
      "stateMutability": "view",
      "type": "function"
    },
    {
      "inputs": [
        {
          "internalType": "address",
          "name": "_seller",
          "type": "address"
        },
        {
          "internalType": "string",
          "name": "_assetTitle",
          "type": "string"
        },
        {
          "internalType": "uint256",
          "name": "_validFrom",
          "type": "uint256"
        },
        {
          "internalType": "uint256",
          "name": "_validTo",
          "type": "uint256"
        },
        {
          "internalType": "uint256",
          "name": "_price",
          "type": "uint256"
        },
        {
          "internalType": "uint256",
          "name": "_depositSe",
          "type": "uint256"
        },
        {
          "internalType": "uint256",
          "name": "_depositBu",
          "type": "uint256"
        }
      ],
      "name": "createAssetPromise",
      "outputs": [
        {
          "internalType": "bytes32",
          "name": "",
          "type": "bytes32"
        }
      ],
      "stateMutability": "nonpayable",
      "type": "function"
    },
    {
      "inputs": [
        {
          "internalType": "address",
          "name": "_seller",
          "type": "address"
        },
        {
          "internalType": "bytes32",
          "name": "_promiseId",
          "type": "bytes32"
        },
        {
          "internalType": "uint256",
          "name": "_quantity",
          "type": "uint256"
        }
      ],
      "name": "createOrder",
      "outputs": [
        {
          "internalType": "uint256",
          "name": "",
          "type": "uint256"
        }
      ],
      "stateMutability": "nonpayable",
      "type": "function"
    },
    {
      "inputs": [
        {
          "internalType": "uint256",
          "name": "_tokenIdSupply",
          "type": "uint256"
        },
        {
          "internalType": "address",
          "name": "_issuer",
          "type": "address"
        },
        {
          "internalType": "address",
          "name": "_holder",
          "type": "address"
        }
      ],
      "name": "fillOrder",
      "outputs": [
        {
          "internalType": "uint256",
          "name": "",
          "type": "uint256"
        }
      ],
      "stateMutability": "nonpayable",
      "type": "function"
    },
    {
      "inputs": [
        {
          "internalType": "uint256",
          "name": "_tokenIdVoucher",
          "type": "uint256"
        }
      ],
      "name": "redeem",
      "outputs": [],
      "stateMutability": "nonpayable",
      "type": "function"
    },
    {
      "inputs": [
        {
          "internalType": "uint256",
          "name": "_tokenIdVoucher",
          "type": "uint256"
        }
      ],
      "name": "refund",
      "outputs": [],
      "stateMutability": "nonpayable",
      "type": "function"
    },
    {
      "inputs": [
        {
          "internalType": "uint256",
          "name": "_tokenIdVoucher",
          "type": "uint256"
        }
      ],
      "name": "complain",
      "outputs": [],
      "stateMutability": "nonpayable",
      "type": "function"
    },
    {
      "inputs": [
        {
          "internalType": "uint256",
          "name": "_tokenIdVoucher",
          "type": "uint256"
        }
      ],
      "name": "cancelOrFault",
      "outputs": [],
      "stateMutability": "nonpayable",
      "type": "function"
    },
    {
      "inputs": [
        {
          "internalType": "uint256",
          "name": "_tokenIdVoucher",
          "type": "uint256"
        }
      ],
      "name": "setPaymentReleased",
      "outputs": [],
      "stateMutability": "nonpayable",
      "type": "function"
    },
    {
      "inputs": [
        {
          "internalType": "uint256",
          "name": "_tokenIdVoucher",
          "type": "uint256"
        }
      ],
      "name": "setDepositsReleased",
      "outputs": [],
      "stateMutability": "nonpayable",
      "type": "function"
    },
    {
      "inputs": [
        {
          "internalType": "uint256",
          "name": "_tokenIdVoucher",
          "type": "uint256"
        }
      ],
      "name": "triggerExpiration",
      "outputs": [],
      "stateMutability": "nonpayable",
      "type": "function"
    },
    {
      "inputs": [
        {
          "internalType": "uint256",
          "name": "_tokenIdVoucher",
          "type": "uint256"
        }
      ],
      "name": "triggerFinalizeVoucher",
      "outputs": [],
      "stateMutability": "nonpayable",
      "type": "function"
    },
    {
      "inputs": [
        {
          "internalType": "address",
          "name": "_cashierAddress",
          "type": "address"
        }
      ],
      "name": "setCashierAddress",
      "outputs": [],
      "stateMutability": "nonpayable",
      "type": "function"
    },
    {
      "inputs": [
        {
          "internalType": "uint256",
          "name": "_complainPeriod",
          "type": "uint256"
        }
      ],
      "name": "setComplainPeriod",
      "outputs": [],
      "stateMutability": "nonpayable",
      "type": "function"
    },
    {
      "inputs": [
        {
          "internalType": "uint256",
          "name": "_cancelFaultPeriod",
          "type": "uint256"
        }
      ],
      "name": "setCancelFaultPeriod",
      "outputs": [],
      "stateMutability": "nonpayable",
      "type": "function"
    },
    {
      "inputs": [
        {
          "internalType": "uint256",
          "name": "_idx",
          "type": "uint256"
        }
      ],
      "name": "getPromiseKey",
      "outputs": [
        {
          "internalType": "bytes32",
          "name": "",
          "type": "bytes32"
        }
      ],
      "stateMutability": "view",
      "type": "function"
    },
    {
      "inputs": [
        {
          "internalType": "uint256",
          "name": "_tokenIdVoucher",
          "type": "uint256"
        }
      ],
      "name": "getIdSupplyFromVoucher",
      "outputs": [
        {
          "internalType": "uint256",
          "name": "",
          "type": "uint256"
        }
      ],
      "stateMutability": "pure",
      "type": "function"
    },
    {
      "inputs": [
        {
          "internalType": "uint256",
          "name": "_tokenIdVoucher",
          "type": "uint256"
        }
      ],
      "name": "getPromiseIdFromVoucherId",
      "outputs": [
        {
          "internalType": "bytes32",
          "name": "",
          "type": "bytes32"
        }
      ],
      "stateMutability": "view",
      "type": "function"
    },
    {
      "inputs": [
        {
          "internalType": "address",
          "name": "_account",
          "type": "address"
        }
      ],
      "name": "getTotalSupply",
      "outputs": [
        {
          "internalType": "uint256",
          "name": "",
          "type": "uint256"
        }
      ],
      "stateMutability": "view",
      "type": "function"
    },
    {
      "inputs": [
        {
          "internalType": "bytes32",
          "name": "_promiseId",
          "type": "bytes32"
        }
      ],
      "name": "getPromiseDepositSe",
      "outputs": [
        {
          "internalType": "uint256",
          "name": "",
          "type": "uint256"
        }
      ],
      "stateMutability": "view",
      "type": "function"
    },
    {
      "inputs": [
        {
          "internalType": "uint256",
          "name": "_tokenIdSupply",
          "type": "uint256"
        }
      ],
      "name": "getOrderCosts",
      "outputs": [
        {
          "internalType": "uint256",
          "name": "",
          "type": "uint256"
        },
        {
          "internalType": "uint256",
          "name": "",
          "type": "uint256"
        },
        {
          "internalType": "uint256",
          "name": "",
          "type": "uint256"
        }
      ],
      "stateMutability": "view",
      "type": "function"
    },
    {
      "inputs": [
        {
          "internalType": "uint256",
          "name": "_tokenIdVoucher",
          "type": "uint256"
        }
      ],
      "name": "getVoucherStatus",
      "outputs": [
        {
          "internalType": "uint8",
          "name": "",
          "type": "uint8"
        },
        {
          "internalType": "bool",
          "name": "",
          "type": "bool"
        },
        {
          "internalType": "bool",
          "name": "",
          "type": "bool"
        }
      ],
      "stateMutability": "view",
      "type": "function"
    },
    {
      "inputs": [
        {
          "internalType": "uint256",
          "name": "_tokenIdVoucher",
          "type": "uint256"
        }
      ],
      "name": "getVoucherIssuer",
      "outputs": [
        {
          "internalType": "address",
          "name": "",
          "type": "address"
        }
      ],
      "stateMutability": "view",
      "type": "function"
    },
    {
      "inputs": [
        {
          "internalType": "uint256",
          "name": "_tokenIdVoucher",
          "type": "uint256"
        }
      ],
      "name": "getVoucherHolder",
      "outputs": [
        {
          "internalType": "address",
          "name": "",
          "type": "address"
        }
      ],
      "stateMutability": "view",
      "type": "function"
    },
    {
      "inputs": [
        {
          "internalType": "uint256",
          "name": "_tokenIdVoucher",
          "type": "uint256"
        }
      ],
      "name": "isInValidityPeriod",
      "outputs": [
        {
          "internalType": "bool",
          "name": "",
          "type": "bool"
        }
      ],
      "stateMutability": "view",
      "type": "function"
    }
  ],
  "bytecode": "0x60806040523480156200001157600080fd5b506040516200584b3803806200584b833981810160405260208110156200003757600080fd5b810190808051906020019092919050505033600160006101000a81548173ffffffffffffffffffffffffffffffffffffffff021916908373ffffffffffffffffffffffffffffffffffffffff160217905550806000806101000a81548173ffffffffffffffffffffffffffffffffffffffff021916908373ffffffffffffffffffffffffffffffffffffffff16021790555062093a80600d8190555062093a80600e819055505061575d80620000ee6000396000f3fe608060405234801561001057600080fd5b506004361061023d5760003560e01c80638da5cb5b1161013b578063d40ffcf8116100b8578063ebba1b291161007c578063ebba1b2914610c46578063ec29c17d14610c74578063ede8089714610ce0578063f3223bed14610d0e578063f75951ce14610d2c5761023d565b8063d40ffcf814610b24578063d887b4e714610b52578063d905af5514610ba2578063db006a7514610bc0578063e598d69714610bee5761023d565b8063ae083814116100ff578063ae083814146108a5578063ae4606fe14610911578063bc0d753d14610993578063c099a7c4146109d5578063cc2f84cb14610a195761023d565b80638da5cb5b146107475780638f940f631461079157806399c849b8146107af5780639a0271e1146107f15780639be905a1146108375761023d565b80634f755c3e116101c9578063765e0fb81161018d578063765e0fb81461066d57806376942aed1461069b5780637ed06c44146106b957806381dc8119146106d75780638990834b146107195761023d565b80634f755c3e1461052d57806365c303bc1461057757806368da10ae146105a557806375549516146105fd57806375a831021461062b5761023d565b8063278ecde111610210578063278ecde114610326578063284f092314610354578063325a7a84146103825780633a2b95b9146103e057806346d07cb5146104bf5761023d565b8063037700461461024257806316ed9e0e146102845780631af2a6a8146102c657806321d6f3a714610308575b600080fd5b61026e6004803603602081101561025857600080fd5b8101908080359060200190929190505050610d9a565b6040518082815260200191505060405180910390f35b6102b06004803603602081101561029a57600080fd5b8101908080359060200190929190505050610dba565b6040518082815260200191505060405180910390f35b6102f2600480360360208110156102dc57600080fd5b8101908080359060200190929190505050610ddb565b6040518082815260200191505060405180910390f35b610310610e1d565b6040518082815260200191505060405180910390f35b6103526004803603602081101561033c57600080fd5b8101908080359060200190929190505050610e53565b005b6103806004803603602081101561036a57600080fd5b81019080803590602001909291905050506110fb565b005b6103ae6004803603602081101561039857600080fd5b8101908080359060200190929190505050611b59565b604051808460ff1660ff1681526020018315151515815260200182151515158152602001935050505060405180910390f35b6104a9600480360360e08110156103f657600080fd5b81019080803573ffffffffffffffffffffffffffffffffffffffff1690602001909291908035906020019064010000000081111561043357600080fd5b82018360208201111561044557600080fd5b8035906020019184600183028401116401000000008311171561046757600080fd5b90919293919293908035906020019092919080359060200190929190803590602001909291908035906020019092919080359060200190929190505050611bd7565b6040518082815260200191505060405180910390f35b6104eb600480360360208110156104d557600080fd5b8101908080359060200190929190505050612161565b604051808273ffffffffffffffffffffffffffffffffffffffff1673ffffffffffffffffffffffffffffffffffffffff16815260200191505060405180910390f35b61053561219e565b604051808273ffffffffffffffffffffffffffffffffffffffff1673ffffffffffffffffffffffffffffffffffffffff16815260200191505060405180910390f35b6105a36004803603602081101561058d57600080fd5b81019080803590602001909291905050506121c4565b005b6105e7600480360360208110156105bb57600080fd5b81019080803573ffffffffffffffffffffffffffffffffffffffff169060200190929190505050612606565b6040518082815260200191505060405180910390f35b6106296004803603602081101561061357600080fd5b810190808035906020019092919050505061264f565b005b6106576004803603602081101561064157600080fd5b81019080803590602001909291905050506128c3565b6040518082815260200191505060405180910390f35b6106996004803603602081101561068357600080fd5b81019080803590602001909291905050506128db565b005b6106a3613048565b6040518082815260200191505060405180910390f35b6106c161304e565b6040518082815260200191505060405180910390f35b610703600480360360208110156106ed57600080fd5b8101908080359060200190929190505050613088565b6040518082815260200191505060405180910390f35b6107456004803603602081101561072f57600080fd5b81019080803590602001909291905050506130a9565b005b61074f6131e1565b604051808273ffffffffffffffffffffffffffffffffffffffff1673ffffffffffffffffffffffffffffffffffffffff16815260200191505060405180910390f35b610799613207565b6040518082815260200191505060405180910390f35b6107db600480360360208110156107c557600080fd5b810190808035906020019092919050505061320d565b6040518082815260200191505060405180910390f35b61081d6004803603602081101561080757600080fd5b8101908080359060200190929190505050613225565b604051808215151515815260200191505060405180910390f35b6108636004803603602081101561084d57600080fd5b8101908080359060200190929190505050613494565b604051808273ffffffffffffffffffffffffffffffffffffffff1673ffffffffffffffffffffffffffffffffffffffff16815260200191505060405180910390f35b6108fb600480360360608110156108bb57600080fd5b81019080803573ffffffffffffffffffffffffffffffffffffffff16906020019092919080359060200190929190803590602001909291905050506134c7565b6040518082815260200191505060405180910390f35b61097d6004803603606081101561092757600080fd5b8101908080359060200190929190803573ffffffffffffffffffffffffffffffffffffffff169060200190929190803573ffffffffffffffffffffffffffffffffffffffff169060200190929190505050613970565b6040518082815260200191505060405180910390f35b6109bf600480360360208110156109a957600080fd5b8101908080359060200190929190505050613b18565b6040518082815260200191505060405180910390f35b610a17600480360360208110156109eb57600080fd5b81019080803573ffffffffffffffffffffffffffffffffffffffff169060200190929190505050613bcf565b005b610a4560048036036020811015610a2f57600080fd5b8101908080359060200190929190505050613e10565b604051808a8152602001806020018973ffffffffffffffffffffffffffffffffffffffff1673ffffffffffffffffffffffffffffffffffffffff16815260200188815260200187815260200186815260200185815260200184815260200183815260200182810382528a818151815260200191508051906020019080838360005b83811015610ae1578082015181840152602081019050610ac6565b50505050905090810190601f168015610b0e5780820380516001836020036101000a031916815260200191505b509a505050505050505050505060405180910390f35b610b5060048036036020811015610b3a57600080fd5b8101908080359060200190929190505050613f16565b005b610b7e60048036036020811015610b6857600080fd5b8101908080359060200190929190505050614208565b60405180848152602001838152602001828152602001935050505060405180910390f35b610baa614277565b6040518082815260200191505060405180910390f35b610bec60048036036020811015610bd657600080fd5b810190808035906020019092919050505061429b565b005b610c3060048036036020811015610c0457600080fd5b81019080803573ffffffffffffffffffffffffffffffffffffffff1690602001909291905050506146f3565b6040518082815260200191505060405180910390f35b610c7260048036036020811015610c5c57600080fd5b810190808035906020019092919050505061470b565b005b610ca060048036036020811015610c8a57600080fd5b810190808035906020019092919050505061497f565b604051808660ff1660ff16815260200185151515158152602001841515151581526020018381526020018281526020019550505050505060405180910390f35b610d0c60048036036020811015610cf657600080fd5b81019080803590602001909291905050506149dc565b005b610d16614b14565b6040518082815260200191505060405180910390f35b610d5860048036036020811015610d4257600080fd5b8101908080359060200190929190505050614b1a565b604051808273ffffffffffffffffffffffffffffffffffffffff1673ffffffffffffffffffffffffffffffffffffffff16815260200191505060405180910390f35b600060036000838152602001908152602001600020600601549050919050565b60048181548110610dc757fe5b906000526020600020016000915090505481565b600060807fffffffffffffffffffffffffffffffffffffffffffffffffffffffffffffffff6fffffffffffffffffffffffffffffffff16901b82169050919050565b7fffffffffffffffffffffffffffffffffffffffffffffffffffffffffffffffff6fffffffffffffffffffffffffffffffff1681565b803373ffffffffffffffffffffffffffffffffffffffff166000809054906101000a900473ffffffffffffffffffffffffffffffffffffffff1673ffffffffffffffffffffffffffffffffffffffff16636352211e836040518263ffffffff1660e01b81526004018082815260200191505060206040518083038186803b158015610edd57600080fd5b505afa158015610ef1573d6000803e3d6000fd5b505050506040513d6020811015610f0757600080fd5b810190808051906020019092919050505073ffffffffffffffffffffffffffffffffffffffff1614610fa1576040517f08c379a000000000000000000000000000000000000000000000000000000000815260040180806020018281038252600e8152602001807f554e415554484f52495a45445f5600000000000000000000000000000000000081525060200191505060405180910390fd5b610fcd6007600084815260200190815260200160002060000160009054906101000a900460ff16614bd0565b61103f576040517f08c379a00000000000000000000000000000000000000000000000000000000081526004018080602001828103825260138152602001807f494e4150504c494341424c455f5354415455530000000000000000000000000081525060200191505060405180910390fd5b61104882613225565b504260076000848152602001908152602001600020600101819055506110926007600084815260200190815260200160002060000160009054906101000a900460ff166005614bed565b6007600084815260200190815260200160002060000160006101000a81548160ff021916908360ff1602179055507f66d163993c35c8d3a90f3fbce008096384de89ec441c60c9b9f79aaad36616ff826040518082815260200191505060405180910390a15050565b803373ffffffffffffffffffffffffffffffffffffffff166000809054906101000a900473ffffffffffffffffffffffffffffffffffffffff1673ffffffffffffffffffffffffffffffffffffffff16636352211e836040518263ffffffff1660e01b81526004018082815260200191505060206040518083038186803b15801561118557600080fd5b505afa158015611199573d6000803e3d6000fd5b505050506040513d60208110156111af57600080fd5b810190808051906020019092919050505073ffffffffffffffffffffffffffffffffffffffff1614611249576040517f08c379a000000000000000000000000000000000000000000000000000000000815260040180806020018281038252600e8152602001807f554e415554484f52495a45445f5600000000000000000000000000000000000081525060200191505060405180910390fd5b6112776007600084815260200190815260200160002060000160009054906101000a900460ff166003614c04565b156112ea576040517f08c379a00000000000000000000000000000000000000000000000000000000081526004018080602001828103825260128152602001807f414c52454144595f434f4d504c41494e4544000000000000000000000000000081525060200191505060405180910390fd5b6113186007600084815260200190815260200160002060000160009054906101000a900460ff166001614c04565b1561138b576040517f08c379a00000000000000000000000000000000000000000000000000000000081526004018080602001828103825260118152602001807f414c52454144595f46494e414c495a454400000000000000000000000000000081525060200191505060405180910390fd5b61139361561d565b600360006113a085613b18565b81526020019081526020016000206040518061012001604052908160008201548152602001600182018054600181600116156101000203166002900480601f01602080910402602001604051908101604052809291908181526020018280546001816001161561010002031660029004801561145d5780601f106114325761010080835404028352916020019161145d565b820191906000526020600020905b81548152906001019060200180831161144057829003601f168201915b505050505081526020016002820160009054906101000a900473ffffffffffffffffffffffffffffffffffffffff1673ffffffffffffffffffffffffffffffffffffffff1673ffffffffffffffffffffffffffffffffffffffff168152602001600382015481526020016004820154815260200160058201548152602001600682015481526020016007820154815260200160088201548152505090506115266007600085815260200190815260200160002060000160009054906101000a900460ff16614c20565b8061155957506115586007600085815260200190815260200160002060000160009054906101000a900460ff16614c47565b5b1561176d5761158c6007600085815260200190815260200160002060000160009054906101000a900460ff166002614c04565b61162957600e54600d5460076000868152602001908152602001600020600101540101421115611624576040517f08c379a00000000000000000000000000000000000000000000000000000000081526004018080602001828103825260168152602001807f434f4d504c41494e504552494f445f455850495245440000000000000000000081525060200191505060405180910390fd5b6116ba565b600d546007600085815260200190815260200160002060010154014211156116b9576040517f08c379a00000000000000000000000000000000000000000000000000000000081526004018080602001828103825260168152602001807f434f4d504c41494e504552494f445f455850495245440000000000000000000081525060200191505060405180910390fd5b5b4260076000858152602001908152602001600020600201819055506117036007600085815260200190815260200160002060000160009054906101000a900460ff166003614bed565b6007600085815260200190815260200160002060000160006101000a81548160ff021916908360ff1602179055507f0411cc6d1d8430de89b9f9fdd063617e55946cddb8538d3407f516882db59455836040518082815260200191505060405180910390a1611b54565b6117996007600085815260200190815260200160002060000160009054906101000a900460ff16614c6e565b15611989576117cc6007600085815260200190815260200160002060000160009054906101000a900460ff166002614c04565b61185757600e54600d5482608001510101421115611852576040517f08c379a00000000000000000000000000000000000000000000000000000000081526004018080602001828103825260168152602001807f434f4d504c41494e504552494f445f455850495245440000000000000000000081525060200191505060405180910390fd5b6118d6565b600d548160800151014211156118d5576040517f08c379a00000000000000000000000000000000000000000000000000000000081526004018080602001828103825260168152602001807f434f4d504c41494e504552494f445f455850495245440000000000000000000081525060200191505060405180910390fd5b5b42600760008581526020019081526020016000206002018190555061191f6007600085815260200190815260200160002060000160009054906101000a900460ff166003614bed565b6007600085815260200190815260200160002060000160006101000a81548160ff021916908360ff1602179055507f0411cc6d1d8430de89b9f9fdd063617e55946cddb8538d3407f516882db59455836040518082815260200191505060405180910390a1611b53565b6119b76007600085815260200190815260200160002060000160009054906101000a900460ff166002614c04565b15611ae457600d54600760008581526020019081526020016000206001015401421115611a4c576040517f08c379a00000000000000000000000000000000000000000000000000000000081526004018080602001828103825260168152602001807f434f4d504c41494e504552494f445f455850495245440000000000000000000081525060200191505060405180910390fd5b611a7a6007600085815260200190815260200160002060000160009054906101000a900460ff166003614bed565b6007600085815260200190815260200160002060000160006101000a81548160ff021916908360ff1602179055507f0411cc6d1d8430de89b9f9fdd063617e55946cddb8538d3407f516882db59455836040518082815260200191505060405180910390a1611b52565b6040517f08c379a00000000000000000000000000000000000000000000000000000000081526004018080602001828103825260138152602001807f494e4150504c494341424c455f5354415455530000000000000000000000000081525060200191505060405180910390fd5b5b5b505050565b60008060006007600085815260200190815260200160002060000160009054906101000a900460ff166007600086815260200190815260200160002060000160019054906101000a900460ff166007600087815260200190815260200160002060000160029054906101000a900460ff169250925092509193909250565b60008073ffffffffffffffffffffffffffffffffffffffff16600260009054906101000a900473ffffffffffffffffffffffffffffffffffffffff1673ffffffffffffffffffffffffffffffffffffffff161415611c9d576040517f08c379a00000000000000000000000000000000000000000000000000000000081526004018080602001828103825260138152602001807f554e5350454349464945445f434153484945520000000000000000000000000081525060200191505060405180910390fd5b600260009054906101000a900473ffffffffffffffffffffffffffffffffffffffff1673ffffffffffffffffffffffffffffffffffffffff163373ffffffffffffffffffffffffffffffffffffffff1614611d60576040517f08c379a000000000000000000000000000000000000000000000000000000000815260040180806020018281038252600e8152602001807f554e415554484f52495a45445f4300000000000000000000000000000000000081525060200191505060405180910390fd5b84861115611dd6576040517f08c379a00000000000000000000000000000000000000000000000000000000081526004018080602001828103825260158152602001807f494e56414c49445f56414c49444954595f46524f4d000000000000000000000081525060200191505060405180910390fd5b42851015611e4c576040517f08c379a00000000000000000000000000000000000000000000000000000000081526004018080602001828103825260138152602001807f494e56414c49445f56414c49444954595f544f0000000000000000000000000081525060200191505060405180910390fd5b600088888888604051602001808585808284378083019250505083815260200182815260200194505050505060405160208183030381529060405280519060200120905060006004805490501115611f4257806004600360008481526020019081526020016000206008015481548110611ec257fe5b90600052602060002001541415611f41576040517f08c379a00000000000000000000000000000000000000000000000000000000081526004018080602001828103825260168152602001807f50524f4d4953455f414c52454144595f4558495354530000000000000000000081525060200191505060405180910390fd5b5b6040518061012001604052808281526020018a8a8080601f016020809104026020016040519081016040528093929190818152602001838380828437600081840152601f19601f8201169050808301925050505050505081526020018b73ffffffffffffffffffffffffffffffffffffffff1681526020018881526020018781526020018681526020018581526020018481526020016004805490508152506003600083815260200190815260200160002060008201518160000155602082015181600101908051906020019061201a929190615682565b5060408201518160020160006101000a81548173ffffffffffffffffffffffffffffffffffffffff021916908373ffffffffffffffffffffffffffffffffffffffff160217905550606082015181600301556080820151816004015560a0820151816005015560c0820151816006015560e08201518160070155610100820151816008015590505060048190806001815401808255809150506001900390600052602060002001600090919091909150553373ffffffffffffffffffffffffffffffffffffffff1689896040518083838082843780830192505050925050506040518091039020827f3ba1c1cdec933f731add8eb7757d3fd2f4dcce6c60617a395377917f3328c4b38a8a60016004805490500360405180848152602001838152602001828152602001935050505060405180910390a48091505098975050505050505050565b60006008600083815260200190815260200160002060009054906101000a900473ffffffffffffffffffffffffffffffffffffffff169050919050565b600260009054906101000a900473ffffffffffffffffffffffffffffffffffffffff1681565b600081141561223b576040517f08c379a000000000000000000000000000000000000000000000000000000000815260040180806020018281038252600e8152602001807f554e5350454349464945445f494400000000000000000000000000000000000081525060200191505060405180910390fd5b60006007600083815260200190815260200160002060000160009054906101000a900460ff16905061226e816001614c04565b156122e1576040517f08c379a00000000000000000000000000000000000000000000000000000000081526004018080602001828103825260118152602001807f414c52454144595f46494e414c495a454400000000000000000000000000000081525060200191505060405180910390fd5b60006122eb61561d565b600360006122f886613b18565b81526020019081526020016000206040518061012001604052908160008201548152602001600182018054600181600116156101000203166002900480601f0160208091040260200160405190810160405280929190818152602001828054600181600116156101000203166002900480156123b55780601f1061238a576101008083540402835291602001916123b5565b820191906000526020600020905b81548152906001019060200180831161239857829003601f168201915b505050505081526020016002820160009054906101000a900473ffffffffffffffffffffffffffffffffffffffff1673ffffffffffffffffffffffffffffffffffffffff1673ffffffffffffffffffffffffffffffffffffffff1681526020016003820154815260200160048201548152602001600582015481526020016006820154815260200160078201548152602001600882015481525050905061245d836003614c04565b156124a75761246d836002614c04565b1561247b57600191506124a2565b600e5460076000868152602001908152602001600020600101540142106124a157600191505b5b612555565b6124b2836002614c04565b80156124d85750600d546007600086815260200190815260200160002060010154014210155b156124e65760019150612554565b6124ef83614c20565b806124ff57506124fe83614c47565b5b1561252f57600d54600760008681526020019081526020016000206001015401421061252a57600191505b612553565b61253883614c6e565b1561255257600d54816080015101421061255157600191505b5b5b5b5b811561260057612566836001614bed565b6007600086815260200190815260200160002060000160006101000a81548160ff021916908360ff1602179055507f28c953c622aa90e006382693080fb83e2add147a386446e0f24572c6b071adfa8433604051808381526020018273ffffffffffffffffffffffffffffffffffffffff1673ffffffffffffffffffffffffffffffffffffffff1681526020019250505060405180910390a15b50505050565b6000600560008373ffffffffffffffffffffffffffffffffffffffff1673ffffffffffffffffffffffffffffffffffffffff168152602001908152602001600020549050919050565b600073ffffffffffffffffffffffffffffffffffffffff16600260009054906101000a900473ffffffffffffffffffffffffffffffffffffffff1673ffffffffffffffffffffffffffffffffffffffff161415612714576040517f08c379a00000000000000000000000000000000000000000000000000000000081526004018080602001828103825260138152602001807f554e5350454349464945445f434153484945520000000000000000000000000081525060200191505060405180910390fd5b600260009054906101000a900473ffffffffffffffffffffffffffffffffffffffff1673ffffffffffffffffffffffffffffffffffffffff163373ffffffffffffffffffffffffffffffffffffffff16146127d7576040517f08c379a000000000000000000000000000000000000000000000000000000000815260040180806020018281038252600e8152602001807f554e415554484f52495a45445f4300000000000000000000000000000000000081525060200191505060405180910390fd5b600081141561284e576040517f08c379a000000000000000000000000000000000000000000000000000000000815260040180806020018281038252600e8152602001807f554e5350454349464945445f494400000000000000000000000000000000000081525060200191505060405180910390fd5b60016007600083815260200190815260200160002060000160016101000a81548160ff0219169083151502179055507ff570ce8ad3bc67469a0b8e53a32bba1edd0105fc668c1278225660d2291cc554816000604051808381526020018260ff1681526020019250505060405180910390a150565b60066020528060005260406000206000915090505481565b3373ffffffffffffffffffffffffffffffffffffffff166128fb82612161565b73ffffffffffffffffffffffffffffffffffffffff1614612984576040517f08c379a00000000000000000000000000000000000000000000000000000000081526004018080602001828103825260108152602001807f554e415554484f52495a45445f434f460000000000000000000000000000000081525060200191505060405180910390fd5b60006007600083815260200190815260200160002060000160009054906101000a900460ff1690506129b7816002614c04565b15612a2a576040517f08c379a00000000000000000000000000000000000000000000000000000000081526004018080602001828103825260138152602001807f414c52454144595f43414e43454c4641554c540000000000000000000000000081525060200191505060405180910390fd5b612a35816001614c04565b15612aa8576040517f08c379a00000000000000000000000000000000000000000000000000000000081526004018080602001828103825260118152602001807f414c52454144595f46494e414c495a454400000000000000000000000000000081525060200191505060405180910390fd5b612ab061561d565b60036000612abd85613b18565b81526020019081526020016000206040518061012001604052908160008201548152602001600182018054600181600116156101000203166002900480601f016020809104026020016040519081016040528092919081815260200182805460018160011615610100020316600290048015612b7a5780601f10612b4f57610100808354040283529160200191612b7a565b820191906000526020600020905b815481529060010190602001808311612b5d57829003601f168201915b505050505081526020016002820160009054906101000a900473ffffffffffffffffffffffffffffffffffffffff1673ffffffffffffffffffffffffffffffffffffffff1673ffffffffffffffffffffffffffffffffffffffff16815260200160038201548152602001600482015481526020016005820154815260200160068201548152602001600782015481526020016008820154815250509050612c22826006614c04565b80612c345750612c33826005614c04565b5b15612d9257612c44826003614c04565b612cfc57600e54600d5460076000868152602001908152602001600020600101540101421115612cdc576040517f08c379a00000000000000000000000000000000000000000000000000000000081526004018080602001828103825260118152602001807f434f46504552494f445f4558504952454400000000000000000000000000000081525060200191505060405180910390fd5b426007600085815260200190815260200160002060010181905550612d8d565b600e54600760008581526020019081526020016000206002015401421115612d8c576040517f08c379a00000000000000000000000000000000000000000000000000000000081526004018080602001828103825260118152602001807f434f46504552494f445f4558504952454400000000000000000000000000000081525060200191505060405180910390fd5b5b612fd3565b612d9d826004614c04565b15612ece57612dad826003614c04565b612e3857600e54600d5482608001510101421115612e33576040517f08c379a00000000000000000000000000000000000000000000000000000000081526004018080602001828103825260118152602001807f434f46504552494f445f4558504952454400000000000000000000000000000081525060200191505060405180910390fd5b612ec9565b600e54600760008581526020019081526020016000206002015401421115612ec8576040517f08c379a00000000000000000000000000000000000000000000000000000000081526004018080602001828103825260118152602001807f434f46504552494f445f4558504952454400000000000000000000000000000081525060200191505060405180910390fd5b5b612fd2565b612ed782614bd0565b15612f6357600e54600d5482608001510101421115612f5e576040517f08c379a00000000000000000000000000000000000000000000000000000000081526004018080602001828103825260118152602001807f434f46504552494f445f4558504952454400000000000000000000000000000081525060200191505060405180910390fd5b612fd1565b6040517f08c379a00000000000000000000000000000000000000000000000000000000081526004018080602001828103825260138152602001807f494e4150504c494341424c455f5354415455530000000000000000000000000081525060200191505060405180910390fd5b5b5b612fde826002614bed565b6007600085815260200190815260200160002060000160006101000a81548160ff021916908360ff1602179055507f125d1de9ad96c695c95a8de033058d2c00835a1e0cbf24b7fa3de72f603c8709836040518082815260200191505060405180910390a1505050565b600e5481565b60807fffffffffffffffffffffffffffffffffffffffffffffffffffffffffffffffff6fffffffffffffffffffffffffffffffff16901b81565b60006004828154811061309757fe5b90600052602060002001549050919050565b600160009054906101000a900473ffffffffffffffffffffffffffffffffffffffff1673ffffffffffffffffffffffffffffffffffffffff163373ffffffffffffffffffffffffffffffffffffffff161461316c576040517f08c379a000000000000000000000000000000000000000000000000000000000815260040180806020018281038252600e8152602001807f554e415554484f52495a45445f4f00000000000000000000000000000000000081525060200191505060405180910390fd5b80600d819055507f08bf60d0e489e33912f3ba0f81f21c6f2ad2499a36dfebfb6cfbfefcc49f3cca8133604051808381526020018273ffffffffffffffffffffffffffffffffffffffff1673ffffffffffffffffffffffffffffffffffffffff1681526020019250505060405180910390a150565b600160009054906101000a900473ffffffffffffffffffffffffffffffffffffffff1681565b600c5481565b600b6020528060005260406000206000915090505481565b600061322f61561d565b6003600061323c85613b18565b81526020019081526020016000206040518061012001604052908160008201548152602001600182018054600181600116156101000203166002900480601f0160208091040260200160405190810160405280929190818152602001828054600181600116156101000203166002900480156132f95780601f106132ce576101008083540402835291602001916132f9565b820191906000526020600020905b8154815290600101906020018083116132dc57829003601f168201915b505050505081526020016002820160009054906101000a900473ffffffffffffffffffffffffffffffffffffffff1673ffffffffffffffffffffffffffffffffffffffff1673ffffffffffffffffffffffffffffffffffffffff168152602001600382015481526020016004820154815260200160058201548152602001600682015481526020016007820154815260200160088201548152505090504281606001511115613410576040517f08c379a00000000000000000000000000000000000000000000000000000000081526004018080602001828103825260158152602001807f494e56414c49445f56414c49444954595f46524f4d000000000000000000000081525060200191505060405180910390fd5b428160800151101561348a576040517f08c379a00000000000000000000000000000000000000000000000000000000081526004018080602001828103825260138152602001807f494e56414c49445f56414c49444954595f544f0000000000000000000000000081525060200191505060405180910390fd5b6001915050919050565b60086020528060005260406000206000915054906101000a900473ffffffffffffffffffffffffffffffffffffffff1681565b60008073ffffffffffffffffffffffffffffffffffffffff16600260009054906101000a900473ffffffffffffffffffffffffffffffffffffffff1673ffffffffffffffffffffffffffffffffffffffff16141561358d576040517f08c379a00000000000000000000000000000000000000000000000000000000081526004018080602001828103825260138152602001807f554e5350454349464945445f434153484945520000000000000000000000000081525060200191505060405180910390fd5b600260009054906101000a900473ffffffffffffffffffffffffffffffffffffffff1673ffffffffffffffffffffffffffffffffffffffff163373ffffffffffffffffffffffffffffffffffffffff1614613650576040517f08c379a000000000000000000000000000000000000000000000000000000000815260040180806020018281038252600e8152602001807f554e415554484f52495a45445f4300000000000000000000000000000000000081525060200191505060405180910390fd5b6000801b8314156136c9576040517f08c379a00000000000000000000000000000000000000000000000000000000081526004018080602001828103825260138152602001807f554e5350454349464945445f50524f4d4953450000000000000000000000000081525060200191505060405180910390fd5b8373ffffffffffffffffffffffffffffffffffffffff166003600085815260200190815260200160002060020160009054906101000a900473ffffffffffffffffffffffffffffffffffffffff1673ffffffffffffffffffffffffffffffffffffffff16146137a0576040517f08c379a000000000000000000000000000000000000000000000000000000000815260040180806020018281038252600f8152602001807f554e415554484f52495a45445f434f000000000000000000000000000000000081525060200191505060405180910390fd5b60008211613816576040517f08c379a00000000000000000000000000000000000000000000000000000000081526004018080602001828103825260108152602001807f494e56414c49445f5155414e544954590000000000000000000000000000000081525060200191505060405180910390fd5b60006138226001614c95565b90506000809054906101000a900473ffffffffffffffffffffffffffffffffffffffff1673ffffffffffffffffffffffffffffffffffffffff1663731133e98683866040518463ffffffff1660e01b8152600401808473ffffffffffffffffffffffffffffffffffffffff1673ffffffffffffffffffffffffffffffffffffffff16815260200183815260200182815260200180602001828103825260008152602001602001945050505050600060405180830381600087803b1580156138e857600080fd5b505af11580156138fc573d6000803e3d6000fd5b5050505083600660008381526020019081526020016000208190555082600560008773ffffffffffffffffffffffffffffffffffffffff1673ffffffffffffffffffffffffffffffffffffffff16815260200190815260200160002060008282540192505081905550809150509392505050565b60008073ffffffffffffffffffffffffffffffffffffffff16600260009054906101000a900473ffffffffffffffffffffffffffffffffffffffff1673ffffffffffffffffffffffffffffffffffffffff161415613a36576040517f08c379a00000000000000000000000000000000000000000000000000000000081526004018080602001828103825260138152602001807f554e5350454349464945445f434153484945520000000000000000000000000081525060200191505060405180910390fd5b600260009054906101000a900473ffffffffffffffffffffffffffffffffffffffff1673ffffffffffffffffffffffffffffffffffffffff163373ffffffffffffffffffffffffffffffffffffffff1614613af9576040517f08c379a000000000000000000000000000000000000000000000000000000000815260040180806020018281038252600e8152602001807f554e415554484f52495a45445f4300000000000000000000000000000000000081525060200191505060405180910390fd5b613b04848484614cf1565b613b0f8383866150ae565b90509392505050565b600080821415613b90576040517f08c379a000000000000000000000000000000000000000000000000000000000815260040180806020018281038252600e8152602001807f554e5350454349464945445f494400000000000000000000000000000000000081525060200191505060405180910390fd5b6000613b9b83610ddb565b9050600360006006600084815260200190815260200160002054815260200190815260200160002060000154915050919050565b600160009054906101000a900473ffffffffffffffffffffffffffffffffffffffff1673ffffffffffffffffffffffffffffffffffffffff163373ffffffffffffffffffffffffffffffffffffffff1614613c92576040517f08c379a000000000000000000000000000000000000000000000000000000000815260040180806020018281038252600e8152602001807f554e415554484f52495a45445f4f00000000000000000000000000000000000081525060200191505060405180910390fd5b600073ffffffffffffffffffffffffffffffffffffffff168173ffffffffffffffffffffffffffffffffffffffff161415613d35576040517f08c379a00000000000000000000000000000000000000000000000000000000081526004018080602001828103825260138152602001807f554e5350454349464945445f414444524553530000000000000000000000000081525060200191505060405180910390fd5b80600260006101000a81548173ffffffffffffffffffffffffffffffffffffffff021916908373ffffffffffffffffffffffffffffffffffffffff1602179055507fcd124a0a6c3182c7bb77b8052823a4bf7d0a4c90016ffc4d53b969f98d3f8b888133604051808373ffffffffffffffffffffffffffffffffffffffff1673ffffffffffffffffffffffffffffffffffffffff1681526020018273ffffffffffffffffffffffffffffffffffffffff1673ffffffffffffffffffffffffffffffffffffffff1681526020019250505060405180910390a150565b6003602052806000526040600020600091509050806000015490806001018054600181600116156101000203166002900480601f016020809104026020016040519081016040528092919081815260200182805460018160011615610100020316600290048015613ec25780601f10613e9757610100808354040283529160200191613ec2565b820191906000526020600020905b815481529060010190602001808311613ea557829003601f168201915b5050505050908060020160009054906101000a900473ffffffffffffffffffffffffffffffffffffffff16908060030154908060040154908060050154908060060154908060070154908060080154905089565b6000811415613f8d576040517f08c379a000000000000000000000000000000000000000000000000000000000815260040180806020018281038252600e8152602001807f554e5350454349464945445f494400000000000000000000000000000000000081525060200191505060405180910390fd5b613f9561561d565b60036000613fa284613b18565b81526020019081526020016000206040518061012001604052908160008201548152602001600182018054600181600116156101000203166002900480601f01602080910402602001604051908101604052809291908181526020018280546001816001161561010002031660029004801561405f5780601f106140345761010080835404028352916020019161405f565b820191906000526020600020905b81548152906001019060200180831161404257829003601f168201915b505050505081526020016002820160009054906101000a900473ffffffffffffffffffffffffffffffffffffffff1673ffffffffffffffffffffffffffffffffffffffff1673ffffffffffffffffffffffffffffffffffffffff1681526020016003820154815260200160048201548152602001600582015481526020016006820154815260200160078201548152602001600882015481525050905042816080015110801561413757506141366007600084815260200190815260200160002060000160009054906101000a900460ff16614bd0565b5b156142045761416a6007600084815260200190815260200160002060000160009054906101000a900460ff166004614bed565b6007600084815260200190815260200160002060000160006101000a81548160ff021916908360ff1602179055507f0fbb6c447a631ca170fad3c540d76f932db4c444d82bc160f7e3eebc6a5f67408233604051808381526020018273ffffffffffffffffffffffffffffffffffffffff1673ffffffffffffffffffffffffffffffffffffffff1681526020019250505060405180910390a15b5050565b60008060008060066000868152602001908152602001600020549050600360008281526020019081526020016000206005015460036000838152602001908152602001600020600601546003600084815260200190815260200160002060070154935093509350509193909250565b7f800000000000000000000000000000000000000000000000000000000000000081565b803373ffffffffffffffffffffffffffffffffffffffff166000809054906101000a900473ffffffffffffffffffffffffffffffffffffffff1673ffffffffffffffffffffffffffffffffffffffff16636352211e836040518263ffffffff1660e01b81526004018082815260200191505060206040518083038186803b15801561432557600080fd5b505afa158015614339573d6000803e3d6000fd5b505050506040513d602081101561434f57600080fd5b810190808051906020019092919050505073ffffffffffffffffffffffffffffffffffffffff16146143e9576040517f08c379a000000000000000000000000000000000000000000000000000000000815260040180806020018281038252600e8152602001807f554e415554484f52495a45445f5600000000000000000000000000000000000081525060200191505060405180910390fd5b6144156007600084815260200190815260200160002060000160009054906101000a900460ff16614bd0565b614487576040517f08c379a00000000000000000000000000000000000000000000000000000000081526004018080602001828103825260118152602001807f414c52454144595f50524f43455353454400000000000000000000000000000081525060200191505060405180910390fd5b61449082613225565b5061449961561d565b600360006144a685613b18565b81526020019081526020016000206040518061012001604052908160008201548152602001600182018054600181600116156101000203166002900480601f0160208091040260200160405190810160405280929190818152602001828054600181600116156101000203166002900480156145635780601f1061453857610100808354040283529160200191614563565b820191906000526020600020905b81548152906001019060200180831161454657829003601f168201915b505050505081526020016002820160009054906101000a900473ffffffffffffffffffffffffffffffffffffffff1673ffffffffffffffffffffffffffffffffffffffff1673ffffffffffffffffffffffffffffffffffffffff168152602001600382015481526020016004820154815260200160058201548152602001600682015481526020016007820154815260200160088201548152505090504260076000858152602001908152602001600020600101819055506146496007600085815260200190815260200160002060000160009054906101000a900460ff166006614bed565b6007600085815260200190815260200160002060000160006101000a81548160ff021916908360ff1602179055507f43a88bfc6f85aab9491c25f0ce50c4046d7cb7d4dc209b40914a2574d9855a5c83338360000151604051808481526020018373ffffffffffffffffffffffffffffffffffffffff1673ffffffffffffffffffffffffffffffffffffffff168152602001828152602001935050505060405180910390a1505050565b60056020528060005260406000206000915090505481565b600073ffffffffffffffffffffffffffffffffffffffff16600260009054906101000a900473ffffffffffffffffffffffffffffffffffffffff1673ffffffffffffffffffffffffffffffffffffffff1614156147d0576040517f08c379a00000000000000000000000000000000000000000000000000000000081526004018080602001828103825260138152602001807f554e5350454349464945445f434153484945520000000000000000000000000081525060200191505060405180910390fd5b600260009054906101000a900473ffffffffffffffffffffffffffffffffffffffff1673ffffffffffffffffffffffffffffffffffffffff163373ffffffffffffffffffffffffffffffffffffffff1614614893576040517f08c379a000000000000000000000000000000000000000000000000000000000815260040180806020018281038252600e8152602001807f554e415554484f52495a45445f4300000000000000000000000000000000000081525060200191505060405180910390fd5b600081141561490a576040517f08c379a000000000000000000000000000000000000000000000000000000000815260040180806020018281038252600e8152602001807f554e5350454349464945445f494400000000000000000000000000000000000081525060200191505060405180910390fd5b60016007600083815260200190815260200160002060000160026101000a81548160ff0219169083151502179055507ff570ce8ad3bc67469a0b8e53a32bba1edd0105fc668c1278225660d2291cc554816001604051808381526020018260ff1681526020019250505060405180910390a150565b60076020528060005260406000206000915090508060000160009054906101000a900460ff16908060000160019054906101000a900460ff16908060000160029054906101000a900460ff16908060010154908060020154905085565b600160009054906101000a900473ffffffffffffffffffffffffffffffffffffffff1673ffffffffffffffffffffffffffffffffffffffff163373ffffffffffffffffffffffffffffffffffffffff1614614a9f576040517f08c379a000000000000000000000000000000000000000000000000000000000815260040180806020018281038252600e8152602001807f554e415554484f52495a45445f4f00000000000000000000000000000000000081525060200191505060405180910390fd5b80600e819055507fff783d200775c8efda1ff912a95c6b9561e641cc8695e015340f06a5b3024f128133604051808381526020018273ffffffffffffffffffffffffffffffffffffffff1673ffffffffffffffffffffffffffffffffffffffff1681526020019250505060405180910390a150565b600d5481565b60008060009054906101000a900473ffffffffffffffffffffffffffffffffffffffff1673ffffffffffffffffffffffffffffffffffffffff16636352211e836040518263ffffffff1660e01b81526004018082815260200191505060206040518083038186803b158015614b8e57600080fd5b505afa158015614ba2573d6000803e3d6000fd5b505050506040513d6020811015614bb857600080fd5b81019080805190602001909291905050509050919050565b6000614bde60006007614bed565b60ff168260ff16149050919050565b60008160ff16600160ff16901b8317905092915050565b60006001808360ff168560ff16901c1660ff1614905092915050565b6000614c38614c3160006007614bed565b6006614bed565b60ff168260ff16149050919050565b6000614c5f614c5860006007614bed565b6005614bed565b60ff168260ff16149050919050565b6000614c86614c7f60006007614bed565b6004614bed565b60ff168260ff16149050919050565b6000600c600081548092919060010191905055508115614cdf576080600c54901b7f8000000000000000000000000000000000000000000000000000000000000000179050614ce9565b6080600c54901b90505b809050919050565b6000831415614d68576040517f08c379a000000000000000000000000000000000000000000000000000000000815260040180806020018281038252600e8152602001807f554e5350454349464945445f494400000000000000000000000000000000000081525060200191505060405180910390fd5b614d878173ffffffffffffffffffffffffffffffffffffffff166155d2565b15614eb1578073ffffffffffffffffffffffffffffffffffffffff166301ffc9a763150b7a026040518263ffffffff1660e01b8152600401808260e01b7bffffffffffffffffffffffffffffffffffffffffffffffffffffffff1916815260200191505060206040518083038186803b158015614e0357600080fd5b505afa158015614e17573d6000803e3d6000fd5b505050506040513d6020811015614e2d57600080fd5b8101908080519060200190929190505050614eb0576040517f08c379a000000000000000000000000000000000000000000000000000000000815260040180806020018281038252601b8152602001807f554e535550504f525445445f4552433732315f5245434549564544000000000081525060200191505060405180910390fd5b5b600073ffffffffffffffffffffffffffffffffffffffff168173ffffffffffffffffffffffffffffffffffffffff161415614f54576040517f08c379a00000000000000000000000000000000000000000000000000000000081526004018080602001828103825260138152602001807f554e5350454349464945445f414444524553530000000000000000000000000081525060200191505060405180910390fd5b60008060009054906101000a900473ffffffffffffffffffffffffffffffffffffffff1673ffffffffffffffffffffffffffffffffffffffff1662fdd58e84866040518363ffffffff1660e01b8152600401808373ffffffffffffffffffffffffffffffffffffffff1673ffffffffffffffffffffffffffffffffffffffff1681526020018281526020019250505060206040518083038186803b158015614ffb57600080fd5b505afa15801561500f573d6000803e3d6000fd5b505050506040513d602081101561502557600080fd5b8101908080519060200190929190505050116150a9576040517f08c379a000000000000000000000000000000000000000000000000000000000815260040180806020018281038252600b8152602001807f4f464645525f454d50545900000000000000000000000000000000000000000081525060200191505060405180910390fd5b505050565b60006150cf8373ffffffffffffffffffffffffffffffffffffffff166155d2565b156152985763150b7a0260e01b7bffffffffffffffffffffffffffffffffffffffffffffffffffffffff19168373ffffffffffffffffffffffffffffffffffffffff1663150b7a028633866040518463ffffffff1660e01b8152600401808473ffffffffffffffffffffffffffffffffffffffff1673ffffffffffffffffffffffffffffffffffffffff1681526020018373ffffffffffffffffffffffffffffffffffffffff1673ffffffffffffffffffffffffffffffffffffffff16815260200182815260200180602001828103825260008152602001602001945050505050602060405180830381600087803b1580156151ca57600080fd5b505af11580156151de573d6000803e3d6000fd5b505050506040513d60208110156151f457600080fd5b81019080805190602001909291905050507bffffffffffffffffffffffffffffffffffffffffffffffffffffffff191614615297576040517f08c379a000000000000000000000000000000000000000000000000000000000815260040180806020018281038252601b8152602001807f554e535550504f525445445f4552433732315f5245434549564544000000000081525060200191505060405180910390fd5b5b6000809054906101000a900473ffffffffffffffffffffffffffffffffffffffff1673ffffffffffffffffffffffffffffffffffffffff1663f5298aca858460016040518463ffffffff1660e01b8152600401808473ffffffffffffffffffffffffffffffffffffffff1673ffffffffffffffffffffffffffffffffffffffff1681526020018381526020018281526020019350505050600060405180830381600087803b15801561534957600080fd5b505af115801561535d573d6000803e3d6000fd5b50505050600560008573ffffffffffffffffffffffffffffffffffffffff1673ffffffffffffffffffffffffffffffffffffffff16815260200190815260200160002060008154809291906001900391905055506000600b600084815260200190815260200160002060008154600101919050819055831790506154056007600083815260200190815260200160002060000160009054906101000a900460ff166007614bed565b6007600083815260200190815260200160002060000160006101000a81548160ff021916908360ff16021790555060006007600083815260200190815260200160002060000160016101000a81548160ff02191690831515021790555060006007600083815260200190815260200160002060000160026101000a81548160ff0219169083151502179055506000809054906101000a900473ffffffffffffffffffffffffffffffffffffffff1673ffffffffffffffffffffffffffffffffffffffff166340c10f1985836040518363ffffffff1660e01b8152600401808373ffffffffffffffffffffffffffffffffffffffff1673ffffffffffffffffffffffffffffffffffffffff16815260200182815260200192505050602060405180830381600087803b15801561553957600080fd5b505af115801561554d573d6000803e3d6000fd5b505050506040513d602081101561556357600080fd5b810190808051906020019092919050505050846008600083815260200190815260200160002060006101000a81548173ffffffffffffffffffffffffffffffffffffffff021916908373ffffffffffffffffffffffffffffffffffffffff160217905550809150509392505050565b60008060007fc5d2460186f7233c927e7db2dcc703c0e500b653ca82273b7bfad8045d85a47060001b9050833f915080821415801561561457506000801b8214155b92505050919050565b6040518061012001604052806000801916815260200160608152602001600073ffffffffffffffffffffffffffffffffffffffff1681526020016000815260200160008152602001600081526020016000815260200160008152602001600081525090565b828054600181600116156101000203166002900490600052602060002090601f016020900481019282601f106156c357805160ff19168380011785556156f1565b828001600101855582156156f1579182015b828111156156f05782518255916020019190600101906156d5565b5b5090506156fe9190615702565b5090565b61572491905b80821115615720576000816000905550600101615708565b5090565b9056fea2646970667358221220971fb4800185418184d3ff162c0b5fc8beae242ea3e2cf795bd0eb2e635b84a464736f6c63430006080033",
  "source": "// SPDX-License-Identifier: LGPL-3.0-or-later\n\npragma solidity >=0.6.2 <0.7.0;\n\nimport \"@openzeppelin/contracts/utils/Address.sol\";\nimport \"./ERC1155ERC721.sol\";\nimport \"./usingHelpers.sol\";\n\n//preparing for ERC-1066, ERC-1444, EIP-838\n\n/**\n * @title VoucherKernel contract is controlling the core business logic\n * @dev Notes: \n *  - Since this is a demo app, it is not yet optimized. \n *      In the next phase, the bulk raw data will be packed into a single bytes32 field and/or pushed off-chain.\n *  - The usage of block.timestamp is honored since vouchers are defined with day-precision and the demo app is not covering all edge cases.\n *      See: https://ethereum.stackexchange.com/questions/5924/how-do-ethereum-mining-nodes-maintain-a-time-consistent-with-the-network/5931#5931\n*/\ncontract VoucherKernel is usingHelpers {    \n    using Address for address;\n    //using Counters for Counters.Counter;\n    //Counters.Counter private voucherTokenId; //unique IDs for voucher tokens\n    \n    //AssetRegistry assetRegistry;\n    ERC1155ERC721 tokensContract;\n        \n    //promise for an asset could be reusable, but simplified here for brevitbytes32\n    struct Promise {\n        bytes32 promiseId;\n        string assetTitle;      //the asset that is offered\n        address seller;       //the seller who created the promise        \n        \n        //we simplify the value for the demoapp, otherwise voucher details would be packed in one bytes32 field value\n        //bytes32 value;          //plays a role at redemption\n        uint256 validFrom;\n        uint256 validTo;\n        uint256 price;\n        uint256 depositSe;\n        uint256 depositBu;\n\n        //uint complainPeriod;   //complain period in no. of days (one day is 86400 seconds)\n        //uint cancelFaultPeriod;   //cancel or fault tx period in no. of days (one day is 86400 seconds)\n        uint idx;\n    }\n    \n    address public owner;           //contract owner\n    address public cashierAddress;  //address of the Cashier contract    \n    \n    mapping(bytes32 => Promise) public promises;    //promises to deliver goods or services\n    bytes32[] public promiseKeys;\n    \n    mapping(address => uint256) public accountSupply;\n    mapping(uint256 => bytes32) public ordersPromise;   //mapping between an order (supply token) and a promise\n    \n    mapping(uint256 => VoucherStatus) public vouchersStatus;    //recording the vouchers evolution\n    mapping(uint256 => address) public voucherIssuers;  //issuers of vouchers\n    \n    //standard reqs\n    mapping (uint256 => mapping(address => uint256)) private balances; //balance of token ids of an account\n    mapping (address => mapping(address => bool)) private operatorApprovals; //approval of accounts of an operator\n    \n    //ID reqs\n    mapping (uint256 => uint256) public typeCounters;           //counter for ID of a particular type of NFT\n    uint256 public constant MASK_TYPE = uint256(uint128(~0)) << 128;     //the type mask in the upper 128 bits\n//1111111111111111111111111111111111111111111111111111111111111111111111111111111111111111111111111111111111111111111111111111111100000000000000000000000000000000000000000000000000000000000000000000000000000000000000000000000000000000000000000000000000000000\n\n    uint256 public constant MASK_NF_INDEX = uint128(~0);    //the non-fungible index mask in the lower 128\n//0000000000000000000000000000000000000000000000000000000000000000000000000000000000000000000000000000000000000000000000000000000011111111111111111111111111111111111111111111111111111111111111111111111111111111111111111111111111111111111111111111111111111111    \n    \n    uint256 public constant TYPE_NF_BIT = 1 << 255; //the first bit represents an NFT type\n//1000000000000000000000000000000000000000000000000000000000000000000000000000000000000000000000000000000000000000000000000000000000000000000000000000000000000000000000000000000000000000000000000000000000000000000000000000000000000000000000000000000000000000    \n    \n    uint256 public typeId; //base token type ... 127-bits cover 1.701411835*10^38 types (not differentiating between FTs and NFTs)\n    /* Token IDs:\n    Fungibles: 0, followed by 127-bit FT type ID, in the upper 128 bits, followed by 0 in lower 128-bits\n    <0><uint127: base token id><uint128: 0>\n    \n    Non-fungible supply tokens: 1, followed by 127-bit NFT type ID, in the upper 128 bits, followed by 0 in lower 128-bits\n    <1><uint127: base token id><uint128: 0    \n    \n    Non-fungible vouchers: 1, followed by 127-bit NFT type ID, in the upper 128 bits, followed by a 1-based index of an NFT token ID.\n    <1><uint127: base token id><uint128: index of non-fungible>\n    */\n    \n    uint256 public complainPeriod; //for demo purposes, this is fixed/set by owner\n    uint256 public cancelFaultPeriod; //for demo purposes, this is fixed/set by owner\n    \n    \n    event LogPromiseCreated(\n        bytes32 indexed _promiseId,\n        string indexed _assetTitle,\n        address indexed _seller,\n        uint256 _validFrom,\n        uint256 _validTo,\n        //uint256 _price,\n        //uint256 _depositSe,\n        //uint256 _depositBu,\n        //uint256 _complainPeriod,\n        //uint256 _cancelFaultPeriod,\n        uint256 _idx\n    );\n    \n    event LogVoucherRedeemed(\n        uint256 _tokenIdVoucher,\n        address _holder,\n        bytes32 _promiseId\n    );\n    \n    event LogVoucherRefunded(\n        uint256 _tokenIdVoucher\n    );\n    \n    event LogVoucherComplain(\n        uint256 _tokenIdVoucher\n    );\n    \n    event LogVoucherFaultCancel(\n        uint256 _tokenIdVoucher\n    );\n    \n    event LogExpirationTriggered(\n        uint256 _tokenIdVoucher,\n        address _triggeredBy\n    );\n    \n    event LogFinalizeVoucher(\n        uint256 _tokenIdVoucher,\n        address _triggeredBy\n    );\n    \n    event LogCashierSet(\n        address _newCashier,\n        address _triggeredBy\n    );\n    \n    event LogComplainPeriodChanged(\n        uint256 _newComplainPeriod,\n        address _triggeredBy\n    );\n    \n    event LogCancelFaultPeriodChanged(\n        uint256 _newCancelFaultPeriod,\n        address _triggeredBy\n    );    \n    \n    event LogFundsReleased(\n        uint256 _tokenIdVoucher,\n        uint8 _type     //0 .. payment, 1 .. deposits\n    );\n\n\n    modifier onlyOwner() {\n        require(msg.sender == owner, \"UNAUTHORIZED_O\");   //hex\"10\" FISSION.code(FISSION.Category.Permission, FISSION.Status.Disallowed_Stop)\n        _;\n    }\n    \n    modifier onlyFromCashier() {\n        require(cashierAddress != address(0), \"UNSPECIFIED_CASHIER\");  //hex\"20\" FISSION.code(FISSION.Category.Find, FISSION.Status.NotFound_Unequal_OutOfRange)\n        require(msg.sender == cashierAddress, \"UNAUTHORIZED_C\");   //hex\"10\" FISSION.code(FISSION.Category.Permission, FISSION.Status.Disallowed_Stop)\n        _;\n    }\n    \n    modifier onlyVoucherOwner(uint256 _tokenIdVoucher) {\n        //check authorization\n        require(tokensContract.ownerOf(_tokenIdVoucher) == msg.sender, \"UNAUTHORIZED_V\");   //hex\"10\" FISSION.code(FISSION.Category.Permission, FISSION.Status.Disallowed_Stop)\n        _;\n    }\n    \n    constructor(\n        //address _assetRegistry,\n        address _tokensContract\n    )\n        public \n    {\n        owner = msg.sender;\n        tokensContract = ERC1155ERC721(_tokensContract);\n        \n        //AssetRegistry is currently not used to simplify the process.\n        //assetRegistry = AssetRegistry(_assetRegistry);\n        \n        complainPeriod = 7 * 1 days;\n        cancelFaultPeriod = 7 * 1 days;\n    }\n    \n    \n    /**\n        * @notice Creating a new promise for goods or services.\n        * Can be reused, e.g. for making different batches of these (but not in prototype).\n        * @param _seller      seller of the promise\n        * @param _assetTitle  Name of the asset\n        * @param _validFrom   Start of valid period\n        * @param _validTo     End of valid period\n        * @param _price       Price (payment amount)\n        * @param _depositSe   Seller's deposit\n        * @param _depositBu   Buyer's deposit\n    */\n    function createAssetPromise(\n        address _seller, \n        string calldata _assetTitle, \n        //bytes32 _value, \n        uint256 _validFrom,\n        uint256 _validTo,\n        uint256 _price,\n        uint256 _depositSe,\n        uint256 _depositBu\n        //uint256 _complainPeriod,\n        //uint256 _cancelFaultPeriod\n    ) \n        external \n        onlyFromCashier\n        returns (bytes32)\n    {\n        \n        require(_validFrom <= _validTo, \"INVALID_VALIDITY_FROM\");    //hex\"26\" FISSION.code(FISSION.Category.Find, FISSION.Status.Above_Range_Overflow)\n        require(_validTo >= block.timestamp, \"INVALID_VALIDITY_TO\");   //hex\"24\" FISSION.code(FISSION.Category.Find, FISSION.Status.BelowRange_Underflow)\n        \n        bytes32 key;\n        key = keccak256(abi.encodePacked(_assetTitle, _validFrom, _validTo));\n        \n        if (promiseKeys.length > 0) {\n            require(promiseKeys[promises[key].idx] != key, \"PROMISE_ALREADY_EXISTS\");\n        }\n        \n        promises[key] = Promise({\n            promiseId: key,\n            assetTitle: _assetTitle,\n            seller: _seller,\n            //value: _value,\n            validFrom: _validFrom,\n            validTo: _validTo,\n            price: _price,\n            depositSe: _depositSe,\n            depositBu: _depositBu,\n            //complainPeriod: _complainPeriod,\n            //cancelFaultPeriod: _cancelFaultPeriod,\n            idx: promiseKeys.length\n        });\n        \n        promiseKeys.push(key);\n        \n        emit LogPromiseCreated(key, _assetTitle, msg.sender, _validFrom, _validTo, //_price, _depositSe, _depositBu, _complainPeriod, _cancelFaultPeriod, \n                promiseKeys.length - 1);\n        \n        return key;\n    }    \n    \n    \n    /**\n     * @notice Create an order for offering a certain quantity of an asset\n     * This creates a listing in a marketplace, technically as an ERC-1155 non-fungible token with supply.\n     * @param _seller     seller of the promise\n     * @param _promiseId  ID of a promise (simplified into asset for demo)\n     * @param _quantity   Quantity of assets on offer\n     */\n    function createOrder(address _seller, bytes32 _promiseId, uint256 _quantity)\n        external \n        onlyFromCashier\n        returns (uint256)\n    {\n        require(_promiseId != bytes32(0), \"UNSPECIFIED_PROMISE\");   //hex\"20\" FISSION.code(FISSION.Category.Find, FISSION.Status.NotFound_Unequal_OutOfRange)\n        require(promises[_promiseId].seller == _seller, \"UNAUTHORIZED_CO\");    //hex\"10\" FISSION.code(FISSION.Category.Permission, FISSION.Status.Disallowed_Stop)\n        require(_quantity > 0, \"INVALID_QUANTITY\"); //hex\"24\" FISSION.code(FISSION.Category.Find, FISSION.Status.BelowRange_Underflow)\n        \n        uint256 tokenIdSupply = generateTokenType(true); //create & assign a new non-fungible type\n        tokensContract.mint(_seller, tokenIdSupply, _quantity, \"\");\n        \n        ordersPromise[tokenIdSupply] = _promiseId;\n        accountSupply[_seller] += _quantity;\n\n        return tokenIdSupply;\n    }\n    \n    \n     /**\n      * @notice Fill Voucher Order, iff funds paid, then extract & mint NFT to the voucher holder\n      * @param _tokenIdSupply   ID of the supply token (ERC-1155)\n      * @param _issuer          Address of the token's issuer\n      * @param _holder          Address of the recipient of the voucher (ERC-721)\n      */\n    function fillOrder(uint256 _tokenIdSupply, address _issuer, address _holder)\n        external\n        onlyFromCashier\n        returns (uint256)\n    {\n        //checks\n        checkOrderFillable(_tokenIdSupply, _issuer, _holder);\n\n        //close order\n        return extract721(_issuer, _holder, _tokenIdSupply);\n    }\n    \n    \n    /**\n     * @notice Check order is fillable\n     * @dev Will throw if checks don't pass\n     * @param _tokenIdSupply  ID of the supply token\n      * @param _issuer  Address of the token's issuer\n      * @param _holder  Address of the recipient of the voucher (ERC-721)  \n     */\n     function checkOrderFillable(uint256 _tokenIdSupply, address _issuer, address _holder)\n        internal\n        view\n    {\n        require(_tokenIdSupply != 0, \"UNSPECIFIED_ID\"); //hex\"20\" FISSION.code(FISSION.Category.Find, FISSION.Status.NotFound_Unequal_OutOfRange)\n\n        if (_holder.isContract()) {\n            require(IERC165(_holder).supportsInterface(0x150b7a02), \"UNSUPPORTED_ERC721_RECEIVED\");    //hex\"31\"\n            //bytes4(keccak256(\"onERC721Received(address,address,uint256,bytes)\"))\n        }        \n        \n        require(_holder != address(0), \"UNSPECIFIED_ADDRESS\");  //hex\"20\" FISSION.code(FISSION.Category.Find, FISSION.Status.NotFound_Unequal_OutOfRange)\n        require(tokensContract.balanceOf(_issuer, _tokenIdSupply) > 0, \"OFFER_EMPTY\");  //hex\"40\" FISSION.code(FISSION.Category.Availability, FISSION.Status.Unavailable)\n        \n    }\n    \n\n    /**\n     * @notice Extract a standard non-fungible token ERC-721 from a supply stored in ERC-1155\n     * @dev Token ID is derived following the same principles for both ERC-1155 and ERC-721\n     * @param _issuer          The address of the token issuer\n     * @param _to              The address of the token holder\n     * @param _tokenIdSupply   ID of the token type\n     * @return                 ID of the voucher token\n     */\n    function extract721(address _issuer, address _to, uint256 _tokenIdSupply)\n        internal\n        returns (uint256)\n    {\n        if (_to.isContract()) {\n            require(ERC721TokenReceiver(_to).onERC721Received(_issuer, msg.sender, _tokenIdSupply, \"\") == ERC721TokenReceiver(_to).onERC721Received.selector, \"UNSUPPORTED_ERC721_RECEIVED\");  //hex\"10\" FISSION.code(FISSION.Category.Permission, FISSION.Status.Disallowed_Stop)\n            //bytes4(keccak256(\"onERC721Received(address,address,uint256,bytes)\"))\n        } \n\n        tokensContract.burn(_issuer, _tokenIdSupply, 1);\n        accountSupply[_issuer]--;\n        \n        \n        //calculate tokenId\n        uint256 voucherTokenId = _tokenIdSupply | ++typeCounters[_tokenIdSupply];\n        \n        //set status\n        vouchersStatus[voucherTokenId].status = setChange(vouchersStatus[voucherTokenId].status, idxCommit);\n        vouchersStatus[voucherTokenId].isPaymentReleased = false;\n        vouchersStatus[voucherTokenId].isDepositsReleased = false;\n        \n        //mint voucher NFT as ERC-721\n        tokensContract.mint(_to, voucherTokenId);\n        voucherIssuers[voucherTokenId] = _issuer;\n        \n        return voucherTokenId;\n    }\n    \n    \n    /**\n     * @notice Creating a new token type, serving as the base for tokenID generation for NFTs, and a de facto ID for FTs.\n     * @param _isNonFungible   Flag for generating NFT or FT\n     * @return _tokenType   Returns a newly generated token type\n    */\n    function generateTokenType(bool _isNonFungible)\n        internal\n        returns (uint256 _tokenType)\n    {\n        typeId++;\n        \n        if (_isNonFungible) {\n            _tokenType = TYPE_NF_BIT | typeId << 128; //upper bit is 1, followed by sequence, leaving lower 128-bits as 0\n        } else {\n            _tokenType = typeId << 128; //upper bit is not set, followed by sequence, leaving lower 128-bits as 0\n        }\n        \n        //not needed:\n        //assert(typeId<max_uint127); //used all available space for types\"\n        \n        return _tokenType;\n    }\n    \n    \n    /**\n     * @notice Redemption of the vouchers promise\n     * @param _tokenIdVoucher   ID of the voucher\n     */\n    function redeem(uint256 _tokenIdVoucher)\n        external\n        onlyVoucherOwner(_tokenIdVoucher)\n    {\n        //check authorization\n        //require(tokensContract.ownerOf(_tokenIdVoucher) == msg.sender, \"UNAUTHORIZED\");   //hex\"10\" FISSION.code(FISSION.Category.Permission, FISSION.Status.Disallowed_Stop)\n        \n        //check status\n        require(isStateCommitted(vouchersStatus[_tokenIdVoucher].status), \"ALREADY_PROCESSED\"); //hex\"48\" FISSION.code(FISSION.Category.Availability, FISSION.Status.AlreadyDone)\n        \n        //check validity period\n        isInValidityPeriod(_tokenIdVoucher);\n        Promise memory tPromise = promises[getPromiseIdFromVoucherId(_tokenIdVoucher)];\n        //require(tPromise.validFrom <= block.timestamp, \"INVALID_VALIDITY_FROM\"); //hex\"26\" FISSION.code(FISSION.Category.Find, FISSION.Status.Above_Range_Overflow)\n        //require(tPromise.validTo >= block.timestamp, \"INVALID_VALIDITY_TO\");    //hex\"24\" FISSION.code(FISSION.Category.Find, FISSION.Status.BelowRange_Underflow)\n        \n        //check collection code and/or assign collector\n        \n        \n        vouchersStatus[_tokenIdVoucher].complainPeriodStart = block.timestamp;\n        vouchersStatus[_tokenIdVoucher].status = setChange(vouchersStatus[_tokenIdVoucher].status, idxRedeem);\n        \n        emit LogVoucherRedeemed(_tokenIdVoucher, msg.sender, tPromise.promiseId);\n    }\n    \n    \n    // // // // // // // //\n    // UNHAPPY PATH\n    // // // // // // // //  \n    \n    /**\n     * @notice Refunding a voucher\n     * @param _tokenIdVoucher   ID of the voucher\n     */\n    function refund(uint256 _tokenIdVoucher)\n        external\n        onlyVoucherOwner(_tokenIdVoucher)\n    {\n        require(isStateCommitted(vouchersStatus[_tokenIdVoucher].status), \"INAPPLICABLE_STATUS\");  //hex\"18\" FISSION.code(FISSION.Category.Permission, FISSION.Status.NotApplicatableToCurrentState)\n        \n        //check validity period\n        isInValidityPeriod(_tokenIdVoucher);\n        \n        //Promise memory tPromise = promises[getPromiseIdFromVoucherId(_tokenIdVoucher)];\n        \n        vouchersStatus[_tokenIdVoucher].complainPeriodStart = block.timestamp;\n        vouchersStatus[_tokenIdVoucher].status = setChange(vouchersStatus[_tokenIdVoucher].status, idxRefund);\n        \n        emit LogVoucherRefunded(_tokenIdVoucher);\n    }\n    \n    \n    /**\n     * @notice Issue a complain for a voucher\n     * @param _tokenIdVoucher   ID of the voucher\n     */\n    function complain(uint256 _tokenIdVoucher)\n        external\n        onlyVoucherOwner(_tokenIdVoucher)\n    {\n        require(!isStatus(vouchersStatus[_tokenIdVoucher].status, idxComplain), \"ALREADY_COMPLAINED\"); //hex\"48\" FISSION.code(FISSION.Category.Availability, FISSION.Status.AlreadyDone)\n        require(!isStatus(vouchersStatus[_tokenIdVoucher].status, idxFinal), \"ALREADY_FINALIZED\"); //hex\"48\" FISSION.code(FISSION.Category.Availability, FISSION.Status.AlreadyDone)\n        \n        //check if still in the complain period\n        Promise memory tPromise = promises[getPromiseIdFromVoucherId(_tokenIdVoucher)];\n        \n        //if redeeemed or refunded\n        if (isStateRedemptionSigned(vouchersStatus[_tokenIdVoucher].status) ||\n                    isStateRefunded(vouchersStatus[_tokenIdVoucher].status)) {\n            if (!isStatus(vouchersStatus[_tokenIdVoucher].status, idxCancelFault)) {\n                require(block.timestamp <= vouchersStatus[_tokenIdVoucher].complainPeriodStart + complainPeriod + cancelFaultPeriod, \"COMPLAINPERIOD_EXPIRED\"); //hex\"46\" FISSION.code(FISSION.Category.Availability, FISSION.Status.Expired)\n            } else {\n                require(block.timestamp <= vouchersStatus[_tokenIdVoucher].complainPeriodStart + complainPeriod, \"COMPLAINPERIOD_EXPIRED\"); //hex\"46\" FISSION.code(FISSION.Category.Availability, FISSION.Status.Expired)\n            }\n            \n            vouchersStatus[_tokenIdVoucher].cancelFaultPeriodStart = block.timestamp;\n            vouchersStatus[_tokenIdVoucher].status = setChange(vouchersStatus[_tokenIdVoucher].status, idxComplain);\n            \n            emit LogVoucherComplain(_tokenIdVoucher);\n            \n        //if expired\n        } else if (isStateExpired(vouchersStatus[_tokenIdVoucher].status)) {\n            if (!isStatus(vouchersStatus[_tokenIdVoucher].status, idxCancelFault)) {\n                require(block.timestamp <= tPromise.validTo + complainPeriod + cancelFaultPeriod, \"COMPLAINPERIOD_EXPIRED\"); //hex\"46\" FISSION.code(FISSION.Category.Availability, FISSION.Status.Expired)\n            } else {\n                require(block.timestamp <= tPromise.validTo + complainPeriod, \"COMPLAINPERIOD_EXPIRED\"); //hex\"46\" FISSION.code(FISSION.Category.Availability, FISSION.Status.Expired)\n            }\n            \n            vouchersStatus[_tokenIdVoucher].cancelFaultPeriodStart = block.timestamp;\n            vouchersStatus[_tokenIdVoucher].status = setChange(vouchersStatus[_tokenIdVoucher].status, idxComplain);\n            \n            emit LogVoucherComplain(_tokenIdVoucher);\n        \n        //if cancelOrFault\n        } else if (isStatus(vouchersStatus[_tokenIdVoucher].status, idxCancelFault)) {\n            require(block.timestamp <= vouchersStatus[_tokenIdVoucher].complainPeriodStart + complainPeriod, \"COMPLAINPERIOD_EXPIRED\"); //hex\"46\" FISSION.code(FISSION.Category.Availability, FISSION.Status.Expired));\n            \n            vouchersStatus[_tokenIdVoucher].status = setChange(vouchersStatus[_tokenIdVoucher].status, idxComplain);\n            \n            emit LogVoucherComplain(_tokenIdVoucher);\n            \n        } else {\n            revert(\"INAPPLICABLE_STATUS\");  //hex\"18\" FISSION.code(FISSION.Category.Permission, FISSION.Status.NotApplicatableToCurrentState)\n        }\n        \n    }\n    \n     \n    /**\n     * @notice Cancel/Fault transaction by the Seller, admitting to a fault or backing out of the deal\n     * @param _tokenIdVoucher   ID of the voucher\n     */\n    function cancelOrFault(uint256 _tokenIdVoucher)\n        external\n    {\n        require(getVoucherIssuer(_tokenIdVoucher) == msg.sender,\"UNAUTHORIZED_COF\");   //hex\"10\" FISSION.code(FISSION.Category.Permission, FISSION.Status.Disallowed_Stop)\n        \n        uint8 tStatus = vouchersStatus[_tokenIdVoucher].status;\n        \n        require(!isStatus(tStatus, idxCancelFault), \"ALREADY_CANCELFAULT\"); //hex\"48\" FISSION.code(FISSION.Category.Availability, FISSION.Status.AlreadyDone)\n        require(!isStatus(tStatus, idxFinal), \"ALREADY_FINALIZED\"); //hex\"48\" FISSION.code(FISSION.Category.Availability, FISSION.Status.AlreadyDone)\n        \n        Promise memory tPromise = promises[getPromiseIdFromVoucherId(_tokenIdVoucher)];\n        \n        if (isStatus(tStatus, idxRedeem) || isStatus(tStatus, idxRefund)) {\n            //if redeeemed or refunded\n            if (!isStatus(tStatus, idxComplain)) {\n                require(block.timestamp <= vouchersStatus[_tokenIdVoucher].complainPeriodStart + complainPeriod + cancelFaultPeriod, \"COFPERIOD_EXPIRED\"); //hex\"46\" FISSION.code(FISSION.Category.Availability, FISSION.Status.Expired)            \n                vouchersStatus[_tokenIdVoucher].complainPeriodStart = block.timestamp;  //resetting the complain period\n\n            } else {\n                require(block.timestamp <= vouchersStatus[_tokenIdVoucher].cancelFaultPeriodStart + cancelFaultPeriod, \"COFPERIOD_EXPIRED\"); //hex\"46\" FISSION.code(FISSION.Category.Availability, FISSION.Status.Expired)            \n            }\n            \n        } else if (isStatus(tStatus, idxExpire)) {\n            //if expired\n            if (!isStatus(tStatus, idxComplain)) {\n                require(block.timestamp <= tPromise.validTo + complainPeriod + cancelFaultPeriod, \"COFPERIOD_EXPIRED\"); //hex\"46\" FISSION.code(FISSION.Category.Availability, FISSION.Status.Expired)            \n            } else {\n                require(block.timestamp <= vouchersStatus[_tokenIdVoucher].cancelFaultPeriodStart + cancelFaultPeriod, \"COFPERIOD_EXPIRED\"); //hex\"46\" FISSION.code(FISSION.Category.Availability, FISSION.Status.Expired)            \n            }\n            \n        } else if (isStateCommitted(tStatus)) {\n            //if committed only\n            require(block.timestamp <= tPromise.validTo + complainPeriod + cancelFaultPeriod, \"COFPERIOD_EXPIRED\"); //hex\"46\" FISSION.code(FISSION.Category.Availability, FISSION.Status.Expired)       \n            \n        } else {\n            revert(\"INAPPLICABLE_STATUS\");  //hex\"18\" FISSION.code(FISSION.Category.Permission, FISSION.Status.NotApplicatableToCurrentState)\n        }\n    \n        vouchersStatus[_tokenIdVoucher].status = setChange(tStatus, idxCancelFault);\n        \n        emit LogVoucherFaultCancel(_tokenIdVoucher);\n        \n    }    \n    \n    \n    // // // // // // // //\n    // BACK-END PROCESS\n    // // // // // // // //      \n    \n    \n    /**\n     * @notice Mark voucher token that the payment was released\n     * @param _tokenIdVoucher   ID of the voucher token\n     */\n    function setPaymentReleased(uint256 _tokenIdVoucher)\n        external\n        onlyFromCashier\n    {\n        require(_tokenIdVoucher != 0, \"UNSPECIFIED_ID\");  //hex\"20\" FISSION.code(FISSION.Category.Find, FISSION.Status.NotFound_Unequal_OutOfRange)\n        vouchersStatus[_tokenIdVoucher].isPaymentReleased = true;\n        \n        emit LogFundsReleased(_tokenIdVoucher, 0);\n    }\n    \n\n    /**\n     * @notice Mark voucher token that the deposits were released\n     * @param _tokenIdVoucher   ID of the voucher token\n     */\n    function setDepositsReleased(uint256 _tokenIdVoucher)\n        external\n        onlyFromCashier\n    {\n        require(_tokenIdVoucher != 0, \"UNSPECIFIED_ID\");  //hex\"20\" FISSION.code(FISSION.Category.Find, FISSION.Status.NotFound_Unequal_OutOfRange)\n        vouchersStatus[_tokenIdVoucher].isDepositsReleased = true;\n        \n        emit LogFundsReleased(_tokenIdVoucher, 1);\n    }    \n    \n    \n    /**\n     * @notice Mark voucher token as expired\n     * @param _tokenIdVoucher   ID of the voucher token\n     */\n     //TODO: refactor to support array of inputs\n    function triggerExpiration(uint256 _tokenIdVoucher)\n        external\n    {\n        require(_tokenIdVoucher != 0, \"UNSPECIFIED_ID\");  //hex\"20\" FISSION.code(FISSION.Category.Find, FISSION.Status.NotFound_Unequal_OutOfRange)\n        \n        Promise memory tPromise = promises[getPromiseIdFromVoucherId(_tokenIdVoucher)];\n        \n        if (tPromise.validTo < block.timestamp &&\n            isStateCommitted(vouchersStatus[_tokenIdVoucher].status)\n            ) {\n                vouchersStatus[_tokenIdVoucher].status = setChange(vouchersStatus[_tokenIdVoucher].status, idxExpire);\n                \n                emit LogExpirationTriggered(_tokenIdVoucher, msg.sender);\n        }  \n    }\n    \n\n    /**\n     * @notice Mark voucher token to the final status\n     * @param _tokenIdVoucher   ID of the voucher token\n     */\n    //TODO: refactor to support array of inputs\n    function triggerFinalizeVoucher(uint256 _tokenIdVoucher)\n        external\n    {\n        require(_tokenIdVoucher != 0, \"UNSPECIFIED_ID\");  //hex\"20\" FISSION.code(FISSION.Category.Find, FISSION.Status.NotFound_Unequal_OutOfRange)\n        \n        uint8 tStatus = vouchersStatus[_tokenIdVoucher].status;\n        \n        require(!isStatus(tStatus, idxFinal), \"ALREADY_FINALIZED\"); //hex\"48\" FISSION.code(FISSION.Category.Availability, FISSION.Status.AlreadyDone)\n        \n        \n        bool mark;\n        Promise memory tPromise = promises[getPromiseIdFromVoucherId(_tokenIdVoucher)];\n        \n        if (isStatus(tStatus, idxComplain)) {\n            if (isStatus(tStatus, idxCancelFault)) {\n                //if COMPLAIN && COF: then final\n                mark = true;\n                \n            } else if (block.timestamp >= vouchersStatus[_tokenIdVoucher].complainPeriodStart + cancelFaultPeriod) {\n                //if COMPLAIN: then final after cof period\n                mark = true;\n            }\n            \n        } else if (isStatus(tStatus, idxCancelFault) &&\n                    block.timestamp >= vouchersStatus[_tokenIdVoucher].complainPeriodStart + complainPeriod\n                    ) {\n            //if COF: then final after complain period\n            mark = true;\n            \n        } else if (isStateRedemptionSigned(tStatus) ||\n                    isStateRefunded(tStatus)) {\n            //if RDM/RFND NON_COMPLAIN: then final after complainPeriodStart + complainPeriod\n            if (block.timestamp >= vouchersStatus[_tokenIdVoucher].complainPeriodStart + complainPeriod) {\n                mark = true;\n            }\n            \n        } else if (isStateExpired(tStatus)) {\n            //if EXP NON_COMPLAIN: then final after validTo + complainPeriod\n            if (block.timestamp >= tPromise.validTo + complainPeriod) {\n                mark = true;\n            }             \n        }\n        \n        if (mark) {\n            vouchersStatus[_tokenIdVoucher].status = setChange(tStatus, idxFinal);\n            emit LogFinalizeVoucher(_tokenIdVoucher, msg.sender);            \n        }\n        //\n    }    \n    \n    \n    // // // // // // // //\n    // UTILS \n    // // // // // // // //  \n    \n    /**\n     * @notice Set the address of the Cashier contract\n     * @param _cashierAddress   The address of the Cashier contract\n     */\n    function setCashierAddress(address _cashierAddress)\n        external\n        onlyOwner\n    {\n        require(_cashierAddress != address(0), \"UNSPECIFIED_ADDRESS\");  //hex\"20\" FISSION.code(FISSION.Category.Find, FISSION.Status.NotFound_Unequal_OutOfRange)\n        \n        cashierAddress = _cashierAddress;\n        \n        emit LogCashierSet(_cashierAddress, msg.sender);\n    }\n    \n    \n    /**\n     * @notice Set the general complain period, should be used sparingly as it has significant consequences. Here done simply for demo purposes.\n     * @param _complainPeriod   the new value for complain period (in number of seconds)\n     */\n    function setComplainPeriod(uint256 _complainPeriod)\n        external\n        onlyOwner\n    {\n        complainPeriod = _complainPeriod;\n        \n        emit LogComplainPeriodChanged(_complainPeriod, msg.sender);\n    }\n    \n    \n    /**\n     * @notice Set the general cancelOrFault period, should be used sparingly as it has significant consequences. Here done simply for demo purposes.\n     * @param _cancelFaultPeriod   the new value for cancelOrFault period (in number of seconds)\n     */\n    function setCancelFaultPeriod(uint256 _cancelFaultPeriod)\n        external\n        onlyOwner\n    {\n        cancelFaultPeriod = _cancelFaultPeriod;\n        \n        emit LogCancelFaultPeriodChanged(_cancelFaultPeriod, msg.sender);\n    }    \n    \n    \n    // // // // // // // //\n    // GETTERS \n    // // // // // // // //  \n    \n    /**\n     * @notice Get the promise ID at specific index\n     * @param _idx  Index in the array of promise keys\n     * @return      Promise ID\n     */\n    function getPromiseKey(uint256 _idx)\n        public view\n        returns (bytes32)\n    {\n        return promiseKeys[_idx];\n    }\n    \n    \n    /**\n     * @notice Get the supply token ID from a voucher token\n     * @param _tokenIdVoucher   ID of the voucher token\n     * @return                  ID of the supply token\n     */\n    function getIdSupplyFromVoucher(uint256 _tokenIdVoucher)\n        public pure\n        returns (uint256)\n    {\n        return _tokenIdVoucher & MASK_TYPE;\n    }\n    \n    \n    /**\n     * @notice Get the promise ID from a voucher token\n     * @param _tokenIdVoucher   ID of the voucher token\n     * @return                  ID of the promise\n     */\n    function getPromiseIdFromVoucherId(uint256 _tokenIdVoucher)\n        public view\n        returns (bytes32)\n    {\n        require(_tokenIdVoucher != 0, \"UNSPECIFIED_ID\");  //hex\"20\" FISSION.code(FISSION.Category.Find, FISSION.Status.NotFound_Unequal_OutOfRange)\n        \n        uint256 tokenIdSupply = getIdSupplyFromVoucher(_tokenIdVoucher);\n        return promises[ordersPromise[tokenIdSupply]].promiseId;\n    }\n    \n    \n    /**\n     * @notice Get the current supply of tokens of an account\n     * @param _account  Address to query\n     * @return         Balance\n     */\n    //TODO: might not need it\n    function getTotalSupply(address _account)\n        public view\n        returns (uint256)\n    {\n        return accountSupply[_account];\n    }\n    \n    \n    /**\n     * @notice Get the seller's deposit for a promise\n     * @param _promiseId    ID of the promise\n     * @return              Deposit of the seller\n     */\n    function getPromiseDepositSe(bytes32 _promiseId)\n        public view\n        returns (uint256)\n    {\n        return (promises[_promiseId].depositSe);\n    }\n    \n\n    /**\n     * @notice Get all necessary funds for a supply token\n     * @param _tokenIdSupply   ID of the supply token\n     * @return                  returns a tupple (Payment amount, Seller's deposit, Buyer's deposit)\n     */\n    function getOrderCosts(uint256 _tokenIdSupply)\n        public view\n        returns (uint256, uint256, uint256)\n    {\n        bytes32 promiseKey = ordersPromise[_tokenIdSupply];\n        return (promises[promiseKey].price, promises[promiseKey].depositSe, promises[promiseKey].depositBu);\n    }\n    \n    \n    /**\n     * @notice Get the current status of a voucher\n     * @param _tokenIdVoucher   ID of the voucher token\n     * @return                  Status of the voucher (via enum)\n     */\n    function getVoucherStatus(uint256 _tokenIdVoucher)\n        public view\n        returns (uint8, bool, bool)\n    {\n        return (vouchersStatus[_tokenIdVoucher].status, vouchersStatus[_tokenIdVoucher].isPaymentReleased, vouchersStatus[_tokenIdVoucher].isDepositsReleased);\n    }\n    \n    \n    /**\n     * @notice Get the issuer of a voucher\n     * @param _tokenIdVoucher   ID of the voucher token\n     * @return                  Address of the issuer\n     */\n    function getVoucherIssuer(uint256 _tokenIdVoucher)\n        public view\n        returns (address)\n    {\n        return voucherIssuers[_tokenIdVoucher];\n    }\n    \n    \n    /**\n     * @notice Get the holder of a voucher\n     * @param _tokenIdVoucher   ID of the voucher token\n     * @return                  Address of the holder\n     */\n    function getVoucherHolder(uint256 _tokenIdVoucher)\n        public view\n        returns (address)\n    {\n        return tokensContract.ownerOf(_tokenIdVoucher);\n    }\n    \n    \n    /** \n     * \n     */\n     function isInValidityPeriod(uint256 _tokenIdVoucher)\n        public view\n        returns (bool)\n     {\n        //check validity period\n        Promise memory tPromise = promises[getPromiseIdFromVoucherId(_tokenIdVoucher)];\n        require(tPromise.validFrom <= block.timestamp, \"INVALID_VALIDITY_FROM\"); //hex\"26\" FISSION.code(FISSION.Category.Find, FISSION.Status.Above_Range_Overflow)\n        require(tPromise.validTo >= block.timestamp, \"INVALID_VALIDITY_TO\");    //hex\"24\" FISSION.code(FISSION.Category.Find, FISSION.Status.BelowRange_Underflow)         \n        \n        return true;\n     }\n    \n   \n}",
  "sourcePath": "/Users/hristiyangeorgiev/Documents/Projects/Redemeum/redemeum-blockchainNew/bsn-core-prototype/contracts/VoucherKernel.sol",
  "compiler": {
    "name": "solc",
    "version": "0.6.8+commit.0bbfe453.Emscripten.clang",
    "optimizer": false,
    "runs": 200
  },
  "schemaVersion": "2.3.3",
  "updatedAt": "2020-07-17T12:37:53.108Z"
}