{
  "contractName": "VoucherKernel",
  "abi": [
    {
      "inputs": [
        {
          "internalType": "address",
          "name": "_tokensContract",
          "type": "address"
        }
      ],
      "stateMutability": "nonpayable",
      "type": "constructor"
    },
    {
      "anonymous": false,
      "inputs": [
        {
          "indexed": false,
          "internalType": "address",
          "name": "_newBosonRouter",
          "type": "address"
        },
        {
          "indexed": false,
          "internalType": "address",
          "name": "_triggeredBy",
          "type": "address"
        }
      ],
      "name": "LogBosonRouterSet",
      "type": "event"
    },
    {
      "anonymous": false,
      "inputs": [
        {
          "indexed": false,
          "internalType": "uint256",
          "name": "_newCancelFaultPeriod",
          "type": "uint256"
        },
        {
          "indexed": false,
          "internalType": "address",
          "name": "_triggeredBy",
          "type": "address"
        }
      ],
      "name": "LogCancelFaultPeriodChanged",
      "type": "event"
    },
    {
      "anonymous": false,
      "inputs": [
        {
          "indexed": false,
          "internalType": "address",
          "name": "_newCashier",
          "type": "address"
        },
        {
          "indexed": false,
          "internalType": "address",
          "name": "_triggeredBy",
          "type": "address"
        }
      ],
      "name": "LogCashierSet",
      "type": "event"
    },
    {
      "anonymous": false,
      "inputs": [
        {
          "indexed": false,
          "internalType": "uint256",
          "name": "_newComplainPeriod",
          "type": "uint256"
        },
        {
          "indexed": false,
          "internalType": "address",
          "name": "_triggeredBy",
          "type": "address"
        }
      ],
      "name": "LogComplainPeriodChanged",
      "type": "event"
    },
    {
      "anonymous": false,
      "inputs": [
        {
          "indexed": false,
          "internalType": "uint256",
          "name": "_tokenIdVoucher",
          "type": "uint256"
        },
        {
          "indexed": false,
          "internalType": "address",
          "name": "_triggeredBy",
          "type": "address"
        }
      ],
      "name": "LogExpirationTriggered",
      "type": "event"
    },
    {
      "anonymous": false,
      "inputs": [
        {
          "indexed": false,
          "internalType": "uint256",
          "name": "_tokenIdVoucher",
          "type": "uint256"
        },
        {
          "indexed": false,
          "internalType": "address",
          "name": "_triggeredBy",
          "type": "address"
        }
      ],
      "name": "LogFinalizeVoucher",
      "type": "event"
    },
    {
      "anonymous": false,
      "inputs": [
        {
          "indexed": false,
          "internalType": "uint256",
          "name": "_tokenIdVoucher",
          "type": "uint256"
        },
        {
          "indexed": false,
          "internalType": "uint8",
          "name": "_type",
          "type": "uint8"
        }
      ],
      "name": "LogFundsReleased",
      "type": "event"
    },
    {
      "anonymous": false,
      "inputs": [
        {
          "indexed": true,
          "internalType": "bytes32",
          "name": "_promiseId",
          "type": "bytes32"
        },
        {
          "indexed": true,
          "internalType": "uint256",
          "name": "_nonce",
          "type": "uint256"
        },
        {
          "indexed": true,
          "internalType": "address",
          "name": "_seller",
          "type": "address"
        },
        {
          "indexed": false,
          "internalType": "uint256",
          "name": "_validFrom",
          "type": "uint256"
        },
        {
          "indexed": false,
          "internalType": "uint256",
          "name": "_validTo",
          "type": "uint256"
        },
        {
          "indexed": false,
          "internalType": "uint256",
          "name": "_idx",
          "type": "uint256"
        }
      ],
      "name": "LogPromiseCreated",
      "type": "event"
    },
    {
      "anonymous": false,
      "inputs": [
        {
          "indexed": false,
          "internalType": "uint256",
          "name": "_tokenIdVoucher",
          "type": "uint256"
        }
      ],
      "name": "LogVoucherComplain",
      "type": "event"
    },
    {
      "anonymous": false,
      "inputs": [
        {
          "indexed": true,
          "internalType": "uint256",
          "name": "_tokenIdSupply",
          "type": "uint256"
        },
        {
          "indexed": false,
          "internalType": "uint256",
          "name": "_tokenIdVoucher",
          "type": "uint256"
        },
        {
          "indexed": false,
          "internalType": "address",
          "name": "_issuer",
          "type": "address"
        },
        {
          "indexed": false,
          "internalType": "address",
          "name": "_holder",
          "type": "address"
        },
        {
          "indexed": false,
          "internalType": "bytes32",
          "name": "_promiseId",
          "type": "bytes32"
        },
        {
          "indexed": false,
          "internalType": "uint256",
          "name": "_correlationId",
          "type": "uint256"
        }
      ],
      "name": "LogVoucherDelivered",
      "type": "event"
    },
    {
      "anonymous": false,
      "inputs": [
        {
          "indexed": false,
          "internalType": "uint256",
          "name": "_tokenIdVoucher",
          "type": "uint256"
        }
      ],
      "name": "LogVoucherFaultCancel",
      "type": "event"
    },
    {
      "anonymous": false,
      "inputs": [
        {
          "indexed": false,
          "internalType": "uint256",
          "name": "_tokenIdVoucher",
          "type": "uint256"
        },
        {
          "indexed": false,
          "internalType": "address",
          "name": "_holder",
          "type": "address"
        },
        {
          "indexed": false,
          "internalType": "bytes32",
          "name": "_promiseId",
          "type": "bytes32"
        }
      ],
      "name": "LogVoucherRedeemed",
      "type": "event"
    },
    {
      "anonymous": false,
      "inputs": [
        {
          "indexed": false,
          "internalType": "uint256",
          "name": "_tokenIdVoucher",
          "type": "uint256"
        }
      ],
      "name": "LogVoucherRefunded",
      "type": "event"
    },
    {
      "anonymous": false,
      "inputs": [
        {
          "indexed": false,
          "internalType": "uint256",
          "name": "_tokenIdSupply",
          "type": "uint256"
        },
        {
          "indexed": false,
          "internalType": "address",
          "name": "_issuer",
          "type": "address"
        }
      ],
      "name": "LogVoucherSetFaultCancel",
      "type": "event"
    },
    {
      "anonymous": false,
      "inputs": [
        {
          "indexed": true,
          "internalType": "address",
          "name": "previousOwner",
          "type": "address"
        },
        {
          "indexed": true,
          "internalType": "address",
          "name": "newOwner",
          "type": "address"
        }
      ],
      "name": "OwnershipTransferred",
      "type": "event"
    },
    {
      "anonymous": false,
      "inputs": [
        {
          "indexed": false,
          "internalType": "address",
          "name": "account",
          "type": "address"
        }
      ],
      "name": "Paused",
      "type": "event"
    },
    {
      "anonymous": false,
      "inputs": [
        {
          "indexed": false,
          "internalType": "address",
          "name": "account",
          "type": "address"
        }
      ],
      "name": "Unpaused",
      "type": "event"
    },
    {
      "inputs": [],
      "name": "MASK_NF_INDEX",
      "outputs": [
        {
          "internalType": "uint256",
          "name": "",
          "type": "uint256"
        }
      ],
      "stateMutability": "view",
      "type": "function"
    },
    {
      "inputs": [],
      "name": "MASK_TYPE",
      "outputs": [
        {
          "internalType": "uint256",
          "name": "",
          "type": "uint256"
        }
      ],
      "stateMutability": "view",
      "type": "function"
    },
    {
      "inputs": [],
      "name": "TYPE_NF_BIT",
      "outputs": [
        {
          "internalType": "uint256",
          "name": "",
          "type": "uint256"
        }
      ],
      "stateMutability": "view",
      "type": "function"
    },
    {
      "inputs": [
        {
          "internalType": "address",
          "name": "",
          "type": "address"
        }
      ],
      "name": "accountSupply",
      "outputs": [
        {
          "internalType": "uint256",
          "name": "",
          "type": "uint256"
        }
      ],
      "stateMutability": "view",
      "type": "function"
    },
    {
      "inputs": [],
      "name": "bosonRouterAddress",
      "outputs": [
        {
          "internalType": "address",
          "name": "",
          "type": "address"
        }
      ],
      "stateMutability": "view",
      "type": "function"
    },
    {
      "inputs": [],
      "name": "cancelFaultPeriod",
      "outputs": [
        {
          "internalType": "uint256",
          "name": "",
          "type": "uint256"
        }
      ],
      "stateMutability": "view",
      "type": "function"
    },
    {
      "inputs": [],
      "name": "cashierAddress",
      "outputs": [
        {
          "internalType": "address",
          "name": "",
          "type": "address"
        }
      ],
      "stateMutability": "view",
      "type": "function"
    },
    {
      "inputs": [],
      "name": "complainPeriod",
      "outputs": [
        {
          "internalType": "uint256",
          "name": "",
          "type": "uint256"
        }
      ],
      "stateMutability": "view",
      "type": "function"
    },
    {
      "inputs": [
        {
          "internalType": "uint256",
          "name": "",
          "type": "uint256"
        }
      ],
      "name": "ordersPromise",
      "outputs": [
        {
          "internalType": "bytes32",
          "name": "",
          "type": "bytes32"
        }
      ],
      "stateMutability": "view",
      "type": "function"
    },
    {
      "inputs": [],
      "name": "owner",
      "outputs": [
        {
          "internalType": "address",
          "name": "",
          "type": "address"
        }
      ],
      "stateMutability": "view",
      "type": "function"
    },
    {
      "inputs": [],
      "name": "paused",
      "outputs": [
        {
          "internalType": "bool",
          "name": "",
          "type": "bool"
        }
      ],
      "stateMutability": "view",
      "type": "function"
    },
    {
      "inputs": [
        {
          "internalType": "uint256",
          "name": "",
          "type": "uint256"
        }
      ],
      "name": "paymentDetails",
      "outputs": [
        {
          "internalType": "uint8",
          "name": "paymentMethod",
          "type": "uint8"
        },
        {
          "internalType": "address",
          "name": "addressTokenPrice",
          "type": "address"
        },
        {
          "internalType": "address",
          "name": "addressTokenDeposits",
          "type": "address"
        }
      ],
      "stateMutability": "view",
      "type": "function"
    },
    {
      "inputs": [
        {
          "internalType": "uint256",
          "name": "",
          "type": "uint256"
        }
      ],
      "name": "promiseKeys",
      "outputs": [
        {
          "internalType": "bytes32",
          "name": "",
          "type": "bytes32"
        }
      ],
      "stateMutability": "view",
      "type": "function"
    },
    {
      "inputs": [
        {
          "internalType": "bytes32",
          "name": "",
          "type": "bytes32"
        }
      ],
      "name": "promises",
      "outputs": [
        {
          "internalType": "bytes32",
          "name": "promiseId",
          "type": "bytes32"
        },
        {
          "internalType": "uint256",
          "name": "nonce",
          "type": "uint256"
        },
        {
          "internalType": "address",
          "name": "seller",
          "type": "address"
        },
        {
          "internalType": "uint256",
          "name": "validFrom",
          "type": "uint256"
        },
        {
          "internalType": "uint256",
          "name": "validTo",
          "type": "uint256"
        },
        {
          "internalType": "uint256",
          "name": "price",
          "type": "uint256"
        },
        {
          "internalType": "uint256",
          "name": "depositSe",
          "type": "uint256"
        },
        {
          "internalType": "uint256",
          "name": "depositBu",
          "type": "uint256"
        },
        {
          "internalType": "uint256",
          "name": "idx",
          "type": "uint256"
        }
      ],
      "stateMutability": "view",
      "type": "function"
    },
    {
      "inputs": [],
      "name": "renounceOwnership",
      "outputs": [],
      "stateMutability": "nonpayable",
      "type": "function"
    },
    {
      "inputs": [
        {
          "internalType": "address",
          "name": "",
          "type": "address"
        }
      ],
      "name": "tokenNonces",
      "outputs": [
        {
          "internalType": "uint256",
          "name": "",
          "type": "uint256"
        }
      ],
      "stateMutability": "view",
      "type": "function"
    },
    {
      "inputs": [],
      "name": "tokensContract",
      "outputs": [
        {
          "internalType": "address",
          "name": "",
          "type": "address"
        }
      ],
      "stateMutability": "view",
      "type": "function"
    },
    {
      "inputs": [
        {
          "internalType": "address",
          "name": "newOwner",
          "type": "address"
        }
      ],
      "name": "transferOwnership",
      "outputs": [],
      "stateMutability": "nonpayable",
      "type": "function"
    },
    {
      "inputs": [
        {
          "internalType": "uint256",
          "name": "",
          "type": "uint256"
        }
      ],
      "name": "typeCounters",
      "outputs": [
        {
          "internalType": "uint256",
          "name": "",
          "type": "uint256"
        }
      ],
      "stateMutability": "view",
      "type": "function"
    },
    {
      "inputs": [],
      "name": "typeId",
      "outputs": [
        {
          "internalType": "uint256",
          "name": "",
          "type": "uint256"
        }
      ],
      "stateMutability": "view",
      "type": "function"
    },
    {
      "inputs": [
        {
          "internalType": "uint256",
          "name": "",
          "type": "uint256"
        }
      ],
      "name": "vouchersStatus",
      "outputs": [
        {
          "internalType": "uint8",
          "name": "status",
          "type": "uint8"
        },
        {
          "internalType": "bool",
          "name": "isPaymentReleased",
          "type": "bool"
        },
        {
          "internalType": "bool",
          "name": "isDepositsReleased",
          "type": "bool"
        },
        {
          "internalType": "uint256",
          "name": "complainPeriodStart",
          "type": "uint256"
        },
        {
          "internalType": "uint256",
          "name": "cancelFaultPeriodStart",
          "type": "uint256"
        }
      ],
      "stateMutability": "view",
      "type": "function"
    },
    {
      "inputs": [],
      "name": "pause",
      "outputs": [],
      "stateMutability": "nonpayable",
      "type": "function"
    },
    {
      "inputs": [],
      "name": "unpause",
      "outputs": [],
      "stateMutability": "nonpayable",
      "type": "function"
    },
    {
      "inputs": [
        {
          "internalType": "address",
          "name": "_seller",
          "type": "address"
        },
        {
          "internalType": "uint256",
          "name": "_validFrom",
          "type": "uint256"
        },
        {
          "internalType": "uint256",
          "name": "_validTo",
          "type": "uint256"
        },
        {
          "internalType": "uint256",
          "name": "_price",
          "type": "uint256"
        },
        {
          "internalType": "uint256",
          "name": "_depositSe",
          "type": "uint256"
        },
        {
          "internalType": "uint256",
          "name": "_depositBu",
          "type": "uint256"
        },
        {
          "internalType": "uint256",
          "name": "_quantity",
          "type": "uint256"
        }
      ],
      "name": "createTokenSupplyID",
      "outputs": [
        {
          "internalType": "uint256",
          "name": "",
          "type": "uint256"
        }
      ],
      "stateMutability": "nonpayable",
      "type": "function"
    },
    {
      "inputs": [
        {
          "internalType": "uint256",
          "name": "_tokenIdSupply",
          "type": "uint256"
        },
        {
          "internalType": "uint8",
          "name": "_paymentMethod",
          "type": "uint8"
        },
        {
          "internalType": "address",
          "name": "_tokenPrice",
          "type": "address"
        },
        {
          "internalType": "address",
          "name": "_tokenDeposits",
          "type": "address"
        }
      ],
      "name": "createPaymentMethod",
      "outputs": [],
      "stateMutability": "nonpayable",
      "type": "function"
    },
    {
      "inputs": [
        {
          "internalType": "uint256",
          "name": "_tokenIdSupply",
          "type": "uint256"
        },
        {
          "internalType": "address",
          "name": "_issuer",
          "type": "address"
        },
        {
          "internalType": "address",
          "name": "_holder",
          "type": "address"
        },
        {
          "internalType": "uint256",
          "name": "_correlationId",
          "type": "uint256"
        }
      ],
      "name": "fillOrder",
      "outputs": [],
      "stateMutability": "nonpayable",
      "type": "function"
    },
    {
      "inputs": [
        {
          "internalType": "address",
          "name": "_issuer",
          "type": "address"
        },
        {
          "internalType": "uint256",
          "name": "_tokenIdSupply",
          "type": "uint256"
        },
        {
          "internalType": "uint256",
          "name": "_qty",
          "type": "uint256"
        }
      ],
      "name": "burnSupplyOnPause",
      "outputs": [],
      "stateMutability": "nonpayable",
      "type": "function"
    },
    {
      "inputs": [
        {
          "internalType": "uint256",
          "name": "_tokenIdVoucher",
          "type": "uint256"
        },
        {
          "internalType": "address",
          "name": "_msgSender",
          "type": "address"
        }
      ],
      "name": "redeem",
      "outputs": [],
      "stateMutability": "nonpayable",
      "type": "function"
    },
    {
      "inputs": [
        {
          "internalType": "uint256",
          "name": "_tokenIdVoucher",
          "type": "uint256"
        },
        {
          "internalType": "address",
          "name": "_msgSender",
          "type": "address"
        }
      ],
      "name": "refund",
      "outputs": [],
      "stateMutability": "nonpayable",
      "type": "function"
    },
    {
      "inputs": [
        {
          "internalType": "uint256",
          "name": "_tokenIdVoucher",
          "type": "uint256"
        },
        {
          "internalType": "address",
          "name": "_msgSender",
          "type": "address"
        }
      ],
      "name": "complain",
      "outputs": [],
      "stateMutability": "nonpayable",
      "type": "function"
    },
    {
      "inputs": [
        {
          "internalType": "uint256",
          "name": "_tokenIdVoucher",
          "type": "uint256"
        },
        {
          "internalType": "address",
          "name": "_msgSender",
          "type": "address"
        }
      ],
      "name": "cancelOrFault",
      "outputs": [],
      "stateMutability": "nonpayable",
      "type": "function"
    },
    {
      "inputs": [
        {
          "internalType": "uint256",
          "name": "_tokenIdSupply",
          "type": "uint256"
        },
        {
          "internalType": "address",
          "name": "_issuer",
          "type": "address"
        }
      ],
      "name": "cancelOrFaultVoucherSet",
      "outputs": [
        {
          "internalType": "uint256",
          "name": "",
          "type": "uint256"
        }
      ],
      "stateMutability": "nonpayable",
      "type": "function"
    },
    {
      "inputs": [
        {
          "internalType": "uint256",
          "name": "_tokenIdVoucher",
          "type": "uint256"
        }
      ],
      "name": "setPaymentReleased",
      "outputs": [],
      "stateMutability": "nonpayable",
      "type": "function"
    },
    {
      "inputs": [
        {
          "internalType": "uint256",
          "name": "_tokenIdVoucher",
          "type": "uint256"
        }
      ],
      "name": "setDepositsReleased",
      "outputs": [],
      "stateMutability": "nonpayable",
      "type": "function"
    },
    {
      "inputs": [
        {
          "internalType": "uint256",
          "name": "_tokenIdVoucher",
          "type": "uint256"
        }
      ],
      "name": "triggerExpiration",
      "outputs": [],
      "stateMutability": "nonpayable",
      "type": "function"
    },
    {
      "inputs": [
        {
          "internalType": "uint256",
          "name": "_tokenIdVoucher",
          "type": "uint256"
        }
      ],
      "name": "triggerFinalizeVoucher",
      "outputs": [],
      "stateMutability": "nonpayable",
      "type": "function"
    },
    {
      "inputs": [
        {
          "internalType": "uint256",
          "name": "_tokenIdSupply",
          "type": "uint256"
        },
        {
          "internalType": "address",
          "name": "_newSeller",
          "type": "address"
        }
      ],
      "name": "setSupplyHolderOnTransfer",
      "outputs": [],
      "stateMutability": "nonpayable",
      "type": "function"
    },
    {
      "inputs": [
        {
          "internalType": "address",
          "name": "_bosonRouterAddress",
          "type": "address"
        }
      ],
      "name": "setBosonRouterAddress",
      "outputs": [],
      "stateMutability": "nonpayable",
      "type": "function"
    },
    {
      "inputs": [
        {
          "internalType": "address",
          "name": "_cashierAddress",
          "type": "address"
        }
      ],
      "name": "setCashierAddress",
      "outputs": [],
      "stateMutability": "nonpayable",
      "type": "function"
    },
    {
      "inputs": [
        {
          "internalType": "uint256",
          "name": "_complainPeriod",
          "type": "uint256"
        }
      ],
      "name": "setComplainPeriod",
      "outputs": [],
      "stateMutability": "nonpayable",
      "type": "function"
    },
    {
      "inputs": [
        {
          "internalType": "uint256",
          "name": "_cancelFaultPeriod",
          "type": "uint256"
        }
      ],
      "name": "setCancelFaultPeriod",
      "outputs": [],
      "stateMutability": "nonpayable",
      "type": "function"
    },
    {
      "inputs": [
        {
          "internalType": "uint256",
          "name": "_idx",
          "type": "uint256"
        }
      ],
      "name": "getPromiseKey",
      "outputs": [
        {
          "internalType": "bytes32",
          "name": "",
          "type": "bytes32"
        }
      ],
      "stateMutability": "view",
      "type": "function"
    },
    {
      "inputs": [
        {
          "internalType": "uint256",
          "name": "_tokenIdVoucher",
          "type": "uint256"
        }
      ],
      "name": "getIdSupplyFromVoucher",
      "outputs": [
        {
          "internalType": "uint256",
          "name": "",
          "type": "uint256"
        }
      ],
      "stateMutability": "pure",
      "type": "function"
    },
    {
      "inputs": [
        {
          "internalType": "uint256",
          "name": "_tokenIdVoucher",
          "type": "uint256"
        }
      ],
      "name": "getPromiseIdFromVoucherId",
      "outputs": [
        {
          "internalType": "bytes32",
          "name": "",
          "type": "bytes32"
        }
      ],
      "stateMutability": "view",
      "type": "function"
    },
    {
      "inputs": [
        {
          "internalType": "uint256",
          "name": "_tokenSupplyId",
          "type": "uint256"
        },
        {
          "internalType": "address",
          "name": "_owner",
          "type": "address"
        }
      ],
      "name": "getRemQtyForSupply",
      "outputs": [
        {
          "internalType": "uint256",
          "name": "",
          "type": "uint256"
        }
      ],
      "stateMutability": "view",
      "type": "function"
    },
    {
      "inputs": [
        {
          "internalType": "uint256",
          "name": "_tokenIdSupply",
          "type": "uint256"
        }
      ],
      "name": "getOrderCosts",
      "outputs": [
        {
          "internalType": "uint256",
          "name": "",
          "type": "uint256"
        },
        {
          "internalType": "uint256",
          "name": "",
          "type": "uint256"
        },
        {
          "internalType": "uint256",
          "name": "",
          "type": "uint256"
        }
      ],
      "stateMutability": "view",
      "type": "function"
    },
    {
      "inputs": [
        {
          "internalType": "uint256",
          "name": "_tokenIdSupply",
          "type": "uint256"
        }
      ],
      "name": "getBuyerOrderCosts",
      "outputs": [
        {
          "internalType": "uint256",
          "name": "",
          "type": "uint256"
        },
        {
          "internalType": "uint256",
          "name": "",
          "type": "uint256"
        }
      ],
      "stateMutability": "view",
      "type": "function"
    },
    {
      "inputs": [
        {
          "internalType": "uint256",
          "name": "_tokenIdSupply",
          "type": "uint256"
        }
      ],
      "name": "getSellerDeposit",
      "outputs": [
        {
          "internalType": "uint256",
          "name": "",
          "type": "uint256"
        }
      ],
      "stateMutability": "view",
      "type": "function"
    },
    {
      "inputs": [
        {
          "internalType": "uint256",
          "name": "_tokenIdVoucher",
          "type": "uint256"
        }
      ],
      "name": "getVoucherStatus",
      "outputs": [
        {
          "internalType": "uint8",
          "name": "",
          "type": "uint8"
        },
        {
          "internalType": "bool",
          "name": "",
          "type": "bool"
        },
        {
          "internalType": "bool",
          "name": "",
          "type": "bool"
        }
      ],
      "stateMutability": "view",
      "type": "function"
    },
    {
      "inputs": [
        {
          "internalType": "uint256",
          "name": "_tokenIdVoucher",
          "type": "uint256"
        }
      ],
      "name": "getVoucherHolder",
      "outputs": [
        {
          "internalType": "address",
          "name": "",
          "type": "address"
        }
      ],
      "stateMutability": "view",
      "type": "function"
    },
    {
      "inputs": [
        {
          "internalType": "uint256",
          "name": "_tokenIdSupply",
          "type": "uint256"
        }
      ],
      "name": "getSupplyHolder",
      "outputs": [
        {
          "internalType": "address",
          "name": "",
          "type": "address"
        }
      ],
      "stateMutability": "view",
      "type": "function"
    },
    {
      "inputs": [
        {
          "internalType": "uint256",
          "name": "_tokenIdSupply",
          "type": "uint256"
        }
      ],
      "name": "getVoucherPriceToken",
      "outputs": [
        {
          "internalType": "address",
          "name": "",
          "type": "address"
        }
      ],
      "stateMutability": "view",
      "type": "function"
    },
    {
      "inputs": [
        {
          "internalType": "uint256",
          "name": "_tokenIdSupply",
          "type": "uint256"
        }
      ],
      "name": "getVoucherDepositToken",
      "outputs": [
        {
          "internalType": "address",
          "name": "",
          "type": "address"
        }
      ],
      "stateMutability": "view",
      "type": "function"
    },
    {
      "inputs": [
        {
          "internalType": "uint256",
          "name": "_tokenIdSupply",
          "type": "uint256"
        }
      ],
      "name": "getVoucherPaymentMethod",
      "outputs": [
        {
          "internalType": "uint8",
          "name": "",
          "type": "uint8"
        }
      ],
      "stateMutability": "view",
      "type": "function"
    },
    {
      "inputs": [
        {
          "internalType": "uint256",
          "name": "_tokenIdVoucher",
          "type": "uint256"
        }
      ],
      "name": "isInValidityPeriod",
      "outputs": [
        {
          "internalType": "bool",
          "name": "",
          "type": "bool"
        }
      ],
      "stateMutability": "view",
      "type": "function"
    }
  ],
  "bytecode": "0x60806040523480156200001157600080fd5b50604051620043a1380380620043a1833981810160405260208110156200003757600080fd5b5051600062000045620000ce565b600080546001600160a01b0319166001600160a01b0383169081178255604051929350917f8be0079c531659141344cd1fd0a4f28419497f9722a3daafe3b4186f6b6457e0908290a3506000805460ff60a01b19169055600180546001600160a01b0319166001600160a01b039290921691909117905562093a80600f819055601055620000d2565b3390565b6142bf80620000e26000396000f3fe608060405234801561001057600080fd5b506004361061027d5760003560e01c806316ed9e0e146102825780631af2a6a8146102b15780631cf7955d146102ce5780631f38585f1461030157806321d6f3a71461033a578063325a7a84146103425780633f4ba83a14610383578063455e42f21461038d5780634f755c3e146103b9578063590f6f68146103c15780635c975abb146103fd57806365c303bc1461041957806366db9a0914610436578063715018a61461046257806374898e821461046a5780637518fa981461049c57806375549516146104a457806375a83102146104c157806376942aed146104de578063797f2a26146104e65780637ad226dc146105305780637bde82f21461055c5780637ed06c4414610588578063817b30841461059057806381dc8119146105b65780638456cb59146105d357806388106323146105db57806388c25607146105f85780638990834b146106245780638cfb578e146106415780638da5cb5b146106495780638f940f631461065157806399c849b8146106595780639a0271e1146106765780639a751bbd14610693578063bc0d753d146106b0578063bd17de40146106cd578063c099a7c4146106f3578063cc2f84cb14610719578063cf5c900814610785578063d40ffcf8146107c2578063d887b4e7146107df578063d905af551461081a578063e31a007914610822578063e598d6971461084e578063e5d5f9ac14610874578063e875a613146108bd578063ebba1b29146108da578063ec29c17d146108f7578063ede8089714610943578063f2fde38b14610960578063f3223bed14610986578063f5d7aa181461098e578063f75951ce146109ba578063fad4ee94146109d7575b600080fd5b61029f6004803603602081101561029857600080fd5b5035610a0d565b60408051918252519081900360200190f35b61029f600480360360208110156102c757600080fd5b5035610a2b565b6102eb600480360360208110156102e457600080fd5b5035610a3c565b6040805160ff9092168252519081900360200190f35b61031e6004803603602081101561031757600080fd5b5035610a51565b604080516001600160a01b039092168252519081900360200190f35b61029f610a7c565b61035f6004803603602081101561035857600080fd5b5035610a87565b6040805160ff90941684529115156020840152151582820152519081900360600190f35b61038b610ab0565b005b61029f600480360360408110156103a357600080fd5b50803590602001356001600160a01b0316610b59565b61031e610df0565b61038b600480360360808110156103d757600080fd5b508035906001600160a01b03602082013581169160408101359091169060600135610dff565b610405610f25565b604080519115158252519081900360200190f35b61038b6004803603602081101561042f57600080fd5b5035610f35565b61038b6004803603604081101561044c57600080fd5b50803590602001356001600160a01b03166111d8565b61038b61183a565b61038b6004803603606081101561048057600080fd5b506001600160a01b0381351690602081013590604001356118d4565b61031e611a7a565b61038b600480360360208110156104ba57600080fd5b5035611a89565b61029f600480360360208110156104d757600080fd5b5035611bb2565b61029f611bc4565b61029f600480360360e08110156104fc57600080fd5b506001600160a01b038135169060208101359060408101359060608101359060808101359060a08101359060c00135611bca565b61038b6004803603604081101561054657600080fd5b50803590602001356001600160a01b0316611f9f565b61038b6004803603604081101561057257600080fd5b50803590602001356001600160a01b0316612242565b61029f612591565b61029f600480360360208110156105a657600080fd5b50356001600160a01b031661259d565b61029f600480360360208110156105cc57600080fd5b50356125af565b61038b6125d0565b61029f600480360360208110156105f157600080fd5b5035612677565b61038b6004803603604081101561060e57600080fd5b50803590602001356001600160a01b0316612699565b61038b6004803603602081101561063a57600080fd5b5035612776565b61031e61281a565b61031e612829565b61029f612838565b61029f6004803603602081101561066f57600080fd5b503561283e565b6104056004803603602081101561068c57600080fd5b5035612850565b61031e600480360360208110156106a957600080fd5b503561298f565b61029f600480360360208110156106c657600080fd5b50356129ad565b61038b600480360360208110156106e357600080fd5b50356001600160a01b0316612a20565b61038b6004803603602081101561070957600080fd5b50356001600160a01b0316612b2d565b6107366004803603602081101561072f57600080fd5b5035612c3a565b60408051998a5260208a01989098526001600160a01b03909616888801526060880194909452608087019290925260a086015260c085015260e084015261010083015251908190036101200190f35b61038b6004803603608081101561079b57600080fd5b5080359060ff602082013516906001600160a01b0360408201358116916060013516612c8f565b61038b600480360360208110156107d857600080fd5b5035612db5565b6107fc600480360360208110156107f557600080fd5b5035612f3a565b60408051938452602084019290925282820152519081900360600190f35b61029f612f69565b61029f6004803603604081101561083857600080fd5b50803590602001356001600160a01b0316612f71565b61029f6004803603602081101561086457600080fd5b50356001600160a01b0316612ffa565b6108916004803603602081101561088a57600080fd5b503561300c565b6040805160ff90941684526001600160a01b039283166020850152911682820152519081900360600190f35b61031e600480360360208110156108d357600080fd5b503561303c565b61038b600480360360208110156108f057600080fd5b503561305c565b6109146004803603602081101561090d57600080fd5b503561318a565b6040805160ff909616865293151560208601529115158484015260608401526080830152519081900360a00190f35b61038b6004803603602081101561095957600080fd5b50356131c0565b61038b6004803603602081101561097657600080fd5b50356001600160a01b0316613264565b61029f613354565b61038b600480360360408110156109a457600080fd5b50803590602001356001600160a01b031661335a565b61031e600480360360208110156109d057600080fd5b50356137cd565b6109f4600480360360208110156109ed57600080fd5b503561384b565b6040805192835260208301919091528051918290030190f35b60078181548110610a1a57fe5b600091825260209091200154905081565b6001600160801b031981165b919050565b60009081526006602052604090205460ff1690565b600090815260096020908152604080832054835260049091529020600201546001600160a01b031690565b6001600160801b0381565b6000908152600a602052604090205460ff80821692610100830482169262010000900490911690565b6002546001600160a01b0316610afe576040805162461bcd60e51b815260206004820152600e60248201526d2aa729a822a1a4a324a2a22fa12960911b604482015290519081900360640190fd5b6002546001600160a01b03163314610b4f576040805162461bcd60e51b815260206004820152600f60248201526e2aa720aaaa2427a924ad22a22fa12960891b604482015290519081900360640190fd5b610b57613875565b565b6002546000906001600160a01b0316610baa576040805162461bcd60e51b815260206004820152600e60248201526d2aa729a822a1a4a324a2a22fa12960911b604482015290519081900360640190fd5b6002546001600160a01b03163314610bfb576040805162461bcd60e51b815260206004820152600f60248201526e2aa720aaaa2427a924ad22a22fa12960891b604482015290519081900360640190fd5b610c03610f25565b15610c48576040805162461bcd60e51b815260206004820152601060248201526f14185d5cd8589b194e881c185d5cd95960821b604482015290519081900360640190fd5b816001600160a01b0316610c5b84610a51565b6001600160a01b031614610ca9576040805162461bcd60e51b815260206004820152601060248201526f2aa720aaaa2427a924ad22a22fa1a7a360811b604482015290519081900360640190fd5b6000610cb58484612f71565b905060008111610cfa576040805162461bcd60e51b815260206004820152600b60248201526a4f464645525f454d50545960a81b604482015290519081900360640190fd5b60015460408051637a94c56560e11b81526001600160a01b03868116600483015260248201889052604482018590529151919092169163f5298aca91606480830192600092919082900301818387803b158015610d5657600080fd5b505af1158015610d6a573d6000803e3d6000fd5b5050506001600160a01b038416600090815260086020526040902054610d91915082613918565b6001600160a01b0384166000818152600860209081526040918290209390935580518781529283019190915280517fd771b32487969df897bdfc40b573cff1c37f81bc0e62b60cacc027d0efd6d33f9281900390910190a19392505050565b6003546001600160a01b031681565b6002546001600160a01b0316610e4d576040805162461bcd60e51b815260206004820152600e60248201526d2aa729a822a1a4a324a2a22fa12960911b604482015290519081900360640190fd5b6002546001600160a01b03163314610e9e576040805162461bcd60e51b815260206004820152600f60248201526e2aa720aaaa2427a924ad22a22fa12960891b604482015290519081900360640190fd5b610ea9848484613975565b6000610eb6848487613c0d565b9050847fce3b32c0b6a7ffab6dec7497bc73336faeb8e1b3b0b8dc7099699a3595f000a6828686610ee6866129ad565b604080519485526001600160a01b0393841660208601529190921683820152606083019190915260808201869052519081900360a00190a25050505050565b600054600160a01b900460ff1690565b80610f78576040805162461bcd60e51b815260206004820152600e60248201526d155394d41150d25192515117d25160921b604482015290519081900360640190fd5b6000818152600a602052604090205460ff16610f95816001613e8f565b15610fdb576040805162461bcd60e51b81526020600482015260116024820152701053149150511657d19253905312569151607a1b604482015290519081900360640190fd5b6000610fe561418b565b60046000610ff2866129ad565b815260208082019290925260409081016000208151610120810183528154815260018201549381019390935260028101546001600160a01b031691830191909152600380820154606084015260048201546080840152600582015460a0840152600682015460c0840152600782015460e0840152600890910154610100830152909150611080908490613e8f565b156110c457611090836002613e8f565b1561109e57600191506110bf565b6010546000858152600a60205260409020600201540142106110bf57600191505b611162565b6110cf836002613e8f565b80156110f05750600f546000858152600a6020526040902060010154014210155b156110fe5760019150611162565b61110783613ea0565b80611116575061111683613ec7565b1561114057600f546000858152600a60205260409020600101540142106110bf5760019150611162565b61114983613edf565b1561116257600f54816080015101421061116257600191505b81156111d257611173836001613ef3565b6000858152600a6020908152604091829020805460ff191660ff94909416939093179092558051868152339281019290925280517f28c953c622aa90e006382693080fb83e2add147a386446e0f24572c6b071adfa9281900390910190a15b50505050565b6111e0610f25565b15611225576040805162461bcd60e51b815260206004820152601060248201526f14185d5cd8589b194e881c185d5cd95960821b604482015290519081900360640190fd5b6002546001600160a01b0316611273576040805162461bcd60e51b815260206004820152600e60248201526d2aa729a822a1a4a324a2a22fa12960911b604482015290519081900360640190fd5b6002546001600160a01b031633146112c4576040805162461bcd60e51b815260206004820152600f60248201526e2aa720aaaa2427a924ad22a22fa12960891b604482015290519081900360640190fd5b600154604080516331a9108f60e11b8152600481018590529051849284926001600160a01b0380851693921691636352211e91602480820192602092909190829003018186803b15801561131757600080fd5b505afa15801561132b573d6000803e3d6000fd5b505050506040513d602081101561134157600080fd5b50516001600160a01b03161461138f576040805162461bcd60e51b815260206004820152600e60248201526d2aa720aaaa2427a924ad22a22fab60911b604482015290519081900360640190fd5b6000848152600a60205260409020546113ac9060ff166003613e8f565b156113f3576040805162461bcd60e51b81526020600482015260126024820152711053149150511657d0d3d35413105253915160721b604482015290519081900360640190fd5b6000848152600a60205260409020546114109060ff166001613e8f565b15611456576040805162461bcd60e51b81526020600482015260116024820152701053149150511657d19253905312569151607a1b604482015290519081900360640190fd5b61145e61418b565b6004600061146b876129ad565b8152602080820192909252604090810160009081208251610120810184528154815260018201548186015260028201546001600160a01b0316818501526003820154606082015260048201546080820152600582015460a0820152600682015460c0820152600782015460e0820152600890910154610100820152888252600a90935220549091506114ff9060ff16613ea0565b8061152057506000858152600a60205260409020546115209060ff16613ec7565b1561167e576000858152600a60205260409020546115429060ff166002613e8f565b6115a757601054600f546000878152600a602052604090206001015401014211156115a2576040805162461bcd60e51b8152602060048201526016602482015260008051602061420a833981519152604482015290519081900360640190fd5b6115ff565b600f546000868152600a6020526040902060010154014211156115ff576040805162461bcd60e51b8152602060048201526016602482015260008051602061420a833981519152604482015290519081900360640190fd5b6000858152600a60205260409020426002820155546116229060ff166003613ef3565b6000868152600a6020908152604091829020805460ff191660ff9490941693909317909255805187815290517f0411cc6d1d8430de89b9f9fdd063617e55946cddb8538d3407f516882db59455929181900390910190a1611833565b6000858152600a60205260409020546116999060ff16613edf565b15611759576000858152600a60205260409020546116bb9060ff166002613e8f565b61170e57601054600f54826080015101014211156115a2576040805162461bcd60e51b8152602060048201526016602482015260008051602061420a833981519152604482015290519081900360640190fd5b600f548160800151014211156115ff576040805162461bcd60e51b8152602060048201526016602482015260008051602061420a833981519152604482015290519081900360640190fd5b6000858152600a60205260409020546117769060ff166002613e8f565b156117f057600f546000868152600a6020526040902060010154014211156117d3576040805162461bcd60e51b8152602060048201526016602482015260008051602061420a833981519152604482015290519081900360640190fd5b6000858152600a60205260409020546116229060ff166003613ef3565b6040805162461bcd60e51b8152602060048201526013602482015272494e4150504c494341424c455f53544154555360681b604482015290519081900360640190fd5b5050505050565b611842613f00565b6001600160a01b0316611853612829565b6001600160a01b03161461189c576040805162461bcd60e51b8152602060048201819052602482015260008051602061422a833981519152604482015290519081900360640190fd5b600080546040516001600160a01b039091169060008051602061424a833981519152908390a3600080546001600160a01b0319169055565b6118dc610f25565b611924576040805162461bcd60e51b815260206004820152601460248201527314185d5cd8589b194e881b9bdd081c185d5cd95960621b604482015290519081900360640190fd5b6003546001600160a01b0316611972576040805162461bcd60e51b815260206004820152600e60248201526d2aa729a822a1a4a324a2a22fa12960911b604482015290519081900360640190fd5b6003546001600160a01b031633146119c2576040805162461bcd60e51b815260206004820152600e60248201526d554e415554484f52495a45445f4360901b604482015290519081900360640190fd5b60015460408051637a94c56560e11b81526001600160a01b03868116600483015260248201869052604482018590529151919092169163f5298aca91606480830192600092919082900301818387803b158015611a1e57600080fd5b505af1158015611a32573d6000803e3d6000fd5b5050506001600160a01b038416600090815260086020526040902054611a59915082613918565b6001600160a01b039093166000908152600860205260409020929092555050565b6001546001600160a01b031681565b6003546001600160a01b0316611ad7576040805162461bcd60e51b815260206004820152600e60248201526d2aa729a822a1a4a324a2a22fa12960911b604482015290519081900360640190fd5b6003546001600160a01b03163314611b27576040805162461bcd60e51b815260206004820152600e60248201526d554e415554484f52495a45445f4360901b604482015290519081900360640190fd5b80611b6a576040805162461bcd60e51b815260206004820152600e60248201526d155394d41150d25192515117d25160921b604482015290519081900360640190fd5b6000818152600a60209081526040808320805461ff001916610100179055805184815291820192909252815160008051602061426a833981519152929181900390910190a150565b60096020526000908152604090205481565b60105481565b6002546000906001600160a01b0316611c1b576040805162461bcd60e51b815260206004820152600e60248201526d2aa729a822a1a4a324a2a22fa12960911b604482015290519081900360640190fd5b6002546001600160a01b03163314611c6c576040805162461bcd60e51b815260206004820152600f60248201526e2aa720aaaa2427a924ad22a22fa12960891b604482015290519081900360640190fd5b85871115611cb9576040805162461bcd60e51b8152602060048201526015602482015274494e56414c49445f56414c49444954595f46524f4d60581b604482015290519081900360640190fd5b42861015611d04576040805162461bcd60e51b8152602060048201526013602482015272494e56414c49445f56414c49444954595f544f60681b604482015290519081900360640190fd5b6001600160a01b0388166000908152600560209081526040918290208054600181019091558251808301919091528083018a905260608082018a9052835180830390910181526080909101909252815191012060075415611dd757600081815260046020526040902060080154600780548392908110611d8057fe5b90600052602060002001541415611dd7576040805162461bcd60e51b815260206004820152601660248201527550524f4d4953455f414c52454144595f45584953545360501b604482015290519081900360640190fd5b604051806101200160405280828152602001600560008c6001600160a01b03166001600160a01b031681526020019081526020016000205481526020018a6001600160a01b0316815260200189815260200188815260200187815260200186815260200185815260200160078054905081525060046000838152602001908152602001600020600082015181600001556020820151816001015560408201518160020160006101000a8154816001600160a01b0302191690836001600160a01b03160217905550606082015181600301556080820151816004015560a0820151816005015560c0820151816006015560e0820151816007015561010082015181600801559050506007819080600181540180825580915050600190039060005260206000200160009091909190915055886001600160a01b0316600560008b6001600160a01b03166001600160a01b0316815260200190815260200160002054827fc05e9e3de4c67624681fddccb848a2f81797e05e1c09faf702ed3c526a6660e08b8b60016007805490500360405180848152602001838152602001828152602001935050505060405180910390a4611f92898285613f04565b9998505050505050505050565b611fa7610f25565b15611fec576040805162461bcd60e51b815260206004820152601060248201526f14185d5cd8589b194e881c185d5cd95960821b604482015290519081900360640190fd5b6002546001600160a01b031661203a576040805162461bcd60e51b815260206004820152600e60248201526d2aa729a822a1a4a324a2a22fa12960911b604482015290519081900360640190fd5b6002546001600160a01b0316331461208b576040805162461bcd60e51b815260206004820152600f60248201526e2aa720aaaa2427a924ad22a22fa12960891b604482015290519081900360640190fd5b600154604080516331a9108f60e11b8152600481018590529051849284926001600160a01b0380851693921691636352211e91602480820192602092909190829003018186803b1580156120de57600080fd5b505afa1580156120f2573d6000803e3d6000fd5b505050506040513d602081101561210857600080fd5b50516001600160a01b031614612156576040805162461bcd60e51b815260206004820152600e60248201526d2aa720aaaa2427a924ad22a22fab60911b604482015290519081900360640190fd5b6000848152600a60205260409020546121719060ff166140be565b6121b8576040805162461bcd60e51b8152602060048201526013602482015272494e4150504c494341424c455f53544154555360681b604482015290519081900360640190fd5b6121c184612850565b506000848152600a60205260409020426001820155546121e59060ff166005613ef3565b6000858152600a6020908152604091829020805460ff191660ff9490941693909317909255805186815290517f66d163993c35c8d3a90f3fbce008096384de89ec441c60c9b9f79aaad36616ff929181900390910190a150505050565b61224a610f25565b1561228f576040805162461bcd60e51b815260206004820152601060248201526f14185d5cd8589b194e881c185d5cd95960821b604482015290519081900360640190fd5b6002546001600160a01b03166122dd576040805162461bcd60e51b815260206004820152600e60248201526d2aa729a822a1a4a324a2a22fa12960911b604482015290519081900360640190fd5b6002546001600160a01b0316331461232e576040805162461bcd60e51b815260206004820152600f60248201526e2aa720aaaa2427a924ad22a22fa12960891b604482015290519081900360640190fd5b600154604080516331a9108f60e11b8152600481018590529051849284926001600160a01b0380851693921691636352211e91602480820192602092909190829003018186803b15801561238157600080fd5b505afa158015612395573d6000803e3d6000fd5b505050506040513d60208110156123ab57600080fd5b50516001600160a01b0316146123f9576040805162461bcd60e51b815260206004820152600e60248201526d2aa720aaaa2427a924ad22a22fab60911b604482015290519081900360640190fd5b6000848152600a60205260409020546124149060ff166140be565b612459576040805162461bcd60e51b81526020600482015260116024820152701053149150511657d41493d0d154d4d151607a1b604482015290519081900360640190fd5b61246284612850565b5061246b61418b565b60046000612478876129ad565b815260208082019290925260409081016000908120825161012081018452815481526001808301548287015260028301546001600160a01b0316828601526003830154606083015260048301546080830152600583015460a083015260068084015460c0840152600784015460e08401526008909301546101008301528a8452600a909552929091204293810193909355915490925061251d9160ff90911690613ef3565b6000868152600a6020908152604091829020805460ff191660ff9490941693909317909255825181518881526001600160a01b0388169381019390935282820152517f43a88bfc6f85aab9491c25f0ce50c4046d7cb7d4dc209b40914a2574d9855a5c916060908290030190a15050505050565b6001600160801b031981565b60056020526000908152604090205481565b6000600782815481106125be57fe5b90600052602060002001549050919050565b6002546001600160a01b031661261e576040805162461bcd60e51b815260206004820152600e60248201526d2aa729a822a1a4a324a2a22fa12960911b604482015290519081900360640190fd5b6002546001600160a01b0316331461266f576040805162461bcd60e51b815260206004820152600f60248201526e2aa720aaaa2427a924ad22a22fa12960891b604482015290519081900360640190fd5b610b576140cc565b6000908152600960209081526040808320548352600490915290206006015490565b6002546001600160a01b03166126e7576040805162461bcd60e51b815260206004820152600e60248201526d2aa729a822a1a4a324a2a22fa12960911b604482015290519081900360640190fd5b6002546001600160a01b03163314612738576040805162461bcd60e51b815260206004820152600f60248201526e2aa720aaaa2427a924ad22a22fa12960891b604482015290519081900360640190fd5b6000918252600960209081526040808420548452600490915290912060020180546001600160a01b0319166001600160a01b03909216919091179055565b61277e613f00565b6001600160a01b031661278f612829565b6001600160a01b0316146127d8576040805162461bcd60e51b8152602060048201819052602482015260008051602061422a833981519152604482015290519081900360640190fd5b600f8190556040805182815233602082015281517f08bf60d0e489e33912f3ba0f81f21c6f2ad2499a36dfebfb6cfbfefcc49f3cca929181900390910190a150565b6002546001600160a01b031681565b6000546001600160a01b031690565b600e5481565b600d6020526000908152604090205481565b600061285a61418b565b60046000612867856129ad565b815260208082019290925260409081016000208151610120810183528154815260018201549381019390935260028101546001600160a01b03169183019190915260038101546060830181905260048201546080840152600582015460a0840152600682015460c0840152600782015460e0840152600890910154610100830152909150421015612937576040805162461bcd60e51b8152602060048201526015602482015274494e56414c49445f56414c49444954595f46524f4d60581b604482015290519081900360640190fd5b4281608001511015612986576040805162461bcd60e51b8152602060048201526013602482015272494e56414c49445f56414c49444954595f544f60681b604482015290519081900360640190fd5b50600192915050565b6000908152600660205260409020600101546001600160a01b031690565b6000816129f2576040805162461bcd60e51b815260206004820152600e60248201526d155394d41150d25192515117d25160921b604482015290519081900360640190fd5b60006129fd83610a2b565b600090815260096020908152604080832054835260049091529020549392505050565b612a28613f00565b6001600160a01b0316612a39612829565b6001600160a01b031614612a82576040805162461bcd60e51b8152602060048201819052602482015260008051602061422a833981519152604482015290519081900360640190fd5b6001600160a01b038116612ad3576040805162461bcd60e51b8152602060048201526013602482015272554e5350454349464945445f4144445245535360681b604482015290519081900360640190fd5b600280546001600160a01b0319166001600160a01b0383169081179091556040805191825233602083015280517fac81fe7dd460bb5162a4a7d8fb92a13bd2baf450914fc6b1c4cc3180eba55af09281900390910190a150565b612b35613f00565b6001600160a01b0316612b46612829565b6001600160a01b031614612b8f576040805162461bcd60e51b8152602060048201819052602482015260008051602061422a833981519152604482015290519081900360640190fd5b6001600160a01b038116612be0576040805162461bcd60e51b8152602060048201526013602482015272554e5350454349464945445f4144445245535360681b604482015290519081900360640190fd5b600380546001600160a01b0319166001600160a01b0383169081179091556040805191825233602083015280517fcd124a0a6c3182c7bb77b8052823a4bf7d0a4c90016ffc4d53b969f98d3f8b889281900390910190a150565b6004602081905260009182526040909120805460018201546002830154600384015494840154600585015460068601546007870154600890970154959794966001600160a01b03909416959293919290919089565b6002546001600160a01b0316612cdd576040805162461bcd60e51b815260206004820152600e60248201526d2aa729a822a1a4a324a2a22fa12960911b604482015290519081900360640190fd5b6002546001600160a01b03163314612d2e576040805162461bcd60e51b815260206004820152600f60248201526e2aa720aaaa2427a924ad22a22fa12960891b604482015290519081900360640190fd5b6040805160608101825260ff94851681526001600160a01b0393841660208083019182529385168284019081526000978852600690945291909520945185549151841661010002610100600160a81b03199190951660ff199092169190911716929092178355905160019092018054929091166001600160a01b0319909216919091179055565b80612df8576040805162461bcd60e51b815260206004820152600e60248201526d155394d41150d25192515117d25160921b604482015290519081900360640190fd5b612e0061418b565b60046000612e0d846129ad565b815260208082019290925260409081016000208151610120810183528154815260018201549381019390935260028101546001600160a01b03169183019190915260038101546060830152600481015460808301819052600582015460a0840152600682015460c0840152600782015460e084015260089091015461010083015290915042118015612eb557506000828152600a6020526040902054612eb59060ff166140be565b15612f36576000828152600a6020526040902054612ed79060ff166004613ef3565b6000838152600a6020908152604091829020805460ff191660ff94909416939093179092558051848152339281019290925280517f0fbb6c447a631ca170fad3c540d76f932db4c444d82bc160f7e3eebc6a5f67409281900390910190a15b5050565b600090815260096020908152604080832054835260049091529020600581015460068201546007909201549092565b600160ff1b81565b60015460408051627eeac760e11b81526001600160a01b038481166004830152602482018690529151600093929092169162fdd58e91604480820192602092909190829003018186803b158015612fc757600080fd5b505afa158015612fdb573d6000803e3d6000fd5b505050506040513d6020811015612ff157600080fd5b50519392505050565b60086020526000908152604090205481565b6006602052600090815260409020805460019091015460ff8216916001600160a01b036101009091048116911683565b60009081526006602052604090205461010090046001600160a01b031690565b6003546001600160a01b03166130aa576040805162461bcd60e51b815260206004820152600e60248201526d2aa729a822a1a4a324a2a22fa12960911b604482015290519081900360640190fd5b6003546001600160a01b031633146130fa576040805162461bcd60e51b815260206004820152600e60248201526d554e415554484f52495a45445f4360901b604482015290519081900360640190fd5b8061313d576040805162461bcd60e51b815260206004820152600e60248201526d155394d41150d25192515117d25160921b604482015290519081900360640190fd5b6000818152600a6020908152604091829020805462ff00001916620100001790558151838152600191810191909152815160008051602061426a833981519152929181900390910190a150565b600a6020526000908152604090208054600182015460029092015460ff8083169361010084048216936201000090049091169185565b6131c8613f00565b6001600160a01b03166131d9612829565b6001600160a01b031614613222576040805162461bcd60e51b8152602060048201819052602482015260008051602061422a833981519152604482015290519081900360640190fd5b60108190556040805182815233602082015281517fff783d200775c8efda1ff912a95c6b9561e641cc8695e015340f06a5b3024f12929181900390910190a150565b61326c613f00565b6001600160a01b031661327d612829565b6001600160a01b0316146132c6576040805162461bcd60e51b8152602060048201819052602482015260008051602061422a833981519152604482015290519081900360640190fd5b6001600160a01b03811661330b5760405162461bcd60e51b81526004018080602001828103825260268152602001806141e46026913960400191505060405180910390fd5b600080546040516001600160a01b038085169392169160008051602061424a83398151915291a3600080546001600160a01b0319166001600160a01b0392909216919091179055565b600f5481565b613362610f25565b156133a7576040805162461bcd60e51b815260206004820152601060248201526f14185d5cd8589b194e881c185d5cd95960821b604482015290519081900360640190fd5b60006133b283610a2b565b9050816001600160a01b03166133c782610a51565b6001600160a01b031614613415576040805162461bcd60e51b815260206004820152601060248201526f2aa720aaaa2427a924ad22a22fa1a7a360811b604482015290519081900360640190fd5b6000838152600a602052604090205460ff16613432816002613e8f565b1561347a576040805162461bcd60e51b81526020600482015260136024820152721053149150511657d0d05390d1531190555315606a1b604482015290519081900360640190fd5b613485816001613e8f565b156134cb576040805162461bcd60e51b81526020600482015260116024820152701053149150511657d19253905312569151607a1b604482015290519081900360640190fd5b6134d361418b565b600460006134e0876129ad565b815260208082019290925260409081016000208151610120810183528154815260018201549381019390935260028101546001600160a01b0316918301919091526003810154606083015260048101546080830152600581015460a083015260068082015460c0840152600782015460e084015260089091015461010083015290915061356e908390613e8f565b8061357f575061357f826005613e8f565b156136725761358f826003613e8f565b61360f57601054600f546000878152600a602052604090206001015401014211156135f5576040805162461bcd60e51b815260206004820152601160248201527010d3d19411549253d117d1561412549151607a1b604482015290519081900360640190fd5b6000858152600a602052604090204260019091015561366d565b6010546000868152600a60205260409020600201540142111561366d576040805162461bcd60e51b815260206004820152601160248201527010d3d19411549253d117d1561412549151607a1b604482015290519081900360640190fd5b613764565b61367d826004613e8f565b156136eb5761368d826003613e8f565b61360f57601054600f54826080015101014211156136e6576040805162461bcd60e51b815260206004820152601160248201527010d3d19411549253d117d1561412549151607a1b604482015290519081900360640190fd5b61366d565b6136f4826140be565b156117f057601054600f548260800151010142111561374e576040805162461bcd60e51b815260206004820152601160248201527010d3d19411549253d117d1561412549151607a1b604482015290519081900360640190fd5b6000858152600a60205260409020426001909101555b61376f826002613ef3565b6000868152600a6020908152604091829020805460ff191660ff9490941693909317909255805187815290517f125d1de9ad96c695c95a8de033058d2c00835a1e0cbf24b7fa3de72f603c8709929181900390910190a15050505050565b600154604080516331a9108f60e11b81526004810184905290516000926001600160a01b031691636352211e916024808301926020929190829003018186803b15801561381957600080fd5b505afa15801561382d573d6000803e3d6000fd5b505050506040513d602081101561384357600080fd5b505192915050565b60009081526009602090815260408083205483526004909152902060058101546007909101549091565b61387d610f25565b6138c5576040805162461bcd60e51b815260206004820152601460248201527314185d5cd8589b194e881b9bdd081c185d5cd95960621b604482015290519081900360640190fd5b6000805460ff60a01b191690557f5db9ee0a495bf2e6ff9c91a7834c1ba4fdd244a5e8aa4e537bd38aeae4b073aa6138fb613f00565b604080516001600160a01b039092168252519081900360200190a1565b60008282111561396f576040805162461bcd60e51b815260206004820152601e60248201527f536166654d6174683a207375627472616374696f6e206f766572666c6f770000604482015290519081900360640190fd5b50900390565b826139b8576040805162461bcd60e51b815260206004820152600e60248201526d155394d41150d25192515117d25160921b604482015290519081900360640190fd5b6139ca816001600160a01b0316614155565b15613a9757604080516301ffc9a760e01b8152630a85bd0160e11b600482015290516001600160a01b038316916301ffc9a7916024808301926020929190829003018186803b158015613a1c57600080fd5b505afa158015613a30573d6000803e3d6000fd5b505050506040513d6020811015613a4657600080fd5b5051613a97576040805162461bcd60e51b815260206004820152601b60248201527a155394d5541413d495115117d15490cdcc8c57d49150d152559151602a1b604482015290519081900360640190fd5b6001600160a01b038116613ae8576040805162461bcd60e51b8152602060048201526013602482015272554e5350454349464945445f4144445245535360681b604482015290519081900360640190fd5b60015460408051627eeac760e11b81526001600160a01b038581166004830152602482018790529151600093929092169162fdd58e91604480820192602092909190829003018186803b158015613b3e57600080fd5b505afa158015613b52573d6000803e3d6000fd5b505050506040513d6020811015613b6857600080fd5b505111613baa576040805162461bcd60e51b815260206004820152600b60248201526a4f464645525f454d50545960a81b604482015290519081900360640190fd5b600083815260096020908152604080832054808452600492839052922001544211156111d2576040805162461bcd60e51b815260206004820152600d60248201526c13d191915497d1561412549151609a1b604482015290519081900360640190fd5b6000613c21836001600160a01b0316614155565b15613d175760408051630a85bd0160e11b8082526001600160a01b0387811660048401523360248401526044830186905260806064840152600060848401819052935191939087169263150b7a029260c48083019360209383900390910190829087803b158015613c9157600080fd5b505af1158015613ca5573d6000803e3d6000fd5b505050506040513d6020811015613cbb57600080fd5b50516001600160e01b03191614613d17576040805162461bcd60e51b815260206004820152601b60248201527a155394d5541413d495115117d15490cdcc8c57d49150d152559151602a1b604482015290519081900360640190fd5b6001805460408051637a94c56560e11b81526001600160a01b0388811660048301526024820187905260448201949094529051929091169163f5298aca9160648082019260009290919082900301818387803b158015613d7657600080fd5b505af1158015613d8a573d6000803e3d6000fd5b505050506001600160a01b03841660009081526008602090815260408083208054600019019055848352600d82528083208054600101908190558517808452600a90925290912054613de09060ff166007613ef3565b6000828152600a60209081526040808320805460ff191660ff959095169490941762ffff00191690935560015483516340c10f1960e01b81526001600160a01b03898116600483015260248201879052945194909116936340c10f1993604480840194938390030190829087803b158015613e5a57600080fd5b505af1158015613e6e573d6000803e3d6000fd5b505050506040513d6020811015613e8457600080fd5b509095945050505050565b60ff91821691161c60019081161490565b6000613eb8613eb160006007613ef3565b6006613ef3565b60ff168260ff16149050919050565b6000613eb8613ed860006007613ef3565b6005613ef3565b6000613eb8613ef060006007613ef3565b60045b600160ff919091161b1790565b3390565b600082613f4e576040805162461bcd60e51b8152602060048201526013602482015272554e5350454349464945445f50524f4d49534560681b604482015290519081900360640190fd5b6000838152600460205260409020600201546001600160a01b03858116911614613fb1576040805162461bcd60e51b815260206004820152600f60248201526e554e415554484f52495a45445f434f60881b604482015290519081900360640190fd5b60008211613ff9576040805162461bcd60e51b815260206004820152601060248201526f494e56414c49445f5155414e5449545960801b604482015290519081900360640190fd5b6000614005600161415b565b6001546040805163731133e960e01b81526001600160a01b03898116600483015260248201859052604482018890526080606483015260006084830181905292519495509092169263731133e99260c480820193929182900301818387803b15801561407057600080fd5b505af1158015614084573d6000803e3d6000fd5b50505060008281526009602090815260408083208890556001600160a01b0389168352600890915290208054850190555090509392505050565b6000613eb860006007613ef3565b6140d4610f25565b15614119576040805162461bcd60e51b815260206004820152601060248201526f14185d5cd8589b194e881c185d5cd95960821b604482015290519081900360640190fd5b6000805460ff60a01b1916600160a01b1790557f62e78cea01bee320cd4e420270b5ea74000d11b0c9f74754ebdbfc544b05a2586138fb613f00565b3b151590565b600e8054600101905560008115614180576080600e54901b600160ff1b179050610a37565b5050600e5460801b90565b604051806101200160405280600080191681526020016000815260200160006001600160a01b03168152602001600081526020016000815260200160008152602001600081526020016000815260200160008152509056fe4f776e61626c653a206e6577206f776e657220697320746865207a65726f2061646472657373434f4d504c41494e504552494f445f45585049524544000000000000000000004f776e61626c653a2063616c6c6572206973206e6f7420746865206f776e65728be0079c531659141344cd1fd0a4f28419497f9722a3daafe3b4186f6b6457e0f570ce8ad3bc67469a0b8e53a32bba1edd0105fc668c1278225660d2291cc554a2646970667358221220db4f541390045bc4f7dac23dbb53eea381648b84a6555dc2e4ce294f002cc95e64736f6c63430007010033",
  "source": "// SPDX-License-Identifier: LGPL-3.0-or-later\n\npragma solidity 0.7.1;\n\nimport \"@openzeppelin/contracts/utils/Address.sol\";\nimport \"@openzeppelin/contracts/access/Ownable.sol\";\nimport \"@openzeppelin/contracts/utils/Pausable.sol\";\nimport \"@openzeppelin/contracts/math/SafeMath.sol\";\nimport \"./interfaces/IERC1155.sol\";\nimport \"./interfaces/IERC165.sol\";\nimport \"./interfaces/IERC721.sol\";\nimport \"./interfaces/IERC1155ERC721.sol\";\nimport \"./interfaces/IERC721TokenReceiver.sol\";\nimport \"./interfaces/IVoucherKernel.sol\";\nimport \"./UsingHelpers.sol\";\n\n//preparing for ERC-1066, ERC-1444, EIP-838\n\n/**\n * @title VoucherKernel contract is controlling the core business logic\n * @dev Notes:\n *  - Since this is a reference app, it is not yet optimized.\n *      In the next phase, the bulk raw data will be packed into a single bytes32 field and/or pushed off-chain.\n *  - The usage of block.timestamp is honored since vouchers are defined currently with day-precision.\n *      See: https://ethereum.stackexchange.com/questions/5924/how-do-ethereum-mining-nodes-maintain-a-time-consistent-with-the-network/5931#5931\n */\n// solhint-disable-next-line\ncontract VoucherKernel is IVoucherKernel, Ownable, Pausable, UsingHelpers {\n    using Address for address;\n    using SafeMath for uint256;\n\n    //AssetRegistry assetRegistry;\n    address public tokensContract;\n\n    //promise for an asset could be reusable, but simplified here for brevity\n    struct Promise {\n        bytes32 promiseId;\n        uint256 nonce; //the asset that is offered\n        address seller; //the seller who created the promise\n        //we simplify the value for the demoapp, otherwise voucher details would be packed in one bytes32 field value\n        uint256 validFrom;\n        uint256 validTo;\n        uint256 price;\n        uint256 depositSe;\n        uint256 depositBu;\n        uint256 idx;\n    }\n\n    struct VoucherPaymentMethod {\n        uint8 paymentMethod;\n        address addressTokenPrice;\n        address addressTokenDeposits;\n    }\n\n    address public bosonRouterAddress; //address of the Boson Router contract\n    address public cashierAddress; //address of the Cashier contract\n\n    mapping(bytes32 => Promise) public promises; //promises to deliver goods or services\n    mapping(address => uint256) public tokenNonces; //mapping between seller address and its own nonces. Every time seller creates supply ID it gets incremented. Used to avoid duplicate ID's\n    mapping(uint256 => VoucherPaymentMethod) public paymentDetails; // tokenSupplyId to VoucherPaymentMethod\n\n    bytes32[] public promiseKeys;\n\n    mapping(address => uint256) public accountSupply;\n    mapping(uint256 => bytes32) public ordersPromise; //mapping between an order (supply a.k.a. VoucherSet token) and a promise\n\n    mapping(uint256 => VoucherStatus) public vouchersStatus; //recording the vouchers evolution\n\n    //standard reqs\n    mapping(uint256 => mapping(address => uint256)) private balances; //balance of token ids of an account\n    mapping(address => mapping(address => bool)) private operatorApprovals; //approval of accounts of an operator\n\n    //ID reqs\n    mapping(uint256 => uint256) public typeCounters; //counter for ID of a particular type of NFT\n    uint256 public constant MASK_TYPE = uint256(uint128(~0)) << 128; //the type mask in the upper 128 bits\n    //1111111111111111111111111111111111111111111111111111111111111111111111111111111111111111111111111111111111111111111111111111111100000000000000000000000000000000000000000000000000000000000000000000000000000000000000000000000000000000000000000000000000000000\n\n    uint256 public constant MASK_NF_INDEX = uint128(~0); //the non-fungible index mask in the lower 128\n    //0000000000000000000000000000000000000000000000000000000000000000000000000000000000000000000000000000000000000000000000000000000011111111111111111111111111111111111111111111111111111111111111111111111111111111111111111111111111111111111111111111111111111111\n\n    uint256 public constant TYPE_NF_BIT = 1 << 255; //the first bit represents an NFT type\n    //1000000000000000000000000000000000000000000000000000000000000000000000000000000000000000000000000000000000000000000000000000000000000000000000000000000000000000000000000000000000000000000000000000000000000000000000000000000000000000000000000000000000000000\n\n    uint256 public typeId; //base token type ... 127-bits cover 1.701411835*10^38 types (not differentiating between FTs and NFTs)\n    /* Token IDs:\n    Fungibles: 0, followed by 127-bit FT type ID, in the upper 128 bits, followed by 0 in lower 128-bits\n    <0><uint127: base token id><uint128: 0>\n    \n    Non-fungible VoucherSets (supply tokens): 1, followed by 127-bit NFT type ID, in the upper 128 bits, followed by 0 in lower 128-bits\n    <1><uint127: base token id><uint128: 0    \n    \n    Non-fungible vouchers: 1, followed by 127-bit NFT type ID, in the upper 128 bits, followed by a 1-based index of an NFT token ID.\n    <1><uint127: base token id><uint128: index of non-fungible>\n    */\n\n    uint256 public complainPeriod;\n    uint256 public cancelFaultPeriod;\n\n    event LogPromiseCreated(\n        bytes32 indexed _promiseId,\n        uint256 indexed _nonce,\n        address indexed _seller,\n        uint256 _validFrom,\n        uint256 _validTo,\n        uint256 _idx\n    );\n\n    event LogVoucherDelivered(\n        uint256 indexed _tokenIdSupply,\n        uint256 _tokenIdVoucher,\n        address _issuer,\n        address _holder,\n        bytes32 _promiseId,\n        uint256 _correlationId\n    );\n\n    event LogVoucherRedeemed(\n        uint256 _tokenIdVoucher,\n        address _holder,\n        bytes32 _promiseId\n    );\n\n    event LogVoucherRefunded(uint256 _tokenIdVoucher);\n\n    event LogVoucherComplain(uint256 _tokenIdVoucher);\n\n    event LogVoucherFaultCancel(uint256 _tokenIdVoucher);\n\n    event LogExpirationTriggered(uint256 _tokenIdVoucher, address _triggeredBy);\n\n    event LogFinalizeVoucher(uint256 _tokenIdVoucher, address _triggeredBy);\n\n    event LogBosonRouterSet(address _newBosonRouter, address _triggeredBy);\n\n    event LogCashierSet(address _newCashier, address _triggeredBy);\n\n    event LogComplainPeriodChanged(\n        uint256 _newComplainPeriod,\n        address _triggeredBy\n    );\n\n    event LogCancelFaultPeriodChanged(\n        uint256 _newCancelFaultPeriod,\n        address _triggeredBy\n    );\n\n    event LogVoucherSetFaultCancel(uint256 _tokenIdSupply, address _issuer);\n\n    event LogFundsReleased(\n        uint256 _tokenIdVoucher,\n        uint8 _type //0 .. payment, 1 .. deposits\n    );\n\n    modifier onlyFromRouter() {\n        require(bosonRouterAddress != address(0), \"UNSPECIFIED_BR\"); //hex\"20\" FISSION.code(FISSION.Category.Find, FISSION.Status.NotFound_Unequal_OutOfRange)\n        require(msg.sender == bosonRouterAddress, \"UNAUTHORIZED_BR\"); //hex\"10\" FISSION.code(FISSION.Category.Permission, FISSION.Status.Disallowed_Stop)\n        _;\n    }\n\n    modifier onlyFromCashier() {\n        require(cashierAddress != address(0), \"UNSPECIFIED_BR\"); //hex\"20\" FISSION.code(FISSION.Category.Find, FISSION.Status.NotFound_Unequal_OutOfRange)\n        require(msg.sender == cashierAddress, \"UNAUTHORIZED_C\"); //hex\"10\" FISSION.code(FISSION.Category.Permission, FISSION.Status.Disallowed_Stop)\n        _;\n    }\n\n    modifier onlyVoucherOwner(uint256 _tokenIdVoucher, address _sender) {\n        //check authorization\n        require(\n            IERC721(tokensContract).ownerOf(_tokenIdVoucher) == _sender,\n            \"UNAUTHORIZED_V\"\n        ); //hex\"10\" FISSION.code(FISSION.Category.Permission, FISSION.Status.Disallowed_Stop)\n        _;\n    }\n\n    constructor(address _tokensContract) {\n        tokensContract = _tokensContract;\n\n        complainPeriod = 7 * 1 days;\n        cancelFaultPeriod = 7 * 1 days;\n    }\n\n    /**\n     * @notice Pause the process of interaction with voucherID's (ERC-721), in case of emergency.\n     * Only BR contract is in control of this function.\n     */\n    function pause() external override onlyFromRouter {\n        _pause();\n    }\n\n    /**\n     * @notice Unpause the process of interaction with voucherID's (ERC-721).\n     * Only BR contract is in control of this function.\n     */\n    function unpause() external override onlyFromRouter {\n        _unpause();\n    }\n\n    /**\n     * @notice Creating a new promise for goods or services.\n     * Can be reused, e.g. for making different batches of these (in the future).\n     * @param _seller      seller of the promise\n     * @param _validFrom   Start of valid period\n     * @param _validTo     End of valid period\n     * @param _price       Price (payment amount)\n     * @param _depositSe   Seller's deposit\n     * @param _depositBu   Buyer's deposit\n     */\n    function createTokenSupplyID(\n        address _seller,\n        uint256 _validFrom,\n        uint256 _validTo,\n        uint256 _price,\n        uint256 _depositSe,\n        uint256 _depositBu,\n        uint256 _quantity\n    ) external override onlyFromRouter returns (uint256) {\n        require(_validFrom <= _validTo, \"INVALID_VALIDITY_FROM\"); //hex\"26\" FISSION.code(FISSION.Category.Find, FISSION.Status.Above_Range_Overflow)\n        // solhint-disable-next-line not-rely-on-time\n        require(_validTo >= block.timestamp, \"INVALID_VALIDITY_TO\"); //hex\"24\" FISSION.code(FISSION.Category.Find, FISSION.Status.BelowRange_Underflow)\n\n        bytes32 key;\n        key = keccak256(\n            abi.encodePacked(tokenNonces[_seller]++, _validFrom, _validTo)\n        );\n\n        if (promiseKeys.length > 0) {\n            require(\n                promiseKeys[promises[key].idx] != key,\n                \"PROMISE_ALREADY_EXISTS\"\n            );\n        }\n\n        promises[key] = Promise({\n            promiseId: key,\n            nonce: tokenNonces[_seller],\n            seller: _seller,\n            validFrom: _validFrom,\n            validTo: _validTo,\n            price: _price,\n            depositSe: _depositSe,\n            depositBu: _depositBu,\n            idx: promiseKeys.length\n        });\n\n        promiseKeys.push(key);\n\n        emit LogPromiseCreated(\n            key,\n            tokenNonces[_seller],\n            _seller,\n            _validFrom,\n            _validTo,\n            promiseKeys.length - 1\n        );\n\n        return createOrder(_seller, key, _quantity);\n    }\n\n    /**\n     * @notice Creates a Payment method struct recording the details on how the seller requires to receive Price and Deposits for a certain Voucher Set.\n     * @param _tokenIdSupply     _tokenIdSupply of the voucher set this is related to\n     * @param _paymentMethod  might be ETHETH, ETHTKN, TKNETH or TKNTKN\n     * @param _tokenPrice   token address which will hold the funds for the price of the voucher\n     * @param _tokenDeposits   token address which will hold the funds for the deposits of the voucher\n     */\n    function createPaymentMethod(\n        uint256 _tokenIdSupply,\n        uint8 _paymentMethod,\n        address _tokenPrice,\n        address _tokenDeposits\n    ) external override onlyFromRouter {\n        paymentDetails[_tokenIdSupply] = VoucherPaymentMethod({\n            paymentMethod: _paymentMethod,\n            addressTokenPrice: _tokenPrice,\n            addressTokenDeposits: _tokenDeposits\n        });\n    }\n\n    /**\n     * @notice Create an order for offering a certain quantity of an asset\n     * This creates a listing in a marketplace, technically as an ERC-1155 non-fungible token with supply.\n     * @param _seller     seller of the promise\n     * @param _promiseId  ID of a promise (simplified into asset for demo)\n     * @param _quantity   Quantity of assets on offer\n     */\n    function createOrder(\n        address _seller,\n        bytes32 _promiseId,\n        uint256 _quantity\n    ) private returns (uint256) {\n        require(_promiseId != bytes32(0), \"UNSPECIFIED_PROMISE\"); //hex\"20\" FISSION.code(FISSION.Category.Find, FISSION.Status.NotFound_Unequal_OutOfRange)\n        require(promises[_promiseId].seller == _seller, \"UNAUTHORIZED_CO\"); //hex\"10\" FISSION.code(FISSION.Category.Permission, FISSION.Status.Disallowed_Stop)\n        require(_quantity > 0, \"INVALID_QUANTITY\"); //hex\"24\" FISSION.code(FISSION.Category.Find, FISSION.Status.BelowRange_Underflow)\n\n        uint256 tokenIdSupply = generateTokenType(true); //create & assign a new non-fungible type\n        IERC1155ERC721(tokensContract).mint(\n            _seller,\n            tokenIdSupply,\n            _quantity,\n            \"\"\n        );\n\n        ordersPromise[tokenIdSupply] = _promiseId;\n        accountSupply[_seller] += _quantity;\n\n        return tokenIdSupply;\n    }\n\n    /**\n     * @notice Fill Voucher Order, iff funds paid, then extract & mint NFT to the voucher holder\n     * @param _tokenIdSupply   ID of the supply token (ERC-1155)\n     * @param _issuer          Address of the token's issuer\n     * @param _holder          Address of the recipient of the voucher (ERC-721)\n     * @param _correlationId           ID of the current interaction with the smart contract for a specific user\n     */\n    function fillOrder(\n        uint256 _tokenIdSupply,\n        address _issuer,\n        address _holder,\n        uint256 _correlationId\n    ) external override onlyFromRouter {\n        //checks\n        checkOrderFillable(_tokenIdSupply, _issuer, _holder);\n\n        //close order\n        uint256 voucherTokenId = extract721(_issuer, _holder, _tokenIdSupply);\n\n        emit LogVoucherDelivered(\n            _tokenIdSupply,\n            voucherTokenId,\n            _issuer,\n            _holder,\n            getPromiseIdFromVoucherId(voucherTokenId),\n            _correlationId\n        );\n    }\n\n    /**\n     * @notice Check order is fillable\n     * @dev Will throw if checks don't pass\n     * @param _tokenIdSupply  ID of the supply token\n     * @param _issuer  Address of the token's issuer\n     * @param _holder  Address of the recipient of the voucher (ERC-721)\n     */\n    function checkOrderFillable(\n        uint256 _tokenIdSupply,\n        address _issuer,\n        address _holder\n    ) internal view {\n        require(_tokenIdSupply != 0, \"UNSPECIFIED_ID\"); //hex\"20\" FISSION.code(FISSION.Category.Find, FISSION.Status.NotFound_Unequal_OutOfRange)\n\n        if (_holder.isContract()) {\n            require(\n                IERC165(_holder).supportsInterface(0x150b7a02),\n                \"UNSUPPORTED_ERC721_RECEIVED\"\n            ); //hex\"31\"\n            //bytes4(keccak256(\"onERC721Received(address,address,uint256,bytes)\"))\n        }\n\n        require(_holder != address(0), \"UNSPECIFIED_ADDRESS\"); //hex\"20\" FISSION.code(FISSION.Category.Find, FISSION.Status.NotFound_Unequal_OutOfRange)\n        require(\n            IERC1155(tokensContract).balanceOf(_issuer, _tokenIdSupply) > 0,\n            \"OFFER_EMPTY\"\n        ); //hex\"40\" FISSION.code(FISSION.Category.Availability, FISSION.Status.Unavailable)\n\n        bytes32 promiseKey = ordersPromise[_tokenIdSupply];\n\n        require(\n            promises[promiseKey].validTo >= block.timestamp,\n            \"OFFER_EXPIRED\"\n        );\n    }\n\n    /**\n     * @notice Extract a standard non-fungible token ERC-721 from a supply stored in ERC-1155\n     * @dev Token ID is derived following the same principles for both ERC-1155 and ERC-721\n     * @param _issuer          The address of the token issuer\n     * @param _to              The address of the token holder\n     * @param _tokenIdSupply   ID of the token type\n     * @return                 ID of the voucher token\n     */\n    function extract721(\n        address _issuer,\n        address _to,\n        uint256 _tokenIdSupply\n    ) internal returns (uint256) {\n        if (_to.isContract()) {\n            require(\n                ERC721TokenReceiver(_to).onERC721Received(\n                    _issuer,\n                    msg.sender,\n                    _tokenIdSupply,\n                    \"\"\n                ) == ERC721TokenReceiver(_to).onERC721Received.selector,\n                \"UNSUPPORTED_ERC721_RECEIVED\"\n            ); //hex\"10\" FISSION.code(FISSION.Category.Permission, FISSION.Status.Disallowed_Stop)\n            //bytes4(keccak256(\"onERC721Received(address,address,uint256,bytes)\"))\n        }\n\n        IERC1155ERC721(tokensContract).burn(_issuer, _tokenIdSupply, 1); // This is hardcoded as 1 on purpose\n        accountSupply[_issuer]--;\n\n        //calculate tokenId\n        uint256 voucherTokenId =\n            _tokenIdSupply | ++typeCounters[_tokenIdSupply];\n\n        //set status\n        vouchersStatus[voucherTokenId].status = setChange(\n            vouchersStatus[voucherTokenId].status,\n            IDX_COMMIT\n        );\n        vouchersStatus[voucherTokenId].isPaymentReleased = false;\n        vouchersStatus[voucherTokenId].isDepositsReleased = false;\n\n        //mint voucher NFT as ERC-721\n        IERC1155ERC721(tokensContract).mint(_to, voucherTokenId);\n\n        return voucherTokenId;\n    }\n\n    /**\n     * @notice Extract a standard non-fungible tokens ERC-721 from a supply stored in ERC-1155\n     * @dev Token ID is derived following the same principles for both ERC-1155 and ERC-721\n     * @param _issuer          The address of the token issuer\n     * @param _tokenIdSupply   ID of the token type\n     * @param _qty   qty that should be burned\n     */\n    function burnSupplyOnPause(\n        address _issuer,\n        uint256 _tokenIdSupply,\n        uint256 _qty\n    ) external override whenPaused onlyFromCashier {\n        IERC1155ERC721(tokensContract).burn(_issuer, _tokenIdSupply, _qty);\n        accountSupply[_issuer] = accountSupply[_issuer].sub(_qty);\n    }\n\n    /**\n     * @notice Creating a new token type, serving as the base for tokenID generation for NFTs, and a de facto ID for FTs.\n     * @param _isNonFungible   Flag for generating NFT or FT\n     * @return _tokenType   Returns a newly generated token type\n     */\n    function generateTokenType(bool _isNonFungible)\n        internal\n        returns (uint256 _tokenType)\n    {\n        typeId++;\n\n        if (_isNonFungible) {\n            _tokenType = TYPE_NF_BIT | (typeId << 128); //upper bit is 1, followed by sequence, leaving lower 128-bits as 0\n        } else {\n            _tokenType = typeId << 128; //upper bit is not set, followed by sequence, leaving lower 128-bits as 0\n        }\n\n        return _tokenType;\n    }\n\n    /* solhint-disable */\n\n    /**\n     * @notice Redemption of the vouchers promise\n     * @param _tokenIdVoucher   ID of the voucher\n     * @param _msgSender   account called the fn from the BR contract\n     */\n    function redeem(uint256 _tokenIdVoucher, address _msgSender)\n        external\n        override\n        whenNotPaused\n        onlyFromRouter\n        onlyVoucherOwner(_tokenIdVoucher, _msgSender)\n    {\n        //check status\n        require(\n            isStateCommitted(vouchersStatus[_tokenIdVoucher].status),\n            \"ALREADY_PROCESSED\"\n        ); //hex\"48\" FISSION.code(FISSION.Category.Availability, FISSION.Status.AlreadyDone)\n\n        //check validity period\n        isInValidityPeriod(_tokenIdVoucher);\n        Promise memory tPromise =\n            promises[getPromiseIdFromVoucherId(_tokenIdVoucher)];\n\n        vouchersStatus[_tokenIdVoucher].complainPeriodStart = block.timestamp;\n        vouchersStatus[_tokenIdVoucher].status = setChange(\n            vouchersStatus[_tokenIdVoucher].status,\n            IDX_REDEEM\n        );\n\n        emit LogVoucherRedeemed(\n            _tokenIdVoucher,\n            _msgSender,\n            tPromise.promiseId\n        );\n    }\n\n    // // // // // // // //\n    // UNHAPPY PATH\n    // // // // // // // //\n\n    /**\n     * @notice Refunding a voucher\n     * @param _tokenIdVoucher   ID of the voucher\n     * @param _msgSender   account called the fn from the BR contract\n     */\n    function refund(uint256 _tokenIdVoucher, address _msgSender)\n        external\n        override\n        whenNotPaused\n        onlyFromRouter\n        onlyVoucherOwner(_tokenIdVoucher, _msgSender)\n    {\n        require(\n            isStateCommitted(vouchersStatus[_tokenIdVoucher].status),\n            \"INAPPLICABLE_STATUS\"\n        ); //hex\"18\" FISSION.code(FISSION.Category.Permission, FISSION.Status.NotApplicableToCurrentState)\n\n        //check validity period\n        isInValidityPeriod(_tokenIdVoucher);\n\n        vouchersStatus[_tokenIdVoucher].complainPeriodStart = block.timestamp;\n        vouchersStatus[_tokenIdVoucher].status = setChange(\n            vouchersStatus[_tokenIdVoucher].status,\n            IDX_REFUND\n        );\n\n        emit LogVoucherRefunded(_tokenIdVoucher);\n    }\n\n    /**\n     * @notice Issue a complain for a voucher\n     * @param _tokenIdVoucher   ID of the voucher\n     * @param _msgSender   account called the fn from the BR contract\n     */\n    function complain(uint256 _tokenIdVoucher, address _msgSender)\n        external\n        override\n        whenNotPaused\n        onlyFromRouter\n        onlyVoucherOwner(_tokenIdVoucher, _msgSender)\n    {\n        require(\n            !isStatus(vouchersStatus[_tokenIdVoucher].status, IDX_COMPLAIN),\n            \"ALREADY_COMPLAINED\"\n        ); //hex\"48\" FISSION.code(FISSION.Category.Availability, FISSION.Status.AlreadyDone)\n        require(\n            !isStatus(vouchersStatus[_tokenIdVoucher].status, IDX_FINAL),\n            \"ALREADY_FINALIZED\"\n        ); //hex\"48\" FISSION.code(FISSION.Category.Availability, FISSION.Status.AlreadyDone)\n\n        //check if still in the complain period\n        Promise memory tPromise =\n            promises[getPromiseIdFromVoucherId(_tokenIdVoucher)];\n\n        //if redeemed or refunded\n        if (\n            isStateRedemptionSigned(vouchersStatus[_tokenIdVoucher].status) ||\n            isStateRefunded(vouchersStatus[_tokenIdVoucher].status)\n        ) {\n            if (\n                !isStatus(\n                    vouchersStatus[_tokenIdVoucher].status,\n                    IDX_CANCEL_FAULT\n                )\n            ) {\n                require(\n                    block.timestamp <=\n                        vouchersStatus[_tokenIdVoucher].complainPeriodStart +\n                            complainPeriod +\n                            cancelFaultPeriod,\n                    \"COMPLAINPERIOD_EXPIRED\"\n                ); //hex\"46\" FISSION.code(FISSION.Category.Availability, FISSION.Status.Expired)\n            } else {\n                require(\n                    block.timestamp <=\n                        vouchersStatus[_tokenIdVoucher].complainPeriodStart +\n                            complainPeriod,\n                    \"COMPLAINPERIOD_EXPIRED\"\n                ); //hex\"46\" FISSION.code(FISSION.Category.Availability, FISSION.Status.Expired)\n            }\n\n            vouchersStatus[_tokenIdVoucher].cancelFaultPeriodStart = block\n                .timestamp;\n            vouchersStatus[_tokenIdVoucher].status = setChange(\n                vouchersStatus[_tokenIdVoucher].status,\n                IDX_COMPLAIN\n            );\n\n            emit LogVoucherComplain(_tokenIdVoucher);\n\n            //if expired\n        } else if (isStateExpired(vouchersStatus[_tokenIdVoucher].status)) {\n            if (\n                !isStatus(\n                    vouchersStatus[_tokenIdVoucher].status,\n                    IDX_CANCEL_FAULT\n                )\n            ) {\n                require(\n                    block.timestamp <=\n                        tPromise.validTo + complainPeriod + cancelFaultPeriod,\n                    \"COMPLAINPERIOD_EXPIRED\"\n                ); //hex\"46\" FISSION.code(FISSION.Category.Availability, FISSION.Status.Expired)\n            } else {\n                require(\n                    block.timestamp <= tPromise.validTo + complainPeriod,\n                    \"COMPLAINPERIOD_EXPIRED\"\n                ); //hex\"46\" FISSION.code(FISSION.Category.Availability, FISSION.Status.Expired)\n            }\n\n            vouchersStatus[_tokenIdVoucher].cancelFaultPeriodStart = block\n                .timestamp;\n            vouchersStatus[_tokenIdVoucher].status = setChange(\n                vouchersStatus[_tokenIdVoucher].status,\n                IDX_COMPLAIN\n            );\n\n            emit LogVoucherComplain(_tokenIdVoucher);\n\n            //if cancelOrFault\n        } else if (\n            isStatus(vouchersStatus[_tokenIdVoucher].status, IDX_CANCEL_FAULT)\n        ) {\n            require(\n                block.timestamp <=\n                    vouchersStatus[_tokenIdVoucher].complainPeriodStart +\n                        complainPeriod,\n                \"COMPLAINPERIOD_EXPIRED\"\n            ); //hex\"46\" FISSION.code(FISSION.Category.Availability, FISSION.Status.Expired));\n\n            vouchersStatus[_tokenIdVoucher].status = setChange(\n                vouchersStatus[_tokenIdVoucher].status,\n                IDX_COMPLAIN\n            );\n\n            emit LogVoucherComplain(_tokenIdVoucher);\n        } else {\n            revert(\"INAPPLICABLE_STATUS\"); //hex\"18\" FISSION.code(FISSION.Category.Permission, FISSION.Status.NotApplicableToCurrentState)\n        }\n    }\n\n    /**\n     * @notice Cancel/Fault transaction by the Seller, admitting to a fault or backing out of the deal\n     * @param _tokenIdVoucher   ID of the voucher\n     */\n    function cancelOrFault(uint256 _tokenIdVoucher, address _msgSender)\n        external\n        override\n        whenNotPaused\n    {\n        uint256 tokenIdSupply = getIdSupplyFromVoucher(_tokenIdVoucher);\n        require(\n            getSupplyHolder(tokenIdSupply) == _msgSender,\n            \"UNAUTHORIZED_COF\"\n        ); //hex\"10\" FISSION.code(FISSION.Category.Permission, FISSION.Status.Disallowed_Stop)\n\n        uint8 tStatus = vouchersStatus[_tokenIdVoucher].status;\n\n        require(!isStatus(tStatus, IDX_CANCEL_FAULT), \"ALREADY_CANCELFAULT\"); //hex\"48\" FISSION.code(FISSION.Category.Availability, FISSION.Status.AlreadyDone)\n        require(!isStatus(tStatus, IDX_FINAL), \"ALREADY_FINALIZED\"); //hex\"48\" FISSION.code(FISSION.Category.Availability, FISSION.Status.AlreadyDone)\n\n        Promise memory tPromise =\n            promises[getPromiseIdFromVoucherId(_tokenIdVoucher)];\n\n        if (isStatus(tStatus, IDX_REDEEM) || isStatus(tStatus, IDX_REFUND)) {\n            //if redeemed or refunded\n            if (!isStatus(tStatus, IDX_COMPLAIN)) {\n                require(\n                    block.timestamp <=\n                        vouchersStatus[_tokenIdVoucher].complainPeriodStart +\n                            complainPeriod +\n                            cancelFaultPeriod,\n                    \"COFPERIOD_EXPIRED\"\n                ); //hex\"46\" FISSION.code(FISSION.Category.Availability, FISSION.Status.Expired)\n                vouchersStatus[_tokenIdVoucher].complainPeriodStart = block\n                    .timestamp; //resetting the complain period\n            } else {\n                require(\n                    block.timestamp <=\n                        vouchersStatus[_tokenIdVoucher].cancelFaultPeriodStart +\n                            cancelFaultPeriod,\n                    \"COFPERIOD_EXPIRED\"\n                ); //hex\"46\" FISSION.code(FISSION.Category.Availability, FISSION.Status.Expired)\n            }\n        } else if (isStatus(tStatus, IDX_EXPIRE)) {\n            //if expired\n            if (!isStatus(tStatus, IDX_COMPLAIN)) {\n                require(\n                    block.timestamp <=\n                        tPromise.validTo + complainPeriod + cancelFaultPeriod,\n                    \"COFPERIOD_EXPIRED\"\n                ); //hex\"46\" FISSION.code(FISSION.Category.Availability, FISSION.Status.Expired)\n            } else {\n                require(\n                    block.timestamp <=\n                        vouchersStatus[_tokenIdVoucher].cancelFaultPeriodStart +\n                            cancelFaultPeriod,\n                    \"COFPERIOD_EXPIRED\"\n                ); //hex\"46\" FISSION.code(FISSION.Category.Availability, FISSION.Status.Expired)\n            }\n        } else if (isStateCommitted(tStatus)) {\n            //if committed only\n            require(\n                block.timestamp <=\n                    tPromise.validTo + complainPeriod + cancelFaultPeriod,\n                \"COFPERIOD_EXPIRED\"\n            ); //hex\"46\" FISSION.code(FISSION.Category.Availability, FISSION.Status.Expired)\n            vouchersStatus[_tokenIdVoucher].complainPeriodStart = block.timestamp; //complain period starts\n        } else {\n            revert(\"INAPPLICABLE_STATUS\"); //hex\"18\" FISSION.code(FISSION.Category.Permission, FISSION.Status.NotApplicableToCurrentState)\n        }\n\n        vouchersStatus[_tokenIdVoucher].status = setChange(\n            tStatus,\n            IDX_CANCEL_FAULT\n        );\n\n        emit LogVoucherFaultCancel(_tokenIdVoucher);\n    }\n\n    /**\n     * @notice Cancel/Fault transaction by the Seller, cancelling the remaining uncommitted voucher set so that seller prevents buyers from committing to vouchers for items no longer in exchange.\n     * @param _tokenIdSupply   ID of the voucher set\n     * @param _issuer   owner of the voucher\n     */\n    function cancelOrFaultVoucherSet(uint256 _tokenIdSupply, address _issuer)\n        external\n        override\n        onlyFromRouter\n        whenNotPaused\n        returns (uint256)\n    {\n        require(getSupplyHolder(_tokenIdSupply) == _issuer, \"UNAUTHORIZED_COF\");\n\n        uint256 remQty = getRemQtyForSupply(_tokenIdSupply, _issuer);\n\n        require(remQty > 0, \"OFFER_EMPTY\");\n\n        IERC1155ERC721(tokensContract).burn(_issuer, _tokenIdSupply, remQty);\n        accountSupply[_issuer] = accountSupply[_issuer].sub(remQty);\n\n        emit LogVoucherSetFaultCancel(_tokenIdSupply, _issuer);\n\n        return remQty;\n    }\n\n    // // // // // // // //\n    // BACK-END PROCESS\n    // // // // // // // //\n\n    /**\n     * @notice Mark voucher token that the payment was released\n     * @param _tokenIdVoucher   ID of the voucher token\n     */\n    function setPaymentReleased(uint256 _tokenIdVoucher)\n        external\n        override\n        onlyFromCashier\n    {\n        require(_tokenIdVoucher != 0, \"UNSPECIFIED_ID\"); //hex\"20\" FISSION.code(FISSION.Category.Find, FISSION.Status.NotFound_Unequal_OutOfRange)\n        vouchersStatus[_tokenIdVoucher].isPaymentReleased = true;\n\n        emit LogFundsReleased(_tokenIdVoucher, 0);\n    }\n\n    /**\n     * @notice Mark voucher token that the deposits were released\n     * @param _tokenIdVoucher   ID of the voucher token\n     */\n    function setDepositsReleased(uint256 _tokenIdVoucher)\n        external\n        override\n        onlyFromCashier\n    {\n        require(_tokenIdVoucher != 0, \"UNSPECIFIED_ID\"); //hex\"20\" FISSION.code(FISSION.Category.Find, FISSION.Status.NotFound_Unequal_OutOfRange)\n        vouchersStatus[_tokenIdVoucher].isDepositsReleased = true;\n\n        emit LogFundsReleased(_tokenIdVoucher, 1);\n    }\n\n    /**\n     * @notice Mark voucher token as expired\n     * @param _tokenIdVoucher   ID of the voucher token\n     */\n    function triggerExpiration(uint256 _tokenIdVoucher) external override {\n        require(_tokenIdVoucher != 0, \"UNSPECIFIED_ID\"); //hex\"20\" FISSION.code(FISSION.Category.Find, FISSION.Status.NotFound_Unequal_OutOfRange)\n\n        Promise memory tPromise =\n            promises[getPromiseIdFromVoucherId(_tokenIdVoucher)];\n\n        if (\n            tPromise.validTo < block.timestamp &&\n            isStateCommitted(vouchersStatus[_tokenIdVoucher].status)\n        ) {\n            vouchersStatus[_tokenIdVoucher].status = setChange(\n                vouchersStatus[_tokenIdVoucher].status,\n                IDX_EXPIRE\n            );\n\n            emit LogExpirationTriggered(_tokenIdVoucher, msg.sender);\n        }\n    }\n\n    /**\n     * @notice Mark voucher token to the final status\n     * @param _tokenIdVoucher   ID of the voucher token\n     */\n    function triggerFinalizeVoucher(uint256 _tokenIdVoucher) external override {\n        require(_tokenIdVoucher != 0, \"UNSPECIFIED_ID\"); //hex\"20\" FISSION.code(FISSION.Category.Find, FISSION.Status.NotFound_Unequal_OutOfRange)\n\n        uint8 tStatus = vouchersStatus[_tokenIdVoucher].status;\n\n        require(!isStatus(tStatus, IDX_FINAL), \"ALREADY_FINALIZED\"); //hex\"48\" FISSION.code(FISSION.Category.Availability, FISSION.Status.AlreadyDone)\n\n        bool mark;\n        Promise memory tPromise =\n            promises[getPromiseIdFromVoucherId(_tokenIdVoucher)];\n\n        if (isStatus(tStatus, IDX_COMPLAIN)) {\n            if (isStatus(tStatus, IDX_CANCEL_FAULT)) {\n                //if COMPLAIN && COF: then final\n                mark = true;\n            } else if (\n                block.timestamp >=\n                vouchersStatus[_tokenIdVoucher].cancelFaultPeriodStart +\n                    cancelFaultPeriod\n            ) {\n                //if COMPLAIN: then final after cof period\n                mark = true;\n            }\n        } else if (\n            isStatus(tStatus, IDX_CANCEL_FAULT) &&\n            block.timestamp >=\n            vouchersStatus[_tokenIdVoucher].complainPeriodStart + complainPeriod\n        ) {\n            //if COF: then final after complain period\n            mark = true;\n        } else if (\n            isStateRedemptionSigned(tStatus) || isStateRefunded(tStatus)\n        ) {\n            //if RDM/RFND NON_COMPLAIN: then final after complainPeriodStart + complainPeriod\n            if (\n                block.timestamp >=\n                vouchersStatus[_tokenIdVoucher].complainPeriodStart +\n                    complainPeriod\n            ) {\n                mark = true;\n            }\n        } else if (isStateExpired(tStatus)) {\n            //if EXP NON_COMPLAIN: then final after validTo + complainPeriod\n            if (block.timestamp >= tPromise.validTo + complainPeriod) {\n                mark = true;\n            }\n        }\n\n        if (mark) {\n            vouchersStatus[_tokenIdVoucher].status = setChange(\n                tStatus,\n                IDX_FINAL\n            );\n            emit LogFinalizeVoucher(_tokenIdVoucher, msg.sender);\n        }\n    }\n\n    /* solhint-enable */\n\n    // // // // // // // //\n    // UTILS\n    // // // // // // // //\n\n    /**\n     * @notice Set the address of the new holder of a _tokenIdSupply on transfer\n     * @param _tokenIdSupply   _tokenIdSupply which will be transferred\n     * @param _newSeller   new holder of the supply\n     */\n    function setSupplyHolderOnTransfer(\n        uint256 _tokenIdSupply,\n        address _newSeller\n    ) external override onlyFromRouter {\n        bytes32 promiseKey = ordersPromise[_tokenIdSupply];\n        promises[promiseKey].seller = _newSeller;\n    }\n\n    /**\n     * @notice Set the address of the Boson Router contract\n     * @param _bosonRouterAddress   The address of the BR contract\n     */\n    function setBosonRouterAddress(address _bosonRouterAddress)\n        external\n        onlyOwner\n    {\n        require(_bosonRouterAddress != address(0), \"UNSPECIFIED_ADDRESS\"); //hex\"20\" FISSION.code(FISSION.Category.Find, FISSION.Status.NotFound_Unequal_OutOfRange)\n\n        bosonRouterAddress = _bosonRouterAddress;\n\n        emit LogBosonRouterSet(_bosonRouterAddress, msg.sender);\n    }\n\n    /**\n     * @notice Set the address of the Cashier contract\n     * @param _cashierAddress   The address of the BR contract\n     */\n    function setCashierAddress(address _cashierAddress)\n        external\n        override\n        onlyOwner\n    {\n        require(_cashierAddress != address(0), \"UNSPECIFIED_ADDRESS\"); //hex\"20\" FISSION.code(FISSION.Category.Find, FISSION.Status.NotFound_Unequal_OutOfRange)\n\n        cashierAddress = _cashierAddress;\n\n        emit LogCashierSet(_cashierAddress, msg.sender);\n    }\n\n    /**\n     * @notice Set the general complain period, should be used sparingly as it has significant consequences. Here done simply for demo purposes.\n     * @param _complainPeriod   the new value for complain period (in number of seconds)\n     */\n    function setComplainPeriod(uint256 _complainPeriod)\n        external\n        override\n        onlyOwner\n    {\n        complainPeriod = _complainPeriod;\n\n        emit LogComplainPeriodChanged(_complainPeriod, msg.sender);\n    }\n\n    /**\n     * @notice Set the general cancelOrFault period, should be used sparingly as it has significant consequences. Here done simply for demo purposes.\n     * @param _cancelFaultPeriod   the new value for cancelOrFault period (in number of seconds)\n     */\n    function setCancelFaultPeriod(uint256 _cancelFaultPeriod)\n        external\n        override\n        onlyOwner\n    {\n        cancelFaultPeriod = _cancelFaultPeriod;\n\n        emit LogCancelFaultPeriodChanged(_cancelFaultPeriod, msg.sender);\n    }\n\n    // // // // // // // //\n    // GETTERS\n    // // // // // // // //\n\n    /**\n     * @notice Get the promise ID at specific index\n     * @param _idx  Index in the array of promise keys\n     * @return      Promise ID\n     */\n    function getPromiseKey(uint256 _idx)\n        public\n        view\n        override\n        returns (bytes32)\n    {\n        return promiseKeys[_idx];\n    }\n\n    /**\n     * @notice Get the supply token ID from a voucher token\n     * @param _tokenIdVoucher   ID of the voucher token\n     * @return                  ID of the supply token\n     */\n    function getIdSupplyFromVoucher(uint256 _tokenIdVoucher)\n        public\n        pure\n        override\n        returns (uint256)\n    {\n        return _tokenIdVoucher & MASK_TYPE;\n    }\n\n    /**\n     * @notice Get the promise ID from a voucher token\n     * @param _tokenIdVoucher   ID of the voucher token\n     * @return                  ID of the promise\n     */\n    function getPromiseIdFromVoucherId(uint256 _tokenIdVoucher)\n        public\n        view\n        override\n        returns (bytes32)\n    {\n        require(_tokenIdVoucher != 0, \"UNSPECIFIED_ID\"); //hex\"20\" FISSION.code(FISSION.Category.Find, FISSION.Status.NotFound_Unequal_OutOfRange)\n\n        uint256 tokenIdSupply = getIdSupplyFromVoucher(_tokenIdVoucher);\n        return promises[ordersPromise[tokenIdSupply]].promiseId;\n    }\n\n    /**\n     * @notice Get the remaining quantity left in supply of tokens (e.g ERC-721 left in ERC-1155) of an account\n     * @param _tokenSupplyId  Token supply ID\n     * @param _owner    holder of the Token Supply\n     * @return          remaining quantity\n     */\n    function getRemQtyForSupply(uint256 _tokenSupplyId, address _owner)\n        public\n        view\n        override\n        returns (uint256)\n    {\n        return IERC1155(tokensContract).balanceOf(_owner, _tokenSupplyId);\n    }\n\n    /**\n     * @notice Get all necessary funds for a supply token\n     * @param _tokenIdSupply   ID of the supply token\n     * @return                  returns a tuple (Payment amount, Seller's deposit, Buyer's deposit)\n     */\n    function getOrderCosts(uint256 _tokenIdSupply)\n        public\n        view\n        override\n        returns (\n            uint256,\n            uint256,\n            uint256\n        )\n    {\n        bytes32 promiseKey = ordersPromise[_tokenIdSupply];\n        return (\n            promises[promiseKey].price,\n            promises[promiseKey].depositSe,\n            promises[promiseKey].depositBu\n        );\n    }\n\n    /**\n     * @notice Get Buyer costs required to make an order for a supply token\n     * @param _tokenIdSupply   ID of the supply token\n     * @return                  returns a tuple (Payment amount, Buyer's deposit)\n     */\n    function getBuyerOrderCosts(uint256 _tokenIdSupply)\n        public\n        view\n        override\n        returns (uint256, uint256)\n    {\n        bytes32 promiseKey = ordersPromise[_tokenIdSupply];\n        return (promises[promiseKey].price, promises[promiseKey].depositBu);\n    }\n\n    /**\n     * @notice Get Seller deposit\n     * @param _tokenIdSupply   ID of the supply token\n     * @return                  returns sellers deposit\n     */\n    function getSellerDeposit(uint256 _tokenIdSupply)\n        public\n        view\n        override\n        returns (uint256)\n    {\n        bytes32 promiseKey = ordersPromise[_tokenIdSupply];\n        return promises[promiseKey].depositSe;\n    }\n\n    /**\n     * @notice Get the current status of a voucher\n     * @param _tokenIdVoucher   ID of the voucher token\n     * @return                  Status of the voucher (via enum)\n     */\n    function getVoucherStatus(uint256 _tokenIdVoucher)\n        public\n        view\n        override\n        returns (\n            uint8,\n            bool,\n            bool\n        )\n    {\n        return (\n            vouchersStatus[_tokenIdVoucher].status,\n            vouchersStatus[_tokenIdVoucher].isPaymentReleased,\n            vouchersStatus[_tokenIdVoucher].isDepositsReleased\n        );\n    }\n\n    /**\n     * @notice Get the holder of a voucher\n     * @param _tokenIdVoucher   ID of the voucher token\n     * @return                  Address of the holder\n     */\n    function getVoucherHolder(uint256 _tokenIdVoucher)\n        public\n        view\n        override\n        returns (address)\n    {\n        return IERC721(tokensContract).ownerOf(_tokenIdVoucher);\n    }\n\n    /**\n     * @notice Get the holder of a supply\n     * @param _tokenIdSupply        ID of a promise which is mapped to the corresponding Promise\n     * @return                  Address of the holder\n     */\n    function getSupplyHolder(uint256 _tokenIdSupply)\n        public\n        view\n        override\n        returns (address)\n    {\n        bytes32 promiseKey = ordersPromise[_tokenIdSupply];\n        return promises[promiseKey].seller;\n    }\n\n    /**\n     * @notice Get the address of the token where the price for the supply is held\n     * @param _tokenIdSupply   ID of the voucher supply token\n     * @return                  Address of the token\n     */\n    function getVoucherPriceToken(uint256 _tokenIdSupply)\n        public\n        view\n        override\n        returns (address)\n    {\n        return paymentDetails[_tokenIdSupply].addressTokenPrice;\n    }\n\n    /**\n     * @notice Get the address of the token where the deposits for the supply are held\n     * @param _tokenIdSupply   ID of the voucher supply token\n     * @return                  Address of the token\n     */\n    function getVoucherDepositToken(uint256 _tokenIdSupply)\n        public\n        view\n        override\n        returns (address)\n    {\n        return paymentDetails[_tokenIdSupply].addressTokenDeposits;\n    }\n\n    /**\n     * @notice Get the payment method for a particular _tokenIdSupply\n     * @param _tokenIdSupply   ID of the voucher supply token\n     * @return                  payment method\n     */\n    function getVoucherPaymentMethod(uint256 _tokenIdSupply)\n        public\n        view\n        override\n        returns (uint8)\n    {\n        return paymentDetails[_tokenIdSupply].paymentMethod;\n    }\n\n    /**\n     * @notice Checks whether a voucher is in valid period for redemption (between start date and end date)\n     * @param _tokenIdVoucher ID of the voucher token\n     */\n    function isInValidityPeriod(uint256 _tokenIdVoucher)\n        public\n        view\n        override\n        returns (bool)\n    {\n        //check validity period\n        Promise memory tPromise =\n            promises[getPromiseIdFromVoucherId(_tokenIdVoucher)];\n        require(tPromise.validFrom <= block.timestamp, \"INVALID_VALIDITY_FROM\"); //hex\"26\" FISSION.code(FISSION.Category.Find, FISSION.Status.Above_Range_Overflow)\n        require(tPromise.validTo >= block.timestamp, \"INVALID_VALIDITY_TO\"); //hex\"24\" FISSION.code(FISSION.Category.Find, FISSION.Status.BelowRange_Underflow)\n\n        return true;\n    }\n}\n",
  "sourcePath": "/Users/hristiyangeorgiev/Documents/Projects/Redeemeum/bsn-core-prototype/contracts/VoucherKernel.sol",
  "compiler": {
    "name": "solc",
    "version": "0.7.1+commit.f4a555be.Emscripten.clang"
  },
  "schemaVersion": "3.0.22",
  "updatedAt": "2021-02-18T15:52:52.878Z",
  "devdoc": {
    "details": "Notes:  - Since this is a reference app, it is not yet optimized.      In the next phase, the bulk raw data will be packed into a single bytes32 field and/or pushed off-chain.  - The usage of block.timestamp is honored since vouchers are defined currently with day-precision.      See: https://ethereum.stackexchange.com/questions/5924/how-do-ethereum-mining-nodes-maintain-a-time-consistent-with-the-network/5931#5931",
    "kind": "dev",
    "methods": {
      "burnSupplyOnPause(address,uint256,uint256)": {
        "details": "Token ID is derived following the same principles for both ERC-1155 and ERC-721",
        "params": {
          "_issuer": "The address of the token issuer",
          "_qty": "qty that should be burned",
          "_tokenIdSupply": "ID of the token type"
        }
      },
      "cancelOrFault(uint256,address)": {
        "params": {
          "_tokenIdVoucher": "ID of the voucher"
        }
      },
      "cancelOrFaultVoucherSet(uint256,address)": {
        "params": {
          "_issuer": "owner of the voucher",
          "_tokenIdSupply": "ID of the voucher set"
        }
      },
      "complain(uint256,address)": {
        "params": {
          "_msgSender": "account called the fn from the BR contract",
          "_tokenIdVoucher": "ID of the voucher"
        }
      },
      "createPaymentMethod(uint256,uint8,address,address)": {
        "params": {
          "_paymentMethod": "might be ETHETH, ETHTKN, TKNETH or TKNTKN",
          "_tokenDeposits": "token address which will hold the funds for the deposits of the voucher",
          "_tokenIdSupply": "_tokenIdSupply of the voucher set this is related to",
          "_tokenPrice": "token address which will hold the funds for the price of the voucher"
        }
      },
      "createTokenSupplyID(address,uint256,uint256,uint256,uint256,uint256,uint256)": {
        "params": {
          "_depositBu": "Buyer's deposit",
          "_depositSe": "Seller's deposit",
          "_price": "Price (payment amount)",
          "_seller": "seller of the promise",
          "_validFrom": "Start of valid period",
          "_validTo": "End of valid period"
        }
      },
      "fillOrder(uint256,address,address,uint256)": {
        "params": {
          "_correlationId": "ID of the current interaction with the smart contract for a specific user",
          "_holder": "Address of the recipient of the voucher (ERC-721)",
          "_issuer": "Address of the token's issuer",
          "_tokenIdSupply": "ID of the supply token (ERC-1155)"
        }
      },
      "getBuyerOrderCosts(uint256)": {
        "params": {
          "_tokenIdSupply": "ID of the supply token"
        },
        "returns": {
          "_0": "returns a tuple (Payment amount, Buyer's deposit)"
        }
      },
      "getIdSupplyFromVoucher(uint256)": {
        "params": {
          "_tokenIdVoucher": "ID of the voucher token"
        },
        "returns": {
          "_0": "ID of the supply token"
        }
      },
      "getOrderCosts(uint256)": {
        "params": {
          "_tokenIdSupply": "ID of the supply token"
        },
        "returns": {
          "_0": "returns a tuple (Payment amount, Seller's deposit, Buyer's deposit)"
        }
      },
      "getPromiseIdFromVoucherId(uint256)": {
        "params": {
          "_tokenIdVoucher": "ID of the voucher token"
        },
        "returns": {
          "_0": "ID of the promise"
        }
      },
      "getPromiseKey(uint256)": {
        "params": {
          "_idx": "Index in the array of promise keys"
        },
        "returns": {
          "_0": "Promise ID"
        }
      },
      "getRemQtyForSupply(uint256,address)": {
        "params": {
          "_owner": "holder of the Token Supply",
          "_tokenSupplyId": "Token supply ID"
        },
        "returns": {
          "_0": "remaining quantity"
        }
      },
      "getSellerDeposit(uint256)": {
        "params": {
          "_tokenIdSupply": "ID of the supply token"
        },
        "returns": {
          "_0": "returns sellers deposit"
        }
      },
      "getSupplyHolder(uint256)": {
        "params": {
          "_tokenIdSupply": "ID of a promise which is mapped to the corresponding Promise"
        },
        "returns": {
          "_0": "Address of the holder"
        }
      },
      "getVoucherDepositToken(uint256)": {
        "params": {
          "_tokenIdSupply": "ID of the voucher supply token"
        },
        "returns": {
          "_0": "Address of the token"
        }
      },
      "getVoucherHolder(uint256)": {
        "params": {
          "_tokenIdVoucher": "ID of the voucher token"
        },
        "returns": {
          "_0": "Address of the holder"
        }
      },
      "getVoucherPaymentMethod(uint256)": {
        "params": {
          "_tokenIdSupply": "ID of the voucher supply token"
        },
        "returns": {
          "_0": "payment method"
        }
      },
      "getVoucherPriceToken(uint256)": {
        "params": {
          "_tokenIdSupply": "ID of the voucher supply token"
        },
        "returns": {
          "_0": "Address of the token"
        }
      },
      "getVoucherStatus(uint256)": {
        "params": {
          "_tokenIdVoucher": "ID of the voucher token"
        },
        "returns": {
          "_0": "Status of the voucher (via enum)"
        }
      },
      "isInValidityPeriod(uint256)": {
        "params": {
          "_tokenIdVoucher": "ID of the voucher token"
        }
      },
      "owner()": {
        "details": "Returns the address of the current owner."
      },
      "paused()": {
        "details": "Returns true if the contract is paused, and false otherwise."
      },
      "redeem(uint256,address)": {
        "params": {
          "_msgSender": "account called the fn from the BR contract",
          "_tokenIdVoucher": "ID of the voucher"
        }
      },
      "refund(uint256,address)": {
        "params": {
          "_msgSender": "account called the fn from the BR contract",
          "_tokenIdVoucher": "ID of the voucher"
        }
      },
      "renounceOwnership()": {
        "details": "Leaves the contract without owner. It will not be possible to call `onlyOwner` functions anymore. Can only be called by the current owner. NOTE: Renouncing ownership will leave the contract without an owner, thereby removing any functionality that is only available to the owner."
      },
      "setBosonRouterAddress(address)": {
        "params": {
          "_bosonRouterAddress": "The address of the BR contract"
        }
      },
      "setCancelFaultPeriod(uint256)": {
        "params": {
          "_cancelFaultPeriod": "the new value for cancelOrFault period (in number of seconds)"
        }
      },
      "setCashierAddress(address)": {
        "params": {
          "_cashierAddress": "The address of the BR contract"
        }
      },
      "setComplainPeriod(uint256)": {
        "params": {
          "_complainPeriod": "the new value for complain period (in number of seconds)"
        }
      },
      "setDepositsReleased(uint256)": {
        "params": {
          "_tokenIdVoucher": "ID of the voucher token"
        }
      },
      "setPaymentReleased(uint256)": {
        "params": {
          "_tokenIdVoucher": "ID of the voucher token"
        }
      },
      "setSupplyHolderOnTransfer(uint256,address)": {
        "params": {
          "_newSeller": "new holder of the supply",
          "_tokenIdSupply": "_tokenIdSupply which will be transferred"
        }
      },
      "transferOwnership(address)": {
        "details": "Transfers ownership of the contract to a new account (`newOwner`). Can only be called by the current owner."
      },
      "triggerExpiration(uint256)": {
        "params": {
          "_tokenIdVoucher": "ID of the voucher token"
        }
      },
      "triggerFinalizeVoucher(uint256)": {
        "params": {
          "_tokenIdVoucher": "ID of the voucher token"
        }
      }
    },
    "title": "VoucherKernel contract is controlling the core business logic",
    "version": 1
  },
  "userdoc": {
    "kind": "user",
    "methods": {
      "burnSupplyOnPause(address,uint256,uint256)": {
        "notice": "Extract a standard non-fungible tokens ERC-721 from a supply stored in ERC-1155"
      },
      "cancelOrFault(uint256,address)": {
        "notice": "Cancel/Fault transaction by the Seller, admitting to a fault or backing out of the deal"
      },
      "cancelOrFaultVoucherSet(uint256,address)": {
        "notice": "Cancel/Fault transaction by the Seller, cancelling the remaining uncommitted voucher set so that seller prevents buyers from committing to vouchers for items no longer in exchange."
      },
      "complain(uint256,address)": {
        "notice": "Issue a complain for a voucher"
      },
      "createPaymentMethod(uint256,uint8,address,address)": {
        "notice": "Creates a Payment method struct recording the details on how the seller requires to receive Price and Deposits for a certain Voucher Set."
      },
      "createTokenSupplyID(address,uint256,uint256,uint256,uint256,uint256,uint256)": {
        "notice": "Creating a new promise for goods or services. Can be reused, e.g. for making different batches of these (in the future)."
      },
      "fillOrder(uint256,address,address,uint256)": {
        "notice": "Fill Voucher Order, iff funds paid, then extract & mint NFT to the voucher holder"
      },
      "getBuyerOrderCosts(uint256)": {
        "notice": "Get Buyer costs required to make an order for a supply token"
      },
      "getIdSupplyFromVoucher(uint256)": {
        "notice": "Get the supply token ID from a voucher token"
      },
      "getOrderCosts(uint256)": {
        "notice": "Get all necessary funds for a supply token"
      },
      "getPromiseIdFromVoucherId(uint256)": {
        "notice": "Get the promise ID from a voucher token"
      },
      "getPromiseKey(uint256)": {
        "notice": "Get the promise ID at specific index"
      },
      "getRemQtyForSupply(uint256,address)": {
        "notice": "Get the remaining quantity left in supply of tokens (e.g ERC-721 left in ERC-1155) of an account"
      },
      "getSellerDeposit(uint256)": {
        "notice": "Get Seller deposit"
      },
      "getSupplyHolder(uint256)": {
        "notice": "Get the holder of a supply"
      },
      "getVoucherDepositToken(uint256)": {
        "notice": "Get the address of the token where the deposits for the supply are held"
      },
      "getVoucherHolder(uint256)": {
        "notice": "Get the holder of a voucher"
      },
      "getVoucherPaymentMethod(uint256)": {
        "notice": "Get the payment method for a particular _tokenIdSupply"
      },
      "getVoucherPriceToken(uint256)": {
        "notice": "Get the address of the token where the price for the supply is held"
      },
      "getVoucherStatus(uint256)": {
        "notice": "Get the current status of a voucher"
      },
      "isInValidityPeriod(uint256)": {
        "notice": "Checks whether a voucher is in valid period for redemption (between start date and end date)"
      },
      "pause()": {
        "notice": "Pause the process of interaction with voucherID's (ERC-721), in case of emergency. Only BR contract is in control of this function."
      },
      "redeem(uint256,address)": {
        "notice": "Redemption of the vouchers promise"
      },
      "refund(uint256,address)": {
        "notice": "Refunding a voucher"
      },
      "setBosonRouterAddress(address)": {
        "notice": "Set the address of the Boson Router contract"
      },
      "setCancelFaultPeriod(uint256)": {
        "notice": "Set the general cancelOrFault period, should be used sparingly as it has significant consequences. Here done simply for demo purposes."
      },
      "setCashierAddress(address)": {
        "notice": "Set the address of the Cashier contract"
      },
      "setComplainPeriod(uint256)": {
        "notice": "Set the general complain period, should be used sparingly as it has significant consequences. Here done simply for demo purposes."
      },
      "setDepositsReleased(uint256)": {
        "notice": "Mark voucher token that the deposits were released"
      },
      "setPaymentReleased(uint256)": {
        "notice": "Mark voucher token that the payment was released"
      },
      "setSupplyHolderOnTransfer(uint256,address)": {
        "notice": "Set the address of the new holder of a _tokenIdSupply on transfer"
      },
      "triggerExpiration(uint256)": {
        "notice": "Mark voucher token as expired"
      },
      "triggerFinalizeVoucher(uint256)": {
        "notice": "Mark voucher token to the final status"
      },
      "unpause()": {
        "notice": "Unpause the process of interaction with voucherID's (ERC-721). Only BR contract is in control of this function."
      }
    },
    "version": 1
  }
}