{
  "contractName": "VoucherKernel",
  "abi": [
    {
      "inputs": [
        {
          "internalType": "address",
          "name": "_tokensContract",
          "type": "address"
        }
      ],
      "stateMutability": "nonpayable",
      "type": "constructor"
    },
    {
      "anonymous": false,
      "inputs": [
        {
          "indexed": false,
          "internalType": "address",
          "name": "_newBosonRouter",
          "type": "address"
        },
        {
          "indexed": false,
          "internalType": "address",
          "name": "_triggeredBy",
          "type": "address"
        }
      ],
      "name": "LogBosonRouterSet",
      "type": "event"
    },
    {
      "anonymous": false,
      "inputs": [
        {
          "indexed": false,
          "internalType": "uint256",
          "name": "_newCancelFaultPeriod",
          "type": "uint256"
        },
        {
          "indexed": false,
          "internalType": "address",
          "name": "_triggeredBy",
          "type": "address"
        }
      ],
      "name": "LogCancelFaultPeriodChanged",
      "type": "event"
    },
    {
      "anonymous": false,
      "inputs": [
        {
          "indexed": false,
          "internalType": "address",
          "name": "_newCashier",
          "type": "address"
        },
        {
          "indexed": false,
          "internalType": "address",
          "name": "_triggeredBy",
          "type": "address"
        }
      ],
      "name": "LogCashierSet",
      "type": "event"
    },
    {
      "anonymous": false,
      "inputs": [
        {
          "indexed": false,
          "internalType": "uint256",
          "name": "_newComplainPeriod",
          "type": "uint256"
        },
        {
          "indexed": false,
          "internalType": "address",
          "name": "_triggeredBy",
          "type": "address"
        }
      ],
      "name": "LogComplainPeriodChanged",
      "type": "event"
    },
    {
      "anonymous": false,
      "inputs": [
        {
          "indexed": false,
          "internalType": "uint256",
          "name": "_tokenIdVoucher",
          "type": "uint256"
        },
        {
          "indexed": false,
          "internalType": "address",
          "name": "_triggeredBy",
          "type": "address"
        }
      ],
      "name": "LogExpirationTriggered",
      "type": "event"
    },
    {
      "anonymous": false,
      "inputs": [
        {
          "indexed": false,
          "internalType": "uint256",
          "name": "_tokenIdVoucher",
          "type": "uint256"
        },
        {
          "indexed": false,
          "internalType": "address",
          "name": "_triggeredBy",
          "type": "address"
        }
      ],
      "name": "LogFinalizeVoucher",
      "type": "event"
    },
    {
      "anonymous": false,
      "inputs": [
        {
          "indexed": false,
          "internalType": "uint256",
          "name": "_tokenIdVoucher",
          "type": "uint256"
        },
        {
          "indexed": false,
          "internalType": "uint8",
          "name": "_type",
          "type": "uint8"
        }
      ],
      "name": "LogFundsReleased",
      "type": "event"
    },
    {
      "anonymous": false,
      "inputs": [
        {
          "indexed": true,
          "internalType": "bytes32",
          "name": "_promiseId",
          "type": "bytes32"
        },
        {
          "indexed": true,
          "internalType": "uint256",
          "name": "_nonce",
          "type": "uint256"
        },
        {
          "indexed": true,
          "internalType": "address",
          "name": "_seller",
          "type": "address"
        },
        {
          "indexed": false,
          "internalType": "uint256",
          "name": "_validFrom",
          "type": "uint256"
        },
        {
          "indexed": false,
          "internalType": "uint256",
          "name": "_validTo",
          "type": "uint256"
        },
        {
          "indexed": false,
          "internalType": "uint256",
          "name": "_idx",
          "type": "uint256"
        }
      ],
      "name": "LogPromiseCreated",
      "type": "event"
    },
    {
      "anonymous": false,
      "inputs": [
        {
          "indexed": false,
          "internalType": "uint256",
          "name": "_tokenIdVoucher",
          "type": "uint256"
        }
      ],
      "name": "LogVoucherComplain",
      "type": "event"
    },
    {
      "anonymous": false,
      "inputs": [
        {
          "indexed": true,
          "internalType": "uint256",
          "name": "_tokenIdSupply",
          "type": "uint256"
        },
        {
          "indexed": false,
          "internalType": "uint256",
          "name": "_tokenIdVoucher",
          "type": "uint256"
        },
        {
          "indexed": false,
          "internalType": "address",
          "name": "_issuer",
          "type": "address"
        },
        {
          "indexed": false,
          "internalType": "address",
          "name": "_holder",
          "type": "address"
        },
        {
          "indexed": false,
          "internalType": "bytes32",
          "name": "_promiseId",
          "type": "bytes32"
        },
        {
          "indexed": false,
          "internalType": "uint256",
          "name": "_correlationId",
          "type": "uint256"
        }
      ],
      "name": "LogVoucherDelivered",
      "type": "event"
    },
    {
      "anonymous": false,
      "inputs": [
        {
          "indexed": false,
          "internalType": "uint256",
          "name": "_tokenIdVoucher",
          "type": "uint256"
        }
      ],
      "name": "LogVoucherFaultCancel",
      "type": "event"
    },
    {
      "anonymous": false,
      "inputs": [
        {
          "indexed": false,
          "internalType": "uint256",
          "name": "_tokenIdVoucher",
          "type": "uint256"
        },
        {
          "indexed": false,
          "internalType": "address",
          "name": "_holder",
          "type": "address"
        },
        {
          "indexed": false,
          "internalType": "bytes32",
          "name": "_promiseId",
          "type": "bytes32"
        }
      ],
      "name": "LogVoucherRedeemed",
      "type": "event"
    },
    {
      "anonymous": false,
      "inputs": [
        {
          "indexed": false,
          "internalType": "uint256",
          "name": "_tokenIdVoucher",
          "type": "uint256"
        }
      ],
      "name": "LogVoucherRefunded",
      "type": "event"
    },
    {
      "anonymous": false,
      "inputs": [
        {
          "indexed": false,
          "internalType": "uint256",
          "name": "_tokenIdSupply",
          "type": "uint256"
        },
        {
          "indexed": false,
          "internalType": "address",
          "name": "_issuer",
          "type": "address"
        }
      ],
      "name": "LogVoucherSetFaultCancel",
      "type": "event"
    },
    {
      "anonymous": false,
      "inputs": [
        {
          "indexed": true,
          "internalType": "address",
          "name": "previousOwner",
          "type": "address"
        },
        {
          "indexed": true,
          "internalType": "address",
          "name": "newOwner",
          "type": "address"
        }
      ],
      "name": "OwnershipTransferred",
      "type": "event"
    },
    {
      "anonymous": false,
      "inputs": [
        {
          "indexed": false,
          "internalType": "address",
          "name": "account",
          "type": "address"
        }
      ],
      "name": "Paused",
      "type": "event"
    },
    {
      "anonymous": false,
      "inputs": [
        {
          "indexed": false,
          "internalType": "address",
          "name": "account",
          "type": "address"
        }
      ],
      "name": "Unpaused",
      "type": "event"
    },
    {
      "inputs": [],
      "name": "owner",
      "outputs": [
        {
          "internalType": "address",
          "name": "",
          "type": "address"
        }
      ],
      "stateMutability": "view",
      "type": "function",
      "constant": true
    },
    {
      "inputs": [],
      "name": "paused",
      "outputs": [
        {
          "internalType": "bool",
          "name": "",
          "type": "bool"
        }
      ],
      "stateMutability": "view",
      "type": "function",
      "constant": true
    },
    {
      "inputs": [],
      "name": "renounceOwnership",
      "outputs": [],
      "stateMutability": "nonpayable",
      "type": "function"
    },
    {
      "inputs": [
        {
          "internalType": "address",
          "name": "newOwner",
          "type": "address"
        }
      ],
      "name": "transferOwnership",
      "outputs": [],
      "stateMutability": "nonpayable",
      "type": "function"
    },
    {
      "inputs": [],
      "name": "pause",
      "outputs": [],
      "stateMutability": "nonpayable",
      "type": "function"
    },
    {
      "inputs": [],
      "name": "unpause",
      "outputs": [],
      "stateMutability": "nonpayable",
      "type": "function"
    },
    {
      "inputs": [
        {
          "internalType": "address",
          "name": "_seller",
          "type": "address"
        },
        {
          "internalType": "uint256",
          "name": "_validFrom",
          "type": "uint256"
        },
        {
          "internalType": "uint256",
          "name": "_validTo",
          "type": "uint256"
        },
        {
          "internalType": "uint256",
          "name": "_price",
          "type": "uint256"
        },
        {
          "internalType": "uint256",
          "name": "_depositSe",
          "type": "uint256"
        },
        {
          "internalType": "uint256",
          "name": "_depositBu",
          "type": "uint256"
        },
        {
          "internalType": "uint256",
          "name": "_quantity",
          "type": "uint256"
        }
      ],
      "name": "createTokenSupplyID",
      "outputs": [
        {
          "internalType": "uint256",
          "name": "",
          "type": "uint256"
        }
      ],
      "stateMutability": "nonpayable",
      "type": "function"
    },
    {
      "inputs": [
        {
          "internalType": "uint256",
          "name": "_tokenIdSupply",
          "type": "uint256"
        },
        {
          "internalType": "uint8",
          "name": "_paymentMethod",
          "type": "uint8"
        },
        {
          "internalType": "address",
          "name": "_tokenPrice",
          "type": "address"
        },
        {
          "internalType": "address",
          "name": "_tokenDeposits",
          "type": "address"
        }
      ],
      "name": "createPaymentMethod",
      "outputs": [],
      "stateMutability": "nonpayable",
      "type": "function"
    },
    {
      "inputs": [
        {
          "internalType": "uint256",
          "name": "_tokenIdSupply",
          "type": "uint256"
        },
        {
          "internalType": "address",
          "name": "_issuer",
          "type": "address"
        },
        {
          "internalType": "address",
          "name": "_holder",
          "type": "address"
        },
        {
          "internalType": "uint8",
          "name": "_paymentMethod",
          "type": "uint8"
        },
        {
          "internalType": "uint256",
          "name": "_correlationId",
          "type": "uint256"
        }
      ],
      "name": "fillOrder",
      "outputs": [],
      "stateMutability": "nonpayable",
      "type": "function"
    },
    {
      "inputs": [
        {
          "internalType": "address",
          "name": "_issuer",
          "type": "address"
        },
        {
          "internalType": "uint256",
          "name": "_tokenIdSupply",
          "type": "uint256"
        },
        {
          "internalType": "uint256",
          "name": "_qty",
          "type": "uint256"
        }
      ],
      "name": "burnSupplyOnPause",
      "outputs": [],
      "stateMutability": "nonpayable",
      "type": "function"
    },
    {
      "inputs": [
        {
          "internalType": "uint256",
          "name": "_tokenIdVoucher",
          "type": "uint256"
        },
        {
          "internalType": "address",
          "name": "_msgSender",
          "type": "address"
        }
      ],
      "name": "redeem",
      "outputs": [],
      "stateMutability": "nonpayable",
      "type": "function"
    },
    {
      "inputs": [
        {
          "internalType": "uint256",
          "name": "_tokenIdVoucher",
          "type": "uint256"
        },
        {
          "internalType": "address",
          "name": "_msgSender",
          "type": "address"
        }
      ],
      "name": "refund",
      "outputs": [],
      "stateMutability": "nonpayable",
      "type": "function"
    },
    {
      "inputs": [
        {
          "internalType": "uint256",
          "name": "_tokenIdVoucher",
          "type": "uint256"
        },
        {
          "internalType": "address",
          "name": "_msgSender",
          "type": "address"
        }
      ],
      "name": "complain",
      "outputs": [],
      "stateMutability": "nonpayable",
      "type": "function"
    },
    {
      "inputs": [
        {
          "internalType": "uint256",
          "name": "_tokenIdVoucher",
          "type": "uint256"
        },
        {
          "internalType": "address",
          "name": "_msgSender",
          "type": "address"
        }
      ],
      "name": "cancelOrFault",
      "outputs": [],
      "stateMutability": "nonpayable",
      "type": "function"
    },
    {
      "inputs": [
        {
          "internalType": "uint256",
          "name": "_tokenIdSupply",
          "type": "uint256"
        },
        {
          "internalType": "address",
          "name": "_issuer",
          "type": "address"
        }
      ],
      "name": "cancelOrFaultVoucherSet",
      "outputs": [
        {
          "internalType": "uint256",
          "name": "",
          "type": "uint256"
        }
      ],
      "stateMutability": "nonpayable",
      "type": "function"
    },
    {
      "inputs": [
        {
          "internalType": "uint256",
          "name": "_tokenIdVoucher",
          "type": "uint256"
        }
      ],
      "name": "setPaymentReleased",
      "outputs": [],
      "stateMutability": "nonpayable",
      "type": "function"
    },
    {
      "inputs": [
        {
          "internalType": "uint256",
          "name": "_tokenIdVoucher",
          "type": "uint256"
        }
      ],
      "name": "setDepositsReleased",
      "outputs": [],
      "stateMutability": "nonpayable",
      "type": "function"
    },
    {
      "inputs": [
        {
          "internalType": "uint256",
          "name": "_tokenIdVoucher",
          "type": "uint256"
        }
      ],
      "name": "triggerExpiration",
      "outputs": [],
      "stateMutability": "nonpayable",
      "type": "function"
    },
    {
      "inputs": [
        {
          "internalType": "uint256",
          "name": "_tokenIdVoucher",
          "type": "uint256"
        }
      ],
      "name": "triggerFinalizeVoucher",
      "outputs": [],
      "stateMutability": "nonpayable",
      "type": "function"
    },
    {
      "inputs": [
        {
          "internalType": "uint256",
          "name": "_tokenIdSupply",
          "type": "uint256"
        },
        {
          "internalType": "address",
          "name": "_newSeller",
          "type": "address"
        }
      ],
      "name": "setSupplyHolderOnTransfer",
      "outputs": [],
      "stateMutability": "nonpayable",
      "type": "function"
    },
    {
      "inputs": [
        {
          "internalType": "address",
          "name": "_bosonRouterAddress",
          "type": "address"
        }
      ],
      "name": "setBosonRouterAddress",
      "outputs": [],
      "stateMutability": "nonpayable",
      "type": "function"
    },
    {
      "inputs": [
        {
          "internalType": "address",
          "name": "_cashierAddress",
          "type": "address"
        }
      ],
      "name": "setCashierAddress",
      "outputs": [],
      "stateMutability": "nonpayable",
      "type": "function"
    },
    {
      "inputs": [
        {
          "internalType": "uint256",
          "name": "_complainPeriod",
          "type": "uint256"
        }
      ],
      "name": "setComplainPeriod",
      "outputs": [],
      "stateMutability": "nonpayable",
      "type": "function"
    },
    {
      "inputs": [
        {
          "internalType": "uint256",
          "name": "_cancelFaultPeriod",
          "type": "uint256"
        }
      ],
      "name": "setCancelFaultPeriod",
      "outputs": [],
      "stateMutability": "nonpayable",
      "type": "function"
    },
    {
      "inputs": [
        {
          "internalType": "uint256",
          "name": "_idx",
          "type": "uint256"
        }
      ],
      "name": "getPromiseKey",
      "outputs": [
        {
          "internalType": "bytes32",
          "name": "",
          "type": "bytes32"
        }
      ],
      "stateMutability": "view",
      "type": "function",
      "constant": true
    },
    {
      "inputs": [
        {
          "internalType": "uint256",
          "name": "_tokenIdVoucher",
          "type": "uint256"
        }
      ],
      "name": "getIdSupplyFromVoucher",
      "outputs": [
        {
          "internalType": "uint256",
          "name": "",
          "type": "uint256"
        }
      ],
      "stateMutability": "pure",
      "type": "function",
      "constant": true
    },
    {
      "inputs": [
        {
          "internalType": "uint256",
          "name": "_tokenIdVoucher",
          "type": "uint256"
        }
      ],
      "name": "getPromiseIdFromVoucherId",
      "outputs": [
        {
          "internalType": "bytes32",
          "name": "",
          "type": "bytes32"
        }
      ],
      "stateMutability": "view",
      "type": "function",
      "constant": true
    },
    {
      "inputs": [
        {
          "internalType": "uint256",
          "name": "_tokenSupplyId",
          "type": "uint256"
        },
        {
          "internalType": "address",
          "name": "_owner",
          "type": "address"
        }
      ],
      "name": "getRemQtyForSupply",
      "outputs": [
        {
          "internalType": "uint256",
          "name": "",
          "type": "uint256"
        }
      ],
      "stateMutability": "view",
      "type": "function",
      "constant": true
    },
    {
      "inputs": [
        {
          "internalType": "uint256",
          "name": "_tokenIdSupply",
          "type": "uint256"
        }
      ],
      "name": "getOrderCosts",
      "outputs": [
        {
          "internalType": "uint256",
          "name": "",
          "type": "uint256"
        },
        {
          "internalType": "uint256",
          "name": "",
          "type": "uint256"
        },
        {
          "internalType": "uint256",
          "name": "",
          "type": "uint256"
        }
      ],
      "stateMutability": "view",
      "type": "function",
      "constant": true
    },
    {
      "inputs": [
        {
          "internalType": "uint256",
          "name": "_tokenIdSupply",
          "type": "uint256"
        }
      ],
      "name": "getBuyerOrderCosts",
      "outputs": [
        {
          "internalType": "uint256",
          "name": "",
          "type": "uint256"
        },
        {
          "internalType": "uint256",
          "name": "",
          "type": "uint256"
        }
      ],
      "stateMutability": "view",
      "type": "function",
      "constant": true
    },
    {
      "inputs": [
        {
          "internalType": "uint256",
          "name": "_tokenIdSupply",
          "type": "uint256"
        }
      ],
      "name": "getSellerDeposit",
      "outputs": [
        {
          "internalType": "uint256",
          "name": "",
          "type": "uint256"
        }
      ],
      "stateMutability": "view",
      "type": "function",
      "constant": true
    },
    {
      "inputs": [
        {
          "internalType": "uint256",
          "name": "_tokenIdSupply",
          "type": "uint256"
        }
      ],
      "name": "getSupplyHolder",
      "outputs": [
        {
          "internalType": "address",
          "name": "",
          "type": "address"
        }
      ],
      "stateMutability": "view",
      "type": "function",
      "constant": true
    },
    {
      "inputs": [
        {
          "internalType": "bytes32",
          "name": "_promiseKey",
          "type": "bytes32"
        }
      ],
      "name": "getPromiseData",
      "outputs": [
        {
          "internalType": "bytes32",
          "name": "",
          "type": "bytes32"
        },
        {
          "internalType": "uint256",
          "name": "",
          "type": "uint256"
        },
        {
          "internalType": "uint256",
          "name": "",
          "type": "uint256"
        },
        {
          "internalType": "uint256",
          "name": "",
          "type": "uint256"
        },
        {
          "internalType": "uint256",
          "name": "",
          "type": "uint256"
        }
      ],
      "stateMutability": "view",
      "type": "function",
      "constant": true
    },
    {
      "inputs": [
        {
          "internalType": "uint256",
          "name": "_tokenIdVoucher",
          "type": "uint256"
        }
      ],
      "name": "getVoucherStatus",
      "outputs": [
        {
          "internalType": "uint8",
          "name": "",
          "type": "uint8"
        },
        {
          "internalType": "bool",
          "name": "",
          "type": "bool"
        },
        {
          "internalType": "bool",
          "name": "",
          "type": "bool"
        },
        {
          "internalType": "uint256",
          "name": "",
          "type": "uint256"
        },
        {
          "internalType": "uint256",
          "name": "",
          "type": "uint256"
        }
      ],
      "stateMutability": "view",
      "type": "function",
      "constant": true
    },
    {
      "inputs": [
        {
          "internalType": "uint256",
          "name": "_tokenIdVoucher",
          "type": "uint256"
        }
      ],
      "name": "getVoucherHolder",
      "outputs": [
        {
          "internalType": "address",
          "name": "",
          "type": "address"
        }
      ],
      "stateMutability": "view",
      "type": "function",
      "constant": true
    },
    {
      "inputs": [
        {
          "internalType": "uint256",
          "name": "_tokenIdSupply",
          "type": "uint256"
        }
      ],
      "name": "getVoucherPriceToken",
      "outputs": [
        {
          "internalType": "address",
          "name": "",
          "type": "address"
        }
      ],
      "stateMutability": "view",
      "type": "function",
      "constant": true
    },
    {
      "inputs": [
        {
          "internalType": "uint256",
          "name": "_tokenIdSupply",
          "type": "uint256"
        }
      ],
      "name": "getVoucherDepositToken",
      "outputs": [
        {
          "internalType": "address",
          "name": "",
          "type": "address"
        }
      ],
      "stateMutability": "view",
      "type": "function",
      "constant": true
    },
    {
      "inputs": [
        {
          "internalType": "uint256",
          "name": "_tokenIdSupply",
          "type": "uint256"
        }
      ],
      "name": "getVoucherPaymentMethod",
      "outputs": [
        {
          "internalType": "uint8",
          "name": "",
          "type": "uint8"
        }
      ],
      "stateMutability": "view",
      "type": "function",
      "constant": true
    },
    {
      "inputs": [
        {
          "internalType": "uint256",
          "name": "_tokenIdVoucher",
          "type": "uint256"
        }
      ],
      "name": "isInValidityPeriod",
      "outputs": [
        {
          "internalType": "bool",
          "name": "",
          "type": "bool"
        }
      ],
      "stateMutability": "view",
      "type": "function",
      "constant": true
    },
    {
      "inputs": [
        {
          "internalType": "uint256",
          "name": "_tokenIdVoucher",
          "type": "uint256"
        }
      ],
      "name": "isVoucherTransferable",
      "outputs": [
        {
          "internalType": "bool",
          "name": "",
          "type": "bool"
        }
      ],
      "stateMutability": "view",
      "type": "function",
      "constant": true
    },
    {
      "inputs": [],
      "name": "getBosonRouterAddress",
      "outputs": [
        {
          "internalType": "address",
          "name": "",
          "type": "address"
        }
      ],
      "stateMutability": "view",
      "type": "function",
      "constant": true
    },
    {
      "inputs": [],
      "name": "getCashierAddress",
      "outputs": [
        {
          "internalType": "address",
          "name": "",
          "type": "address"
        }
      ],
      "stateMutability": "view",
      "type": "function",
      "constant": true
    },
    {
      "inputs": [
        {
          "internalType": "address",
          "name": "_seller",
          "type": "address"
        }
      ],
      "name": "getTokenNonce",
      "outputs": [
        {
          "internalType": "uint256",
          "name": "",
          "type": "uint256"
        }
      ],
      "stateMutability": "view",
      "type": "function",
      "constant": true
    },
    {
      "inputs": [],
      "name": "getTypeId",
      "outputs": [
        {
          "internalType": "uint256",
          "name": "",
          "type": "uint256"
        }
      ],
      "stateMutability": "view",
      "type": "function",
      "constant": true
    },
    {
      "inputs": [],
      "name": "getComplainPeriod",
      "outputs": [
        {
          "internalType": "uint256",
          "name": "",
          "type": "uint256"
        }
      ],
      "stateMutability": "view",
      "type": "function",
      "constant": true
    },
    {
      "inputs": [],
      "name": "getCancelFaultPeriod",
      "outputs": [
        {
          "internalType": "uint256",
          "name": "",
          "type": "uint256"
        }
      ],
      "stateMutability": "view",
      "type": "function",
      "constant": true
    },
    {
      "inputs": [
        {
          "internalType": "uint256",
          "name": "_tokenIdSupply",
          "type": "uint256"
        }
      ],
      "name": "getPromiseIdFromSupplyId",
      "outputs": [
        {
          "internalType": "bytes32",
          "name": "",
          "type": "bytes32"
        }
      ],
      "stateMutability": "view",
      "type": "function",
      "constant": true
    },
    {
      "inputs": [],
      "name": "getTokensContractAddress",
      "outputs": [
        {
          "internalType": "address",
          "name": "",
          "type": "address"
        }
      ],
      "stateMutability": "view",
      "type": "function",
      "constant": true
    }
  ],
  "bytecode": "0x60806040523480156200001157600080fd5b50604051620041fc380380620041fc833981810160405260208110156200003757600080fd5b5051600062000045620000ce565b600080546001600160a01b0319166001600160a01b0383169081178255604051929350917f8be0079c531659141344cd1fd0a4f28419497f9722a3daafe3b4186f6b6457e0908290a3506000805460ff60a01b19169055600180546001600160a01b0319166001600160a01b039290921691909117905562093a80600c819055600d55620000d2565b3390565b61411a80620000e26000396000f3fe608060405234801561001057600080fd5b50600436106102305760003560e01c8063065ef53e146102355780631af2a6a81461024f5780631cf7955d1461026c5780631f38585f1461029f578063325a7a84146102d85780633f4ba83a14610324578063455e42f21461032e57806346aee52e1461035a5780635b479d1a146103775780635c975abb146103a857806365c303bc146103b057806366db9a09146103cd578063715018a6146103f957806374898e82146104015780637554951614610433578063797f2a26146104505780637ad226dc1461049a5780637bde82f2146104c657806381dc8119146104f25780638456cb591461050f578063881063231461051757806388c25607146105345780638990834b146105605780638da5cb5b1461057d578063911e3f461461058557806392924d851461058d57806397f9e52a146105955780639a0271e11461059d5780639a751bbd146105ba578063a1e5e3f9146105d7578063b0df130d1461061f578063bc0d753d14610664578063bd17de4014610681578063c099a7c4146106a7578063c98d9b83146106cd578063cf5c9008146106d5578063d40ffcf814610712578063d887b4e71461072f578063e31a00791461076a578063e875a61314610796578063ea5416a5146107b3578063ebba1b29146107d9578063ede80897146107f6578063f2fde38b14610813578063f5d7aa1814610839578063f75951ce14610865578063f9d9309914610882578063fad4ee941461088a575b600080fd5b61023d6108c0565b60408051918252519081900360200190f35b61023d6004803603602081101561026557600080fd5b50356108c6565b6102896004803603602081101561028257600080fd5b50356108d7565b6040805160ff9092168252519081900360200190f35b6102bc600480360360208110156102b557600080fd5b50356108ec565b604080516001600160a01b039092168252519081900360200190f35b6102f5600480360360208110156102ee57600080fd5b5035610917565b6040805160ff909616865293151560208601529115158484015260608401526080830152519081900360a00190f35b61032c61094f565b005b61023d6004803603604081101561034457600080fd5b50803590602001356001600160a01b03166109f8565b61023d6004803603602081101561037057600080fd5b5035610c57565b6103946004803603602081101561038d57600080fd5b5035610c69565b604080519115158252519081900360200190f35b610394610ca6565b61032c600480360360208110156103c657600080fd5b5035610cb6565b61032c600480360360408110156103e357600080fd5b50803590602001356001600160a01b0316610f59565b61032c6115bb565b61032c6004803603606081101561041757600080fd5b506001600160a01b038135169060208101359060400135611655565b61032c6004803603602081101561044957600080fd5b50356117bc565b61023d600480360360e081101561046657600080fd5b506001600160a01b038135169060208101359060408101359060608101359060808101359060a08101359060c001356118e5565b61032c600480360360408110156104b057600080fd5b50803590602001356001600160a01b0316611cd3565b61032c600480360360408110156104dc57600080fd5b50803590602001356001600160a01b0316611f76565b61023d6004803603602081101561050857600080fd5b50356122c5565b61032c6122e6565b61023d6004803603602081101561052d57600080fd5b503561238d565b61032c6004803603604081101561054a57600080fd5b50803590602001356001600160a01b03166123af565b61032c6004803603602081101561057657600080fd5b503561248b565b6102bc61252f565b61023d61253e565b61023d612544565b6102bc61254a565b610394600480360360208110156105b357600080fd5b5035612559565b6102bc600480360360208110156105d057600080fd5b5035612698565b6105f4600480360360208110156105ed57600080fd5b50356126b6565b6040805195865260208601949094528484019290925260608401526080830152519081900360a00190f35b61032c600480360360a081101561063557600080fd5b508035906001600160a01b03602082013581169160408101359091169060ff606082013516906080013561275a565b61023d6004803603602081101561067a57600080fd5b50356128e4565b61032c6004803603602081101561069757600080fd5b50356001600160a01b0316612957565b61032c600480360360208110156106bd57600080fd5b50356001600160a01b0316612a64565b6102bc612b71565b61032c600480360360808110156106eb57600080fd5b5080359060ff602082013516906001600160a01b0360408201358116916060013516612b80565b61032c6004803603602081101561072857600080fd5b5035612d07565b61074c6004803603602081101561074557600080fd5b5035612e8c565b60408051938452602084019290925282820152519081900360600190f35b61023d6004803603604081101561078057600080fd5b50803590602001356001600160a01b0316612ebb565b6102bc600480360360208110156107ac57600080fd5b5035612f44565b61023d600480360360208110156107c957600080fd5b50356001600160a01b0316612f64565b61032c600480360360208110156107ef57600080fd5b5035612f7f565b61032c6004803603602081101561080c57600080fd5b50356130ad565b61032c6004803603602081101561082957600080fd5b50356001600160a01b0316613151565b61032c6004803603604081101561084f57600080fd5b50803590602001356001600160a01b0316613241565b6102bc6004803603602081101561087b57600080fd5b50356136af565b6102bc61372d565b6108a7600480360360208110156108a057600080fd5b503561373c565b6040805192835260208301919091528051918290030190f35b600c5490565b6001600160801b031981165b919050565b60009081526006602052604090205460ff1690565b600090815260086020908152604080832054835260049091529020600201546001600160a01b031690565b60009081526009602052604090208054600182015460029092015460ff80831694610100840482169462010000909404909116929190565b6002546001600160a01b031661099d576040805162461bcd60e51b815260206004820152600e60248201526d2aa729a822a1a4a324a2a22fa12960911b604482015290519081900360640190fd5b6002546001600160a01b031633146109ee576040805162461bcd60e51b815260206004820152600f60248201526e2aa720aaaa2427a924ad22a22fa12960891b604482015290519081900360640190fd5b6109f6613766565b565b6002546000906001600160a01b0316610a49576040805162461bcd60e51b815260206004820152600e60248201526d2aa729a822a1a4a324a2a22fa12960911b604482015290519081900360640190fd5b6002546001600160a01b03163314610a9a576040805162461bcd60e51b815260206004820152600f60248201526e2aa720aaaa2427a924ad22a22fa12960891b604482015290519081900360640190fd5b610aa2610ca6565b15610ae7576040805162461bcd60e51b815260206004820152601060248201526f14185d5cd8589b194e881c185d5cd95960821b604482015290519081900360640190fd5b816001600160a01b0316610afa846108ec565b6001600160a01b031614610b48576040805162461bcd60e51b815260206004820152601060248201526f2aa720aaaa2427a924ad22a22fa1a7a360811b604482015290519081900360640190fd5b6000610b548484612ebb565b905060008111610b99576040805162461bcd60e51b815260206004820152600b60248201526a4f464645525f454d50545960a81b604482015290519081900360640190fd5b60015460408051637a94c56560e11b81526001600160a01b03868116600483015260248201889052604482018590529151919092169163f5298aca91606480830192600092919082900301818387803b158015610bf557600080fd5b505af1158015610c09573d6000803e3d6000fd5b5050604080518781526001600160a01b038716602082015281517fd771b32487969df897bdfc40b573cff1c37f81bc0e62b60cacc027d0efd6d33f9450908190039091019150a19392505050565b60009081526008602052604090205490565b600081815260096020526040812054610100900460ff1680610c9f575060008281526009602052604090205462010000900460ff165b1592915050565b600054600160a01b900460ff1690565b80610cf9576040805162461bcd60e51b815260206004820152600e60248201526d155394d41150d25192515117d25160921b604482015290519081900360640190fd5b60008181526009602052604090205460ff16610d16816001613809565b15610d5c576040805162461bcd60e51b81526020600482015260116024820152701053149150511657d19253905312569151607a1b604482015290519081900360640190fd5b6000610d66613fe6565b60046000610d73866128e4565b815260208082019290925260409081016000208151610120810183528154815260018201549381019390935260028101546001600160a01b031691830191909152600380820154606084015260048201546080840152600582015460a0840152600682015460c0840152600782015460e0840152600890910154610100830152909150610e01908490613809565b15610e4557610e11836002613809565b15610e1f5760019150610e40565b600d54600085815260096020526040902060020154014210610e4057600191505b610ee3565b610e50836002613809565b8015610e715750600c54600085815260096020526040902060010154014210155b15610e7f5760019150610ee3565b610e888361381a565b80610e975750610e9783613841565b15610ec157600c54600085815260096020526040902060010154014210610e405760019150610ee3565b610eca83613859565b15610ee357600c548160800151014210610ee357600191505b8115610f5357610ef483600161386d565b600085815260096020908152604091829020805460ff191660ff94909416939093179092558051868152339281019290925280517f28c953c622aa90e006382693080fb83e2add147a386446e0f24572c6b071adfa9281900390910190a15b50505050565b610f61610ca6565b15610fa6576040805162461bcd60e51b815260206004820152601060248201526f14185d5cd8589b194e881c185d5cd95960821b604482015290519081900360640190fd5b6002546001600160a01b0316610ff4576040805162461bcd60e51b815260206004820152600e60248201526d2aa729a822a1a4a324a2a22fa12960911b604482015290519081900360640190fd5b6002546001600160a01b03163314611045576040805162461bcd60e51b815260206004820152600f60248201526e2aa720aaaa2427a924ad22a22fa12960891b604482015290519081900360640190fd5b600154604080516331a9108f60e11b8152600481018590529051849284926001600160a01b0380851693921691636352211e91602480820192602092909190829003018186803b15801561109857600080fd5b505afa1580156110ac573d6000803e3d6000fd5b505050506040513d60208110156110c257600080fd5b50516001600160a01b031614611110576040805162461bcd60e51b815260206004820152600e60248201526d2aa720aaaa2427a924ad22a22fab60911b604482015290519081900360640190fd5b60008481526009602052604090205461112d9060ff166003613809565b15611174576040805162461bcd60e51b81526020600482015260126024820152711053149150511657d0d3d35413105253915160721b604482015290519081900360640190fd5b6000848152600960205260409020546111919060ff166001613809565b156111d7576040805162461bcd60e51b81526020600482015260116024820152701053149150511657d19253905312569151607a1b604482015290519081900360640190fd5b6111df613fe6565b600460006111ec876128e4565b8152602080820192909252604090810160009081208251610120810184528154815260018201548186015260028201546001600160a01b0316818501526003820154606082015260048201546080820152600582015460a0820152600682015460c0820152600782015460e0820152600890910154610100820152888252600990935220549091506112809060ff1661381a565b806112a157506000858152600960205260409020546112a19060ff16613841565b156113ff576000858152600960205260409020546112c39060ff166002613809565b61132857600d54600c546000878152600960205260409020600101540101421115611323576040805162461bcd60e51b81526020600482015260166024820152600080516020614065833981519152604482015290519081900360640190fd5b611380565b600c5460008681526009602052604090206001015401421115611380576040805162461bcd60e51b81526020600482015260166024820152600080516020614065833981519152604482015290519081900360640190fd5b6000858152600960205260409020426002820155546113a39060ff16600361386d565b600086815260096020908152604091829020805460ff191660ff9490941693909317909255805187815290517f0411cc6d1d8430de89b9f9fdd063617e55946cddb8538d3407f516882db59455929181900390910190a16115b4565b60008581526009602052604090205461141a9060ff16613859565b156114da5760008581526009602052604090205461143c9060ff166002613809565b61148f57600d54600c5482608001510101421115611323576040805162461bcd60e51b81526020600482015260166024820152600080516020614065833981519152604482015290519081900360640190fd5b600c54816080015101421115611380576040805162461bcd60e51b81526020600482015260166024820152600080516020614065833981519152604482015290519081900360640190fd5b6000858152600960205260409020546114f79060ff166002613809565b1561157157600c5460008681526009602052604090206001015401421115611554576040805162461bcd60e51b81526020600482015260166024820152600080516020614065833981519152604482015290519081900360640190fd5b6000858152600960205260409020546113a39060ff16600361386d565b6040805162461bcd60e51b8152602060048201526013602482015272494e4150504c494341424c455f53544154555360681b604482015290519081900360640190fd5b5050505050565b6115c361387a565b6001600160a01b03166115d461252f565b6001600160a01b03161461161d576040805162461bcd60e51b81526020600482018190526024820152600080516020614085833981519152604482015290519081900360640190fd5b600080546040516001600160a01b03909116906000805160206140a5833981519152908390a3600080546001600160a01b0319169055565b61165d610ca6565b6116a5576040805162461bcd60e51b815260206004820152601460248201527314185d5cd8589b194e881b9bdd081c185d5cd95960621b604482015290519081900360640190fd5b6003546001600160a01b03166116f3576040805162461bcd60e51b815260206004820152600e60248201526d2aa729a822a1a4a324a2a22fa12960911b604482015290519081900360640190fd5b6003546001600160a01b03163314611743576040805162461bcd60e51b815260206004820152600e60248201526d554e415554484f52495a45445f4360901b604482015290519081900360640190fd5b60015460408051637a94c56560e11b81526001600160a01b03868116600483015260248201869052604482018590529151919092169163f5298aca91606480830192600092919082900301818387803b15801561179f57600080fd5b505af11580156117b3573d6000803e3d6000fd5b50505050505050565b6003546001600160a01b031661180a576040805162461bcd60e51b815260206004820152600e60248201526d2aa729a822a1a4a324a2a22fa12960911b604482015290519081900360640190fd5b6003546001600160a01b0316331461185a576040805162461bcd60e51b815260206004820152600e60248201526d554e415554484f52495a45445f4360901b604482015290519081900360640190fd5b8061189d576040805162461bcd60e51b815260206004820152600e60248201526d155394d41150d25192515117d25160921b604482015290519081900360640190fd5b6000818152600960209081526040808320805461ff00191661010017905580518481529182019290925281516000805160206140c5833981519152929181900390910190a150565b6002546000906001600160a01b0316611936576040805162461bcd60e51b815260206004820152600e60248201526d2aa729a822a1a4a324a2a22fa12960911b604482015290519081900360640190fd5b6002546001600160a01b03163314611987576040805162461bcd60e51b815260206004820152600f60248201526e2aa720aaaa2427a924ad22a22fa12960891b604482015290519081900360640190fd5b858711156119d4576040805162461bcd60e51b8152602060048201526015602482015274494e56414c49445f56414c49444954595f46524f4d60581b604482015290519081900360640190fd5b4261012c01861015611a23576040805162461bcd60e51b8152602060048201526013602482015272494e56414c49445f56414c49444954595f544f60681b604482015290519081900360640190fd5b6001600160a01b03881660009081526005602090815260409182902080546001810190915582516001600160601b031960608d901b16818401526034810191909152605481018a905260748082018a9052835180830390910181526094909101909252815191012060075415611b0b57600081815260046020526040902060080154600780548392908110611ab457fe5b90600052602060002001541415611b0b576040805162461bcd60e51b815260206004820152601660248201527550524f4d4953455f414c52454144595f45584953545360501b604482015290519081900360640190fd5b604051806101200160405280828152602001600560008c6001600160a01b03166001600160a01b031681526020019081526020016000205481526020018a6001600160a01b0316815260200189815260200188815260200187815260200186815260200185815260200160078054905081525060046000838152602001908152602001600020600082015181600001556020820151816001015560408201518160020160006101000a8154816001600160a01b0302191690836001600160a01b03160217905550606082015181600301556080820151816004015560a0820151816005015560c0820151816006015560e0820151816007015561010082015181600801559050506007819080600181540180825580915050600190039060005260206000200160009091909190915055886001600160a01b0316600560008b6001600160a01b03166001600160a01b0316815260200190815260200160002054827fc05e9e3de4c67624681fddccb848a2f81797e05e1c09faf702ed3c526a6660e08b8b60016007805490500360405180848152602001838152602001828152602001935050505060405180910390a4611cc689828561387e565b9998505050505050505050565b611cdb610ca6565b15611d20576040805162461bcd60e51b815260206004820152601060248201526f14185d5cd8589b194e881c185d5cd95960821b604482015290519081900360640190fd5b6002546001600160a01b0316611d6e576040805162461bcd60e51b815260206004820152600e60248201526d2aa729a822a1a4a324a2a22fa12960911b604482015290519081900360640190fd5b6002546001600160a01b03163314611dbf576040805162461bcd60e51b815260206004820152600f60248201526e2aa720aaaa2427a924ad22a22fa12960891b604482015290519081900360640190fd5b600154604080516331a9108f60e11b8152600481018590529051849284926001600160a01b0380851693921691636352211e91602480820192602092909190829003018186803b158015611e1257600080fd5b505afa158015611e26573d6000803e3d6000fd5b505050506040513d6020811015611e3c57600080fd5b50516001600160a01b031614611e8a576040805162461bcd60e51b815260206004820152600e60248201526d2aa720aaaa2427a924ad22a22fab60911b604482015290519081900360640190fd5b600084815260096020526040902054611ea59060ff16613a19565b611eec576040805162461bcd60e51b8152602060048201526013602482015272494e4150504c494341424c455f53544154555360681b604482015290519081900360640190fd5b611ef584612559565b50600084815260096020526040902042600182015554611f199060ff16600561386d565b600085815260096020908152604091829020805460ff191660ff9490941693909317909255805186815290517f66d163993c35c8d3a90f3fbce008096384de89ec441c60c9b9f79aaad36616ff929181900390910190a150505050565b611f7e610ca6565b15611fc3576040805162461bcd60e51b815260206004820152601060248201526f14185d5cd8589b194e881c185d5cd95960821b604482015290519081900360640190fd5b6002546001600160a01b0316612011576040805162461bcd60e51b815260206004820152600e60248201526d2aa729a822a1a4a324a2a22fa12960911b604482015290519081900360640190fd5b6002546001600160a01b03163314612062576040805162461bcd60e51b815260206004820152600f60248201526e2aa720aaaa2427a924ad22a22fa12960891b604482015290519081900360640190fd5b600154604080516331a9108f60e11b8152600481018590529051849284926001600160a01b0380851693921691636352211e91602480820192602092909190829003018186803b1580156120b557600080fd5b505afa1580156120c9573d6000803e3d6000fd5b505050506040513d60208110156120df57600080fd5b50516001600160a01b03161461212d576040805162461bcd60e51b815260206004820152600e60248201526d2aa720aaaa2427a924ad22a22fab60911b604482015290519081900360640190fd5b6000848152600960205260409020546121489060ff16613a19565b61218d576040805162461bcd60e51b81526020600482015260116024820152701053149150511657d41493d0d154d4d151607a1b604482015290519081900360640190fd5b61219684612559565b5061219f613fe6565b600460006121ac876128e4565b815260208082019290925260409081016000908120825161012081018452815481526001808301548287015260028301546001600160a01b0316828601526003830154606083015260048301546080830152600583015460a083015260068084015460c0840152600784015460e08401526008909301546101008301528a8452600990955292909120429381019390935591549092506122519160ff9091169061386d565b600086815260096020908152604091829020805460ff191660ff9490941693909317909255825181518881526001600160a01b0388169381019390935282820152517f43a88bfc6f85aab9491c25f0ce50c4046d7cb7d4dc209b40914a2574d9855a5c916060908290030190a15050505050565b6000600782815481106122d457fe5b90600052602060002001549050919050565b6002546001600160a01b0316612334576040805162461bcd60e51b815260206004820152600e60248201526d2aa729a822a1a4a324a2a22fa12960911b604482015290519081900360640190fd5b6002546001600160a01b03163314612385576040805162461bcd60e51b815260206004820152600f60248201526e2aa720aaaa2427a924ad22a22fa12960891b604482015290519081900360640190fd5b6109f6613a27565b6000908152600860209081526040808320548352600490915290206006015490565b6003546001600160a01b03166123fd576040805162461bcd60e51b815260206004820152600e60248201526d2aa729a822a1a4a324a2a22fa12960911b604482015290519081900360640190fd5b6003546001600160a01b0316331461244d576040805162461bcd60e51b815260206004820152600e60248201526d554e415554484f52495a45445f4360901b604482015290519081900360640190fd5b6000918252600860209081526040808420548452600490915290912060020180546001600160a01b0319166001600160a01b03909216919091179055565b61249361387a565b6001600160a01b03166124a461252f565b6001600160a01b0316146124ed576040805162461bcd60e51b81526020600482018190526024820152600080516020614085833981519152604482015290519081900360640190fd5b600c8190556040805182815233602082015281517f08bf60d0e489e33912f3ba0f81f21c6f2ad2499a36dfebfb6cfbfefcc49f3cca929181900390910190a150565b6000546001600160a01b031690565b600b5490565b600d5490565b6002546001600160a01b031690565b6000612563613fe6565b60046000612570856128e4565b815260208082019290925260409081016000208151610120810183528154815260018201549381019390935260028101546001600160a01b03169183019190915260038101546060830181905260048201546080840152600582015460a0840152600682015460c0840152600782015460e0840152600890910154610100830152909150421015612640576040805162461bcd60e51b8152602060048201526015602482015274494e56414c49445f56414c49444954595f46524f4d60581b604482015290519081900360640190fd5b428160800151101561268f576040805162461bcd60e51b8152602060048201526013602482015272494e56414c49445f56414c49444954595f544f60681b604482015290519081900360640190fd5b50600192915050565b6000908152600660205260409020600101546001600160a01b031690565b60008060008060006126c6613fe6565b50505060009384525050600460208181526040938490208451610120810186528154808252600183015493820184905260028301546001600160a01b0316968201969096526003820154606082018190529382015460808201819052600583015460a0830152600683015460c0830152600783015460e0830152600890920154610100909101819052949591949293509190565b6002546001600160a01b03166127a8576040805162461bcd60e51b815260206004820152600e60248201526d2aa729a822a1a4a324a2a22fa12960911b604482015290519081900360640190fd5b6002546001600160a01b031633146127f9576040805162461bcd60e51b815260206004820152600f60248201526e2aa720aaaa2427a924ad22a22fa12960891b604482015290519081900360640190fd5b6000612804866108d7565b90508260ff168160ff161461285b576040805162461bcd60e51b8152602060048201526018602482015277125b98dbdc9c9958dd0814185e5b595b9d0813595d1a1bd960421b604482015290519081900360640190fd5b612866868686613ab0565b6000612873868689613d48565b9050867fce3b32c0b6a7ffab6dec7497bc73336faeb8e1b3b0b8dc7099699a3595f000a68288886128a3866128e4565b604080519485526001600160a01b0393841660208601529190921683820152606083019190915260808201879052519081900360a00190a250505050505050565b600081612929576040805162461bcd60e51b815260206004820152600e60248201526d155394d41150d25192515117d25160921b604482015290519081900360640190fd5b6000612934836108c6565b600090815260086020908152604080832054835260049091529020549392505050565b61295f61387a565b6001600160a01b031661297061252f565b6001600160a01b0316146129b9576040805162461bcd60e51b81526020600482018190526024820152600080516020614085833981519152604482015290519081900360640190fd5b6001600160a01b038116612a0a576040805162461bcd60e51b8152602060048201526013602482015272554e5350454349464945445f4144445245535360681b604482015290519081900360640190fd5b600280546001600160a01b0319166001600160a01b0383169081179091556040805191825233602083015280517fac81fe7dd460bb5162a4a7d8fb92a13bd2baf450914fc6b1c4cc3180eba55af09281900390910190a150565b612a6c61387a565b6001600160a01b0316612a7d61252f565b6001600160a01b031614612ac6576040805162461bcd60e51b81526020600482018190526024820152600080516020614085833981519152604482015290519081900360640190fd5b6001600160a01b038116612b17576040805162461bcd60e51b8152602060048201526013602482015272554e5350454349464945445f4144445245535360681b604482015290519081900360640190fd5b600380546001600160a01b0319166001600160a01b0383169081179091556040805191825233602083015280517fcd124a0a6c3182c7bb77b8052823a4bf7d0a4c90016ffc4d53b969f98d3f8b889281900390910190a150565b6001546001600160a01b031690565b6002546001600160a01b0316612bce576040805162461bcd60e51b815260206004820152600e60248201526d2aa729a822a1a4a324a2a22fa12960911b604482015290519081900360640190fd5b6002546001600160a01b03163314612c1f576040805162461bcd60e51b815260206004820152600f60248201526e2aa720aaaa2427a924ad22a22fa12960891b604482015290519081900360640190fd5b60008360ff16118015612c36575060048360ff1611155b612c80576040805162461bcd60e51b8152602060048201526016602482015275125395905312510814105653515395081351551213d160521b604482015290519081900360640190fd5b6040805160608101825260ff94851681526001600160a01b0393841660208083019182529385168284019081526000978852600690945291909520945185549151841661010002610100600160a81b03199190951660ff199092169190911716929092178355905160019092018054929091166001600160a01b0319909216919091179055565b80612d4a576040805162461bcd60e51b815260206004820152600e60248201526d155394d41150d25192515117d25160921b604482015290519081900360640190fd5b612d52613fe6565b60046000612d5f846128e4565b815260208082019290925260409081016000208151610120810183528154815260018201549381019390935260028101546001600160a01b03169183019190915260038101546060830152600481015460808301819052600582015460a0840152600682015460c0840152600782015460e084015260089091015461010083015290915042118015612e075750600082815260096020526040902054612e079060ff16613a19565b15612e8857600082815260096020526040902054612e299060ff16600461386d565b600083815260096020908152604091829020805460ff191660ff94909416939093179092558051848152339281019290925280517f0fbb6c447a631ca170fad3c540d76f932db4c444d82bc160f7e3eebc6a5f67409281900390910190a15b5050565b600090815260086020908152604080832054835260049091529020600581015460068201546007909201549092565b60015460408051627eeac760e11b81526001600160a01b038481166004830152602482018690529151600093929092169162fdd58e91604480820192602092909190829003018186803b158015612f1157600080fd5b505afa158015612f25573d6000803e3d6000fd5b505050506040513d6020811015612f3b57600080fd5b50519392505050565b60009081526006602052604090205461010090046001600160a01b031690565b6001600160a01b031660009081526005602052604090205490565b6003546001600160a01b0316612fcd576040805162461bcd60e51b815260206004820152600e60248201526d2aa729a822a1a4a324a2a22fa12960911b604482015290519081900360640190fd5b6003546001600160a01b0316331461301d576040805162461bcd60e51b815260206004820152600e60248201526d554e415554484f52495a45445f4360901b604482015290519081900360640190fd5b80613060576040805162461bcd60e51b815260206004820152600e60248201526d155394d41150d25192515117d25160921b604482015290519081900360640190fd5b600081815260096020908152604091829020805462ff0000191662010000179055815183815260019181019190915281516000805160206140c5833981519152929181900390910190a150565b6130b561387a565b6001600160a01b03166130c661252f565b6001600160a01b03161461310f576040805162461bcd60e51b81526020600482018190526024820152600080516020614085833981519152604482015290519081900360640190fd5b600d8190556040805182815233602082015281517fff783d200775c8efda1ff912a95c6b9561e641cc8695e015340f06a5b3024f12929181900390910190a150565b61315961387a565b6001600160a01b031661316a61252f565b6001600160a01b0316146131b3576040805162461bcd60e51b81526020600482018190526024820152600080516020614085833981519152604482015290519081900360640190fd5b6001600160a01b0381166131f85760405162461bcd60e51b815260040180806020018281038252602681526020018061403f6026913960400191505060405180910390fd5b600080546040516001600160a01b03808516939216916000805160206140a583398151915291a3600080546001600160a01b0319166001600160a01b0392909216919091179055565b613249610ca6565b1561328e576040805162461bcd60e51b815260206004820152601060248201526f14185d5cd8589b194e881c185d5cd95960821b604482015290519081900360640190fd5b6000613299836108c6565b9050816001600160a01b03166132ae826108ec565b6001600160a01b0316146132fc576040805162461bcd60e51b815260206004820152601060248201526f2aa720aaaa2427a924ad22a22fa1a7a360811b604482015290519081900360640190fd5b60008381526009602052604090205460ff16613319816002613809565b15613361576040805162461bcd60e51b81526020600482015260136024820152721053149150511657d0d05390d1531190555315606a1b604482015290519081900360640190fd5b61336c816001613809565b156133b2576040805162461bcd60e51b81526020600482015260116024820152701053149150511657d19253905312569151607a1b604482015290519081900360640190fd5b6133ba613fe6565b600460006133c7876128e4565b815260208082019290925260409081016000208151610120810183528154815260018201549381019390935260028101546001600160a01b0316918301919091526003810154606083015260048101546080830152600581015460a083015260068082015460c0840152600782015460e0840152600890910154610100830152909150613455908390613809565b806134665750613466826005613809565b1561355957613476826003613809565b6134f657600d54600c5460008781526009602052604090206001015401014211156134dc576040805162461bcd60e51b815260206004820152601160248201527010d3d19411549253d117d1561412549151607a1b604482015290519081900360640190fd5b600085815260096020526040902042600190910155613554565b600d5460008681526009602052604090206002015401421115613554576040805162461bcd60e51b815260206004820152601160248201527010d3d19411549253d117d1561412549151607a1b604482015290519081900360640190fd5b613646565b613564826004613809565b156135cd57613574826003613809565b6134f657600d54600c54826080015101014211156134dc576040805162461bcd60e51b815260206004820152601160248201527010d3d19411549253d117d1561412549151607a1b604482015290519081900360640190fd5b6135d682613a19565b1561157157600d54600c5482608001510101421115613630576040805162461bcd60e51b815260206004820152601160248201527010d3d19411549253d117d1561412549151607a1b604482015290519081900360640190fd5b6000858152600960205260409020426001909101555b61365182600261386d565b600086815260096020908152604091829020805460ff191660ff9490941693909317909255805187815290517f125d1de9ad96c695c95a8de033058d2c00835a1e0cbf24b7fa3de72f603c8709929181900390910190a15050505050565b600154604080516331a9108f60e11b81526004810184905290516000926001600160a01b031691636352211e916024808301926020929190829003018186803b1580156136fb57600080fd5b505afa15801561370f573d6000803e3d6000fd5b505050506040513d602081101561372557600080fd5b505192915050565b6003546001600160a01b031690565b60009081526008602090815260408083205483526004909152902060058101546007909101549091565b61376e610ca6565b6137b6576040805162461bcd60e51b815260206004820152601460248201527314185d5cd8589b194e881b9bdd081c185d5cd95960621b604482015290519081900360640190fd5b6000805460ff60a01b191690557f5db9ee0a495bf2e6ff9c91a7834c1ba4fdd244a5e8aa4e537bd38aeae4b073aa6137ec61387a565b604080516001600160a01b039092168252519081900360200190a1565b60ff91821691161c60019081161490565b600061383261382b6000600761386d565b600661386d565b60ff168260ff16149050919050565b60006138326138526000600761386d565b600561386d565b600061383261386a6000600761386d565b60045b600160ff919091161b1790565b3390565b6000826138c8576040805162461bcd60e51b8152602060048201526013602482015272554e5350454349464945445f50524f4d49534560681b604482015290519081900360640190fd5b6000838152600460205260409020600201546001600160a01b0385811691161461392b576040805162461bcd60e51b815260206004820152600f60248201526e554e415554484f52495a45445f434f60881b604482015290519081900360640190fd5b60008211613973576040805162461bcd60e51b815260206004820152601060248201526f494e56414c49445f5155414e5449545960801b604482015290519081900360640190fd5b600061397f6001613fb0565b600081815260086020526040808220879055600154815163731133e960e01b81526001600160a01b038a8116600483015260248201869052604482018990526080606483015260848201859052925194955091169263731133e99260c48084019391929182900301818387803b1580156139f857600080fd5b505af1158015613a0c573d6000803e3d6000fd5b5092979650505050505050565b60006138326000600761386d565b613a2f610ca6565b15613a74576040805162461bcd60e51b815260206004820152601060248201526f14185d5cd8589b194e881c185d5cd95960821b604482015290519081900360640190fd5b6000805460ff60a01b1916600160a01b1790557f62e78cea01bee320cd4e420270b5ea74000d11b0c9f74754ebdbfc544b05a2586137ec61387a565b82613af3576040805162461bcd60e51b815260206004820152600e60248201526d155394d41150d25192515117d25160921b604482015290519081900360640190fd5b613b05816001600160a01b0316613fe0565b15613bd257604080516301ffc9a760e01b8152630a85bd0160e11b600482015290516001600160a01b038316916301ffc9a7916024808301926020929190829003018186803b158015613b5757600080fd5b505afa158015613b6b573d6000803e3d6000fd5b505050506040513d6020811015613b8157600080fd5b5051613bd2576040805162461bcd60e51b815260206004820152601b60248201527a155394d5541413d495115117d15490cdcc8c57d49150d152559151602a1b604482015290519081900360640190fd5b6001600160a01b038116613c23576040805162461bcd60e51b8152602060048201526013602482015272554e5350454349464945445f4144445245535360681b604482015290519081900360640190fd5b60015460408051627eeac760e11b81526001600160a01b038581166004830152602482018790529151600093929092169162fdd58e91604480820192602092909190829003018186803b158015613c7957600080fd5b505afa158015613c8d573d6000803e3d6000fd5b505050506040513d6020811015613ca357600080fd5b505111613ce5576040805162461bcd60e51b815260206004820152600b60248201526a4f464645525f454d50545960a81b604482015290519081900360640190fd5b60008381526008602090815260408083205480845260049283905292200154421115610f53576040805162461bcd60e51b815260206004820152600d60248201526c13d191915497d1561412549151609a1b604482015290519081900360640190fd5b6000613d5c836001600160a01b0316613fe0565b15613e525760408051630a85bd0160e11b8082526001600160a01b0387811660048401523360248401526044830186905260806064840152600060848401819052935191939087169263150b7a029260c48083019360209383900390910190829087803b158015613dcc57600080fd5b505af1158015613de0573d6000803e3d6000fd5b505050506040513d6020811015613df657600080fd5b50516001600160e01b03191614613e52576040805162461bcd60e51b815260206004820152601b60248201527a155394d5541413d495115117d15490cdcc8c57d49150d152559151602a1b604482015290519081900360640190fd5b6001805460408051637a94c56560e11b81526001600160a01b0388811660048301526024820187905260448201949094529051929091169163f5298aca9160648082019260009290919082900301818387803b158015613eb157600080fd5b505af1158015613ec5573d6000803e3d6000fd5b5050506000838152600a602090815260408083208054600101908190558617808452600990925290912054909150613f019060ff16600761386d565b6000828152600960209081526040808320805460ff191660ff959095169490941762ffff00191690935560015483516340c10f1960e01b81526001600160a01b03898116600483015260248201879052945194909116936340c10f1993604480840194938390030190829087803b158015613f7b57600080fd5b505af1158015613f8f573d6000803e3d6000fd5b505050506040513d6020811015613fa557600080fd5b509095945050505050565b600b8054600101905560008115613fd5576080600b54901b600160ff1b1790506108d2565b5050600b5460801b90565b3b151590565b604051806101200160405280600080191681526020016000815260200160006001600160a01b03168152602001600081526020016000815260200160008152602001600081526020016000815260200160008152509056fe4f776e61626c653a206e6577206f776e657220697320746865207a65726f2061646472657373434f4d504c41494e504552494f445f45585049524544000000000000000000004f776e61626c653a2063616c6c6572206973206e6f7420746865206f776e65728be0079c531659141344cd1fd0a4f28419497f9722a3daafe3b4186f6b6457e0f570ce8ad3bc67469a0b8e53a32bba1edd0105fc668c1278225660d2291cc554a26469706673582212206e21c8516e1e3fc7ede5eac570d0a10a32146819d70fd63c00a8e96cc9a1626e64736f6c63430007010033",
  "source": "// SPDX-License-Identifier: LGPL-3.0-or-later\r\n\r\npragma solidity 0.7.1;\r\n\r\nimport \"@openzeppelin/contracts/utils/Address.sol\";\r\nimport \"@openzeppelin/contracts/access/Ownable.sol\";\r\nimport \"@openzeppelin/contracts/utils/Pausable.sol\";\r\nimport \"@openzeppelin/contracts/math/SafeMath.sol\";\r\nimport \"./interfaces/IERC1155.sol\";\r\nimport \"./interfaces/IERC165.sol\";\r\nimport \"./interfaces/IERC721.sol\";\r\nimport \"./interfaces/IERC1155ERC721.sol\";\r\nimport \"./interfaces/IERC721TokenReceiver.sol\";\r\nimport \"./interfaces/IVoucherKernel.sol\";\r\nimport \"./UsingHelpers.sol\";\r\n\r\n//preparing for ERC-1066, ERC-1444, EIP-838\r\n\r\n/**\r\n * @title VoucherKernel contract is controlling the core business logic\r\n * @dev Notes:\r\n *  - Since this is a reference app, it is not yet optimized.\r\n *      In the next phase, the bulk raw data will be packed into a single bytes32 field and/or pushed off-chain.\r\n *  - The usage of block.timestamp is honored since vouchers are defined currently with day-precision.\r\n *      See: https://ethereum.stackexchange.com/questions/5924/how-do-ethereum-mining-nodes-maintain-a-time-consistent-with-the-network/5931#5931\r\n */\r\n// solhint-disable-next-line\r\ncontract VoucherKernel is IVoucherKernel, Ownable, Pausable, UsingHelpers {\r\n    using Address for address;\r\n    using SafeMath for uint256;\r\n\r\n    //AssetRegistry assetRegistry;\r\n    address private tokensContract;\r\n\r\n    //promise for an asset could be reusable, but simplified here for brevity\r\n    struct Promise {\r\n        bytes32 promiseId;\r\n        uint256 nonce; //the asset that is offered\r\n        address seller; //the seller who created the promise\r\n        //we simplify the value for the demoapp, otherwise voucher details would be packed in one bytes32 field value\r\n        uint256 validFrom;\r\n        uint256 validTo;\r\n        uint256 price;\r\n        uint256 depositSe;\r\n        uint256 depositBu;\r\n        uint256 idx;\r\n    }\r\n\r\n    struct VoucherPaymentMethod {\r\n        uint8 paymentMethod;\r\n        address addressTokenPrice;\r\n        address addressTokenDeposits;\r\n    }\r\n\r\n    address private bosonRouterAddress; //address of the Boson Router contract\r\n    address private cashierAddress; //address of the Cashier contract\r\n\r\n    mapping(bytes32 => Promise) private promises; //promises to deliver goods or services\r\n    mapping(address => uint256) private tokenNonces; //mapping between seller address and its own nonces. Every time seller creates supply ID it gets incremented. Used to avoid duplicate ID's\r\n    mapping(uint256 => VoucherPaymentMethod) private paymentDetails; // tokenSupplyId to VoucherPaymentMethod\r\n\r\n    bytes32[] private promiseKeys;\r\n\r\n    mapping(uint256 => bytes32) private ordersPromise; //mapping between an order (supply a.k.a. VoucherSet token) and a promise\r\n\r\n    mapping(uint256 => VoucherStatus) private vouchersStatus; //recording the vouchers evolution\r\n\r\n    //ID reqs\r\n    mapping(uint256 => uint256) private typeCounters; //counter for ID of a particular type of NFT\r\n    uint256 private constant MASK_TYPE = uint256(uint128(~0)) << 128; //the type mask in the upper 128 bits\r\n    //1111111111111111111111111111111111111111111111111111111111111111111111111111111111111111111111111111111111111111111111111111111100000000000000000000000000000000000000000000000000000000000000000000000000000000000000000000000000000000000000000000000000000000\r\n\r\n    uint256 private constant MASK_NF_INDEX = uint128(~0); //the non-fungible index mask in the lower 128\r\n    //0000000000000000000000000000000000000000000000000000000000000000000000000000000000000000000000000000000000000000000000000000000011111111111111111111111111111111111111111111111111111111111111111111111111111111111111111111111111111111111111111111111111111111\r\n\r\n    uint256 private constant TYPE_NF_BIT = 1 << 255; //the first bit represents an NFT type\r\n    //1000000000000000000000000000000000000000000000000000000000000000000000000000000000000000000000000000000000000000000000000000000000000000000000000000000000000000000000000000000000000000000000000000000000000000000000000000000000000000000000000000000000000000\r\n\r\n    uint256 private typeId; //base token type ... 127-bits cover 1.701411835*10^38 types (not differentiating between FTs and NFTs)\r\n    /* Token IDs:\r\n    Fungibles: 0, followed by 127-bit FT type ID, in the upper 128 bits, followed by 0 in lower 128-bits\r\n    <0><uint127: base token id><uint128: 0>\r\n    \r\n    Non-fungible VoucherSets (supply tokens): 1, followed by 127-bit NFT type ID, in the upper 128 bits, followed by 0 in lower 128-bits\r\n    <1><uint127: base token id><uint128: 0    \r\n    \r\n    Non-fungible vouchers: 1, followed by 127-bit NFT type ID, in the upper 128 bits, followed by a 1-based index of an NFT token ID.\r\n    <1><uint127: base token id><uint128: index of non-fungible>\r\n    */\r\n\r\n    uint256 private complainPeriod;\r\n    uint256 private cancelFaultPeriod;\r\n\r\n    event LogPromiseCreated(\r\n        bytes32 indexed _promiseId,\r\n        uint256 indexed _nonce,\r\n        address indexed _seller,\r\n        uint256 _validFrom,\r\n        uint256 _validTo,\r\n        uint256 _idx\r\n    );\r\n\r\n    event LogVoucherDelivered(\r\n        uint256 indexed _tokenIdSupply,\r\n        uint256 _tokenIdVoucher,\r\n        address _issuer,\r\n        address _holder,\r\n        bytes32 _promiseId,\r\n        uint256 _correlationId\r\n    );\r\n\r\n    event LogVoucherRedeemed(\r\n        uint256 _tokenIdVoucher,\r\n        address _holder,\r\n        bytes32 _promiseId\r\n    );\r\n\r\n    event LogVoucherRefunded(uint256 _tokenIdVoucher);\r\n\r\n    event LogVoucherComplain(uint256 _tokenIdVoucher);\r\n\r\n    event LogVoucherFaultCancel(uint256 _tokenIdVoucher);\r\n\r\n    event LogExpirationTriggered(uint256 _tokenIdVoucher, address _triggeredBy);\r\n\r\n    event LogFinalizeVoucher(uint256 _tokenIdVoucher, address _triggeredBy);\r\n\r\n    event LogBosonRouterSet(address _newBosonRouter, address _triggeredBy);\r\n\r\n    event LogCashierSet(address _newCashier, address _triggeredBy);\r\n\r\n    event LogComplainPeriodChanged(\r\n        uint256 _newComplainPeriod,\r\n        address _triggeredBy\r\n    );\r\n\r\n    event LogCancelFaultPeriodChanged(\r\n        uint256 _newCancelFaultPeriod,\r\n        address _triggeredBy\r\n    );\r\n\r\n    event LogVoucherSetFaultCancel(uint256 _tokenIdSupply, address _issuer);\r\n\r\n    event LogFundsReleased(\r\n        uint256 _tokenIdVoucher,\r\n        uint8 _type //0 .. payment, 1 .. deposits\r\n    );\r\n\r\n    modifier onlyFromRouter() {\r\n        require(bosonRouterAddress != address(0), \"UNSPECIFIED_BR\"); //hex\"20\" FISSION.code(FISSION.Category.Find, FISSION.Status.NotFound_Unequal_OutOfRange)\r\n        require(msg.sender == bosonRouterAddress, \"UNAUTHORIZED_BR\"); //hex\"10\" FISSION.code(FISSION.Category.Permission, FISSION.Status.Disallowed_Stop)\r\n        _;\r\n    }\r\n\r\n    modifier onlyFromCashier() {\r\n        require(cashierAddress != address(0), \"UNSPECIFIED_BR\"); //hex\"20\" FISSION.code(FISSION.Category.Find, FISSION.Status.NotFound_Unequal_OutOfRange)\r\n        require(msg.sender == cashierAddress, \"UNAUTHORIZED_C\"); //hex\"10\" FISSION.code(FISSION.Category.Permission, FISSION.Status.Disallowed_Stop)\r\n        _;\r\n    }\r\n\r\n    modifier onlyVoucherOwner(uint256 _tokenIdVoucher, address _sender) {\r\n        //check authorization\r\n        require(\r\n            IERC721(tokensContract).ownerOf(_tokenIdVoucher) == _sender,\r\n            \"UNAUTHORIZED_V\"\r\n        ); //hex\"10\" FISSION.code(FISSION.Category.Permission, FISSION.Status.Disallowed_Stop)\r\n        _;\r\n    }\r\n\r\n    constructor(address _tokensContract) {\r\n        tokensContract = _tokensContract;\r\n\r\n        complainPeriod = 7 * 1 days;\r\n        cancelFaultPeriod = 7 * 1 days;\r\n    }\r\n\r\n    /**\r\n     * @notice Pause the process of interaction with voucherID's (ERC-721), in case of emergency.\r\n     * Only BR contract is in control of this function.\r\n     */\r\n    function pause() external override onlyFromRouter {\r\n        _pause();\r\n    }\r\n\r\n    /**\r\n     * @notice Unpause the process of interaction with voucherID's (ERC-721).\r\n     * Only BR contract is in control of this function.\r\n     */\r\n    function unpause() external override onlyFromRouter {\r\n        _unpause();\r\n    }\r\n\r\n    /**\r\n     * @notice Creating a new promise for goods or services.\r\n     * Can be reused, e.g. for making different batches of these (in the future).\r\n     * @param _seller      seller of the promise\r\n     * @param _validFrom   Start of valid period\r\n     * @param _validTo     End of valid period\r\n     * @param _price       Price (payment amount)\r\n     * @param _depositSe   Seller's deposit\r\n     * @param _depositBu   Buyer's deposit\r\n     */\r\n    function createTokenSupplyID(\r\n        address _seller,\r\n        uint256 _validFrom,\r\n        uint256 _validTo,\r\n        uint256 _price,\r\n        uint256 _depositSe,\r\n        uint256 _depositBu,\r\n        uint256 _quantity\r\n    ) external override onlyFromRouter returns (uint256) {\r\n        require(_validFrom <= _validTo, \"INVALID_VALIDITY_FROM\"); //hex\"26\" FISSION.code(FISSION.Category.Find, FISSION.Status.Above_Range_Overflow)\r\n        // solhint-disable-next-line not-rely-on-time\r\n        require(_validTo >= block.timestamp + 5 minutes, \"INVALID_VALIDITY_TO\"); //\"Minimum order validity is set to prevent any potential attack from flash-loans or similar.\" //hex\"24\" FISSION.code(FISSION.Category.Find, FISSION.Status.BelowRange_Underflow)\r\n\r\n        bytes32 key;\r\n        key = keccak256(\r\n            abi.encodePacked(_seller, tokenNonces[_seller]++, _validFrom, _validTo)\r\n        );\r\n\r\n        if (promiseKeys.length > 0) {\r\n            require(\r\n                promiseKeys[promises[key].idx] != key,\r\n                \"PROMISE_ALREADY_EXISTS\"\r\n            );\r\n        }\r\n\r\n        promises[key] = Promise({\r\n            promiseId: key,\r\n            nonce: tokenNonces[_seller],\r\n            seller: _seller,\r\n            validFrom: _validFrom,\r\n            validTo: _validTo,\r\n            price: _price,\r\n            depositSe: _depositSe,\r\n            depositBu: _depositBu,\r\n            idx: promiseKeys.length\r\n        });\r\n\r\n        promiseKeys.push(key);\r\n\r\n        emit LogPromiseCreated(\r\n            key,\r\n            tokenNonces[_seller],\r\n            _seller,\r\n            _validFrom,\r\n            _validTo,\r\n            promiseKeys.length - 1\r\n        );\r\n\r\n        return createOrder(_seller, key, _quantity);\r\n    }\r\n\r\n    /**\r\n     * @notice Creates a Payment method struct recording the details on how the seller requires to receive Price and Deposits for a certain Voucher Set.\r\n     * @param _tokenIdSupply     _tokenIdSupply of the voucher set this is related to\r\n     * @param _paymentMethod  might be ETHETH, ETHTKN, TKNETH or TKNTKN\r\n     * @param _tokenPrice   token address which will hold the funds for the price of the voucher\r\n     * @param _tokenDeposits   token address which will hold the funds for the deposits of the voucher\r\n     */\r\n    function createPaymentMethod(\r\n        uint256 _tokenIdSupply,\r\n        uint8 _paymentMethod,\r\n        address _tokenPrice,\r\n        address _tokenDeposits\r\n    ) external override onlyFromRouter {\r\n        require(\r\n            _paymentMethod > 0 &&\r\n                _paymentMethod <= 4,\r\n            \"INVALID PAYMENT METHOD\"\r\n        );\r\n        \r\n        paymentDetails[_tokenIdSupply] = VoucherPaymentMethod({\r\n            paymentMethod: _paymentMethod,\r\n            addressTokenPrice: _tokenPrice,\r\n            addressTokenDeposits: _tokenDeposits\r\n        });\r\n    }\r\n\r\n    /**\r\n     * @notice Create an order for offering a certain quantity of an asset\r\n     * This creates a listing in a marketplace, technically as an ERC-1155 non-fungible token with supply.\r\n     * @param _seller     seller of the promise\r\n     * @param _promiseId  ID of a promise (simplified into asset for demo)\r\n     * @param _quantity   Quantity of assets on offer\r\n     */\r\n    function createOrder(\r\n        address _seller,\r\n        bytes32 _promiseId,\r\n        uint256 _quantity\r\n    ) private returns (uint256) {\r\n        require(_promiseId != bytes32(0), \"UNSPECIFIED_PROMISE\"); //hex\"20\" FISSION.code(FISSION.Category.Find, FISSION.Status.NotFound_Unequal_OutOfRange)\r\n        require(promises[_promiseId].seller == _seller, \"UNAUTHORIZED_CO\"); //hex\"10\" FISSION.code(FISSION.Category.Permission, FISSION.Status.Disallowed_Stop)\r\n        require(_quantity > 0, \"INVALID_QUANTITY\"); //hex\"24\" FISSION.code(FISSION.Category.Find, FISSION.Status.BelowRange_Underflow)\r\n\r\n        uint256 tokenIdSupply = generateTokenType(true); //create & assign a new non-fungible type\r\n\r\n        ordersPromise[tokenIdSupply] = _promiseId;\r\n\r\n        IERC1155ERC721(tokensContract).mint(\r\n            _seller,\r\n            tokenIdSupply,\r\n            _quantity,\r\n            \"\"\r\n        );\r\n\r\n        return tokenIdSupply;\r\n    }\r\n\r\n    /**\r\n     * @notice Fill Voucher Order, iff funds paid, then extract & mint NFT to the voucher holder\r\n     * @param _tokenIdSupply   ID of the supply token (ERC-1155)\r\n     * @param _issuer          Address of the token's issuer\r\n     * @param _holder          Address of the recipient of the voucher (ERC-721)\r\n     * @param _paymentMethod   method being used for that particular order that needs to be fulfilled\r\n     * @param _correlationId           ID of the current interaction with the smart contract for a specific user\r\n     */\r\n    function fillOrder(\r\n        uint256 _tokenIdSupply,\r\n        address _issuer,\r\n        address _holder,\r\n        uint8 _paymentMethod,\r\n        uint256 _correlationId\r\n    ) external override onlyFromRouter {\r\n        uint8 paymentMethod = getVoucherPaymentMethod(_tokenIdSupply);\r\n\r\n        //checks\r\n        require(paymentMethod == _paymentMethod, \"Incorrect Payment Method\");\r\n        checkOrderFillable(_tokenIdSupply, _issuer, _holder);\r\n\r\n        //close order\r\n        uint256 voucherTokenId = extract721(_issuer, _holder, _tokenIdSupply);\r\n\r\n        emit LogVoucherDelivered(\r\n            _tokenIdSupply,\r\n            voucherTokenId,\r\n            _issuer,\r\n            _holder,\r\n            getPromiseIdFromVoucherId(voucherTokenId),\r\n            _correlationId\r\n        );\r\n    }\r\n\r\n    /**\r\n     * @notice Check order is fillable\r\n     * @dev Will throw if checks don't pass\r\n     * @param _tokenIdSupply  ID of the supply token\r\n     * @param _issuer  Address of the token's issuer\r\n     * @param _holder  Address of the recipient of the voucher (ERC-721)\r\n     */\r\n    function checkOrderFillable(\r\n        uint256 _tokenIdSupply,\r\n        address _issuer,\r\n        address _holder\r\n    ) internal view {\r\n        require(_tokenIdSupply != 0, \"UNSPECIFIED_ID\"); //hex\"20\" FISSION.code(FISSION.Category.Find, FISSION.Status.NotFound_Unequal_OutOfRange)\r\n\r\n        if (_holder.isContract()) {\r\n            require(\r\n                IERC165(_holder).supportsInterface(0x150b7a02),\r\n                \"UNSUPPORTED_ERC721_RECEIVED\"\r\n            ); //hex\"31\"\r\n            //bytes4(keccak256(\"onERC721Received(address,address,uint256,bytes)\"))\r\n        }\r\n\r\n        require(_holder != address(0), \"UNSPECIFIED_ADDRESS\"); //hex\"20\" FISSION.code(FISSION.Category.Find, FISSION.Status.NotFound_Unequal_OutOfRange)\r\n        require(\r\n            IERC1155(tokensContract).balanceOf(_issuer, _tokenIdSupply) > 0,\r\n            \"OFFER_EMPTY\"\r\n        ); //hex\"40\" FISSION.code(FISSION.Category.Availability, FISSION.Status.Unavailable)\r\n\r\n        bytes32 promiseKey = ordersPromise[_tokenIdSupply];\r\n\r\n        require(\r\n            promises[promiseKey].validTo >= block.timestamp,\r\n            \"OFFER_EXPIRED\"\r\n        );\r\n    }\r\n\r\n    /**\r\n     * @notice Extract a standard non-fungible token ERC-721 from a supply stored in ERC-1155\r\n     * @dev Token ID is derived following the same principles for both ERC-1155 and ERC-721\r\n     * @param _issuer          The address of the token issuer\r\n     * @param _to              The address of the token holder\r\n     * @param _tokenIdSupply   ID of the token type\r\n     * @return                 ID of the voucher token\r\n     */\r\n    function extract721(\r\n        address _issuer,\r\n        address _to,\r\n        uint256 _tokenIdSupply\r\n    ) internal returns (uint256) {\r\n        if (_to.isContract()) {\r\n            require(\r\n                ERC721TokenReceiver(_to).onERC721Received(\r\n                    _issuer,\r\n                    msg.sender,\r\n                    _tokenIdSupply,\r\n                    \"\"\r\n                ) == ERC721TokenReceiver(_to).onERC721Received.selector,\r\n                \"UNSUPPORTED_ERC721_RECEIVED\"\r\n            ); //hex\"10\" FISSION.code(FISSION.Category.Permission, FISSION.Status.Disallowed_Stop)\r\n            //bytes4(keccak256(\"onERC721Received(address,address,uint256,bytes)\"))\r\n        }\r\n\r\n        IERC1155ERC721(tokensContract).burn(_issuer, _tokenIdSupply, 1); // This is hardcoded as 1 on purpose\r\n\r\n        //calculate tokenId\r\n        uint256 voucherTokenId =\r\n            _tokenIdSupply | ++typeCounters[_tokenIdSupply];\r\n\r\n        //set status\r\n        vouchersStatus[voucherTokenId].status = determineStatus(\r\n            vouchersStatus[voucherTokenId].status,\r\n            IDX_COMMIT\r\n        );\r\n        vouchersStatus[voucherTokenId].isPaymentReleased = false;\r\n        vouchersStatus[voucherTokenId].isDepositsReleased = false;\r\n\r\n        //mint voucher NFT as ERC-721\r\n        IERC1155ERC721(tokensContract).mint(_to, voucherTokenId);\r\n\r\n        return voucherTokenId;\r\n    }\r\n\r\n    /**\r\n     * @notice Extract a standard non-fungible tokens ERC-721 from a supply stored in ERC-1155\r\n     * @dev Token ID is derived following the same principles for both ERC-1155 and ERC-721\r\n     * @param _issuer          The address of the token issuer\r\n     * @param _tokenIdSupply   ID of the token type\r\n     * @param _qty   qty that should be burned\r\n     */\r\n    function burnSupplyOnPause(\r\n        address _issuer,\r\n        uint256 _tokenIdSupply,\r\n        uint256 _qty\r\n    ) external override whenPaused onlyFromCashier {\r\n        IERC1155ERC721(tokensContract).burn(_issuer, _tokenIdSupply, _qty);\r\n    }\r\n\r\n    /**\r\n     * @notice Creating a new token type, serving as the base for tokenID generation for NFTs, and a de facto ID for FTs.\r\n     * @param _isNonFungible   Flag for generating NFT or FT\r\n     * @return _tokenType   Returns a newly generated token type\r\n     */\r\n    function generateTokenType(bool _isNonFungible)\r\n        internal\r\n        returns (uint256 _tokenType)\r\n    {\r\n        typeId++;\r\n\r\n        if (_isNonFungible) {\r\n            _tokenType = TYPE_NF_BIT | (typeId << 128); //upper bit is 1, followed by sequence, leaving lower 128-bits as 0\r\n        } else {\r\n            _tokenType = typeId << 128; //upper bit is not set, followed by sequence, leaving lower 128-bits as 0\r\n        }\r\n\r\n        return _tokenType;\r\n    }\r\n\r\n    /* solhint-disable */\r\n\r\n    /**\r\n     * @notice Redemption of the vouchers promise\r\n     * @param _tokenIdVoucher   ID of the voucher\r\n     * @param _msgSender   account called the fn from the BR contract\r\n     */\r\n    function redeem(uint256 _tokenIdVoucher, address _msgSender)\r\n        external\r\n        override\r\n        whenNotPaused\r\n        onlyFromRouter\r\n        onlyVoucherOwner(_tokenIdVoucher, _msgSender)\r\n    {\r\n        //check status\r\n        require(\r\n            isStateCommitted(vouchersStatus[_tokenIdVoucher].status),\r\n            \"ALREADY_PROCESSED\"\r\n        ); //hex\"48\" FISSION.code(FISSION.Category.Availability, FISSION.Status.AlreadyDone)\r\n\r\n        //check validity period\r\n        isInValidityPeriod(_tokenIdVoucher);\r\n        Promise memory tPromise =\r\n            promises[getPromiseIdFromVoucherId(_tokenIdVoucher)];\r\n\r\n        vouchersStatus[_tokenIdVoucher].complainPeriodStart = block.timestamp;\r\n        vouchersStatus[_tokenIdVoucher].status = determineStatus(\r\n            vouchersStatus[_tokenIdVoucher].status,\r\n            IDX_REDEEM\r\n        );\r\n\r\n        emit LogVoucherRedeemed(\r\n            _tokenIdVoucher,\r\n            _msgSender,\r\n            tPromise.promiseId\r\n        );\r\n    }\r\n\r\n    // // // // // // // //\r\n    // UNHAPPY PATH\r\n    // // // // // // // //\r\n\r\n    /**\r\n     * @notice Refunding a voucher\r\n     * @param _tokenIdVoucher   ID of the voucher\r\n     * @param _msgSender   account called the fn from the BR contract\r\n     */\r\n    function refund(uint256 _tokenIdVoucher, address _msgSender)\r\n        external\r\n        override\r\n        whenNotPaused\r\n        onlyFromRouter\r\n        onlyVoucherOwner(_tokenIdVoucher, _msgSender)\r\n    {\r\n        require(\r\n            isStateCommitted(vouchersStatus[_tokenIdVoucher].status),\r\n            \"INAPPLICABLE_STATUS\"\r\n        ); //hex\"18\" FISSION.code(FISSION.Category.Permission, FISSION.Status.NotApplicableToCurrentState)\r\n\r\n        //check validity period\r\n        isInValidityPeriod(_tokenIdVoucher);\r\n\r\n        vouchersStatus[_tokenIdVoucher].complainPeriodStart = block.timestamp;\r\n        vouchersStatus[_tokenIdVoucher].status = determineStatus(\r\n            vouchersStatus[_tokenIdVoucher].status,\r\n            IDX_REFUND\r\n        );\r\n\r\n        emit LogVoucherRefunded(_tokenIdVoucher);\r\n    }\r\n\r\n    /**\r\n     * @notice Issue a complain for a voucher\r\n     * @param _tokenIdVoucher   ID of the voucher\r\n     * @param _msgSender   account called the fn from the BR contract\r\n     */\r\n    function complain(uint256 _tokenIdVoucher, address _msgSender)\r\n        external\r\n        override\r\n        whenNotPaused\r\n        onlyFromRouter\r\n        onlyVoucherOwner(_tokenIdVoucher, _msgSender)\r\n    {\r\n        require(\r\n            !isStatus(vouchersStatus[_tokenIdVoucher].status, IDX_COMPLAIN),\r\n            \"ALREADY_COMPLAINED\"\r\n        ); //hex\"48\" FISSION.code(FISSION.Category.Availability, FISSION.Status.AlreadyDone)\r\n        require(\r\n            !isStatus(vouchersStatus[_tokenIdVoucher].status, IDX_FINAL),\r\n            \"ALREADY_FINALIZED\"\r\n        ); //hex\"48\" FISSION.code(FISSION.Category.Availability, FISSION.Status.AlreadyDone)\r\n\r\n        //check if still in the complain period\r\n        Promise memory tPromise =\r\n            promises[getPromiseIdFromVoucherId(_tokenIdVoucher)];\r\n\r\n        //if redeemed or refunded\r\n        if (\r\n            isStateRedemptionSigned(vouchersStatus[_tokenIdVoucher].status) ||\r\n            isStateRefunded(vouchersStatus[_tokenIdVoucher].status)\r\n        ) {\r\n            if (\r\n                !isStatus(\r\n                    vouchersStatus[_tokenIdVoucher].status,\r\n                    IDX_CANCEL_FAULT\r\n                )\r\n            ) {\r\n                require(\r\n                    block.timestamp <=\r\n                        vouchersStatus[_tokenIdVoucher].complainPeriodStart +\r\n                            complainPeriod +\r\n                            cancelFaultPeriod,\r\n                    \"COMPLAINPERIOD_EXPIRED\"\r\n                ); //hex\"46\" FISSION.code(FISSION.Category.Availability, FISSION.Status.Expired)\r\n            } else {\r\n                require(\r\n                    block.timestamp <=\r\n                        vouchersStatus[_tokenIdVoucher].complainPeriodStart +\r\n                            complainPeriod,\r\n                    \"COMPLAINPERIOD_EXPIRED\"\r\n                ); //hex\"46\" FISSION.code(FISSION.Category.Availability, FISSION.Status.Expired)\r\n            }\r\n\r\n            vouchersStatus[_tokenIdVoucher].cancelFaultPeriodStart = block\r\n                .timestamp;\r\n            vouchersStatus[_tokenIdVoucher].status = determineStatus(\r\n                vouchersStatus[_tokenIdVoucher].status,\r\n                IDX_COMPLAIN\r\n            );\r\n\r\n            emit LogVoucherComplain(_tokenIdVoucher);\r\n\r\n            //if expired\r\n        } else if (isStateExpired(vouchersStatus[_tokenIdVoucher].status)) {\r\n            if (\r\n                !isStatus(\r\n                    vouchersStatus[_tokenIdVoucher].status,\r\n                    IDX_CANCEL_FAULT\r\n                )\r\n            ) {\r\n                require(\r\n                    block.timestamp <=\r\n                        tPromise.validTo + complainPeriod + cancelFaultPeriod,\r\n                    \"COMPLAINPERIOD_EXPIRED\"\r\n                ); //hex\"46\" FISSION.code(FISSION.Category.Availability, FISSION.Status.Expired)\r\n            } else {\r\n                require(\r\n                    block.timestamp <= tPromise.validTo + complainPeriod,\r\n                    \"COMPLAINPERIOD_EXPIRED\"\r\n                ); //hex\"46\" FISSION.code(FISSION.Category.Availability, FISSION.Status.Expired)\r\n            }\r\n\r\n            vouchersStatus[_tokenIdVoucher].cancelFaultPeriodStart = block\r\n                .timestamp;\r\n            vouchersStatus[_tokenIdVoucher].status = determineStatus(\r\n                vouchersStatus[_tokenIdVoucher].status,\r\n                IDX_COMPLAIN\r\n            );\r\n\r\n            emit LogVoucherComplain(_tokenIdVoucher);\r\n\r\n            //if cancelOrFault\r\n        } else if (\r\n            isStatus(vouchersStatus[_tokenIdVoucher].status, IDX_CANCEL_FAULT)\r\n        ) {\r\n            require(\r\n                block.timestamp <=\r\n                    vouchersStatus[_tokenIdVoucher].complainPeriodStart +\r\n                        complainPeriod,\r\n                \"COMPLAINPERIOD_EXPIRED\"\r\n            ); //hex\"46\" FISSION.code(FISSION.Category.Availability, FISSION.Status.Expired));\r\n\r\n            vouchersStatus[_tokenIdVoucher].status = determineStatus(\r\n                vouchersStatus[_tokenIdVoucher].status,\r\n                IDX_COMPLAIN\r\n            );\r\n\r\n            emit LogVoucherComplain(_tokenIdVoucher);\r\n        } else {\r\n            revert(\"INAPPLICABLE_STATUS\"); //hex\"18\" FISSION.code(FISSION.Category.Permission, FISSION.Status.NotApplicableToCurrentState)\r\n        }\r\n    }\r\n\r\n    /**\r\n     * @notice Cancel/Fault transaction by the Seller, admitting to a fault or backing out of the deal\r\n     * @param _tokenIdVoucher   ID of the voucher\r\n     */\r\n    function cancelOrFault(uint256 _tokenIdVoucher, address _msgSender)\r\n        external\r\n        override\r\n        whenNotPaused\r\n    {\r\n        uint256 tokenIdSupply = getIdSupplyFromVoucher(_tokenIdVoucher);\r\n        require(\r\n            getSupplyHolder(tokenIdSupply) == _msgSender,\r\n            \"UNAUTHORIZED_COF\"\r\n        ); //hex\"10\" FISSION.code(FISSION.Category.Permission, FISSION.Status.Disallowed_Stop)\r\n\r\n        uint8 tStatus = vouchersStatus[_tokenIdVoucher].status;\r\n\r\n        require(!isStatus(tStatus, IDX_CANCEL_FAULT), \"ALREADY_CANCELFAULT\"); //hex\"48\" FISSION.code(FISSION.Category.Availability, FISSION.Status.AlreadyDone)\r\n        require(!isStatus(tStatus, IDX_FINAL), \"ALREADY_FINALIZED\"); //hex\"48\" FISSION.code(FISSION.Category.Availability, FISSION.Status.AlreadyDone)\r\n\r\n        Promise memory tPromise =\r\n            promises[getPromiseIdFromVoucherId(_tokenIdVoucher)];\r\n\r\n        if (isStatus(tStatus, IDX_REDEEM) || isStatus(tStatus, IDX_REFUND)) {\r\n            //if redeemed or refunded\r\n            if (!isStatus(tStatus, IDX_COMPLAIN)) {\r\n                require(\r\n                    block.timestamp <=\r\n                        vouchersStatus[_tokenIdVoucher].complainPeriodStart +\r\n                            complainPeriod +\r\n                            cancelFaultPeriod,\r\n                    \"COFPERIOD_EXPIRED\"\r\n                ); //hex\"46\" FISSION.code(FISSION.Category.Availability, FISSION.Status.Expired)\r\n                vouchersStatus[_tokenIdVoucher].complainPeriodStart = block\r\n                    .timestamp; //resetting the complain period\r\n            } else {\r\n                require(\r\n                    block.timestamp <=\r\n                        vouchersStatus[_tokenIdVoucher].cancelFaultPeriodStart +\r\n                            cancelFaultPeriod,\r\n                    \"COFPERIOD_EXPIRED\"\r\n                ); //hex\"46\" FISSION.code(FISSION.Category.Availability, FISSION.Status.Expired)\r\n            }\r\n        } else if (isStatus(tStatus, IDX_EXPIRE)) {\r\n            //if expired\r\n            if (!isStatus(tStatus, IDX_COMPLAIN)) {\r\n                require(\r\n                    block.timestamp <=\r\n                        tPromise.validTo + complainPeriod + cancelFaultPeriod,\r\n                    \"COFPERIOD_EXPIRED\"\r\n                ); //hex\"46\" FISSION.code(FISSION.Category.Availability, FISSION.Status.Expired)\r\n                vouchersStatus[_tokenIdVoucher].complainPeriodStart = block\r\n                    .timestamp;\r\n            } else {\r\n                require(\r\n                    block.timestamp <=\r\n                        vouchersStatus[_tokenIdVoucher].cancelFaultPeriodStart +\r\n                            cancelFaultPeriod,\r\n                    \"COFPERIOD_EXPIRED\"\r\n                ); //hex\"46\" FISSION.code(FISSION.Category.Availability, FISSION.Status.Expired)\r\n            }\r\n        } else if (isStateCommitted(tStatus)) {\r\n            //if committed only\r\n            require(\r\n                block.timestamp <=\r\n                    tPromise.validTo + complainPeriod + cancelFaultPeriod,\r\n                \"COFPERIOD_EXPIRED\"\r\n            ); //hex\"46\" FISSION.code(FISSION.Category.Availability, FISSION.Status.Expired)\r\n            vouchersStatus[_tokenIdVoucher].complainPeriodStart = block\r\n                .timestamp; //complain period starts\r\n        } else {\r\n            revert(\"INAPPLICABLE_STATUS\"); //hex\"18\" FISSION.code(FISSION.Category.Permission, FISSION.Status.NotApplicableToCurrentState)\r\n        }\r\n\r\n        vouchersStatus[_tokenIdVoucher].status = determineStatus(\r\n            tStatus,\r\n            IDX_CANCEL_FAULT\r\n        );\r\n\r\n        emit LogVoucherFaultCancel(_tokenIdVoucher);\r\n    }\r\n\r\n    /**\r\n     * @notice Cancel/Fault transaction by the Seller, cancelling the remaining uncommitted voucher set so that seller prevents buyers from committing to vouchers for items no longer in exchange.\r\n     * @param _tokenIdSupply   ID of the voucher set\r\n     * @param _issuer   owner of the voucher\r\n     */\r\n    function cancelOrFaultVoucherSet(uint256 _tokenIdSupply, address _issuer)\r\n        external\r\n        override\r\n        onlyFromRouter\r\n        whenNotPaused\r\n        returns (uint256)\r\n    {\r\n        require(getSupplyHolder(_tokenIdSupply) == _issuer, \"UNAUTHORIZED_COF\");\r\n\r\n        uint256 remQty = getRemQtyForSupply(_tokenIdSupply, _issuer);\r\n\r\n        require(remQty > 0, \"OFFER_EMPTY\");\r\n\r\n        IERC1155ERC721(tokensContract).burn(_issuer, _tokenIdSupply, remQty);\r\n\r\n        emit LogVoucherSetFaultCancel(_tokenIdSupply, _issuer);\r\n\r\n        return remQty;\r\n    }\r\n\r\n    // // // // // // // //\r\n    // BACK-END PROCESS\r\n    // // // // // // // //\r\n\r\n    /**\r\n     * @notice Mark voucher token that the payment was released\r\n     * @param _tokenIdVoucher   ID of the voucher token\r\n     */\r\n    function setPaymentReleased(uint256 _tokenIdVoucher)\r\n        external\r\n        override\r\n        onlyFromCashier\r\n    {\r\n        require(_tokenIdVoucher != 0, \"UNSPECIFIED_ID\"); //hex\"20\" FISSION.code(FISSION.Category.Find, FISSION.Status.NotFound_Unequal_OutOfRange)\r\n        vouchersStatus[_tokenIdVoucher].isPaymentReleased = true;\r\n\r\n        emit LogFundsReleased(_tokenIdVoucher, 0);\r\n    }\r\n\r\n    /**\r\n     * @notice Mark voucher token that the deposits were released\r\n     * @param _tokenIdVoucher   ID of the voucher token\r\n     */\r\n    function setDepositsReleased(uint256 _tokenIdVoucher)\r\n        external\r\n        override\r\n        onlyFromCashier\r\n    {\r\n        require(_tokenIdVoucher != 0, \"UNSPECIFIED_ID\"); //hex\"20\" FISSION.code(FISSION.Category.Find, FISSION.Status.NotFound_Unequal_OutOfRange)\r\n        vouchersStatus[_tokenIdVoucher].isDepositsReleased = true;\r\n\r\n        emit LogFundsReleased(_tokenIdVoucher, 1);\r\n    }\r\n\r\n    /**\r\n     * @notice Mark voucher token as expired\r\n     * @param _tokenIdVoucher   ID of the voucher token\r\n     */\r\n    function triggerExpiration(uint256 _tokenIdVoucher) external override {\r\n        require(_tokenIdVoucher != 0, \"UNSPECIFIED_ID\"); //hex\"20\" FISSION.code(FISSION.Category.Find, FISSION.Status.NotFound_Unequal_OutOfRange)\r\n\r\n        Promise memory tPromise =\r\n            promises[getPromiseIdFromVoucherId(_tokenIdVoucher)];\r\n\r\n        if (\r\n            tPromise.validTo < block.timestamp &&\r\n            isStateCommitted(vouchersStatus[_tokenIdVoucher].status)\r\n        ) {\r\n            vouchersStatus[_tokenIdVoucher].status = determineStatus(\r\n                vouchersStatus[_tokenIdVoucher].status,\r\n                IDX_EXPIRE\r\n            );\r\n\r\n            emit LogExpirationTriggered(_tokenIdVoucher, msg.sender);\r\n        }\r\n    }\r\n\r\n    /**\r\n     * @notice Mark voucher token to the final status\r\n     * @param _tokenIdVoucher   ID of the voucher token\r\n     */\r\n    function triggerFinalizeVoucher(uint256 _tokenIdVoucher) external override {\r\n        require(_tokenIdVoucher != 0, \"UNSPECIFIED_ID\"); //hex\"20\" FISSION.code(FISSION.Category.Find, FISSION.Status.NotFound_Unequal_OutOfRange)\r\n\r\n        uint8 tStatus = vouchersStatus[_tokenIdVoucher].status;\r\n\r\n        require(!isStatus(tStatus, IDX_FINAL), \"ALREADY_FINALIZED\"); //hex\"48\" FISSION.code(FISSION.Category.Availability, FISSION.Status.AlreadyDone)\r\n\r\n        bool mark;\r\n        Promise memory tPromise =\r\n            promises[getPromiseIdFromVoucherId(_tokenIdVoucher)];\r\n\r\n        if (isStatus(tStatus, IDX_COMPLAIN)) {\r\n            if (isStatus(tStatus, IDX_CANCEL_FAULT)) {\r\n                //if COMPLAIN && COF: then final\r\n                mark = true;\r\n            } else if (\r\n                block.timestamp >=\r\n                vouchersStatus[_tokenIdVoucher].cancelFaultPeriodStart +\r\n                    cancelFaultPeriod\r\n            ) {\r\n                //if COMPLAIN: then final after cof period\r\n                mark = true;\r\n            }\r\n        } else if (\r\n            isStatus(tStatus, IDX_CANCEL_FAULT) &&\r\n            block.timestamp >=\r\n            vouchersStatus[_tokenIdVoucher].complainPeriodStart + complainPeriod\r\n        ) {\r\n            //if COF: then final after complain period\r\n            mark = true;\r\n        } else if (\r\n            isStateRedemptionSigned(tStatus) || isStateRefunded(tStatus)\r\n        ) {\r\n            //if RDM/RFND NON_COMPLAIN: then final after complainPeriodStart + complainPeriod\r\n            if (\r\n                block.timestamp >=\r\n                vouchersStatus[_tokenIdVoucher].complainPeriodStart +\r\n                    complainPeriod\r\n            ) {\r\n                mark = true;\r\n            }\r\n        } else if (isStateExpired(tStatus)) {\r\n            //if EXP NON_COMPLAIN: then final after validTo + complainPeriod\r\n            if (block.timestamp >= tPromise.validTo + complainPeriod) {\r\n                mark = true;\r\n            }\r\n        }\r\n\r\n        if (mark) {\r\n            vouchersStatus[_tokenIdVoucher].status = determineStatus(\r\n                tStatus,\r\n                IDX_FINAL\r\n            );\r\n            emit LogFinalizeVoucher(_tokenIdVoucher, msg.sender);\r\n        }\r\n    }\r\n\r\n    /* solhint-enable */\r\n\r\n    // // // // // // // //\r\n    // UTILS\r\n    // // // // // // // //\r\n\r\n    /**\r\n     * @notice Set the address of the new holder of a _tokenIdSupply on transfer\r\n     * @param _tokenIdSupply   _tokenIdSupply which will be transferred\r\n     * @param _newSeller   new holder of the supply\r\n     */\r\n    function setSupplyHolderOnTransfer(\r\n        uint256 _tokenIdSupply,\r\n        address _newSeller\r\n    ) external override onlyFromCashier {\r\n        bytes32 promiseKey = ordersPromise[_tokenIdSupply];\r\n        promises[promiseKey].seller = _newSeller;\r\n    }\r\n\r\n    /**\r\n     * @notice Set the address of the Boson Router contract\r\n     * @param _bosonRouterAddress   The address of the BR contract\r\n     */\r\n    function setBosonRouterAddress(address _bosonRouterAddress)\r\n        external\r\n        onlyOwner\r\n    {\r\n        require(_bosonRouterAddress != address(0), \"UNSPECIFIED_ADDRESS\"); //hex\"20\" FISSION.code(FISSION.Category.Find, FISSION.Status.NotFound_Unequal_OutOfRange)\r\n\r\n        bosonRouterAddress = _bosonRouterAddress;\r\n\r\n        emit LogBosonRouterSet(_bosonRouterAddress, msg.sender);\r\n    }\r\n\r\n    /**\r\n     * @notice Set the address of the Cashier contract\r\n     * @param _cashierAddress   The address of the BR contract\r\n     */\r\n    function setCashierAddress(address _cashierAddress)\r\n        external\r\n        override\r\n        onlyOwner\r\n    {\r\n        require(_cashierAddress != address(0), \"UNSPECIFIED_ADDRESS\"); //hex\"20\" FISSION.code(FISSION.Category.Find, FISSION.Status.NotFound_Unequal_OutOfRange)\r\n\r\n        cashierAddress = _cashierAddress;\r\n\r\n        emit LogCashierSet(_cashierAddress, msg.sender);\r\n    }\r\n\r\n    /**\r\n     * @notice Set the general complain period, should be used sparingly as it has significant consequences. Here done simply for demo purposes.\r\n     * @param _complainPeriod   the new value for complain period (in number of seconds)\r\n     */\r\n    function setComplainPeriod(uint256 _complainPeriod)\r\n        external\r\n        override\r\n        onlyOwner\r\n    {\r\n        complainPeriod = _complainPeriod;\r\n\r\n        emit LogComplainPeriodChanged(_complainPeriod, msg.sender);\r\n    }\r\n\r\n    /**\r\n     * @notice Set the general cancelOrFault period, should be used sparingly as it has significant consequences. Here done simply for demo purposes.\r\n     * @param _cancelFaultPeriod   the new value for cancelOrFault period (in number of seconds)\r\n     */\r\n    function setCancelFaultPeriod(uint256 _cancelFaultPeriod)\r\n        external\r\n        override\r\n        onlyOwner\r\n    {\r\n        cancelFaultPeriod = _cancelFaultPeriod;\r\n\r\n        emit LogCancelFaultPeriodChanged(_cancelFaultPeriod, msg.sender);\r\n    }\r\n\r\n    // // // // // // // //\r\n    // GETTERS\r\n    // // // // // // // //\r\n\r\n    /**\r\n     * @notice Get the promise ID at specific index\r\n     * @param _idx  Index in the array of promise keys\r\n     * @return      Promise ID\r\n     */\r\n    function getPromiseKey(uint256 _idx)\r\n        public\r\n        view\r\n        override\r\n        returns (bytes32)\r\n    {\r\n        return promiseKeys[_idx];\r\n    }\r\n\r\n    /**\r\n     * @notice Get the supply token ID from a voucher token\r\n     * @param _tokenIdVoucher   ID of the voucher token\r\n     * @return                  ID of the supply token\r\n     */\r\n    function getIdSupplyFromVoucher(uint256 _tokenIdVoucher)\r\n        public\r\n        pure\r\n        override\r\n        returns (uint256)\r\n    {\r\n        return _tokenIdVoucher & MASK_TYPE;\r\n    }\r\n\r\n    /**\r\n     * @notice Get the promise ID from a voucher token\r\n     * @param _tokenIdVoucher   ID of the voucher token\r\n     * @return                  ID of the promise\r\n     */\r\n    function getPromiseIdFromVoucherId(uint256 _tokenIdVoucher)\r\n        public\r\n        view\r\n        override\r\n        returns (bytes32)\r\n    {\r\n        require(_tokenIdVoucher != 0, \"UNSPECIFIED_ID\"); //hex\"20\" FISSION.code(FISSION.Category.Find, FISSION.Status.NotFound_Unequal_OutOfRange)\r\n\r\n        uint256 tokenIdSupply = getIdSupplyFromVoucher(_tokenIdVoucher);\r\n        return promises[ordersPromise[tokenIdSupply]].promiseId;\r\n    }\r\n\r\n    /**\r\n     * @notice Get the remaining quantity left in supply of tokens (e.g ERC-721 left in ERC-1155) of an account\r\n     * @param _tokenSupplyId  Token supply ID\r\n     * @param _owner    holder of the Token Supply\r\n     * @return          remaining quantity\r\n     */\r\n    function getRemQtyForSupply(uint256 _tokenSupplyId, address _owner)\r\n        public\r\n        view\r\n        override\r\n        returns (uint256)\r\n    {\r\n        return IERC1155(tokensContract).balanceOf(_owner, _tokenSupplyId);\r\n    }\r\n\r\n    /**\r\n     * @notice Get all necessary funds for a supply token\r\n     * @param _tokenIdSupply   ID of the supply token\r\n     * @return                  returns a tuple (Payment amount, Seller's deposit, Buyer's deposit)\r\n     */\r\n    function getOrderCosts(uint256 _tokenIdSupply)\r\n        public\r\n        view\r\n        override\r\n        returns (\r\n            uint256,\r\n            uint256,\r\n            uint256\r\n        )\r\n    {\r\n        bytes32 promiseKey = ordersPromise[_tokenIdSupply];\r\n        return (\r\n            promises[promiseKey].price,\r\n            promises[promiseKey].depositSe,\r\n            promises[promiseKey].depositBu\r\n        );\r\n    }\r\n\r\n    /**\r\n     * @notice Get Buyer costs required to make an order for a supply token\r\n     * @param _tokenIdSupply   ID of the supply token\r\n     * @return                  returns a tuple (Payment amount, Buyer's deposit)\r\n     */\r\n    function getBuyerOrderCosts(uint256 _tokenIdSupply)\r\n        public\r\n        view\r\n        override\r\n        returns (uint256, uint256)\r\n    {\r\n        bytes32 promiseKey = ordersPromise[_tokenIdSupply];\r\n        return (promises[promiseKey].price, promises[promiseKey].depositBu);\r\n    }\r\n\r\n    /**\r\n     * @notice Get Seller deposit\r\n     * @param _tokenIdSupply   ID of the supply token\r\n     * @return                  returns sellers deposit\r\n     */\r\n    function getSellerDeposit(uint256 _tokenIdSupply)\r\n        public\r\n        view\r\n        override\r\n        returns (uint256)\r\n    {\r\n        bytes32 promiseKey = ordersPromise[_tokenIdSupply];\r\n        return promises[promiseKey].depositSe;\r\n    }\r\n\r\n    /**\r\n     * @notice Get the holder of a supply\r\n     * @param _tokenIdSupply ID of the order (aka VoucherSet) which is mapped to the corresponding Promise.\r\n     * @return                  Address of the holder\r\n     */\r\n    function getSupplyHolder(uint256 _tokenIdSupply)\r\n        public\r\n        view\r\n        override\r\n        returns (address)\r\n    {\r\n        bytes32 promiseKey = ordersPromise[_tokenIdSupply];\r\n        return promises[promiseKey].seller;\r\n    }\r\n\r\n    /**\r\n     * @notice Get promise data not retrieved by other accessor functions\r\n     * @param _promiseKey   ID of the promise\r\n     * @return promise data not returned by other accessor methods\r\n     */\r\n    function getPromiseData(bytes32 _promiseKey)\r\n        external\r\n        view\r\n        override\r\n        returns (bytes32, uint256, uint256, uint256, uint256 )\r\n    {\r\n        Promise memory tPromise = promises[_promiseKey];\r\n        return (tPromise.promiseId, tPromise.nonce, tPromise.validFrom, tPromise.validTo, tPromise.idx); \r\n    }\r\n\r\n    /**\r\n     * @notice Get the current status of a voucher\r\n     * @param _tokenIdVoucher   ID of the voucher token\r\n     * @return                  Status of the voucher (via enum)\r\n     */\r\n    function getVoucherStatus(uint256 _tokenIdVoucher)\r\n        public\r\n        view\r\n        override\r\n        returns (\r\n            uint8,\r\n            bool,\r\n            bool,\r\n            uint256,\r\n            uint256\r\n        )\r\n    {\r\n        return (\r\n            vouchersStatus[_tokenIdVoucher].status,\r\n            vouchersStatus[_tokenIdVoucher].isPaymentReleased,\r\n            vouchersStatus[_tokenIdVoucher].isDepositsReleased,\r\n            vouchersStatus[_tokenIdVoucher].complainPeriodStart,\r\n            vouchersStatus[_tokenIdVoucher].cancelFaultPeriodStart\r\n        );\r\n    }\r\n\r\n    /**\r\n     * @notice Get the holder of a voucher\r\n     * @param _tokenIdVoucher   ID of the voucher token\r\n     * @return                  Address of the holder\r\n     */\r\n    function getVoucherHolder(uint256 _tokenIdVoucher)\r\n        public\r\n        view\r\n        override\r\n        returns (address)\r\n    {\r\n        return IERC721(tokensContract).ownerOf(_tokenIdVoucher);\r\n    }\r\n\r\n    /**\r\n     * @notice Get the address of the token where the price for the supply is held\r\n     * @param _tokenIdSupply   ID of the voucher supply token\r\n     * @return                  Address of the token\r\n     */\r\n    function getVoucherPriceToken(uint256 _tokenIdSupply)\r\n        public\r\n        view\r\n        override\r\n        returns (address)\r\n    {\r\n        return paymentDetails[_tokenIdSupply].addressTokenPrice;\r\n    }\r\n\r\n    /**\r\n     * @notice Get the address of the token where the deposits for the supply are held\r\n     * @param _tokenIdSupply   ID of the voucher supply token\r\n     * @return                  Address of the token\r\n     */\r\n    function getVoucherDepositToken(uint256 _tokenIdSupply)\r\n        public\r\n        view\r\n        override\r\n        returns (address)\r\n    {\r\n        return paymentDetails[_tokenIdSupply].addressTokenDeposits;\r\n    }\r\n\r\n    /**\r\n     * @notice Get the payment method for a particular _tokenIdSupply\r\n     * @param _tokenIdSupply   ID of the voucher supply token\r\n     * @return                  payment method\r\n     */\r\n    function getVoucherPaymentMethod(uint256 _tokenIdSupply)\r\n        public\r\n        view\r\n        override\r\n        returns (uint8)\r\n    {\r\n        return paymentDetails[_tokenIdSupply].paymentMethod;\r\n    }\r\n\r\n    /**\r\n     * @notice Checks whether a voucher is in valid period for redemption (between start date and end date)\r\n     * @param _tokenIdVoucher ID of the voucher token\r\n     */\r\n    function isInValidityPeriod(uint256 _tokenIdVoucher)\r\n        public\r\n        view\r\n        override\r\n        returns (bool)\r\n    {\r\n        //check validity period\r\n        Promise memory tPromise =\r\n            promises[getPromiseIdFromVoucherId(_tokenIdVoucher)];\r\n        require(tPromise.validFrom <= block.timestamp, \"INVALID_VALIDITY_FROM\"); //hex\"26\" FISSION.code(FISSION.Category.Find, FISSION.Status.Above_Range_Overflow)\r\n        require(tPromise.validTo >= block.timestamp, \"INVALID_VALIDITY_TO\"); //hex\"24\" FISSION.code(FISSION.Category.Find, FISSION.Status.BelowRange_Underflow)\r\n\r\n        return true;\r\n    }\r\n\r\n    /**\r\n     * @notice Checks whether a voucher is in valid state to be transferred. If either payments or deposits are released, voucher could not be transferred\r\n     * @param _tokenIdVoucher ID of the voucher token\r\n     */\r\n    function isVoucherTransferable(uint256 _tokenIdVoucher)\r\n        public\r\n        view\r\n        override\r\n        returns (bool)\r\n    {\r\n        return\r\n            !(vouchersStatus[_tokenIdVoucher].isPaymentReleased ||\r\n                vouchersStatus[_tokenIdVoucher].isDepositsReleased);\r\n    }\r\n\r\n    /**\r\n     * @notice Get address of the Boson Router to which this contract points\r\n     * @return Address of the Boson Router contract\r\n     */\r\n    function getBosonRouterAddress()\r\n        external\r\n        view\r\n        override\r\n        returns (address) \r\n    {\r\n        return bosonRouterAddress;\r\n    }\r\n\r\n    /**\r\n     * @notice Get address of the Cashier contract to which this contract points\r\n     * @return Address of the Cashier contract\r\n     */\r\n    function getCashierAddress()\r\n        external\r\n        view\r\n        override\r\n        returns (address)\r\n    {\r\n        return cashierAddress;\r\n    }\r\n\r\n    /**\r\n     * @notice Get the token nonce for a seller\r\n     * @param _seller Address of the seller\r\n     * @return The seller's nonce\r\n     */\r\n    function getTokenNonce(address _seller)\r\n        external\r\n        view\r\n        override\r\n        returns (uint256) \r\n    {\r\n        return tokenNonces[_seller];\r\n    }\r\n\r\n    /**\r\n     * @notice Get the current type Id\r\n     * @return type Id\r\n     */\r\n    function getTypeId()\r\n        external\r\n        view\r\n        override\r\n        returns (uint256)\r\n    {\r\n        return typeId;\r\n    }\r\n\r\n    /**\r\n     * @notice Get the complain period\r\n     * @return complain period\r\n     */\r\n    function getComplainPeriod()\r\n        external\r\n        view\r\n        override\r\n        returns (uint256)\r\n    {\r\n        return complainPeriod;\r\n    }\r\n\r\n    /**\r\n     * @notice Get the cancel or fault period\r\n     * @return cancel or fault period\r\n     */\r\n    function getCancelFaultPeriod()\r\n        external\r\n        view\r\n        override\r\n        returns (uint256)\r\n    {\r\n        return cancelFaultPeriod;\r\n    }\r\n    \r\n     /**\r\n     * @notice Get the promise ID from a voucher set\r\n     * @param _tokenIdSupply   ID of the voucher token\r\n     * @return                  ID of the promise\r\n     */\r\n    function getPromiseIdFromSupplyId(uint256 _tokenIdSupply)\r\n        external\r\n        view\r\n        override\r\n        returns (bytes32) \r\n    {\r\n        return ordersPromise[_tokenIdSupply];\r\n    }\r\n\r\n    /**\r\n     * @notice Get the address of ERC1155ERC721 contract\r\n     * @return Address of ERC1155ERC721 contract\r\n     */\r\n    function getTokensContractAddress() \r\n        external \r\n        view \r\n        override\r\n        returns (address)\r\n    {\r\n        return tokensContract;\r\n    }\r\n}\r\n",
  "sourcePath": "E:/Ludo/Documents/Developpement/BOSON/contracts/contracts/VoucherKernel.sol",
  "compiler": {
    "name": "solc",
    "version": "0.7.1+commit.f4a555be.Emscripten.clang"
  },
  "schemaVersion": "3.0.22",
  "updatedAt": "2021-07-07T10:31:40.059Z",
  "networkType": "ethereum",
  "devdoc": {
    "details": "Notes:  - Since this is a reference app, it is not yet optimized.      In the next phase, the bulk raw data will be packed into a single bytes32 field and/or pushed off-chain.  - The usage of block.timestamp is honored since vouchers are defined currently with day-precision.      See: https://ethereum.stackexchange.com/questions/5924/how-do-ethereum-mining-nodes-maintain-a-time-consistent-with-the-network/5931#5931",
    "kind": "dev",
    "methods": {
      "burnSupplyOnPause(address,uint256,uint256)": {
        "details": "Token ID is derived following the same principles for both ERC-1155 and ERC-721",
        "params": {
          "_issuer": "The address of the token issuer",
          "_qty": "qty that should be burned",
          "_tokenIdSupply": "ID of the token type"
        }
      },
      "cancelOrFault(uint256,address)": {
        "params": {
          "_tokenIdVoucher": "ID of the voucher"
        }
      },
      "cancelOrFaultVoucherSet(uint256,address)": {
        "params": {
          "_issuer": "owner of the voucher",
          "_tokenIdSupply": "ID of the voucher set"
        }
      },
      "complain(uint256,address)": {
        "params": {
          "_msgSender": "account called the fn from the BR contract",
          "_tokenIdVoucher": "ID of the voucher"
        }
      },
      "createPaymentMethod(uint256,uint8,address,address)": {
        "params": {
          "_paymentMethod": "might be ETHETH, ETHTKN, TKNETH or TKNTKN",
          "_tokenDeposits": "token address which will hold the funds for the deposits of the voucher",
          "_tokenIdSupply": "_tokenIdSupply of the voucher set this is related to",
          "_tokenPrice": "token address which will hold the funds for the price of the voucher"
        }
      },
      "createTokenSupplyID(address,uint256,uint256,uint256,uint256,uint256,uint256)": {
        "params": {
          "_depositBu": "Buyer's deposit",
          "_depositSe": "Seller's deposit",
          "_price": "Price (payment amount)",
          "_seller": "seller of the promise",
          "_validFrom": "Start of valid period",
          "_validTo": "End of valid period"
        }
      },
      "fillOrder(uint256,address,address,uint8,uint256)": {
        "params": {
          "_correlationId": "ID of the current interaction with the smart contract for a specific user",
          "_holder": "Address of the recipient of the voucher (ERC-721)",
          "_issuer": "Address of the token's issuer",
          "_paymentMethod": "method being used for that particular order that needs to be fulfilled",
          "_tokenIdSupply": "ID of the supply token (ERC-1155)"
        }
      },
      "getBosonRouterAddress()": {
        "returns": {
          "_0": "Address of the Boson Router contract"
        }
      },
      "getBuyerOrderCosts(uint256)": {
        "params": {
          "_tokenIdSupply": "ID of the supply token"
        },
        "returns": {
          "_0": "returns a tuple (Payment amount, Buyer's deposit)"
        }
      },
      "getCancelFaultPeriod()": {
        "returns": {
          "_0": "cancel or fault period"
        }
      },
      "getCashierAddress()": {
        "returns": {
          "_0": "Address of the Cashier contract"
        }
      },
      "getComplainPeriod()": {
        "returns": {
          "_0": "complain period"
        }
      },
      "getIdSupplyFromVoucher(uint256)": {
        "params": {
          "_tokenIdVoucher": "ID of the voucher token"
        },
        "returns": {
          "_0": "ID of the supply token"
        }
      },
      "getOrderCosts(uint256)": {
        "params": {
          "_tokenIdSupply": "ID of the supply token"
        },
        "returns": {
          "_0": "returns a tuple (Payment amount, Seller's deposit, Buyer's deposit)"
        }
      },
      "getPromiseData(bytes32)": {
        "params": {
          "_promiseKey": "ID of the promise"
        },
        "returns": {
          "_0": "promise data not returned by other accessor methods"
        }
      },
      "getPromiseIdFromSupplyId(uint256)": {
        "params": {
          "_tokenIdSupply": "ID of the voucher token"
        },
        "returns": {
          "_0": "ID of the promise"
        }
      },
      "getPromiseIdFromVoucherId(uint256)": {
        "params": {
          "_tokenIdVoucher": "ID of the voucher token"
        },
        "returns": {
          "_0": "ID of the promise"
        }
      },
      "getPromiseKey(uint256)": {
        "params": {
          "_idx": "Index in the array of promise keys"
        },
        "returns": {
          "_0": "Promise ID"
        }
      },
      "getRemQtyForSupply(uint256,address)": {
        "params": {
          "_owner": "holder of the Token Supply",
          "_tokenSupplyId": "Token supply ID"
        },
        "returns": {
          "_0": "remaining quantity"
        }
      },
      "getSellerDeposit(uint256)": {
        "params": {
          "_tokenIdSupply": "ID of the supply token"
        },
        "returns": {
          "_0": "returns sellers deposit"
        }
      },
      "getSupplyHolder(uint256)": {
        "params": {
          "_tokenIdSupply": "ID of the order (aka VoucherSet) which is mapped to the corresponding Promise."
        },
        "returns": {
          "_0": "Address of the holder"
        }
      },
      "getTokenNonce(address)": {
        "params": {
          "_seller": "Address of the seller"
        },
        "returns": {
          "_0": "The seller's nonce"
        }
      },
      "getTokensContractAddress()": {
        "returns": {
          "_0": "Address of ERC1155ERC721 contract"
        }
      },
      "getTypeId()": {
        "returns": {
          "_0": "type Id"
        }
      },
      "getVoucherDepositToken(uint256)": {
        "params": {
          "_tokenIdSupply": "ID of the voucher supply token"
        },
        "returns": {
          "_0": "Address of the token"
        }
      },
      "getVoucherHolder(uint256)": {
        "params": {
          "_tokenIdVoucher": "ID of the voucher token"
        },
        "returns": {
          "_0": "Address of the holder"
        }
      },
      "getVoucherPaymentMethod(uint256)": {
        "params": {
          "_tokenIdSupply": "ID of the voucher supply token"
        },
        "returns": {
          "_0": "payment method"
        }
      },
      "getVoucherPriceToken(uint256)": {
        "params": {
          "_tokenIdSupply": "ID of the voucher supply token"
        },
        "returns": {
          "_0": "Address of the token"
        }
      },
      "getVoucherStatus(uint256)": {
        "params": {
          "_tokenIdVoucher": "ID of the voucher token"
        },
        "returns": {
          "_0": "Status of the voucher (via enum)"
        }
      },
      "isInValidityPeriod(uint256)": {
        "params": {
          "_tokenIdVoucher": "ID of the voucher token"
        }
      },
      "isVoucherTransferable(uint256)": {
        "params": {
          "_tokenIdVoucher": "ID of the voucher token"
        }
      },
      "owner()": {
        "details": "Returns the address of the current owner."
      },
      "paused()": {
        "details": "Returns true if the contract is paused, and false otherwise."
      },
      "redeem(uint256,address)": {
        "params": {
          "_msgSender": "account called the fn from the BR contract",
          "_tokenIdVoucher": "ID of the voucher"
        }
      },
      "refund(uint256,address)": {
        "params": {
          "_msgSender": "account called the fn from the BR contract",
          "_tokenIdVoucher": "ID of the voucher"
        }
      },
      "renounceOwnership()": {
        "details": "Leaves the contract without owner. It will not be possible to call `onlyOwner` functions anymore. Can only be called by the current owner. NOTE: Renouncing ownership will leave the contract without an owner, thereby removing any functionality that is only available to the owner."
      },
      "setBosonRouterAddress(address)": {
        "params": {
          "_bosonRouterAddress": "The address of the BR contract"
        }
      },
      "setCancelFaultPeriod(uint256)": {
        "params": {
          "_cancelFaultPeriod": "the new value for cancelOrFault period (in number of seconds)"
        }
      },
      "setCashierAddress(address)": {
        "params": {
          "_cashierAddress": "The address of the BR contract"
        }
      },
      "setComplainPeriod(uint256)": {
        "params": {
          "_complainPeriod": "the new value for complain period (in number of seconds)"
        }
      },
      "setDepositsReleased(uint256)": {
        "params": {
          "_tokenIdVoucher": "ID of the voucher token"
        }
      },
      "setPaymentReleased(uint256)": {
        "params": {
          "_tokenIdVoucher": "ID of the voucher token"
        }
      },
      "setSupplyHolderOnTransfer(uint256,address)": {
        "params": {
          "_newSeller": "new holder of the supply",
          "_tokenIdSupply": "_tokenIdSupply which will be transferred"
        }
      },
      "transferOwnership(address)": {
        "details": "Transfers ownership of the contract to a new account (`newOwner`). Can only be called by the current owner."
      },
      "triggerExpiration(uint256)": {
        "params": {
          "_tokenIdVoucher": "ID of the voucher token"
        }
      },
      "triggerFinalizeVoucher(uint256)": {
        "params": {
          "_tokenIdVoucher": "ID of the voucher token"
        }
      }
    },
    "title": "VoucherKernel contract is controlling the core business logic",
    "version": 1
  },
  "userdoc": {
    "kind": "user",
    "methods": {
      "burnSupplyOnPause(address,uint256,uint256)": {
        "notice": "Extract a standard non-fungible tokens ERC-721 from a supply stored in ERC-1155"
      },
      "cancelOrFault(uint256,address)": {
        "notice": "Cancel/Fault transaction by the Seller, admitting to a fault or backing out of the deal"
      },
      "cancelOrFaultVoucherSet(uint256,address)": {
        "notice": "Cancel/Fault transaction by the Seller, cancelling the remaining uncommitted voucher set so that seller prevents buyers from committing to vouchers for items no longer in exchange."
      },
      "complain(uint256,address)": {
        "notice": "Issue a complain for a voucher"
      },
      "createPaymentMethod(uint256,uint8,address,address)": {
        "notice": "Creates a Payment method struct recording the details on how the seller requires to receive Price and Deposits for a certain Voucher Set."
      },
      "createTokenSupplyID(address,uint256,uint256,uint256,uint256,uint256,uint256)": {
        "notice": "Creating a new promise for goods or services. Can be reused, e.g. for making different batches of these (in the future)."
      },
      "fillOrder(uint256,address,address,uint8,uint256)": {
        "notice": "Fill Voucher Order, iff funds paid, then extract & mint NFT to the voucher holder"
      },
      "getBosonRouterAddress()": {
        "notice": "Get address of the Boson Router to which this contract points"
      },
      "getBuyerOrderCosts(uint256)": {
        "notice": "Get Buyer costs required to make an order for a supply token"
      },
      "getCancelFaultPeriod()": {
        "notice": "Get the cancel or fault period"
      },
      "getCashierAddress()": {
        "notice": "Get address of the Cashier contract to which this contract points"
      },
      "getComplainPeriod()": {
        "notice": "Get the complain period"
      },
      "getIdSupplyFromVoucher(uint256)": {
        "notice": "Get the supply token ID from a voucher token"
      },
      "getOrderCosts(uint256)": {
        "notice": "Get all necessary funds for a supply token"
      },
      "getPromiseData(bytes32)": {
        "notice": "Get promise data not retrieved by other accessor functions"
      },
      "getPromiseIdFromSupplyId(uint256)": {
        "notice": "Get the promise ID from a voucher set"
      },
      "getPromiseIdFromVoucherId(uint256)": {
        "notice": "Get the promise ID from a voucher token"
      },
      "getPromiseKey(uint256)": {
        "notice": "Get the promise ID at specific index"
      },
      "getRemQtyForSupply(uint256,address)": {
        "notice": "Get the remaining quantity left in supply of tokens (e.g ERC-721 left in ERC-1155) of an account"
      },
      "getSellerDeposit(uint256)": {
        "notice": "Get Seller deposit"
      },
      "getSupplyHolder(uint256)": {
        "notice": "Get the holder of a supply"
      },
      "getTokenNonce(address)": {
        "notice": "Get the token nonce for a seller"
      },
      "getTokensContractAddress()": {
        "notice": "Get the address of ERC1155ERC721 contract"
      },
      "getTypeId()": {
        "notice": "Get the current type Id"
      },
      "getVoucherDepositToken(uint256)": {
        "notice": "Get the address of the token where the deposits for the supply are held"
      },
      "getVoucherHolder(uint256)": {
        "notice": "Get the holder of a voucher"
      },
      "getVoucherPaymentMethod(uint256)": {
        "notice": "Get the payment method for a particular _tokenIdSupply"
      },
      "getVoucherPriceToken(uint256)": {
        "notice": "Get the address of the token where the price for the supply is held"
      },
      "getVoucherStatus(uint256)": {
        "notice": "Get the current status of a voucher"
      },
      "isInValidityPeriod(uint256)": {
        "notice": "Checks whether a voucher is in valid period for redemption (between start date and end date)"
      },
      "isVoucherTransferable(uint256)": {
        "notice": "Checks whether a voucher is in valid state to be transferred. If either payments or deposits are released, voucher could not be transferred"
      },
      "pause()": {
        "notice": "Pause the process of interaction with voucherID's (ERC-721), in case of emergency. Only BR contract is in control of this function."
      },
      "redeem(uint256,address)": {
        "notice": "Redemption of the vouchers promise"
      },
      "refund(uint256,address)": {
        "notice": "Refunding a voucher"
      },
      "setBosonRouterAddress(address)": {
        "notice": "Set the address of the Boson Router contract"
      },
      "setCancelFaultPeriod(uint256)": {
        "notice": "Set the general cancelOrFault period, should be used sparingly as it has significant consequences. Here done simply for demo purposes."
      },
      "setCashierAddress(address)": {
        "notice": "Set the address of the Cashier contract"
      },
      "setComplainPeriod(uint256)": {
        "notice": "Set the general complain period, should be used sparingly as it has significant consequences. Here done simply for demo purposes."
      },
      "setDepositsReleased(uint256)": {
        "notice": "Mark voucher token that the deposits were released"
      },
      "setPaymentReleased(uint256)": {
        "notice": "Mark voucher token that the payment was released"
      },
      "setSupplyHolderOnTransfer(uint256,address)": {
        "notice": "Set the address of the new holder of a _tokenIdSupply on transfer"
      },
      "triggerExpiration(uint256)": {
        "notice": "Mark voucher token as expired"
      },
      "triggerFinalizeVoucher(uint256)": {
        "notice": "Mark voucher token to the final status"
      },
      "unpause()": {
        "notice": "Unpause the process of interaction with voucherID's (ERC-721). Only BR contract is in control of this function."
      }
    },
    "version": 1
  }
}